:100000000C9469020C9486020C94A1020C94860252
:100010000C9486020C9486020C9486290C94860219
:100020000C9486020C9486020C9486020C94860230
:100030000C9486020C9486020C9462290C9486021D
:100040000C9486020C9486020C9486020C94860210
:100050000C9486020C9486020C9486020C94860200
:100060000C9486020C948602000000000000000040
:100070000000000000000000000000000000000080
:100080000000000000000000000000007E0F00D40F
:10009000FFFFFFC700000078000000000000000024
:1000A0002A2B2800000000000000000000000000D3
:1000B00000000029000000002C1E342021222434DE
:1000C0002627252E362D3738271E1F2021222324B0
:1000D00025263333362E37381F0405060708090A4C
:1000E0000B0C0D0E0F101112131415161718191AE8
:1000F0001B1C1D2F3130232D350405060708090A66
:100100000B0C0D0E0F101112131415161718191AC7
:100110001B1C1D2F3130354CFD377A585A00000416
:10012000E6D6B4460200210116000000742FE5A3B4
:10013000E0011500975D003D8889C65436C3174F0E
:10014000E4DD5EF4D91FAB376B9DF8E65EBE75EF5C
:10015000E672CAEE1E0686EF5E5F8E9211471E3073
:10016000382D4D85DDB13F85DDE404A1230E4F41DF
:10017000553F0ED0ACE34AA162355782335E52E35D
:10018000C30497836A86A9949389ADE76CAB52D870
:10019000714622B4BF5D62CCD071566B53AC817E88
:1001A0000B41F73B2171EAD68C6E72FB13663F0B55
:1001B00091A3961F234F6F21ED65C14083DD34B1BC
:1001C000660D1CA4BCDD9E77E99E22A4D0350000FC
:1001D0006109046A1BF548B70001B30196020000EB
:1001E000A0F6C4F9B1C467FB020000000004595A2C
:1001F00053005400550056005F006000610000008D
:100200005C005D005E00570059005A005B00000072
:1002100062000000630058000100010001000100BD
:1002200001000100010000000100010001000100C7
:1002300001000100010000000100000001000100B8
:1002400001000100010001000100010001000000A7
:100250000100010001000100010001000100000097
:100260000100000001000100010001000100010087
:100270000100010001000000010001000100010077
:100280000100010001000000010000000100010068
:1002900001000100F803000002000200F403000066
:1002A00003000100F903000004000200DE03B805AA
:1002B00005000100FA03000006000200E003000050
:1002C00007000200F603000008000100FB03000025
:1002D00009000200E20393050A000200E40393050B
:1002E0000B000200E60393050C000200E8039305EF
:1002F0000D000200EA0393050E000200EC039305D3
:100300000F000200EE03930510000200F0039305B6
:1003100011000200F203930512000200FC0300002A
:1003200013000200FE03000014000100000400009E
:1003300005010902A10185020901A10005091901B0
:10034000290815002501950875018102050109306C
:1003500009311581257F95027508810609381581B7
:10036000257F950175088106050C0A38021581253F
:100370007F950175088106C0C005010980A101852E
:100380000319012AB700150126B7009501751081E0
:1003900000C0050C0901A101850419012AA002155C
:1003A0000126A002950175108100C00660FF096159
:1003B000A1010962150026FF009520750881020938
:1003C00063150026FF00952075089102C0050109FC
:1003D00006A101050719E029E71500250195087513
:1003E0000181029501750881030507190029FF1590
:1003F0000026FF00950675088100050819012905EA
:10040000950575019102950175039103C01C037652
:1004100000690061006C003A006600360034006339
:100420000032006200330063000000120344004900
:1004300000530043004900500041004400000020E8
:100440000363006F00730065007900660061006E51
:10045000006E00690074007500740074006900008B
:10046000000403090409025B00030100A03209042F
:1004700000000103010100092101010001224000E7
:1004800007058103080001090401000203000000C0
:10049000092101010001222200070584030800014F
:1004A000070504030800010904020001030000001D
:1004B000092101010001227B0007058303080001D7
:1004C0001201100100000008626B691701000102AF
:1004D000030111241FBECFEFD8E0DEBFCDBF25E062
:1004E000A2E7B1E001C01D92AC3CB207E1F711E018
:1004F000A0E0B1E0E2EFF3E602C005900D92A23772
:10050000B107D9F70E94AD290C94D6310C940000A4
:10051000A82FB92F80E090E041E050EA609530E0EC
:1005200009C02D9182279795879510F084279527EC
:10053000305EC8F36F5FA8F30895EADF8D939D9353
:100540000895CF93CFB7CF93DF93C3954B9BE9F734
:100550004B9B10C04B9B0EC04B9B0CC04B9B0AC0CF
:100560004B9B08C04B9B06C0C091A605C395C0938A
:10057000A6058EC06F93C091A505DD27C655DA4F3D
:100580002F9365E54B9B03C02F916F91E1CF0F93A4
:100590001F934F9320E040E15F9309B10C7003FB80
:1005A00027F93F9350E03BE039C01C7040642F773F
:1005B000012F5F5F1EC0406819B11C702F77525029
:1005C0001FC0406409B12F770C70D1F15F5F00C08C
:1005D00023C0406219B12F771C7091F15F5F00C09A
:1005E00025C00C701027515012F45D5F00001150AF
:1005F00027952C3F19B1C8F61C700127015027958B
:100600002C3FC8F64227499309B10C7010274F734D
:10061000115027952C3FA8F64695469519B11C70A8
:1006200079F00127015027952C3F98F66B5A60F31B
:10063000315009B1B0F600C012E01CBB00271CC04D
:100640003B503195C31BD04012E01CBB0881033CDA
:1006500021F10B3411F12091A3051981110F12130F
:10066000EDCF4A81441F093679F10D3211F0013E78
:1006700029F74F7009F0042F0093A9053F915F916E
:100680004F911F910F912F916F91CCB3C1FD5DCF11
:10069000DF91CF91CFBFCF9118952091A90522234B
:1006A00069F31091A705112309F049C034300AF409
:1006B00048C03093A7052093A4051091A5053BE001
:1006C000311B3093A5053DC00091A7050130BCF555
:1006D0000AE54F7049F430911E0134FD33C0009398
:1006E0001E01C0E8D5E032C0433059F0443091F0EB
:1006F00030918B0534FD26C000938B05CCE8D5E006
:1007000025C03091C00534FD1DC00093C005C1EC6B
:10071000D5E01CC03091970534FD14C000939705B7
:10072000C8E9D5E013C0052710E000C000000BB9F0
:100730001AC0052710E0221F1DC010E021C04AE5A5
:1007400002C032ED432FC4E1D0E032E01AB11C60A8
:100750005B9A0BB11AB95CE020E865E320FF05273E
:100760000BB9279517951C3FF0F66695B8F7B1F7CA
:1007700020FF05270BB9279517951C3FD0F6279525
:10078000179517FF052700001C3F0BB9B0F62991FC
:100790003A9519F7037F1091A805110FC651D04063
:1007A0000BB911F01093A30512E01CBB08601AB13D
:1007B000137F402F437F54E05A95F1F70BB91AB9D4
:1007C0004BB95CCFFC018381833089F130F48130F7
:1007D000F1F0823021F180E00895813209F44BC0BC
:1007E0008232C9F7248135812130310509F461C095
:1007F0002115310509F455C02230310561F780E338
:1008000093E090937C0580937B058BE7089580ECC3
:1008100094E090937C0580937B0582E1089585E6C2
:1008200094E090937C0580937B058BE5089582810D
:100830008130B1F0882361F08230D1F0833059F6F5
:100840008DE094E090937C0580937B058CE1089586
:1008500081E694E090937C0580937B0584E0089585
:100860008FE394E090937C0580937B0580E208956C
:100870008BE294E0CECF8281813081F0882331F009
:10088000823009F0A8CF80EB94E002C087E794E0C3
:1008900090937C0580937B0589E0089580E994E03E
:1008A000F7CF8DEC93E090937C0580937B0580E4FB
:1008B00008952BEA33E030937C0520937B0508955F
:1008C000089580917605089588E198E00FB6F89430
:1008D000A895809360000FBE90936000A895F8944F
:1008E000D8E0CEEF28E3299320E0299314BEFFCF70
:1008F00008959C014FB7F8948091BF049091C00473
:10090000A091C104B091C2044FBF821B930B089504
:100910002FB7F8946091BF047091C0048091C10416
:100920009091C2042FBF08952FB7F8948091BF040F
:100930009091C004A091C104B091C2042FBF08954A
:100940002091BB043091BC042817390771F09093B3
:10095000BC048093BB04E091B904F091BA043097D1
:1009600021F00084F185E02D099408952091B704C9
:100970003091B8042817390771F09093B804809328
:10098000B704E091B904F091BA04309721F00680E1
:10099000F781E02D09940895E091B904F091BA042B
:1009A000309721F00190F081E02D099480E00895C6
:1009B000CF93DF93EC014091D3035091D403609126
:1009C000D5037091D6032FB7F8948091BF0490910E
:1009D000C004A091C104B091C2042FBF841B950B29
:1009E000A60BB70B843F9140A105B10518F5809186
:1009F000D3039091D403A091D503B091D6038093F3
:100A0000CF039093D003A093D103B093D20384EF8C
:100A100091E0A0E0B0E08093CB039093CC03A0934F
:100A2000CD03B093CE03D093DB03C093DA03DF9101
:100A3000CF9108950E9488046093CF037093D003F0
:100A40008093D1039093D20382E390E0A0E0B0E0E2
:100A5000E2CFFC018481862351F492819923B9F07D
:100A60006923808583FF05C081E061110FC080E0AC
:100A70000895892F8F7092959F70982B862F8F7075
:100A800062956F70682B81E09613F1CF089581E035
:100A9000FDCF452B39F0682381E06F3F09F080E0FE
:100AA0008170089581E0FCCFDC016091C7038091E3
:100AB000C803962F891301C00895292F30E0F9014A
:100AC000EE0FFF1FE154FC4F408151814A175B0735
:100AD000A1F487E08A9FA0018B9F500D11244957F4
:100AE0005C4F81E0FA0184839613E6CF2F5F3F4F7E
:100AF000237033272093C70308952F5F3F4F922F12
:100B00009370D8CF1092240310922303E7E8F3E008
:100B10008581811102C014821682379683E0EF3BF3
:100B2000F807B1F70895EEEDF3E0848195812AE0AE
:100B300030E0B9010E9421316093180186818093D1
:100B4000170182858093160184858093150186851F
:100B50009785B9010E9421316093140180898093A7
:100B60001301828980931201848980931101089571
:100B70008091DE039091DF0390931A018093190115
:100B800008950E9494049C019091090280910A02A8
:100B9000982B21F0309306022093050290910B02CE
:100BA00080910C02982B21F03093040220930302D1
:100BB000E091B904F091BA04309749F082E0809353
:100BC00007020480F581E02D87E092E00994089502
:100BD00090910902803F59F480910A0287FF0DC06D
:100BE00010920A0291110BC01092010208C0813FBD
:100BF00081F480910A0218169CF3992381F0809168
:100C00000B0290910C02892B09F064C01092000233
:100C10000895823F49F497FFF0CF10920902809126
:100C20000A028111ECCFE0CF833F19F41916ACF31F
:100C3000E4CF20910B02893F29F41216F4F61092AA
:100C40000B02DBCF8A3F19F427FFD7CFF8CF2091D3
:100C50000C028B3F29F427FFD0CF10920C02CDCF8E
:100C60008C3F19F41216CCF3C8CF843F31F4809135
:100C700008028E7F80930802C0CF853F21F48091C7
:100C800008028D7FF7CF863F21F4809108028B7F89
:100C9000F1CF873F21F480910802877FEBCF883F17
:100CA00021F4809108028F7EE5CF8D3F31F4809151
:100CB00002028E7F80930202A0CF8E3F21F48091AA
:100CC00002028D7FF7CF8F3F09F097CF809102020C
:100CD0008B7FF0CF08958091020280FF0CC060915D
:100CE000120170E0759567957595679561157105A9
:100CF00049F1862F089581FF06C06091120170E0CE
:100D000075956795F3CF6091120182FD0BC09091AC
:100D100000029923A1F060911101809112019617B0
:100D200038F0682F70E06038710500F38FE70895A0
:100D3000899FC001112470E00E943531F4CF61E039
:100D400070E0D7CF81E00895809102026091E603C0
:100D50007091E70380FF16C020911601269FC00105
:100D6000279F900D1124BC01769567957695679520
:100D70006038710508F043C06115710509F441C080
:100D8000862F089581FF0BC020911601269FC00178
:100D9000279F900D1124BC0176956795E9CF82FFBE
:100DA00009C0809116019B01829FB001839F700D45
:100DB0001124DECF209101022223D1F2909115015E
:100DC00080911601482F50E0291748F0CB01849FED
:100DD000B001859F700D949F700D1124C9CF289F7D
:100DE00090011124269FA001279F500D369F500D82
:100DF0001124692F70E0CA010E942131B9CF8FE719
:100E0000089581E00895803F31F40E94A406819501
:100E100080930A020895813F19F40E94A406F8CF36
:100E2000823F31F40E94A4068195809309020895BF
:100E3000833F19F40E94A406F8CF893F29F40E9449
:100E40006B0680930B0208958A3F21F40E946B0683
:100E50008195F7CF8B3F31F40E946B06819580938B
:100E60000C0208958C3F19F40E946B06F8CF843F62
:100E700031F4809108028160809308020895853FD3
:100E800021F4809108028260F7CF863F21F480919F
:100E900008028460F1CF873F21F4809108028860C6
:100EA000EBCF883F21F4809108028061E5CF8D3F30
:100EB00031F48091020281608093020208958E3F96
:100EC00021F4809102028260F7CF8F3FB9F78091C1
:100ED00002028460F1CF80E00895F894E82FE29553
:100EE000EF70F0E031A1282F2F7081E090E001C079
:100EF000880F2A95EAF7982F9095932391A392A1B2
:100F0000892B82A3789408959091E30192FF06C003
:100F1000282F28712830F9F4877F846093FF06C05A
:100F2000282F28712831F1F4877E84612091E40113
:100F300020FF06C0382F38713830D9F4877F8160A0
:100F400021FF06C0282F28712831D1F4877E8161C6
:100F500094FD877E0895282F24712430F9F68B7F25
:100F60008860DCCF282F2471243101F78B7E8861C3
:100F7000DDCF382F3171313019F78E7F8860E0CFA7
:100F8000282F2171213121F78E7E8861E1CFCF9307
:100F9000DF93EC0182389105A9F1D8F581339105F1
:100FA00009F496C048F58932910509F48AC08A97F8
:100FB00009F495C0C11521E5D20708F0BCC0C115E0
:100FC00030E5D30708F014C1C83ED10508F09CC035
:100FD000C03ED10560F5C83AD10508F087C0C53AD2
:100FE000D10508F0FDC0C130D10509F12097F9F015
:100FF000C430D105E0F440C08533910509F45AC0EE
:10100000C997C1F68091E301837089F0C0EED0E00A
:101010000EC0833E910599F170F4803E910501F177
:10102000823E910539F68091E30182FD21C0CE0117
:10103000DF91CF910895863E910561F1873E91053C
:1010400071F1843E910509F0B5CF8091E40181FFF3
:10105000EECF8091E301C7EED0E084FD0DC0E7CF75
:101060008091E30180FD12C19091E40190FFDFCFF8
:10107000C3EED0E084FFDBCFD0E0C0E0D8CF8091DA
:10108000E30182FD06C19091E40190FDBFCF84FF92
:10109000CECFF2CF8091E30183FDDDCFC8CF809129
:1010A000E30183FDF9C09091E40191FFF0CFC4EE1C
:1010B000D0E0BDCF8091E30185FFB9CFC9E2D0E098
:1010C000B6CF8091E30185FFB2CFC5E3D0E0AFCFCB
:1010D0008091E30186FFABCFCAE2D0E0A8CF809138
:1010E000E30186FFA4CFC1E3D0E0A1CFCF3BD10580
:1010F00018F6C85AD0E0CC0FDD1FC65DDE4F099050
:10110000D881C02DD46493CFC11540E2D40758F4E0
:10111000C11581E0D80708F08ACFC03FD10508F497
:10112000ABCFD06584CFC11590E4D90708F4A4CF24
:10113000DF70D06A7CCFC11525E5D20700F5C11557
:1011400034E5D30708F08AC0C11543E5D40708F099
:1011500071C0C11582E5D80708F467C0CE0183705D
:10116000992721E030E002C0220F331F8A95E2F771
:10117000C695C69580E2C89FE001112452C0C115F2
:1011800099E5D907A8F4C11528E5D20708F06BC086
:10119000C11536E5D30708F06FCF8C2F0E94840766
:1011A000C82FD0E0DC2FCC27CC27DF71D0623FCF17
:1011B000C1154AE5D40708F45BC0CE0190568115ED
:1011C000904208F059CF8D2F8F710E94840790E0D4
:1011D000982F882788279F719C012C2BE901E6CF47
:1011E000C55AD0E0C95DDE4FC881D0E0D0641FCFC2
:1011F000CE01E4E096958795EA95E1F783702C2F70
:1012000026952695237040E2249F90011124382BC7
:101210008C2F8370C1E0D0E002C0CC0FDD1F8A9517
:10122000E2F7C22BD32BDC6802CFDC2FCC27C16FB7
:10123000D06AFDCECE018370992721E030E002C054
:10124000220F331F8A95E2F7C695C69590E2C99F93
:10125000E0011124C22BD32BDA68E9CEDC2FCC2796
:10126000C46FD06AE4CEDC2FCC27C06FD06ADFCE4B
:101270008C2F8F700E94840734E0D695C7953A95DD
:10128000E1F7CF709C2FEC01D069D1CEC9E3D0E05B
:10129000CECEC2EED0E0CBCEC6EED0E0C8CE8091AE
:1012A000DA01882331F01092DA011092D9011092FC
:1012B000D8010895CF93C82F8091E40182FD0CC01E
:1012C0008091DA018C1741F00E9494049093D90127
:1012D0008093D801C093DA01CF91089580959091C1
:1012E0007F05982390937F05089580959091FE0245
:1012F00098239093FE0208959091FE02892B80938B
:10130000FE0208951092D7011092D6011092D501D5
:1013100008958091E0039091E103892B89F00E9468
:1013200094042091D8013091D901AC01421B530B98
:1013300081E02091E0033091E1034217530708F464
:1013400080E0817008958091FE0290917F05892B45
:10135000809374018091DA01882309F18091E00380
:101360009091E103892B29F00E94890981110E9443
:101370004F09809174019091DA01892B8093740157
:1013800020E086E791E0FC013191CF0131112F5F20
:10139000F1E08C379F07B9F721110E944F09809126
:1013A000D70380959091740189239091D803892B5C
:1013B00080937401E091B904F091BA04309731F050
:1013C0000280F381E02D84E791E009940895EF9283
:1013D000FF920F931F93CF93DF93EC018A858111C6
:1013E00034C0EB80FC8087E5F81A26E12E9DC00111
:1013F0002F9D900D1124DC01A95FBB4F1496ED9138
:10140000FC911597309731F054966D917C91835FE4
:101410009B4F099586E18E9D80018F9D100D1124B3
:10142000095F1B4FF80187810E947509F8018085CB
:101430000E946E090E94A309188219861B861E82CB
:101440001D821092060410920504DF91CF911F9126
:101450000F91FF90EF900895CF93DF93EC0189896E
:10146000811118C081E0898B8F810E947C09809155
:101470007F059885892B80937F050E94A309EA81C7
:10148000FB81309739F06C897D89CE010696DF911A
:10149000CF910994DF91CF91089580911B01877FAF
:1014A00080931B0182E00E946E0980911B0184FFE2
:1014B00006C08F7E80931B0182E00E947C09809190
:1014C0001B0185FF06C08F7D80931B0180E20E9477
:1014D0007C090C94A3098091D40181111092D4014C
:1014E0000895E6E7F1E09191891303C0DF011197B8
:1014F0001C9291E0EC37F907B1F70895A6E7B1E047
:10150000EFEF90E02D91821751F0EF3F19F4211188
:1015100001C0E92F9F5F9630A9F7EF3F09F40895C6
:101520000E2E000CFF0BEC58FE4F82830895209185
:10153000D30190919201291302C080E0089530E018
:10154000F90153E0EE0FFF1F5A95E1F7ED56FE4FFC
:101550005181561306C05081581303C05281541351
:1015600004C02F5F3F4F2770E6CF81E00895809140
:10157000D30190919201981301C008958F5F8770F5
:10158000FACF9E3F41F1990F990FE92FE80F9E2F57
:101590009770E695E695E69583E0E89FF0011124C3
:1015A000EF57FE4F50E040E080E0219130E0092EFF
:1015B00002C0369527950A94E2F721703327042E4E
:1015C00001C0220F0A94EAF7822B4F5F5F4F43302E
:1015D000510559F7089580E008959E3F61F1990FF4
:1015E000990FE92FE80F8E2F877041E001C0440F5B
:1015F0008A95EAF7E695E695E69583E0E89FF0019F
:101600001124EF57FE4F30E020E070E05191DF01F0
:101610001197CB01022E02C0969587950A94E2F7A6
:10162000817081958527842385278C932F5F3F4F79
:101630002330310559F7089592959F70963091F0B7
:1016400058F4925F9F70923058F4803F19F030F454
:10165000883E30F481E008959A5FF4CF843FD1F35F
:1016600080E00895883EB0F3813FD1F7F3CF90E05A
:1016700080E00E94B60490E080E00E94A0041092F6
:101680007F050E94A30986E0E7E0F2E0DF011D92FA
:101690008A95E9F71092010210920002109202025C
:1016A0000C94C10580937E050C94370B80917E05C8
:1016B000982F9670963019F488600C94520B877F9F
:1016C000FCCF21E030E001C0220F8A95EAF7209597
:1016D00080917E0582230C94520B9091D7018095C6
:1016E00089238093D701282F277091F4282F082E63
:1016F000000C330B9217130659F09091E40192FD00
:1017000007C08595859585950E94610B0C9482098B
:10171000089521E030E001C0220F8A95EAF7809118
:101720007E05822B0C94520B9091E40192FD10C027
:1017300098E0899F90011124622B6093D7010E9449
:10174000890B0E9494049093D6018093D50108954B
:101750000C94890B80937D050C94370B882321F022
:101760000E946E090C94A3090895882339F0909182
:101770007F05982B90937F050C94A30908958823E7
:1017800021F00E9475090C94A3090895882321F083
:101790000E947C090C94A3090895882309F452C07F
:1017A000823871F40E94CC0481FF4CC089E30E940E
:1017B0007E0A0E94A30989E30E94710A0C94A3097E
:1017C000833859F40E94CC0480FF3CC083E50E941A
:1017D0007E0A0E94A30983E5EFCF843859F40E9462
:1017E000CC0482FF2FC087E40E947E0A0E94A309D6
:1017F00087E4E2CF9CEF980F913AF0F290E2980FD5
:10180000983050F4877091E001C0990F8A95EAF7FB
:10181000892F0E947509D2CF9BE5980F933020F451
:1018200090E080E00C94B60498E5980F973120F48E
:1018300090E080E00C94A004803F20F00E94E80536
:101840000C94C1050895FF920F931F93CF93DF93DC
:10185000F82E0091DC031091DD030115110509F448
:1018600049C01092DB031092DA031092D703109252
:10187000D803D8011696CD91DC919E013A95211599
:101880003F4108F4D07ED1E0C11101C0D0E0D801C1
:101890001996ED91FC911A97309731F01B966D9146
:1018A0007C9180E00995D823DD2339F08CEF8C0FF3
:1018B000813A38F58C2F0E94710AFF2099F0E0914F
:1018C000DC03F091DD03808584FD0CC08091D90399
:1018D000882341F0808191819C0121503109253A72
:1018E0003D45A8F00E94A3091092DD031092DC038D
:1018F0001092D903C801DF91CF911F910F91FF90F2
:1019000008950E94A3098C2F0E94CD0BD6CF0E9470
:10191000D804E8CF8091BE04882321F11092BD0441
:1019200088E190E020E40FB6F894A89580936000D9
:101930000FBE2093600083B7817F846083BF83B72D
:10194000816083BF7894889583B78E7F83BF0FB6FD
:10195000F894A8958091600088618093600010924F
:1019600060000FBE08959C013A9521153F4150F546
:10197000FC01EE27F170BC0166277270AC014427B0
:1019800054709C012227387094FF0EC080E1EF2B29
:1019900009F480E0672B09F08062452B09F0806430
:1019A000232B89F08068089581E0EF2B09F480E013
:1019B000672B09F08260452B09F08460232B19F016
:1019C0008860089580E00895CF93DF93EC010E9432
:1019D000CD0BCE010E94B30C9E01205E3109283050
:1019E000310510F0CD2B21F4DF91CF910C94BF0B7A
:1019F000DF91CF910C94AE0B019708F40895EFE9B5
:101A0000FFE03197F1F700C00000F6CFCF93C82F69
:101A1000882309F48CC08238C1F40E94CC0481FD73
:101A200086C089E30E947E0A0E94A3092FEF81EEFF
:101A300094E0215080409040E1F700C0000089E32D
:101A40000E94710ACF910C94A3098338A1F40E94DB
:101A5000CC0480FD6CC083E50E947E0A0E94A3092D
:101A60002FEF81EE94E0215080409040E1F700C0DC
:101A7000000083E5E5CF8438A1F40E94CC0482FD08
:101A800056C087E40E947E0A0E94A3092FEF81EED0
:101A900094E0215080409040E1F700C0000087E4CE
:101AA000CFCF8CEF8C0F813A68F4E6E7F1E08191BB
:101AB000C817B9F121E0EC37F207C9F78C2F0E9463
:101AC0007E0AC0CF80E28C0F883048F4C77081E076
:101AD00001C0880FCA95EAF70E947C09B3CFEBE5F5
:101AE000EC0FE33040F4F0E0E95DFE4F808190E0E0
:101AF000CF910C94B604E8E5EC0FE73150F4F0E038
:101B0000EE0FFF1FE65DFE4F80819181CF910C9417
:101B1000A004C03F60F08C2F0E940307CF910C946B
:101B2000C1058C2F0E94710A0E94A309C7CFCF91D3
:101B300008951F93CF93DF93182FC091FE03D09188
:101B4000FF03893321F0C091FC03D091FD03812F65
:101B50000E94060D209731F4812FDF91CF911F91C4
:101B60000C94CD0B8FE99FE00197F1F700C00000C6
:101B70002197F0CF0F931F93CF93DF93C42FD22FD2
:101B8000FC0182818823A1F0409304040E94940404
:101B90009093030480930204C77081E001C0880F12
:101BA000CA95EAF7DF91CF911F910F910C94C60B64
:101BB00010910404141339C080910204909103041D
:101BC0000E9479042091F6033091F703821793075E
:101BD00060F5C0E2CD0F1D17B9F080E2810F8830AB
:101BE00040F4177081E001C0880F1A95EAF70E944F
:101BF000BF0BC83048F481E09D2F977001C0880F5B
:101C00009A95EAF70E94C60B802F0E94990DC83062
:101C100098F4D77081E001C0880FDA95EAF7DF9178
:101C2000CF911F910F910C94BF0BC77081E001C041
:101C3000880FCA95EAF7F3CFDF91CF911F910F91EB
:101C40000895CF93DF93EC010E94B30C9E01205EB8
:101C500031092830310510F0209739F40E94C60B65
:101C60008C2FDF91CF910C94060D0E94B50BF8CF0D
:101C7000662329F020917F05226020937F059C0137
:101C80003056211540E2340720F0305E21153041F6
:101C900008F499270C94210EDF92EF92FF920F9394
:101CA0001F93CF93DF937C018B01D42E80911B0176
:101CB00082FF8CC0C0912103D0912203CE15DF0595
:101CC00021F0E114F10409F081C080911B018B7FA8
:101CD00080931B0181FD73C080911F0390912003AD
:101CE000A801481B590B81E02091190130911A017C
:101CF0004217530708F480E08170F82E80911B0191
:101D0000F0FA81F980931B01FE0183E0F695E795D7
:101D10008A95E1F7EE71FF27E150FD4F2081318177
:101D2000AE014F70552781E090E002C0880F991FE7
:101D30004A95E2F7FF2009F444C0822B932B91834C
:101D400080838091FE0281FF08C080911B01806129
:101D500080931B0182E00E9475098091FE0285FF3D
:101D600008C080911B01806280931B0180E20E9469
:101D700075096F2DCE010E94380EDD2031F0809163
:101D8000F90385FF02C086FF3BC08091FC03909160
:101D9000FD030E94FC0C80912103909122039C0181
:101DA0003056211540E2340720F0305E21153041D5
:101DB00008F499270E94E40C0E944D0A1DC081E09E
:101DC0009BCF8095909582239323B9CFC701992704
:101DD00097013056211540E2340728F0305E211576
:101DE000304108F0C7010E94E40C809121039091DA
:101DF00022038E159F0501F31093200300931F0308
:101E0000DF91CF911F910F91FF90EF90DF90089598
:101E1000AF92BF92CF92DF92EF92FF920F931F93F8
:101E2000CF93DF93EC018AE0A82E2881222309F4C6
:101E30008CC02130C9F599818A81913021F4229694
:101E40000E94990D05C0923029F422960E94060D39
:101E50002196EBCF933021F422960E94CD0BF8CF40
:101E6000943011F02196F4CF229630E020E0AE01BC
:101E70004F5F5F4F8053990B8A30910550F021508E
:101E8000310930F38FE99FE00197F1F700C00000BE
:101E9000F6CFA29EB001A39E700D11249C01260FC7
:101EA000371F8981EA01E3CFE22FF0E0E856FF4FC8
:101EB000B490822F86958695869590E0FC01E85730
:101EC000FF4FE4902770F12C022E02C0F594E794A6
:101ED0000A94E2F731E0E322FF24FC01E858FF4FC7
:101EE000C490D12C022E02C0D594C7940A94E2F774
:101EF00031E0C322DD24FC01E859FF4F049110E0DA
:101F000002C0159507952A95E2F701701127E11493
:101F1000F10419F081EE0E94060DC114D10419F0EC
:101F200086EE0E94060D8B2D0E94990DCD2819F08A
:101F300086EE0E94CD0BEF2819F081EE0E94CD0BAA
:101F4000012B09F485CF8CE27BCFDF91CF911F91DC
:101F50000F91FF90EF90DF90CF90BF90AF900895DA
:101F6000CF93DF938091A705835087FD14C0909194
:101F7000A505CCE0D0E0C91BD109C655DA4F909138
:101F8000A405903108F06BC0883009F453C010925A
:101F90006B051092A70580911E0184FF3EC08091C1
:101FA0001D018F3FD1F1C82F893008F0C8E0982F6C
:101FB0009C1B90931D019091800528E89227909397
:101FC00080058823E9F080917B0590917C05209124
:101FD0007A0526FF06C1FC012C2FA1E8B5E034915B
:101FE0003D9331962150D9F79C012F5F3F4F8FEFE2
:101FF0008C0F820F932F911D90937C0580937B050E
:102000006C2F81E895E00E949D02CC5FCC3019F0E6
:102010008FEF80931D01C0931E0184E199B19C70E4
:1020200031F48150D9F71092A8051092A305DF91E1
:10203000CF91089580916B05893108F0A8CFE82FE2
:10204000F0E0E55BFA4F9E01285F3F4F9991919335
:102050002C173D07D9F7885F80936B059ACF9D3287
:1020600009F0A3C0883009F094CF83EC80938005F9
:102070008AE580931E0110927A058881807609F4A2
:1020800047C0803229F58981813099F48C819D8106
:10209000892BF1F48DE695E090937C0580937B0588
:1020A00088E09F81911131C09E81981770F5892F2A
:1020B0002CC0823041F48CE695E090937C058093AF
:1020C0007B0581E0EECF8A3029F48B8180936C050B
:1020D00080E0E7CF8930E1F78A819B8181159240CA
:1020E00069F48C819D81892B49F481E08093790585
:1020F0008E819F819093780580937705888187FFF3
:1021000052C08E8190E890937A0580931D0141CF53
:102110002A8110928905998191110AC010928A052D
:1021200029E835E082E030937C0520937B05B9CF28
:10213000953029F42093A80529E835E0F4CF9630AE
:10214000C1F49B81913049F4CE010E94E20390E4F6
:1021500090937A058F3F91F2A4CF9230A9F39330F8
:1021600099F3913289F3923279F390E490937A055E
:1021700098CF983089F0993019F420937505DCCF09
:102180009A3071F09B30C1F69BE490938C0590934C
:10219000C10590939805D0CF25E735E081E0C3CF06
:1021A00029E835E0FBCF8FEFADCF80917A0587FF2F
:1021B000F0CE8091770590917805892B71F0809110
:1021C0007905813051F488818093760510927805E5
:1021D0001092770510921D01DCCE8EE180931E01D6
:1021E000D8CEDC012C2FE1E8F5E03D913193215070
:1021F000E1F7FACE1F93CF93DF93E82F792F162FB5
:10220000EA01888184FF1CC0298188E82827298366
:10221000CE010296DC012E2F372F512F5E0FF901D0
:1022200021912D939F01452F4E1B1416C4F3612F4E
:102230000E949D021C5F1883DF91CF911F9108952A
:102240008AE58883E5CF2091C00524FF05C040ECD6
:1022500055E066E00C94FA10089590914A059813A1
:1022600007C0209148053091490526173707B9F076
:1022700080934A057093490560934805809345050E
:1022800070934705609346058091C00584FF07C0A1
:1022900040EC55E063E085E495E00C94FA10089575
:1022A000BC0184E00C942D11BC0183E00C942D1131
:1022B000CF93DF93CAE0D0E080918B0584FF1CC0F0
:1022C0008091430590914405981799F028E0829FEA
:1022D000C00111244BE855E068E08D539B4F0E94EC
:1022E000FA108091430590E001968F7099278093B2
:1022F0004305DF91CF9108950E94B00F8FE99FE0D1
:102300000197F1F700C000002197B1F6F2CFCF930B
:10231000DF93EC01A0914405B0E0CD0101968F70F0
:10232000992720914305281779F093E0AA0FBB1F46
:102330009A95E1F7AD53BB4F98E0FE0101900D92E5
:102340009A95E1F7809344050E94B00F0E945811BE
:1023500088E0FE01ADE6B5E001900D928A95E1F7C7
:10236000DF91CF9108950F931F93CF93DF930EEDDD
:1023700013E0C7EDD0E0CE010E948C31F8018193CB
:102380008F012196CB3FD105B1F7C6E9D2E0FE011E
:1023900085919491009711F0FC0109952896F3E03E
:1023A000C633DF07A1F7DF91CF911F910F910895F9
:1023B0000F931F93CF93DF93843000F561111EC0FC
:1023C00024E0829F8001112450E0440F551F040F28
:1023D000151F09531F4FC8010E948C31C82FD0E030
:1023E000DC2FCC27C80101960E948C319E01282B3E
:1023F000C901DF91CF911F910F91089590E080E086
:10240000F8CF0F931F93CF93DF93843030F565306F
:1024100020F5443010F528E0629F8001112450E03F
:10242000440F551F040F151F38E2839F000D111D27
:102430001124C80187960E948C31C82FD0E0DC2F70
:10244000CC27C80188960E948C319E01282BC90197
:10245000DF91CF911F910F91089590E080E0F8CF28
:10246000462F2091FC023091FD02232B91F47E3FF8
:1024700039F46E3F71F48091FA029091FB02089555
:10248000843038F4753028F4643018F4672F0C94D5
:10249000011290E080E00895CF92DF92FF920F93B7
:1024A0001F93CF93DF936C0100917E0580917D0592
:1024B000082BC7E0D0E010E0FC2EC8010C2E02C0B3
:1024C000959587950A94E2F780FD0CC02197A0F7B7
:1024D000F12C8F2DDF91CF911F910F91FF90DF9005
:1024E000CF900895B6018C2F0E9430120E94C7072A
:1024F000019761F3EECFCF93DF93EC010E944C1272
:10250000BE010E943012DF91CF910C94C707FC01ED
:1025100086819781009721F00E94C7070C941C0BBD
:10252000808191810E947B12F9CF1F93CF93DF931B
:1025300000D000D00F92CDB7DEB749835A8389818E
:102540009A816623B9F02223A9F00E944C12182F19
:10255000682F89819A810E94ED0A69817A81812F91
:102560000F900F900F900F900F90DF91CF911F91D0
:102570000C9430120E94C10A182FEFCFFC01262FB5
:1025800086819781009739F44081518162817381FE
:1025900084810C949512089583E290E00E948C311E
:1025A000883789F484E290E00E948C318B3459F4AE
:1025B00085E290E00E948C3191E08D3D09F090E041
:1025C000892F8170089580E0FCCFCF9384E090E064
:1025D0000E948C31C82F82E290E00E948C31982FAB
:1025E0008C2FCF9108950F931F93CF93DF930EED10
:1025F00013E0C7EDD0E0CE010E948C31F80161916B
:102600008F01681719F0CE010E949A312196CB3FB5
:10261000D10589F7DF91CF911F910F910895EEEDCC
:10262000F3E0128E138E8FEA90E09183808325E091
:10263000248F88E893E1938382838AE090E09583F6
:10264000848344E150E05783468368E070E07187FB
:102650006087938782874EE150E05587448797874C
:10266000868740E550E0518B408B738B628B68E22C
:1026700070E0758B648B62E370E0778B668B68EC3F
:1026800070E0718F608F158E978F868F51A340A356
:1026900022A30E94F3120C94B311CF93DF93CBEEDD
:1026A000D1E060E0CE010E949A312196C11584E00C
:1026B000D807B9F7DF91CF9108950F931F93CF9368
:1026C000DF938901843028F5611123C0423008F579
:1026D00021153C4531F420910F0130911001232B3D
:1026E000C1F094E0899FE001112450E0440F551F90
:1026F000C40FD51FC953DF4F612FCE010E949A31FD
:10270000602FCE010196DF91CF911F910F910C9414
:102710009A31DF91CF911F910F9108950F931F93DD
:10272000CF93DF938901843048F5653038F5443024
:1027300028F521153C4531F420910F01309110010D
:10274000232BE1F098E0699FE001112450E0440F51
:10275000551FC40FD51F98E2899FC00DD11D1124AC
:10276000612FCE0187960E949A31602FCE01889604
:10277000DF91CF911F910F910C949A31DF91CF91FE
:102780001F910F910895CF93C82F6FEF811168E7C4
:1027900083E290E00E949A316FEFC1116BE484E212
:1027A00090E00E949A316FEFC1116DED85E290E0EB
:1027B000CF910C949A31CF93C091E401C2FB992739
:1027C00090F9981799F080FBC2F9C093E4016091E9
:1027D000E30184E090E00E949A316C2F82E290E065
:1027E0000E949A3182E0CF910C946D0BCF910895A5
:1027F0007F928F929F92AF92BF92CF92DF92EF9291
:10280000FF920F931F93CF93DF93CDB7DEB76E97F1
:102810000FB6F894DEBF0FBECDBFA0900F01B090F1
:10282000100181E090E09093100180930F0180EF00
:10283000C82E81E0D82E10E0760100E015C0F4012A
:1028400025913491472D602F812F0E948E1382E0B5
:10285000880E911C7394E4E07E12F1CFF8E0EF0E45
:10286000F11C0F5F053019F04701712CE8CF21E012
:1028700030E040E060E0812F0E945D1321E030E015
:1028800041E060E0812F0E945D131F5F88E2C80E67
:10289000D11C143089F60E940F131A8219821C82EF
:1028A0001B821E821D8218861F8288EC90E09A8708
:1028B00089870BEF10E04AE050E0B801CE010196A5
:1028C0000E94BE31065F1F4F0B34E1E01E0799F7EF
:1028D0007E01FBE0EF0EF11C8AE0F70111928A9570
:1028E000E9F74AE050E0B801C7010E94BE31065F37
:1028F0001F4F0B39F1E01F07A1F77E0185E1E80EBC
:10290000F11C8AE0F70111928A95E9F78FEF9FEFAA
:102910009A8F898F87E08E8F4AE050E0B801C70117
:102920000E94BE31065F1F4F0B3EF1E01F07A1F76B
:10293000B0921001A0920F016E960FB6F894DEBF10
:102940000FBECDBFDF91CF911F910F91FF90EF9000
:10295000DF90CF90BF90AF909F908F907F90089521
:1029600080E00E94C31360E086E290E00E949A310A
:102970000E94F8130E944D1381E00C94C3139B0135
:10298000883070F49AE0899FB001112465507F4F20
:102990004AE050E0C9010E947C3190E080E0089557
:1029A0008FEF9FEF08958F929F92AF92BF92CF9239
:1029B000DF92EF92FF920F931F93CF93DF93CDB7E8
:1029C000DEB72A970FB6F894DEBF0FBECDBF07E083
:1029D00014E0F12CE12C8CEBC82E88E2D82E96EE78
:1029E000A92E98E2B92E24ED822E27E2922EF8012C
:1029F000D182C082B382A28295828482F58AE48ADF
:102A0000BE016F5F7F4F8E2D0E94BF14892B29F46A
:102A100089859A85F801938B828BFFEFEF1AFF0A65
:102A20000A5E1F4F88E0E816F10409F72A960FB6F0
:102A3000F894DEBF0FBECDBFDF91CF911F910F91F4
:102A4000FF90EF90DF90CF90BF90AF909F908F90CE
:102A500008958F929F92AF92BF92CF92DF92EF92A2
:102A6000FF920F931F93CF93DF93CDB7DEB72A97D3
:102A70000FB6F894DEBF0FBECDBF02E812E080E7CC
:102A8000C82E82E0D82E9BE9E92EFF24F39427E09C
:102A9000922E3FE6A32E32E0B32E88248394D601F3
:102AA0000D931D936D014AE050E0B701CE010196F0
:102AB0000E947C31F8013896DF01892D1D928A959C
:102AC000E9F789819A81D80111969C938E938F8121
:102AD00012968C9312978D8113968C9313978885F9
:102AE00014968C931497898515968C9315978B81E2
:102AF0009C8117969C938E93169718961C92189704
:102B00008A8587FF4BC01E961C921E921D9780FFE0
:102B100003C0D80118968C9281FF04C0F8019085FB
:102B20009260908782FF07C0D80118969C911897F1
:102B3000946018969C9383FF04C0F8019085986078
:102B4000908784FF07C0D80118969C9118979061D0
:102B500018969C9385FF04C0F80180858062808769
:102B6000015F1F4FFAE0EF0EF11C8BEEE81681E0DB
:102B7000F80609F094CF2A960FB6F894DEBF0FBE80
:102B8000CDBFDF91CF911F910F91FF90EF90DF901C
:102B9000CF90BF90AF909F908F900895F801B68628
:102BA000A586B5CFCF92DF92EF92FF920F931F933E
:102BB000CF93DF93CDB7DEB72A970FB6F894DEBF79
:102BC0000FBECDBFEFE1F2E080E5DF011D928A95F7
:102BD000E9F7E7E8F3E088E3DF011D928A95E9F77A
:102BE0008FE1C82E82E0D82E7F010BE411E0F701BF
:102BF000D182C0824AE050E0B801CE0101960E9425
:102C00007C3188E0FE013196D60101900D928A95C3
:102C1000E1F789859A85D70113969C938E93129735
:102C2000BAE0CB0ED11CE7E0EE0EF11C065F1F4FA1
:102C30000B39F1E01F07D9F62A960FB6F894DEBFDC
:102C40000FBECDBFDF91CF911F910F91FF90EF90FD
:102C5000DF90CF9008951092FE02E6E7F1E086E063
:102C6000DF011D928A95E9F70C94370B7F928F92C2
:102C70009F92AF92BF92CF92DF92EF92FF920F930B
:102C80001F93CF93DF9300D000D00F92CDB7DEB764
:102C90008E010F5F1F4F85E0F80111928A95E9F7C9
:102CA00088E5C82E81E0D82EF12CE12CAA24A3942B
:102CB000B12C21E6822E21E0922EF60181916F0146
:102CC0008F3F09F442C0F894E82FE295EF70F0E0EE
:102CD00021A18F70A50102C0440F551F8A95E2F70C
:102CE000CA01922F982B91A392A18095892382A348
:102CF000789400C0EDE5F1E0712C31E021912F3F97
:102D000009F469C0A22FA295AF70B0E090968C91A3
:102D100090E02F7002C0959587952A95E2F780FD87
:102D20005AC0832F782A330F8E169F0639F7F60183
:102D3000319780818F3F11F00E946D0750EA5A95BC
:102D4000F1F7F801EE0DFF1D70828FEFE81AF80A17
:102D5000E5E0EE16F10409F0B0CF45E050E0B8012F
:102D60008EED91E00E945F31FF24F394009709F407
:102D7000F12C892B91F185E0F801AEEDB1E00190E5
:102D80000D928A95E1F781E08093DD010E94940421
:102D90009093DC018093DB018091DB019091DC0159
:102DA0000E9479040597E8F08091DE018093F90193
:102DB0008091DF018093FA018091E0018093FB0113
:102DC0008091E1018093FC018091E2018093FD01FB
:102DD0001092DD0106C080E0A5CF8091DD01811158
:102DE000DBCF8F2D0F900F900F900F900F90DF91F2
:102DF000CF911F910F91FF90EF90DF90CF90BF90F8
:102E0000AF909F908F907F90089569EE7EEF90E055
:102E100080E00E94B83160E082E090E00E949A3148
:102E200060E083E090E00E949A3110927D0560E0BE
:102E300084E090E00E949A3160E082E290E00E949B
:102E40009A3160E085E090E00E949A3160E086E08F
:102E500090E00E949A316FEF87E090E00E949A31F3
:102E600040E050E0BA0188E090E00E94AC3160E0C0
:102E70008DE090E00E949A3140E050E0BA0188E194
:102E800090E00E94AC3160E087E190E00E949A31CE
:102E900040E050E0BA018CE190E00E94AC3170E07B
:102EA00060E080E290E00E94B83140E050E0BA017A
:102EB00088E190E00E94AC3180E00E94C3130E9440
:102EC000B01440E050E0BA018FE090E00E94AC31D5
:102ED00040E050E0BA0183E190E00C94AC312F92D5
:102EE0003F924F925F926F927F928F929F92AF929A
:102EF000BF92CF92DF92EF92FF920F931F93CF93E7
:102F0000DF9300D000D000D00F92CDB7DEB77C01A8
:102F1000DC0113964D915C91149711966C91119769
:102F20008C910E9449058111CBC061E0C7010E94CC
:102F3000BE128C01F7018281811161C0D701129606
:102F40008C9181119BC00031FFE51F0709F473C10B
:102F500001312FE5120709F472C16801E7E5DE1AB5
:102F6000FFEFCF16D10409F060F565E172E08C2D1A
:102F70000E94BF14892B29F586E18C9DF0018D9D5F
:102F8000F00D1124E95FFB4F8681813009F059C1B2
:102F90008091150290911602892B99F08091170269
:102FA00090911802892B69F08091190290911A0270
:102FB00020911B0230911C02822B932B892B09F448
:102FC0004AC1F7015280552009F457C10F35FDE57C
:102FD0001F0709F44EC100362DE5120751F00E35DA
:102FE0003DE5130709F049C180910001882309F4E8
:102FF00040C11092000180E00E94230C51C08091DA
:103000000D0190910E01019609F498CFE7E0CE2EC4
:10301000E4E0DE2EB12CA12C9924939480910D0133
:1030200090910E018A159B050CF488CFF6018681DC
:103030008823E9F0818592850817190739F4809172
:103040000504909106040817190789F0D6011F9608
:103050009C921F971C961C930E931B97C6010E946F
:103060002C0AC60106960E94E70910927F05BFEF61
:10307000AB1ABB0AE6E1CE0ED11CD0CFC8018251FB
:103080009F45409710F00C948F208FEF93E00E94A3
:103090008C317EEED72ED00E0BEE11E08823A9F1F5
:1030A0008091D701877061F0D70112968C918823A7
:1030B00039F08091E40182FD03C082E00E946D0B33
:1030C00027960FB6F894DEBF0FBECDBFDF91CF912C
:1030D0001F910F91FF90EF90DF90CF90BF90AF9036
:1030E0009F908F907F906F905F904F903F902F9028
:1030F00008950115F4E01F0799F2C8010E948C3170
:10310000811101C0DA940F5F1F4FD110F2CF1982E5
:103110001A821B821C8299249A9468012FEFC21A8A
:10312000D20AC8010E948C3189831A82882309F44B
:10313000B7CF813009F073C0580132E0A30EB11C43
:10314000C6010E948C31C82E8A83882309F4A8CF37
:10315000C5010E948C31D82E8FEF8C0D833068F41E
:10316000580143E0A40EB11CDB82DD2021F0CE012A
:1031700001960E94080F8501D0CF8BEF8C0D833014
:1031800030F5C8010396DB825C01DD20A1F3580114
:1031900054E0A50EB11C0E948C318C83882359F316
:1031A0008B819C818130AFEF9A0710F0982F882790
:1031B000B6E0CB1631F0E7E0CE1631F00E94AC2835
:1031C000DACF0E942B28D7CF0E94A527D4CFF4E0D6
:1031D000CF12D1CF580124E0A20EB11CC801039632
:1031E0000E948C31DD2009F45BCF882309F458CF8D
:1031F0008150990B989E9001999E300D11244D2D70
:103200004150550BCA01820F931F019708F4B3CFA9
:10321000AFE9BFE01197F1F700C00000F6CFCE0193
:1032200001960E94080F5601A6CF81E00E94890BEB
:103230000E94560B35CF81E00E94610BF9CF82E0EE
:10324000FBCF823009F0BDCE8091190290911A0215
:10325000892B09F4B6CE26E12C9DC0012D9D900D41
:103260001124895F9B4FDC0150961C920E942C0A0E
:10327000A8CE81E08093000113CF809100018823C4
:1032800009F475C6480140EE841A91084090DA01AD
:103290008091D401482A8091FE02482A58E0851680
:1032A000910408F086C098012770332781E090E0F0
:1032B00001C0880F2A95EAF7552009F477C0482AFB
:1032C000D7018D919C910E94C10A21E030E0390123
:1032D00002C0660C771C8A95E2F7E091DC03F0915E
:1032E000DD03FF83EE8320907C0130907D011D8201
:1032F0002D81E22FF0E0EE0FFF1FE059FD4FC0805F
:10330000D180C114D10409F4F5C6411005C0D6011D
:1033100012968C91811187C0F601838190E08621FD
:103320009721892B09F47FC08085982F977009F425
:1033300087E0F8E08F16910408F055C0552009F495
:103340004EC086958170882309F46DC0D601AD907A
:10335000BC900A151B0519F4552009F464C0EE81D0
:10336000FF81CE16DF0609F45EC0D6011D96ED91F1
:10337000FC91309721F08081882309F454C0642D9A
:10338000C6010E942905882309F44DC00A151B05B2
:1033900009F002C70115110509F403C7511003C74D
:1033A000A214B30409F03FC0512CFDC680954822F9
:1033B00087CF552009F487C610937D0100937C01C7
:1033C0000E9488046093D3037093D4038093D50341
:1033D0009093D6031092DB031092DA0371CF82FB35
:1033E000882780F9B0CF5520F1F08170ACCF0E94D2
:1033F000CD0BF7C60497813A910548F48A2D0E94B7
:103400007E0A552009F4B3C50E94A30949CE0E9443
:10341000A3098FE39CE90197F1F700C000008A2D12
:103420000E94060DEECF9D819F5F9D8361CFFC01C1
:10343000208131810217130709F092C5511092C5FE
:103440001092D90380E068C6882309F4DFC5FA0129
:103450008189882309F4DAC5C501835F9B4F0E94E7
:10346000E709D4C580911B01816080931B01FCC5D5
:1034700080911B018E7F80931B010E944D0AF4C531
:1034800080911B018F7E013E110531F0053E110533
:10349000C9F480911B018F7D80931B0180911B01DA
:1034A00080FFF1C5D70112968C910832110528F5DD
:1034B0000E31110508F074C00430110580F581113A
:1034C000DEC5E1C5C8019056811540E2940720F0A1
:1034D000905E8115904110F780911B0182FFD3C54A
:1034E0008091FB0381FDCFC52BEE31E040E0B601BA
:1034F00090E080E00E944C0EC6C50933110558F4D7
:103500000D32110518F40B321105C9F69091F9032B
:1035100092FDD5CF08C004361105C1F3D0CF9091EC
:10352000F90394FDCCCF882309F4A1C09091FE0249
:103530008091DA01282F292B322F3D7FB1F1109293
:103540002203109221033091F90331FD2EC0F801BE
:1035500043E0F695E7954A95E1F7EE71FF27E150D4
:10356000FD4F98012F70332781E090E002C0880F53
:10357000991F2A95E2F780959095208131818223C9
:1035800093239183808360E0C8010E94380E80916C
:10359000DA018D7F0E945A0982E00E946D0B80CD76
:1035A0009091F90393FD8BCFBECF38E0F701ABEEDE
:1035B000B1E001900D923A95E1F71092ED01109271
:1035C000EF011092EE01A0902103B09022030A15A2
:1035D0001B05B1F53091F90335FF32C040911B0155
:1035E00041FB992490F841FF02C036FF29C0409169
:1035F0001F0350912003B601641B750B4091F60325
:103600005091F70364177507D8F491FF08C08091B3
:103610001B01806180931B0182E00E9475098091EB
:10362000FE0285FF08C080911B01806280931B0110
:1036300080E20E947509692DC5010E94380E30CDC7
:1036400090911B0121FB91F990931B018D7F0E94AA
:103650005A091093220300932103D0922003C092B1
:103660001F0380911B01846080931B0195CF9701FC
:1036700040E0B601C8010E944C0E12CD053F4CE55A
:10368000140709F469C008F461C0063F8CE5180707
:1036900009F468C0D70112963C91332309F44CC554
:1036A000109204040330BDE51B0708F067C00A3F11
:1036B000ECE51E0730F4C80182509C45449708F0A1
:1036C00067C00E94E5129093E4018093E301013109
:1036D0003CE5130709F46CC108F0E9C009305CE56A
:1036E000150709F453C108F0B6C005309CE5190769
:1036F00009F444C108F09CC00330BCE51B0709F481
:1037000033C108F037C18091E301816002301C456C
:1037100009F42DC16091E3011091E40184E090E08F
:103720000E949A31612F82E290E00E949A310E94B9
:103730002B16B6CC07E225EE45EE68ED7CE5BEC45F
:1037400006E221EE40EE63EF7CE5B8C407E225EE29
:1037500044EE64EF7CE5B2C406E221EE42EE65EF92
:103760007CE5ACC407E225EE46EE66EF7CE5A6C438
:1037700008E221E045EE69ED7CE5A0C40136FDE5F7
:103780001F0709F49ECF053A2DE5120709F499CFDA
:1037900006318CE5180709F4D3C40A358DE51807FE
:1037A00009F45DC108F038C10115ACE51A0709F448
:1037B00045C10E3D1C4509F44FC1F7018681978133
:1037C000009709F450C10E94C707182F092FF7016D
:1037D000D280C580C2943FE0C3228091D701877018
:1037E000C1F0AD2CDD20B1F0892F807F803421F035
:1037F00080E2810F883068F08091E40182FD09C089
:1038000082E00E946D0B8091D7018770AA24A39457
:103810008111A12C902E92942FE09222FBE0F915B9
:1038200008F4AEC1E92DF0E0E852FE4C0C944931A9
:103830008091E301806207302CE5120709F497C0FC
:103840008091E301806108301C4508F490C08091AC
:10385000E30180648CC08091E3018B7F0D304CE5E7
:10386000140709F484C080F40B308CE5180709F4C0
:1038700093C08091E3018C600C301C4508F477C044
:103880008091E3018D7F73C08091E3018F7E0F30C3
:10389000ACE51A0709F46BC08091E301877F003122
:1038A0001C4508F464C08091E3018F7D60C00D3F2A
:1038B000ECE51E0709F478C050F505312CE5120738
:1038C00009F480C098F48091E301837F03314CE5D3
:1038D000140709F44CC008F46FC00E942B16909195
:1038E000E301892F97FB87F9805841C00B3F8CE596
:1038F000180709F447C008F053C08091E4018160C3
:103900000A3F1C4509F006CF8093E40103CF013044
:10391000BDE51B0709F462C0B8F48091E4018C7F17
:103920000F3FFCE51F0781F38091E40183600115DF
:103930001D4550F38091E401982F909591708E7FF2
:10394000892B90FB81F9E0CF01363DE5130709F49F
:103950004BC0053A4DE5140709F44DC002301D4532
:1039600009F0D8CE60E03BC08091E3018260809393
:10397000E301D0CE8091E3018460F9CF8091E3012F
:103980008860F5CF8091E4018260BECF0E942B1643
:103990008091E3018068EBCF8091E3018E7FE7CFD8
:1039A0008091E4018E7FB0CF8091E4018D7FACCF18
:1039B0008091E3018F7BDBCF0E942B168091E30186
:1039C0008F77D5CF8091E30182FB992790F921E091
:1039D000922790FB82F990FB83F9C9CF61E08EE0DA
:1039E00090E00E949A3196CE9091E301892F8F7ECC
:1039F00094FF8061BCCF9091E301892F8E7F90FF6F
:103A00008160B5CF80917E01811104C089E20E945E
:103A1000710AFACC85E3FBCF0B35EDE51E0709F102
:103A20000C351D4509F0C9CE8091E40182FB882741
:103A300080F991E089270E94DB13BFCE0E942B16EC
:103A40002FEF34E34CE0215030404040E1F700C01C
:103A500000000E94640424CB0E94051721CB81E062
:103A6000EACF80E0E8CF828100811181882369F06C
:103A7000C8010E944C12D82E682FC8010E94ED0A7E
:103A8000B8018D2D0E9430129ECEC8010E94C10A3D
:103A9000D82EF6CF202F2F70B22E802F807F19F0D6
:103AA000B29490EFB922DD20A9F0BB2059F080E25A
:103AB000810F883010F0111107C08B2D0E947C09F6
:103AC0000E94A309812F5AC080917F05B82AB09225
:103AD0007F05F6CF812F0E94CD0BBB2009F450C08B
:103AE00080E2810F883010F0111104C08B2D0E94EC
:103AF000750903C08B2D0E946E090E94A30940C066
:103B0000302F3F70B32E802F807F803219F0B29417
:103B100080EFB822112321F1113009F4A4C0DD2077
:103B200009F4ADC0CC2009F47DC020E0D7014C9150
:103B300011965C91119712966C91129713967C9145
:103B4000139714968C910E9495128091FB0381FD2E
:103B5000B9CFF701858180FFB5CF8F70858362C0B3
:103B60008091E40182FF40C0DD20C1F1BB2029F03B
:103B70008B2D0E947C090E94A30980E00E94060D03
:103B8000A92DA850BB0B149710F40E94CC04812FD0
:103B9000902F0E941C0B8111C4C1109280011092C1
:103BA0007F01AA20B1F08091D70180FD12C0D7011A
:103BB00012961C928595859585950E94890BC70163
:103BC0000E946F178091D7018595859585950E94F4
:103BD000610B60E0C7010E94BE1272CA80E00E94C1
:103BE000CD0BBB2069F282CFDD2001F1C11004C0F2
:103BF0008091DA018B2917C041E0C41206C0809180
:103C0000DA018B290E945A09BBCF8091FA038230D6
:103C100078F3C812EDCF0E944F098091D401B812F9
:103C2000B092D4018B2D0E94C60BAACFC11006C042
:103C30000E944F098B2D0E94BF0BA2CF8091FA03E7
:103C400051E0C5120BC0823008F49ACF8091FE0279
:103C50008B2109F495CF0E946B0AEACF823040F3A2
:103C60008C11E6CF8DCF80910004DD2021F08C15E2
:103C700008F486CFD7CFC81608F082CFDBCFCC2090
:103C8000C9F28091FE039091FF03193321F08091D6
:103C9000FC039091FD030E94FC0C812F0E94CD0B30
:103CA0006FCF802F86958695837069F0813009F0FB
:103CB00067CF812F902F9370D11002C090E080E0E9
:103CC0000E94A0045DCF812F902F9370D11002C06D
:103CD00090E080E00E94B60453CF812FDD2029F0D0
:103CE0000E9403070E94C1054BCF0E94E805FACF4E
:103CF000802F837091F5D11043CF412F4295469587
:103D00004770440F440F812F8F70042E01C0880F1D
:103D10000A94EAF7212F207114FF07C02FE030E04A
:103D200001C0220F4A95EAF72095302F3695369537
:103D30003370323069F050F440917D05313029F014
:103D4000822B84230E94AA0B1BCF842B822BFACFB9
:103D5000282B80917D058227F5CF8695DD2011F0F7
:103D6000802F8170882309F40BCF412F429546950F
:103D70004770440F440F812F8F70042E01C0880FAD
:103D80000A94EAF7212F207114FF07C02FE030E0DA
:103D900001C0220F4A95EAF72095302F36953695C7
:103DA0003370323069F050F440917E05313029F0A3
:103DB000822B84230E94520BE3CE842B822BFACFDA
:103DC000282B80917E058227F5CFF02FFF70BF2E24
:103DD000DD2029F08F2F0E94890B812F24CF812F86
:103DE0000E94BF0B8B2D0E94610BCACE123F89F13E
:103DF00060F4103FB9F0113F81F0DD2009F48CC070
:103E0000C11060CE802F8F7128C0133F49F1143F3D
:103E1000A1F78091E40182FF2FC0802F8F71DD20F8
:103E200011F31BC080910004DD2079F0C81608F062
:103E3000A7CE202F2F7181E090E001C0880F2A9536
:103E4000EAF790917E058927B5CF8C1508F498CEB6
:103E5000F0CF802F8F71D110C6CF0E94890B90CEEA
:103E600080E0DD2009F4A6CF81E0902F9F7101C092
:103E7000880F9A95EAF79ECF8091FA038230A0F1DD
:103E80008091D401DD20F1F00E9475098091D70165
:103E90008770843041F40E948209802F8F710E94C4
:103EA000610BA12C6DCE8091FA03C816D0F7202F9C
:103EB0002F71B22E822F0E94890B63E08B2D0E94FE
:103EC000940BEFCF0E947C098091FA03C81640F052
:103ED0000E9482090E946B0A64E0802F8F71EFCFED
:103EE00081E00E946D0BDDCFDD2059F0302F3F7156
:103EF000B32E832F0E94890B63E08B2D0E94940BBD
:103F00003FCE81E00E946D0B41E04C1508F038CEA9
:103F100082E00E946D0B34CEC110B3CE802F8F7122
:103F200062CFDD2019F0C11038CE3BCEC11035CEA6
:103F300020E0F701408151816281738184810E9478
:103F400095128091FB0383FF28CE80917F01909191
:103F50008001029709F021CE812F0E94990D1DCE7C
:103F6000552029F0DC0118968C9185FF6BCAC80199
:103F700097558F3F910511F008F048C020910D0131
:103F800030910E012817390724F490930E01809385
:103F90000D01F701228136E1389F5001399FB00CA5
:103FA0001124A501495F5B4F6A01DA0150962C93F9
:103FB0005097928116968C911697992309F444CACA
:103FC0001A961C930E9319978F5F16968C930E94E6
:103FD0009404F601968785878091DA018783809122
:103FE0007F059091FE02892B80870190F081E02D62
:103FF000309741F0D60154966D917C91C501835F55
:104000009B4F099510930604009305048091F903D2
:1040100080FF39C00E9494046C01D70112968C91E4
:10402000882309F42DCA80911B0182FF08C02BEE62
:1040300031E040E0B60190E080E00E944C0E0B3190
:10404000BCE51B0709F40ECA0C31ECE51E0709F4A8
:104050000FCA90911B01892F8E7F90FF81600A31DA
:10406000FCE51F0709F407CAC8019056811520E234
:10407000920728F0905E8115904108F00FCA1092C7
:10408000220310922103033FBCE51B0709F458CB20
:1040900008F0F4CA083DFCE51F0709F44BCB093DC5
:1040A0002CE5120709F464CB073D3CE5130709F042
:1040B000F1CA06E221EE41EE67ED7CE5C7010E9400
:1040C000BA0D0C94501880917C0190917D010817D5
:1040D000190781F410927D0110927C011092D30394
:1040E0001092D4031092D5031092D6031092DB03E2
:1040F0001092DA038091DC039091DD03009709F4BC
:1041000036CFA8E08A16910408F091C9642D0E9468
:10411000290581112CCF81E00E94230C28CF00318A
:104120003FE5130709F481C801314FE5140711F089
:104130000C94E11782E07AC806311C4509F03DCBAA
:104140008091FE02982F9A7A2091F80320FF04C0F4
:10415000482F447409F090E021FF04C0482F4171BA
:1041600009F090E022FF04C0482F487809F090E061
:1041700023FF03C0827209F090E0332309F442CC9C
:1041800081E0911101C080E080937E0189E291116C
:1041900085E30E947E0A38C9A114B10409F000C960
:1041A000512CB12CA12C80E00E94230CD092DD0375
:1041B000C092DC0381E08093D903F601858180936E
:1041C000D70351100EC0AB2861F0F60180819181B8
:1041D0009C0124503109213A310508F008C90E9498
:1041E000710AD6011696AD90BC90C5019A958115BD
:1041F0009F4110F4E0EEBE2277247394C50101972D
:10420000853A9D4508F0712CD6011996ED91FC91E7
:104210001A97309731F01B966D917C9181E009954A
:104220007822772079F0F601868197810E94B30C7D
:104230008093D803C501F8E08F16910408F0DAC81E
:104240000E94D8040E94A309DCC8CF92DF92EF92AB
:10425000FF920F931F93CF93DF9380918F01807F05
:1042600031F480918C01C091D30181110BC0DF9199
:10427000CF911F910F91FF90EF90DF90CF90089515
:104280002196C770809192018C1789F3F0908A0172
:10429000E0908B01C0908D01D0908E01A6016E2D13
:1042A0008F2D0E944905D0E08111EACF8E0183E075
:1042B000000F111F8A95E1F7F801ED56FE4F81813D
:1042C0008E11DECF80818F11DBCF82818111D8CF1B
:1042D000E380F480EC18FD0860E08AE891E00E9439
:1042E000BE128091F6039091F703E816F90640F6A6
:1042F00080918F018F70806180938F01F801E85663
:10430000FE4F80818F70806180838AE891E00E94F7
:104310006F17DF91CF911F910F91FF90EF90DF907A
:10432000CF900C94B70A3F924F925F926F927F9218
:104330008F929F92AF92BF92CF92DF92EF92FF92B5
:104340000F931F93CF93DF93CDB7DEB765970FB66B
:10435000F894DEBF0FBECDBF8C0185E0F801DE0111
:10436000519601900D928A95E1F7D8014C901196E3
:104370005C9011971296EC9012971396CD90DC906A
:1043800060E08AE891E00E94BE128AE8A82E81E0EF
:10439000B82E80908D0190908E01A40160918B01C8
:1043A00080918A010E9449058111CAC1F0908C0157
:1043B000F601E819F9094F0160E0FF2009F46DC129
:1043C000C5010E94BE126090F6037090F703309012
:1043D0008F018614970408F013C140918D0150910C
:1043E0008E01B0908A01A0908B01832D807F6A2D71
:1043F00009F0ADC08B2D0E944905FE2C81113BC0F8
:10440000D80111968C9111978A1135C08C918B111E
:1044100032C0209190013091910116968D919C911E
:104420002817390741F5E11026C0832D8F70806170
:1044300080938F018AE891E00E946F1780918F012D
:10444000F80185838F2D65960FB6F894DEBF0FBEF9
:10445000CDBFDF91CF911F910F91FF90EF90DF9033
:10446000CF90BF90AF909F908F907F906F905F9014
:104470004F903F900895F4EF6F16F1E07F0620F41F
:104480008091FB0380FF21C0A601652D842D0E9431
:104490004905811118C081E08E2580FF16C04E2D80
:1044A000652D842D0E94970A882379F08AE891E08F
:1044B0000E946F1788E0EAE8F1E0DF011D928A951B
:1044C000E9F7F12CBFCF80E0E8CFA601652D842D60
:1044D0000E944905811124C081E08E25B82FB1705A
:1044E000CB2E80FF2BC04E2D652D842D0E94970A68
:1044F000D82E811123C0498A5A8A89899A890E94B3
:104500007B12292F22952F70223060F0243088F4FE
:104510009F7061F0F8019581907F41F4FD2C92CF5E
:1045200080E0DCCF9F7011F08823C1F3805E88307B
:10453000A8F3C8010E946F17DC2CF0CFEE2009F41D
:1045400081CF80918F01816080938F01BACF8B2DB5
:104550000E944905811124C0D80111968C911197B0
:104560008A111EC08C918B111BC02091900130913B
:10457000910116968D919C9117972817390781F410
:10458000E1100EC015963C92C8010E946F1788E09A
:10459000F801AAE8B1E001900D928A95E1F752CFB7
:1045A000C8010E948712882339F1EE2029F18091F9
:1045B0008F018032A0F020918A0130918B013A87DF
:1045C00029871B86DD86CC868E878091900190910D
:1045D0009101988B8F87CE0109960E946F1788E012
:1045E000F801AAE8B1E001900D928A95E1F70E94E6
:1045F0002521FF24F39426CFC8010E946F17F9CF1D
:10460000832D807F09F452CF90908A0180908B0196
:1046100040918D0150918E01682D892D0E94490590
:1046200081111CC0F8018181881118C08081891115
:1046300015C02091900130919101868197812817B2
:10464000390761F4E1100AC03582C8010E946F1772
:1046500088E0D5011D928A95E9F7F4CEC8010E9441
:104660008712882349F2EE2039F280918F0180323F
:1046700008F4B5CF20918A0130918B013A832983C8
:104680001B82DD82CC828E8380919001909191017A
:1046900098878F83CE010196A0CF8AE891E00E948F
:1046A000BE128091F6039091F7038816990680F662
:1046B000FE2CEE2009F4A0CFE0908A01D0908B016F
:1046C00040918D0150918E016D2D8E2D0E944905D6
:1046D000811128C0F80181818D1124C080818E1143
:1046E00021C02091900130919101868197812817F6
:1046F0003907C1F48091FB0382FD49CF90918F016E
:1047000090FD45CF907F09F442CF80918F01858342
:10471000903F09F439CF982F907F905F8F70892B4D
:10472000858332CFC8010E948712811158CF8091B2
:104730008F01816080938F01C8010E946F1782CE24
:10474000EE2009F459CFC8010E948712F82E882361
:1047500009F452CF88E0F801AAE8B1E001900D9287
:104760008A95E1F780918A0190918B010E947B12DA
:104770000E94252167CECF93DF93CDB7DEB7609738
:104780000FB6F894DEBF0FBECDBF29873A874B879F
:104790005C876D877E878F87988BCE0109960E94F4
:1047A000932181112FC088E0FE013996DE01119618
:1047B00001900D928A95E1F74C855D856A85898522
:1047C0000E94490581111EC0A0919201B0E0CD0167
:1047D0000196877099272091D3012817190609F1AE
:1047E00093E0AA0FBB1F9A95E1F7AD56BE4F98E034
:1047F000FE01319601900D929A95E1F78093920116
:104800000E94B70A8091D30190919201891317C039
:1048100060960FB6F894DEBF0FBECDBFDF91CF918B
:1048200008950E942B16109292011092D30188E0F5
:10483000EAE8F1E0DF011D928A95E9F7E3CFB8E0FD
:104840008B9FC00111248D569E4F0E949321882377
:10485000F9F28091D30190E00196877099278093B7
:10486000D301D0CFDF92EF92FF920F931F93CF939C
:10487000DF9380912603882369F0C0912503E12C02
:104880008CE0F82E80912603C81760F01092260362
:1048900010922503DF91CF911F910F91FF90EF9020
:1048A000DF900895DD24D394DC0ED09225030C2FE5
:1048B00010E0CF9DE0011124C95DDC4F4B815C818C
:1048C000698188810E94490581112CC08E819F8158
:1048D000892B21F488859985019651F428813981A5
:1048E0004A815B816C817D818E819F810E94BB2387
:1048F000F09EF001F19EF00D1124E95DFC4F148251
:10490000138210927F05E1100DC0CE010E94871224
:10491000811108C08FE39CE90197F1F700C0000006
:10492000EE24E394CD2DAECF1092CA031092C903AA
:1049300010921C018091C8038093C7030E948205D6
:104940000C9432243F924F925F926F927F928F929B
:104950009F92AF92BF92CF92DF92EF92FF920F930E
:104960001F93CF93DF93C091C70397E0892E01E097
:1049700010E02CE0322E3EEF932E4424439480919D
:10498000C8038C1315C00E943224DF91CF911F9170
:104990000F91FF90EF90DF90CF90BF90AF909F90DE
:1049A0008F907F906F905F904F903F900C94820516
:1049B000D0E0FE01EE0FFF1FE154FC4F808191819A
:1049C000889ED001899EB00D1124A957BC4F149622
:1049D0002C911497211157C050902603E7E2F3E081
:1049E00030E020E0712C5D01251508F04AC0E2841A
:1049F000F384D501CD90DC906FEF7FEF612C462DD5
:104A000050E0DA01AA0FBB1FAC0DBD1D0D90BC918B
:104A1000A02D109731F0EA16FB0609F4BA01639451
:104A2000EECF6F3F7607A1F1D80102C0AA0FBB1FDE
:104A30006A95E2F77A2AB80102C0660F771F6A9476
:104A4000E2F7AB014150510974161506F9F4329E94
:104A5000F001339EF00D1124E95DFC4F889ED001DA
:104A6000899EB00D1124A957BC4F12962D913C91EF
:104A7000139737832683908291829187808715963A
:104A80004C920E9454052196C37079CF14821382F0
:104A90002F5F3F4F3C96A8CF2F923F924F925F924D
:104AA0006F927F928F929F92AF92BF92CF92DF923E
:104AB000EF92FF920F931F93CF93DF93CDB7DEB7A3
:104AC00069970FB6F894DEBF0FBECDBF942F498B08
:104AD000252F5A8B6B8B7C8B8D8B4C895D89622F3C
:104AE000892F0E944905811109C080917F01909111
:104AF000800101969093800180937F018B898111C1
:104B000010927F051D861E861F86188A85E0FE018D
:104B10007196DE01199601900D928A95E1F78091C8
:104B2000E40182FD1EC08091E0039091E103892B96
:104B3000C1F00E9494042091D5013091D601821BCE
:104B4000930B2091E0033091E1038217930720F04B
:104B50008091D70182FFF5C10E94890981110E94CD
:104B60004F094C855D856A8589850E9449058111BB
:104B700011C061E0CE0109960E94BE126C018B85C6
:104B800027EFC2162CE5D20681F4882321F181E0BB
:104B900080931C0129853A854B855C856D857E85D2
:104BA0008F8598890E94BB23C5C038EFC3163CE5AA
:104BB000D30629F4882379F00E949424EBCF49EF9F
:104BC000C4164CE5D40639F4882329F080911C01E1
:104BD0008111F2CFDCCF07E813E0512CB12CA12CCE
:104BE00022242394312C2EEF422EF8014081518152
:104BF00088248A94982C20E0822F90E0FC01EE0F0C
:104C0000FF1FE40FF51F608171816115710531F09F
:104C1000C616D70609F44C012F5FEECFF12CFFEF3B
:104C20008F169F0609F448C0F8014481F0901C01DA
:104C30008F2D411180E0F82FF170FF2EF801E580F3
:104C400086819B85992309F40CC1FF2009F409C1D1
:104C50006090F4037090F503E11012C0A10101C04F
:104C6000440F8A94EAF7842B8683809123039091E2
:104C700024038615970520F4709224036092230381
:104C8000C10102C0880F991F2A95E2F70197F80128
:104C900026812817190681F48091C9039091CA03CF
:104CA000009709F460C00E9479046816790608F03C
:104CB0005AC021E0F80124835F28FFEFAF1ABF0A32
:104CC000095F1F4F28E0A216B10409F08ECF8B8533
:104CD000882309F421C1552009F41EC10E949404BF
:104CE0009093CA038093C90380912603883010F5FE
:104CF00091E0980F9093260398E0FE013996DE012B
:104D0000119601900D929A95E1F73CE0839FC001C6
:104D10001124895D9C4F28E0FE013196DC01019051
:104D20000D922A95E1F72FEF3FEFFC0131872087A5
:104D3000D386C28669960FB6F894DEBF0FBECDBF8C
:104D4000DF91CF911F910F91FF90EF90DF90CF9067
:104D5000BF90AF909F908F907F906F905F904F909B
:104D60003F902F9008958091C7035091C803982FCA
:104D7000F0E0E0E0851314C09093C703E017F1075B
:104D800009F49ACF90E0FC01EE0FFF1FE154FC4FB5
:104D9000B182A0820196837099278093C8038CCF3B
:104DA000682E712CF301EE0FFF1FE154FC4F2081A0
:104DB000318147E0429FD001439FB00D1124A95794
:104DC000BC4F6D917C911197798F688F40E020E006
:104DD00030E0E32FF0E0EE0FFF1F688D798DE60FD6
:104DE000F71F8080918081149104E1F0F801019017
:104DF000F081E02DFF8BEE8B20E005C08616970634
:104E000009F44F2D2F5FE22FF0E0EE0FFF1F6E89A8
:104E10007F89E60FF71F608171816115710571F758
:104E20003F5FD7CF4423D1F0F801231708F0FD01ED
:104E300021E024830E171F0721F49093C703F42E5B
:104E40003BCF981305C0AE17BF0711F49F5F937057
:104E500093012F5F3F4F822F83708CCFF0E0E0E013
:104E6000F7CF90E0E1101FC0B10102C0660F771FBD
:104E70002A95E2F79B01215031098217930731F4FB
:104E8000442309F447C0C5010E945405C10101C073
:104E9000880F8A94EAF7982F9095F80186818923E4
:104EA0008683FE2C09CF9C01082C02C035952795DE
:104EB0000A94E2F7A90141705527BC0161507109BC
:104EC00086239723892B11F5452B01F1F801828167
:104ED0009381892BC1F01B821C821D821E82498214
:104EE0004A820E9494048160582F9D838C83F8012C
:104EF000828193818F83988729813A814B816D814B
:104F00007E810E94BB23F8011582C0CFF22FF17081
:104F1000EF2EBCCFEF2CBACF9091C7038091C8037E
:104F2000981731F00E94A224552009F433CE02CF05
:104F30000E9432241092CA031092C9030E94820573
:104F4000F3CF82E00E946D0B07CECF93DF9300D0AA
:104F500000D00F92CDB7DEB79093FB028093FA0298
:104F6000811520E2920748F40F900F900F900F9058
:104F70000F90DF91CF910C94E40C8EEF89838A839C
:104F80001B820E9494048160782F9D838C834981C9
:104F90005A816B818D810F900F900F900F900F9021
:104FA000DF91CF910C944C250F931F93CF93DF93F8
:104FB0008C01EB0165E172E08C2F0E94BF14892BFC
:104FC000A1F48091FC039091FD030E94FC0CDD276D
:104FD000C35FDD4F8881F80110821882833009F1A8
:104FE00048F4813059F0823081F0DF91CF911F91E8
:104FF0000F9108958430D1F08530B9F78091150272
:1050000090911602009789F306C080911702909143
:105010001802009799F3DF91CF911F910F910C9493
:10502000A5278091190290911A02F3CF80911B025B
:1050300090911C02009779F7209115023091160289
:10504000809117029091180221153105D9F200972D
:1050500011F7C901E0CFCF93DF9300D000D00F92BA
:10506000CDB7DEB79093FB028093FA02811520E260
:10507000920748F40F900F900F900F900F90DF91D0
:10508000CF910C94210E8EEF89838A8381E08B83EC
:105090000E9494048160782F9D838C8349815A817A
:1050A0006B818D810F900F900F900F900F90DF917B
:1050B000CF910C944C25BF92CF92DF92EF92FF924A
:1050C0000F931F93CF93DF93B82EC0907E058091EE
:1050D0007D05C82AC7E0D0E0D12CF12CE12CD70106
:1050E000C6010C2E04C0B695A795979587950A948E
:1050F000D2F780FF1FC04B2D60E08C2F0E94D8118B
:105100008C0181309105B1F00E942B288FE39CE93E
:105110000197F1F700C00000C8010E94A52781E0B7
:10512000DF91CF911F910F91FF90EF90DF90CF9083
:10513000BF900895219798F64B2D60E080E00E9483
:10514000D811EC010E942B288FE39CE90197F1F71D
:1051500000C00000CE01E1CFCF93DF93EC010E94AD
:105160002B288091FC039091FD030E94FC0CCE0142
:10517000DF91CF910C94A5270F931F93CF93DF93CB
:105180008C01862F65E172E00E94BF14892BC9F45F
:10519000C0911502D0911602209799F0F8018081F4
:1051A000833069F4CE010E94AC28CE010E94AC2865
:1051B000CE01DF91CF911F910F910C94AC288430D8
:1051C000B8F7DF91CF911F910F9108950F931F931F
:1051D000CF93DF938C01EB0165E172E08C2F0E948D
:1051E000BF14892B09F064C0FE01FF27D8018C9100
:1051F000E35FFD4F8130D9F419969C91199799235B
:1052000011F080830CC01A969C919923D1F382E00F
:10521000808380911702909118020097D9F48091B1
:10522000150290911602009709F442C013C0823013
:10523000E9F519968C91199781112DC01A968C91C8
:1052400081110EC083E080838091190290911A022F
:10525000009719F1DF91CF911F910F910C942B289A
:1052600084E0808380911B0290911C02009791F74B
:1052700080911502909116020097F9F00E94AC28D7
:105280008091170290911802009721F780911502E2
:1052900090911602DFCF85E0808380911502909176
:1052A0001602009729F00E94AC28F0CF86E0808398
:1052B000DF91CF911F910F910895809117029091E6
:1052C0001802B1CF78941F921FB61F9211248F93AA
:1052D0009F93AF93BF938091BF049091C004A0911E
:1052E000C104B091C2040196A11DB11D8093BF04F9
:1052F0009093C004A093C104B093C204BF91AF9136
:105300009F918F911F901FBE1F9018951F921FB6DF
:105310001F9211248F939F93AF93BF938091BD04ED
:10532000811113C08091BF049091C004A091C10469
:10533000B091C2044196A11DB11D8093BF0490930A
:10534000C004A093C104B093C204BF91AF919F91D8
:105350008F911F901FBE1F901895CDB7DEB7649731
:105360000FB6F894DEBF0FBECDBF0E949404909399
:10537000FF018093FE0180E890E00FB6F8948093DF
:105380006100909361000FBE8BE697E090937301EC
:10539000809372010E94D3140E94D2150E94291595
:1053A0000E94B31180916900886080936900E99A36
:1053B0008BE480938C058093C105809398058AE5E2
:1053C00080938B058093C00580939705539A80E066
:1053D000815009F0CAC05398789482E084BD93E06C
:1053E00095BD9AEF97BD80936E000E94CC128111FB
:1053F00002C00E94B01408E511E08DE5E82E81E0BE
:10540000F82EF80181918F018F3F11F00E946D07F6
:10541000E016F106B1F780E60E946D0781E60E9472
:105420006D0782E60E946D0783E60E946D0785E0A6
:10543000E9EFF1E0DF01282F1D922A95E9F7EEED63
:10544000F1E0DF011D928A95E9F790E080E00E948B
:105450009431893E9E4F21F40E94CC12811102C0EA
:105460000E94051782E090E00E948C318093E50154
:105470000E94E5129093E4018093E3010E943616A6
:10548000EFE3FCE93197F1F700C000000E94361607
:105490008091F90180FF08C06FEF7FEF90E080E01E
:1054A0000E94B8310E94640483E090E00E948C3135
:1054B0000E94AA0B3D98459A3C98449A8FE891E047
:1054C0000197F1F700C0000086B185FB882780F9BD
:1054D000349953C090E0892B8093F50181E091E0ED
:1054E0009093BA048093B9049FEFA0E7B2E0915083
:1054F000A040B040E1F700C000008E010F5F1F4FD9
:10550000EE24EA94FAE0FF2EA0E34A2EA3E05A2EFE
:10551000B4E02B2E312C8091A605D090BE048823B8
:1055200071F11092A6050E9494049093FF0180935C
:10553000FE01DD2009F403C51092BE040E942B1663
:105540000E94CC048091BE04882309F4F8C40E9410
:105550008A0C0E943616E9EFF1E08191811190C426
:1055600021E0EE3FF207C9F7D6CFA895AFE9BFE03B
:105570001197F1F700C000002BCF92E0ACCFD11013
:10558000E6CF8091FE019091FF010E947904069779
:1055900008F4D5C481E08093BE040E948A0CD7CF62
:1055A0009F5FBB0C943009F0EBC44FEFC41AD40AD0
:1055B00085E0C816D10409F0D8C4E88AE98A1A8AB5
:1055C0000E9494048160782F9C8B8B8B4889598929
:1055D0006A898C890E944C25F0C4B6E1B89FF0011D
:1055E000B99FF00D1124E95FFB4FC288D388C11425
:1055F000D10421F4C090F603D090F70326E1289F50
:10560000F001299FF00D1124E95FFB4F868188236B
:10561000A9F0858596850E947904C816D90670F48C
:1056200046E1B49E60011124C601895F9B4F0E9430
:105630002C0AC601835F9B4F0E94E709B3948B2D10
:1056400090E020910D0130910E01281739072CF6BA
:1056500001C58091C9039091CA03009709F4FEC463
:105660000E947904209123033091240328173907DD
:1056700008F0F4C49091C7038091C803981759F0BB
:105680000E94A22410922403109223031092CA03B2
:105690001092C903E3C40E9432241092CA031092EC
:1056A000C9030E948205DAC482E090E006C5209119
:1056B00018012F9D900111242417350708F05EC5AD
:1056C0009F5F9093010202C09F3FD1F7AA2059F03B
:1056D0000E94A4069FEF1A140CF491E0899F802D7C
:1056E000112480930902BB2059F00E94A4069FEF69
:1056F0001B140CF491E0899F802D112480930A02E1
:1057000030910902332309F439C520910A0222237A
:1057100009F434C545EB3403C0011124992359F031
:105720009093090245EB240390011124332339F0AF
:1057300030930A0223C581E080930902F3CF81E010
:1057400080930A021BC5209114012F9D9001112402
:105750002417350708F027C59F5F9093000202C009
:105760009F3FD1F7CC2059F00E946B069FEF1C148D
:105770000CF491E0899F802D112480930B02DD2091
:1057800059F00E946B069FEF1D140CF491E0899F65
:10579000802D112480930C0230910B02332309F4E5
:1057A00002C520910C02222309F4FDC445EB340309
:1057B000C0011124992359F090930B0245EB240367
:1057C00090011124332339F030930C02ECC481E0B2
:1057D00080930B02F3CF81E080930C02E4C48D3000
:1057E00009F49FC0C0F4843009F478C048F48230D2
:1057F00061F108F05FC0813011F1E0924B053AC0D1
:10580000863009F48BC008F479C08C30B1F780E1A0
:1058100080934C052FC0813109F4EEC040F48F30E5
:1058200009F4B6C008F482C00E944D1323C083312E
:1058300009F414C108F4E2C08E3FF9F6F8C41092DE
:105840004C0589E080934D0515C080914C05823050
:1058500009F468C3833099F0813079F60E94880496
:105860000E944F3160934D0570934E0580934F0514
:10587000909350058BE4C82E85E0D82EDEC280912F
:105880000F0190911001892BA9F38091F901809368
:105890004D058091FA0180934E058091FB01809324
:1058A0004F058091FC01809350058091FD0180930C
:1058B0005105E0CF80914C05823009F09ECF609178
:1058C0004D0570914E0580914F05909150050E94B5
:1058D0004F3186E290E00E949A31CCCF40914E0544
:1058E00060914D0580914C050E94011298278927EF
:1058F00098279093500580934F05BCCF20914F057A
:105900003091500532272327322740914E05609170
:105910004D0580914C050E948E13ACCF0E94F81368
:10592000A9CF82E080934C0585E18CCFC0904E05D5
:10593000D12C8DE1C816D10408F09CCFA0904C0565
:10594000B0904D05BA24AB24BA24EBE48E2EE5E0EA
:105950009E2ED601A55BBA4F6D01C50185519E4FA4
:10596000C814D90409F486CFB5E1AB16B2E0BB0682
:1059700058F40E948C31F4018483BFEFAB1ABB0A48
:10598000EFEF8E1A9E0AE9CFD40114961C92F5CF40
:1059900080910F0190911001892B09F46BCFA09099
:1059A0004E05B12CFDE1AF16B10408F063CFC090F5
:1059B0004C05D0904D05DC24CD24DC247BE4872EDF
:1059C00075E0972EAC0CBD1CC60185519E4FAC14E2
:1059D000BD0409F44FCF25E1C21622E0D20628F417
:1059E000D40114966C910E949A31BFEF8B1A9B0AD6
:1059F000EFEFCE1ADE0AE8CF84E00ACFC0904E0562
:105A0000D12CFDE1CF16D10408F034CFA0904C0585
:105A1000B0904D05BA24AB24BA246BE4862E65E021
:105A2000962EC601855B9A4F6C01C50187968C1432
:105A30009D0409F41FCFA0EAAA16B10458F40E94ED
:105A40008C31F4018483BFEFAB1ABB0AEFEF8E1ADF
:105A50009E0AEBCFD40114961C92F5CFA0904E0570
:105A6000B12CFDE1AF16B10408F004CFC0904C0595
:105A7000D0904D05DC24CD24DC2420EAC216D104CC
:105A800008F0F8CE80EA90E08C199D098A159B05F4
:105A900008F4F0CE5BE4852E55E0952EAC0CBD1CD1
:105AA000C6018796AC14BD0409F4E4CE40EAC416DE
:105AB000D10428F4D40114966C910E949A31BFEF5E
:105AC0008B1A9B0AEFEFCE1ADE0AEACF88E0EFE1ED
:105AD000F1E0D80101900D928A95E1F7EBE4F5E051
