:100000000C94C30F0C94E00F0C94E00F0C94E00FD1
:100010000C94E00F0C94E00F0C94E00F0C94E00FA4
:100020000C94E00F0C94E00F0C94421A0C944220B4
:100030000C94B72B0C94E00F0C94E00F0C94E00F91
:100040000C94E00F0C94E00F0C94E00F0C94E00F74
:100050000C94E00F0C941B1B0C94E00F0C94E00F1D
:100060000C94E00F0C94E00F0C94E00F0C94E00F54
:100070000C94E00F0C94E00F0C94E00F0C94E00F44
:100080000C94E00F0C94E00F0C94E00F0C94E00F34
:100090000C94E00F0C94E00F0C94E00F0C94E00F24
:1000A0000C94E00F0C94E00F0C94E00F0501090292
:1000B000A10185020901A100050919012905150001
:1000C00025019505750181029501750381010501E1
:1000D000093009311581257F950275088106093897
:1000E0001581257F950175088106050C0A380215D2
:1000F00081257F950175088106C0C005010980A191
:1001000001850319012AB700150126B7009501756D
:10011000108100C0050C0901A101850419012AA064
:1001200002150126A002950175108100C005010984
:1001300006A1018506050719E029E71500250195A7
:1001400008750181020507190029EF1500250195A1
:10015000F0750181020508190129059505750191C0
:1001600002950175039101C00660FF0961A10109B3
:1001700062150026FF0095207508810209631500AD
:1001800026FF00952075089102C005010906A1010E
:10019000050719E029E71500250195087501810279
:1001A0009501750881010507190029FF150026FF33
:1001B0000095067508810005081901290595057542
:1001C000019102950175039101C00000000000003B
:1001D000000000000000000000000000000000001F
:1001E000000000000000000000000000000000000F
:1001F00000000000000000000000000000000000FF
:10020000000000000000000000000000808080402E
:1002100040202010080402040810102020404080D4
:10022000800000000000000000000000000000004E
:1002300000000000000000000000000000000000BE
:1002400000000000000000000000000000000000AE
:10025000000000000000000000000000000000009E
:10026000000000000000000000000000000000008E
:10027000000000000000000000000000003FC1017D
:100280000102020404040402020101010000000052
:1002900000008000004080804000003030000000FE
:1002A00000010264180412C2CA2488F08080404011
:1002B00040402020202010101010080808080404D6
:1002C000040402020202010101010000000000001A
:1002D000000000000000000000000000000000001E
:1002E000000000000000000000000000000000000E
:1002F000000000000000000000000000E0180601FF
:1003000000000000000000000000008083834040E7
:100310004040202121201010101008080808040473
:1003200004040202020201010101000000000000B9
:1003300000000000000000000000000000000000BD
:1003400000000000000000000000000000000000AD
:10035000000000000000000000000000000000009D
:10036000000000000000000000008080808040400D
:1003700040402020202010101010080F080804040E
:10038000040402040810102020404041422498C078
:1003900088888C9C1C1E0E060000000000000000D7
:1003A000000000000000000000000000000000004D
:1003B000000000000000000000000000000000003D
:1003C000000000000000000000000000000000002D
:1003D000000000000000000000000000000000001D
:1003E000000000000000000000000000000000000D
:1003F00000000000000000000000000000000000FD
:1004000000000000000000000000000000000000EC
:1004100000000000000000000000000000000000DC
:1004200000000000000000000000000000000000CC
:1004300000000000000000000000000000000000BC
:1004400000000000000000000000000000000000AC
:10045000000000000000000000000000000000009C
:10046000000000000000000000000000000000008C
:10047000000000000000000000000000000000007C
:10048000000000000000000080808040402020101C
:100490000804020408101020204040808000000062
:1004A000000000000000000000000000000000004C
:1004B000000000000000000000000000000000003C
:1004C000000000000000000000000000000000002C
:1004D000000000000000000000000000000000001C
:1004E000000000000000000000000000000000000C
:1004F0000000000000000000003FC10101020204F2
:100500008444444282010101000000000000800098
:1005100000408080400000303000000000010204F4
:100520000408081020408080808040404040202007
:100530002020101010100808080804040404020207
:1005400002020101010100000000000000000000A3
:10055000000000000000000000000000000000009B
:10056000000000000000000000000000000000008B
:100570000000000000000000E018060100000C036D
:10058000000218190005FE8083834040404020216E
:10059000212010101010080808080404040404089E
:1005A000304080800000018698600000000000005C
:1005B000000000000000000000000000000000003B
:1005C000000000000000000000000000000000002B
:1005D000000000000000000000000000000000001B
:1005E00000000000000080808080404040402020CB
:1005F000202010101010080F080804040404020240
:1006000002020101010100000000000000000000E2
:10061000000000000000000000060F0F0703036148
:10062000F0F8FC600101013C78F8F0700000000077
:1006300000000000000000000000000000000000BA
:1006400000000000000000000000000000000000AA
:10065000000000000000000000000000000000009A
:10066000000000000000000000000000000000008A
:10067000000000000000000000000000000000007A
:10068000000000000000000000000000000000006A
:10069000000000000000000000000000000000005A
:1006A000000000000000000000000000000000004A
:1006B000000000000000000000000000000000003A
:1006C000000000000000000000000000000000002A
:1006D000000000000000000000000000000000001A
:1006E000000000000000000000000000000000000A
:1006F00000000000000000000000000000000000FA
:100700000000000080808040402020100804020487
:1007100008101020204040808000000000000000F1
:1007200000000000000000000000000000000000C9
:1007300000000000000000000000000000000000B9
:1007400000000000000000000000000000000000A9
:100750000000000000000000000000000000000099
:100760000000000000000000000000000000000089
:1007700000000000003FC101010202048444444221
:100780008201010100000000000080000040808024
:10079000400000303000000000010264180412C262
:1007A000CA2488F080804040404020202020101043
:1007B00010100808080804040404020202020101DF
:1007C0000101000000000000000000000000000027
:1007D0000000000000000000000000000000000019
:1007E0000000000000000000000000000000000009
:1007F00000000000E018060100000C0300021819B8
:100800000005FE80838340404040202121201010BD
:10081000101008080808040404040202020201017E
:1008200001010000000000000000000000000000C6
:1008300000000000000000000000000000000000B8
:1008400000000000000000000000000000000000A8
:100850000000000000000000000000000000000098
:1008600000008080808040404040202020201010E8
:100870001010080F08080404040402020202010117
:100880000101000000000000000000000000000066
:100890000000000000000000000000000000000058
:1008A0000000000000000000000000000000000048
:1008B0000000000000000000000000000000000038
:1008C0000000000000000000000000000000000028
:1008D0000000000000000000000000000000000018
:1008E0000000000000000000000000000000000008
:1008F00000000000000000000000000000000000F8
:1009000000000000000000000000000000000000E7
:1009100000000000000000000000000000000000D7
:1009200000000000000000000000000000000000C7
:1009300000000000000000000000000000000000B7
:1009400000000000000000000000000000000000A7
:100950000000000000000000000000000000000097
:100960000000000000000000000000000000000087
:100970000000000000000000000000000080804037
:1009800040402020202020180402010204081020EA
:1009900020404080800000000000000000000000B7
:1009A0000000000000000000000000000000000047
:1009B0000000000000000000000000000000000037
:1009C0000000000000000000000000000000000027
:1009D0000000000000000000000000000000000017
:1009E0000000000000000000000000000000000007
:1009F000003FC101010202040404040202010000DC
:100A000000000000000080000040808040000030B6
:100A1000300000000001020404080810204080801B
:100A200080804040404020202020101010100808F6
:100A3000080804040404020202020101010100008A
:100A400000000000000000000000000000000000A6
:100A50000000000000000000000000000000000096
:100A60000000000000000000000000000000000086
:100A7000E0180601000000000000000000000080F7
:100A8000838340404040202121201010101008088E
:100A90000808040404040408304080800000018633
:100AA000986000000000000000000000000000004E
:100AB0000000000000000000000000000000000036
:100AC0000000000000000000000000000000000026
:100AD0000000000000000000000000000000808016
:100AE0008080404040402020202010101010080F2F
:100AF00008080404040402040810102020404041A7
:100B00004224180000000000000000000000000067
:100B100000000000000000000000000001010100D2
:100B200000000000000000000000000000000000C5
:100B300000000000000000000000000000000000B5
:100B400000000000000000000000000000000000A5
:100B50000000000000000000000000000000000095
:100B60000000000000000000000000000000000085
:100B70000000000000000000000000000000000075
:100B80000000000000000000000000000000000065
:100B90000000000000000000000000000000000055
:100BA0000000000000000000000000000000000045
:100BB0000000000000000000000000000000000035
:100BC0000000000000000000000000000000000025
:100BD0000000000000000000000000000000000015
:100BE0000000000000000000000000000000000005
:100BF0000000000000000000000000008080404075
:100C000040201008040201020408102040808000E7
:100C100000000000000000000000000000000000D4
:100C200000000000000000000000000000000000C4
:100C300000000000000000000000000000000000B4
:100C400000000000000000000000000000000000A4
:100C50000000000000000000000000000000000094
:100C6000000000000000000000000000003FC10183
:100C70000102020404040402020101010000000058
:100C800000000000008000008000006060000001A3
:100C9000020404080810102020408080808040401A
:100CA00040402020202010101010080808080404DC
:100CB0000404020202020101010100000000000020
:100CC0000000000000000000000000000000000024
:100CD0000000000000000000000000000000000014
:100CE000000000000000000000000000C0300C0305
:100CF00000000000000000000000008086864040E8
:100D00004040212222201111101008080808040474
:100D100004040408304080800000018698600000D0
:100D200000000000000000000000000000000000C3
:100D300000000000000000000000000000000000B3
:100D400000000000000000000000000000000000A3
:100D50000000000000000000000080808080404013
:100D600040402020202010101010080F0808040414
:100D700004040204081010202040404142241800BE
:100D80000000000000000000000000000000000063
:100D90000000000000000000010101000000000050
:100DA0000000000000000000000000000000000043
:100DB0000000000000000000000000000000000033
:100DC0000000000000000000000000000000000023
:100DD0000000000000000000000000000000000013
:100DE0000000000000000000000000000000000003
:100DF00000000000000000000000000000000000F3
:100E000000000000000000000000000000000000E2
:100E100000000000000000000000000000000000D2
:100E200000000000000000000000000000000000C2
:100E300000000000000000000000000000000000B2
:100E400000000000000000000000000000000000A2
:100E50000000000000000000000000000000000092
:100E60000000000000000000000000000000000082
:100E700000000000000000008080808040402010C2
:100E800008040204081020408080000000000000D8
:100E90000000000000000000000000000000000052
:100EA0000000000000000000000000000000000042
:100EB0000000000000000000000000000000000032
:100EC0000000000000000000000000000000000022
:100ED0000000000000000000000000000000000012
:100EE0000000000000000000007E820202040408EE
:100EF00008080804040201010000000000000000CE
:100F0000008000008000006060000101020404080D
:100F100008101020204080808080404040402020E9
:100F2000202010101010080808080404040402020D
:100F300002020101010100000000000000000000A9
:100F400000000000000000000000000000000000A1
:100F50000000000000000000000000000000000091
:100F60000000000000000000C0300C030000000082
:100F700000000000000000808686404040402122A2
:100F800022201111101008080808040404040408A1
:100F90003040808000000186986000000000000062
:100FA0000000000000000000000000000000000041
:100FB0000000000000000000000000000000000031
:100FC0000000000000000000000000000000000021
:100FD00000000000000080808080404040402020D1
:100FE000202010101010080F080804040404020444
:100FF000081010202040404142241800000000004A
:1010000000000000000000000000000000000000E0
:1010100000000000010101000000000000000000CD
:1010200000000000000000000000000000000000C0
:1010300000000000000000000000000000000000B0
:1010400000000000000000000000000000000000A0
:101050000000000000000000000000000000000090
:101060000000000000000000000000000000000080
:101070000000000000000000000000000000000070
:101080000000000000000000000000000000000060
:101090000000000000000000000000000000000050
:1010A0000000000000000000000000000000000040
:1010B0000000000000000000000000000000000030
:1010C0000000000000000000000000000000000020
:1010D0000000000000000000000000000000000010
:1010E0000000000000000000000000000000000000
:1010F000000000008080808040402010080402042E
:101100000810204080800000000000000000000067
:1011100000000000000000000000000000000000CF
:1011200000000000000000000000000000000000BF
:1011300000000000000000000000000000000000AF
:10114000000000000000000000000000000000009F
:10115000000000000000000000000000000000008F
:10116000000000001C34C404040408080808080433
:1011700004020101000000000000800000408080A7
:10118000400000303000010102020404040808108D
:10119000204080808080404040402020202010104F
:1011A00010100808080804040404020202020101E5
:1011B000010100000000000000000000000000002D
:1011C000000000000000000000000000000000001F
:1011D000000000000000000000000000000000000F
:1011E00000000000E0180601000000000000000000
:1011F00000000080838340404040202121201010C7
:101200001010080808080404040404083040808012
:10121000000001869860000000000000000000004F
:1012200000000000000000000000000000000000BE
:1012300000000000000000000000000000000000AE
:10124000000000000000000000000000000000009E
:1012500000008080808040404040202020201010EE
:101260001010080F080804040404020408101020D9
:10127000204040414224180000000000000000000F
:10128000000000000000000000000000000000005E
:10129000010101000000000000000000000000004B
:1012A000000000000000000000000000000000003E
:1012B000000000000000000000000000000000002E
:1012C000000000000000000000000000000000001E
:1012D000000000000000000000000000000000000E
:1012E00000000000000000000000000000000000FE
:1012F00000000000000000000000000000000000EE
:1013000000000000000000000000000000000000DD
:1013100000000000000000000000000000000000CD
:1013200000000000000000000000000000000000BD
:1013300000000000000000000000000000000000AD
:10134000000000000000000000000000000000009D
:10135000000000000000000000000000000000008D
:10136000000000000000000000000000008080403D
:1013700040402020202020180402010204081020F0
:1013800020404080800000000000000000000000BD
:10139000000000000000000000000000000000004D
:1013A000000000000000000000000000000000003D
:1013B000000000000000000000000000000000002D
:1013C000000000000000000000000000000000001D
:1013D0000000000000000000000000000000000607
:1013E0000D31C101010102020204040202010000E8
:1013F00000000000000080000040808040000030BD
:101400003000000000010204040808102040808021
:1014100080804040404020202020101010100808FC
:101420000808040404040202020201010101000090
:1014300000000000000000000000000000000000AC
:10144000000000000000000000000000000000009C
:10145000000000000000000000000000000000008C
:10146000E0180601000000000000000000000080FD
:101470008383404040402021212010101010080894
:101480000808040404040408304080800000018639
:101490009860000000000000000000000000000054
:1014A000000000000000000000000000000000003C
:1014B000000000000000000000000000000000002C
:1014C000000000000000000000000000000080801C
:1014D0008080404040402020202010101010080F35
:1014E00008080404040402040810102020404041AD
:1014F000422418000000000000000000000000006E
:1015000000000000000000000000000001010100D8
:1015100000000000000000000000000000000000CB
:1015200000000000000000000000000000000000BB
:1015300000000000000000000000000000000000AB
:10154000000000000000000000000000000000009B
:10155000000000000000000000000000000000008B
:10156000000000000000000000000000000000007B
:10157000000000000000000000000000000000006B
:10158000000000000000000000000000000000005B
:10159000000000000000000000000000000000004B
:1015A000000000000000000000000000000000003B
:1015B000000000000000000000000000000000002B
:1015C00000000000000000000000000000007E0F8E
:1015D00000D4FFFFFFC700000078000000000000FB
:1015E00000002A2B2800000000000000000000007E
:1015F000000000000029000000002C1E34202122E1
:1016000024342627252E362D3738271E1F20212249
:10161000232425263333362E37381F0405060708C2
:10162000090A0B0C0D0E0F101112131415161718B2
:10163000191A1B1C1D2F3130232D350405060708F0
:10164000090A0B0C0D0E0F10111213141516171892
:10165000191A1B1C1D2F3130354C00DA0281FFD9BD
:10166000F1DB20A4A62EAF00A0C000A1C800AED51B
:1016700080A81FD300408D14200020202000534359
:10168000522000202020004E554D002020200043F5
:10169000415000556E646566696E65640047414D52
:1016A00045004D414300464E004241534500FD3741
:1016B0007A585A000004E6D6B4460200210116000A
:1016C0000000742FE5A3E0023C00DD5D003D888949
:1016D000C65436C3174FE4DE8DD9FB8DBAD56516D7
:1016E000EE66FC1EA6C528D15E7518C863454CA7DA
:1016F0003EC357D23C8D87C7E241ACE4EE6EA24FA9
:10170000016516209D694265B41D43B9187ED3E575
:10171000274F0273C236C60DDD5F1553008DBD85A0
:101720008FDB926FF946D9E142F29F44CD1DB5247B
:10173000E87CA14AB75AFB1327C897EDDACBBF4B19
:10174000F87CC87531CAA926779C6C41C77E455D77
:10175000981EA0D1A91D91253D6B0EE02A5AC04BC1
:10176000A3C1EDDEAD6A24DB911FAC752B6EF5B61F
:10177000A30A498AF00B1EBDEE7A565207E3369D46
:10178000D609A00F9BA6983D5D904F116FA2AFCBDD
:10179000D515F38EDAA6397C5A76E6828889AB5164
:1017A000F14A6BDF51FCC17EAEFD00000000FA087B
:1017B000ED9FF34A9D8A0001F901BD040000278BCB
:1017C000B924B1C467FB020000000004595A2B0081
:1017D00014000800150017001C000C0013002F0057
:1017E0002A004A0039001A00160009000A001800F1
:1017F00012000F00300031004D00E100040007002E
:10180000060005000B000E003300340028005200D3
:10181000E0001D001B00190011000D00360037000C
:101820003800E50051000151E2002C002C002C0092
:101830001000E6000153E40050004F0029001E0094
:101840002000210022002300250027002D004C004D
:101850004E0035001F003B003D003E0024002600E6
:1018600042002E0045004B0001003A003C00010000
:1018700001003F0041004300440045000100010019
:101880000100010001000100400001000100010011
:10189000010001000100005C005C005C010001002F
:1018A0000100010001000100000001000100010031
:1018B0000100010001000100010001000100010020
:1018C0000100010001000100010001000100010010
:1018D0000100010001000100010001000100010000
:1018E00001000100010001000100010001000100F0
:1018F00001000100010001000100010001000100E0
:1019000001000100010001000100010001000100CF
:1019100001000100010000000100010001000100C0
:1019200001000100010001000100010001000100AF
:10193000010001000100010001000100010001009F
:10194000010001000100010001000100010001008F
:10195000010001000100010001000100010001007F
:10196000010001000100010001000100010001006F
:10197000010001000100010001000100010001005F
:1019800001000100000000AF00AE09025B0003018E
:1019900000A0FA090400000103010100092111015E
:1019A000000122400007058103080001090401002D
:1019B0000203000000092111010001222200070595
:1019C000820320000107050303200001090402002F
:1019D000010300000009211101000122BC000705DC
:1019E000840320000112010002000000086B6662FF
:1019F000660100010203011C037600690061006CAE
:101A0000003A0066003600340063003200620033A2
:101A10000063000000120346007200750069007444
:101A2000006200610072000000160366007200751B
:101A3000006900740079006B0065006500620000B9
:101A4000000403090407087F0807003E5B4F5B3E64
:101A5000003E6B4F6B3E001C3E7C3E1C00183C7EE3
:101A60003C18001C577D571C001C5E7F5E1C00004C
:101A7000183C180000FFE7C3E7FF00001824180017
:101A800000FFE7DBE7FF0030483A060E0026297921
:101A9000292600407F05050700407F05253F005AA5
:101AA0003CE73C5A007F3E1C1C0800081C1C3E7F83
:101AB0000014227F2214005F5F005F5F0006097F31
:101AC000017F00006689956A006060606060009434
:101AD000A2FFA2940008047E04080010207E2010BB
:101AE0000008082A1C0800081C2A0808001E1010FC
:101AF0001010000C1E0C1E0C0030383E3830000652
:101B00000E3E0E060000000000000000005F000016
:101B100000000700070000147F147F1400242A7FB0
:101B20002A12002313086462003649562050000030
:101B30000807030000001C224100000041221C0095
:101B4000002A1C7F1C2A0008083E0808000080703C
:101B5000300000080808080800000060600000204D
:101B600010080402003E5149453E0000427F4000FB
:101B7000007249494946002141494D330018141269
:101B80007F10002745454539003C4A49493100410D
:101B90002111090700364949493600464949291E9D
:101BA0000000001400000000403400000000081491
:101BB00022410014141414140000412214080002DD
:101BC00001590906003E415D594E007C1211127CFC
:101BD000007F49494936003E41414122007F414151
:101BE000413E007F49494941007F09090901003E02
:101BF00041415173007F0808087F0000417F410088
:101C0000002040413F01007F08142241007F4040F6
:101C10004040007F021C027F007F0408107F003ECE
:101C20004141413E007F09090906003E4151215EC4
:101C3000007F091929460026494949320003017FDE
:101C40000103003F4040403F001F2040201F003F55
:101C50004038403F00631408146300030478040311
:101C6000006159494D4300007F4141410002040891
:101C7000102000004141417F0004020102040040A5
:101C800040404040000003070800002054547840C2
:101C9000007F2844443800384444442800384444F1
:101CA000287F0038545454180000087E0902001898
:101CB000A4A49C78007F080404780000447D4000C0
:101CC000002040403D00007F102844000000417F7C
:101CD0004000007C04780478007C08040478003814
:101CE0004444443800FC182424180018242418FC08
:101CF000007C080404080048545454240004043FA1
:101D00004424003C4040207C001C2040201C003C1F
:101D10004030403C004428102844004C9090907C77
:101D2000004464544C440000083641000000007731
:101D30000000000041360800000201020402003CDD
:101D40002623263C00000000000000404040F0F840
:101D5000F8FF38FFF8F83FF8F8FF38FFF8F8F040E0
:101D6000404000000000000080C0C0C0800000C0F3
:101D7000C08000000080C0C000C0C0000080C0C0A3
:101D80000000000000C0C0C0C0C000C0C000000013
:101D90000000000000000000000000000000000043
:101DA0000000000000000000000000000000000033
:101DB0000000000000000000000000000000000023
:101DC00000000000C0F0F8FC3E1E06010000007F8D
:101DD0004141417F007F4141417F000080C0E07E62
:101DE0005B4F5BFEC00000C000DCD7DEDEDED7DC70
:101DF00000C0000000000000000000000000000023
:101E00000000000000000000000000494949FFFFF9
:101E1000FFFFE0DFBFBF00BFBFDFE0FFFFFFFF4905
:101E2000494900000000001F3F6060E0BF1F007FC5
:101E30007F071E381E077F7F007F7F0E1F3B71606C
:101E400000000000007F7F0C0C0C007E7E007F7E77
:101E50000303007F7E03037E7E03037F7E000F3E2D
:101E6000703C063C703E0F00327B49493F7E007F4C
:101E70007E0303001E3F69696F260000000000001A
:101E800000000000030F1F3F3C7870600000007FDF
:101E90004141417F007F4141417F00307B7F78306D
:101EA000202030787F3B0003000F7F0F0F0F7F0F44
:101EB000000300000000000000000000000000001F
:101EC0000000000000000000000000010101070FF9
:101ED0000F7F0F7F0F0F7E0F0F7F0F7F0F0F0701F9
:101EE00001010000000000000000000001010000EE
:101EF00000000000000000000000000000000000E2
:101F000000000000000000000000000000000000D1
:101F100000000000000000000000000000000000C1
:101F200000000000000000000000000000000000B1
:101F300000000000000000000000000000000000A1
:101F40000000000000000000000000000000000091
:101F50000000000000000000000000000000000081
:101F60000000000000000000000000000000000071
:101F70000000000000000000000000000000000061
:101F800000000000000011241FBECFEFDAE0DEBF2A
:101F9000CDBF11E0A0E0B1E0E8ECFBE602C00590A7
:101FA0000D92A837B107D9F725E0A8E7B1E001C045
:101FB0001D92A630B207E1F70E94DE2B0C94BE35CD
:101FC0000C940000CF93DF934091040550910505D8
:101FD000445053409A0124583D4F21303240C0F0C4
:101FE00020E032E0241B350B609102037091030363
:101FF000FC01CA01240F351FC1E0D0E0821793070E
:1020000050F07093030360930203DF91CF91089522
:102010002CE732E0E9CF4491DC01AC5FBC4F5C912E
:10202000451781F04C93AC01A5E056954795AA95CC
:10203000E1F7DE0102C0AA0FBB1F4A95E2F7AD012E
:102040006A2B752B01963196D9CF9091FB02899F0F
:10205000C0011124811522E0920714F090E080E085
:102060008C5F9C4F90930505809304050895E8EDDF
:10207000F0E080818E7F80831092E2001092DA007F
:102080001092E100A0EEB0E08C9181608C93808191
:102090008F77808319BCA7EDB0E08C918E7F8C93F5
:1020A00080818F7E80831092C80208952091E40081
:1020B0003091E50095E6A9012091EC00822F817016
:1020C00020FF06C08091E80080FF06C080E00895F0
:1020D0002091E80022FD1AC08091ED02882389F04A
:1020E000853089F08091EB0085FD0FC02091E400E0
:1020F0003091E50042175307F9F29150E1F684E080
:10210000089582E0089583E0089581E00895EF92B4
:10211000FF920F931F93CF937C018B010E94561067
:10212000C82F811117C08091E80085FD0BC08091F8
:10213000E8008E778093E8000E945610882399F378
:10214000C82F08C0F70181917F018093F1000150F1
:10215000110949F78C2FCF911F910F91FF90EF90AC
:1021600008958091EF0287FF13C08091E80082FFFD
:1021700006C08091E8008B778093E80004C08091CE
:10218000ED028111F2CF08958091ED028823D9F3F9
:102190008091E80080FFF8CF8091E8008E77ECCF47
:1021A000982F9093E900242F762F50E0891731F073
:1021B0007091EC002091ED005091F00021FD07C0DE
:1021C0009F5F973071F78093E90081E00895309127
:1021D000EB003E7F3093EB003091ED003D7F30937C
:1021E000ED003091EB0031603093EB007093EC0028
:1021F0002093ED005093F0002091EE0027FDE0CFFA
:1022000080E00895CF92DF92EF92FF920F931F9399
:10221000CF93DF93C8EDD0E088818F7E8883E7ED90
:10222000F0E080818160808384E082BF81E08093E0
:10223000C80288818E7F888302EE10E0F801108248
:102240001092DA0081EEC82ED12CF601108288811E
:102250008F77888388818068888388818F7D888351
:1022600019BC1092ED021092EE021092EC02109244
:10227000EB0290EEE92EF12CF70180818B7F8083B9
:1022800088818160888342E060E080E00E94D01015
:10229000F60180818E7F8083F80180818160808358
:1022A000808188608083F70180818E7F8083888130
:1022B00080618883DF91CF911F910F91FF90EF9004
:1022C000DF90CF900895FC018091F5029091F60285
:1022D00086179707A0F06115710529F49091E80021
:1022E0009E779093E80090E06115710551F491118B
:1022F00008C08091E80082FF34C080E00895BC01EE
:10230000F2CF8091ED028823C1F18530C1F1809137
:10231000E80083FD30C08091E80082FDEACF809123
:10232000E80080FFE1CF8091F3002091F200382F88
:102330006115710519F02830310558F091E0283009
:10234000310509F090E02091E8002E772093E80015
:10235000CBCF81918093F100615071092F5F3F4F86
:10236000E7CF8091ED02882341F0853041F08091E4
:10237000E80083FFBECF81E0089582E0089583E006
:10238000089508958091CA02089587E797E790938A
:1023900001088093000888E19AE00FB6F894A895A8
:1023A000809360000FBE90936000FFCF2FB7F8942A
:1023B0006091BF027091C0028091C1029091C202EF
:1023C0002FBF08952091BC023091BD022817390714
:1023D00071F09093BD028093BC02E091BA02F0913B
:1023E000BB02309721F00084F185E02D0994089517
:1023F0002091B8023091B9022817390771F09093F3
:10240000B9028093B802E091BA02F091BB02309712
:1024100021F00680F781E02D09940895E091BA0239
:10242000F091BB02309721F00190F081E02D0994EA
:1024300080E008959091AA02803F59F48091AB0208
:1024400087FF0DC01092AB0291110BC01092A20237
:1024500008C0813F81F48091AB0218169CF3992348
:1024600081F08091AC029091AD02892B09F064C09B
:102470001092A1020895823F49F497FFF0CF109285
:10248000AA028091AB028111ECCFE0CF833F19F417
:102490001916ACF3E4CF2091AC02893F29F412164F
:1024A000F4F61092AC02DBCF8A3F19F427FFD7CFA6
:1024B000F8CF2091AD028B3F29F427FFD0CF1092A7
:1024C000AD02CDCF8C3F19F41216CCF3C8CF843FA8
:1024D00031F48091A9028E7F8093A902C0CF853FFD
:1024E00021F48091A9028D7FF7CF863F21F480915E
:1024F000A9028B7FF1CF873F21F48091A902877FCA
:10250000EBCF883F21F48091A9028F7EE5CF8D3FEC
:1025100031F48091A3028E7F8093A302A0CF8E3FDF
:1025200021F48091A3028D7FF7CF8F3F09F097CFE1
:102530008091A3028B7FF0CF08958091A30280FD4C
:1025400016C081FD16C082FD16C08091A1028823AD
:10255000A1F0883280F428E0829FC001112468E253
:1025600070E00E94DB34862F672B39F0089582E0FB
:10257000089584E0089588E0089581E008958091A9
:10258000A30280FD14C081FD14C082FD16C080919D
:10259000A202882381F08E3180F420E5829FC00161
:1025A00011246EE170E00E94DB34862F089584E1EF
:1025B000089588E2089588E0089580E50895803FB1
:1025C00031F40E94BF1281958093AB020895813F40
:1025D00019F40E94BF12F8CF823F31F40E94BF125B
:1025E00081958093AA020895833F19F40E94BF1237
:1025F000F8CF893F29F40E949D128093AC02089580
:102600008A3F21F40E949D128195F7CF8B3F31F4D0
:102610000E949D1281958093AD0208958C3F19F41C
:102620000E949D12F8CF843F31F48091A90281600D
:102630008093A9020895853F21F48091A9028260C8
:10264000F7CF863F21F48091A9028460F1CF873FC4
:1026500021F48091A9028860EBCF883F21F480911A
:10266000A9028061E5CF8D3F31F48091A3028160A2
:102670008093A30208958E3F21F48091A30282608B
:10268000F7CF8F3FB9F78091A3028460F1CF80E04C
:102690000895F894E82FE295EF70F0E031A1282F2B
:1026A0002F7081E090E001C0880F2A95EAF7982FFB
:1026B0009095932391A392A1892B82A37894089556
:1026C0009091C30292FF06C0282F28712830F9F498
:1026D000877F846093FF06C0282F28712831F1F48A
:1026E000877E84612091C40220FF06C0382F387194
:1026F0003830D9F4877F816021FF06C0282F2871E8
:102700002831D1F4877E816194FD877E0895282F3A
:1027100024712430F9F68B7F8860DCCF282F247158
:10272000243101F78B7E8861DDCF382F3171313054
:1027300019F78E7F8860E0CF282F2171213121F792
:102740008E7E8861E1CFCF93DF93EC0182389105D3
:10275000A9F1D8F58133910509F496C048F589327D
:10276000910509F48AC08A9709F495C0C11521E53D
:10277000D20708F0BCC0C11530E5D30708F014C17A
:10278000C83ED10508F09CC0C03ED10560F5C83AEE
:10279000D10508F087C0C53AD10508F0FDC0C130A9
:1027A000D10509F12097F9F0C430D105E0F440C01B
:1027B0008533910509F45AC0C997C1F68091C302C7
:1027C000837089F0C0EED0E00EC0833E910599F190
:1027D00070F4803E910501F1823E910539F68091B9
:1027E000C30282FD21C0CE01DF91CF910895863EC4
:1027F000910561F1873E910571F1843E910509F0E3
:10280000B5CF8091C40281FFEECF8091C302C7EEA5
:10281000D0E084FD0DC0E7CF8091C30280FD12C1DE
:102820009091C40290FFDFCFC3EED0E084FFDBCFF6
:10283000D0E0C0E0D8CF8091C30282FD06C1909164
:10284000C40290FDBFCF84FFCECFF2CF8091C302F0
:1028500083FDDDCFC8CF8091C30283FDF9C0909185
:10286000C40291FFF0CFC4EED0E0BDCF8091C3028F
:1028700085FFB9CFC9E2D0E0B6CF8091C30285FF12
:10288000B2CFC5E3D0E0AFCF8091C30286FFABCF1C
:10289000CAE2D0E0A8CF8091C30286FFA4CFC1E3F3
:1028A000D0E0A1CFCF3BD10518F6C85AD0E0CC0F6D
:1028B000DD1FCE5DDE4F0990D881C02DD46493CF4B
:1028C000C11540E2D40758F4C11581E0D80708F0DB
:1028D0008ACFC03FD10508F4ABCFD06584CFC115F6
:1028E00090E4D90708F4A4CFDF70D06A7CCFC1157B
:1028F00025E5D20700F5C11534E5D30708F08AC0F5
:10290000C11543E5D40708F071C0C11582E5D807A9
:1029100008F467C0CE018370992721E030E002C03F
:10292000220F331F8A95E2F7C695C69580E2C89FAD
:10293000E001112452C0C11599E5D907A8F4C115C9
:1029400028E5D20708F06BC0C11536E5D30708F0BB
:102950006FCF8C2F0E946013C82FD0E0DC2FCC27C4
:10296000CC27DF71D0623FCFC1154AE5D40708F408
:102970005BC0CE0190568115904208F059CF8D2F43
:102980008F710E94601390E0982F882788279F718D
:102990009C012C2BE901E6CFC55AD0E0C15EDE4F89
:1029A000C881D0E0D0641FCFCE01E4E09695879532
:1029B000EA95E1F783702C2F26952695237040E247
:1029C000249F90011124382B8C2F8370C1E0D0E01C
:1029D00002C0CC0FDD1F8A95E2F7C22BD32BDC6837
:1029E00002CFDC2FCC27C16FD06AFDCECE01837021
:1029F000992721E030E002C0220F331F8A95E2F7C9
:102A0000C695C69590E2C99FE0011124C22BD32B35
:102A1000DA68E9CEDC2FCC27C46FD06AE4CEDC2F95
:102A2000CC27C06FD06ADFCE8C2F8F700E946013CE
:102A300034E0D695C7953A95E1F7CF709C2FEC011D
:102A4000D069D1CEC9E3D0E0CECEC2EED0E0CBCEBD
:102A5000C6EED0E0C8CE80911202882331F01092E9
:102A60001202109211021092100208958095909116
:102A70000F02982390930F0208951092ED01109287
:102A8000EC011092EB0108958091EA0181111092FE
:102A9000EA010895909116019923D1F09091C30213
:102AA00097FF16C0E82FE695E695E695EE31E0F43F
:102AB000F0E0E658FE4F282F277081E090E001C03B
:102AC000880F2A95EAF78095928189238283089559
:102AD000ECE7F1E09191891303C0DF0111971C929B
:102AE00091E0E238F907B1F7089590911601992322
:102AF000C1F09091C30297FF14C0E82FE695E695C8
:102B0000E695EE31F8F4F0E0E658FE4F877021E0EC
:102B100030E001C0220F8A95EAF78281822B8283FE
:102B20000895ACE7B1E0EFEF90E02D91821751F0FE
:102B3000EF3F19F4211101C0E92F9F5F9630A9F7EB
:102B4000EF3F09F408950E2E000CFF0BE658FE4FE0
:102B5000E6CF8091E9019091B801981301C00895E2
:102B60008F5F8770FACF9E3F49F1E82F2BE0929F4D
:102B7000E00D11249E2F9770E695E695E69583E08B
:102B8000E89FF0011124E356FE4F50E040E080E062
:102B9000219130E0092E02C0369527950A94E2F77C
:102BA00021703327042E01C0220F0A94EAF7822BEA
:102BB0004F5F5F4F4330510559F7089580E0089506
:102BC0009E3F69F1E82F2BE0929FE00D11248E2F9C
:102BD000877041E001C0440F8A95EAF7E695E695D3
:102BE000E69583E0E89FF0011124E356FE4F30E0C4
:102BF00020E070E05191DF011197CB01022E02C05D
:102C0000969587950A94E2F78170819585278423AC
:102C100085278C932F5F3F4F2330310559F7089557
:102C2000982F92959F7011F0892F94E0282F269568
:102C3000269511F09E5F822F869509F09F5F892F60
:102C400008959C013A9521153F4150F5FC01EE276E
:102C5000F170BC0166277270AC01442754709C016E
:102C60002227387094FF0EC080E1EF2B09F480E03A
:102C7000672B09F08062452B09F08064232B89F0D3
:102C80008068089581E0EF2B09F480E0672B09F05C
:102C90008260452B09F08460232B19F08860089529
:102CA00080E00895809169028B30F0F480919B015F
:102CB00090E0019665E070E00E94DB3480939B0118
:102CC00024E030E0281B390B4CE752E0249FC00180
:102CD000259F900D349F900D1124825C964F0C948B
:102CE000E20F82EC96E0FBCF8431D8F380919A0119
:102CF00090E001968170992780939A0121E030E05D
:102D0000281B390B4CE752E0249FC001259F900DF2
:102D1000349F900D112486539E4FE1CFCF92DF92C6
:102D2000EF92FF920F931F93CF93DF936C017B0180
:102D300064E670E088E70E94BA33EC0197FD12C0A8
:102D400010E000E0F601E00FF11F849164E670E00E
:102D50000E943434EC01892B29F40F5F1F4F0E15AC
:102D60001F0581F70E94B734CE01DF91CF911F91EB
:102D70000F91FF90EF90DF90CF9008958091B60271
:102D80009091B702911103C091E08927089588239B
:102D900069F062E070E088E899E10E948E16892B64
:102DA00019F08091B60208951092B6028091B60291
:102DB000EBCFCF93C091B6028091B7028823D1F0B8
:102DC0000E94D611605A75418F4F9F4F6093B20297
:102DD0007093B3028093B4029093B502C11108C0FE
:102DE00062E070E086E899E10E948E16892B29F056
:102DF000C091B6028C2FCF91089581E08093B602E6
:102E0000F7CFCF93DF93682F81E06A3019F06D30F0
:102E100029F480E0DF91CF910C9490178091040504
:102E20009091050526E0FC01ACEFB2E001900D9217
:102E30002A95E1F7603E08F45AC026E0FC011192A1
:102E40002A95E9F7C0910405D091050546E050E0C8
:102E5000BE018CEF92E00E9468359E012450334001
:102E6000892B41F1C90145E0969587954A95E1F78F
:102E700041E050E0BA0102C0660F771F8A95E2F781
:102E8000CB016091020370910303862B972BB9014C
:102E90006B5F7F4FE5E076956795EA95E1F702C0B5
:102EA000440F551F6A95E2F7842B952B90930303EB
:102EB000809302032A5F3F4F4091FB02642F70E032
:102EC000C9010E94BB34481B463010F4240F311D49
:102ED000211572E0370710F030E020E02C5F3C4F06
:102EE0003093050520930405DF91CF910895F6E016
:102EF0006F9FB00111246B5B754E46E050E00E945D
:102F00005F35A0CFCF93DF93EC01FE018491811157
:102F100003C0DF91CF9108950E9401172196F5CF4C
:102F2000CF93382FE0910405F0910505E450F3406C
:102F30002091FB02622F70E0CF010E94BB34281B5E
:102F4000822F332361F066E00E94CF34C82FC15036
:102F500010F4CF91089580E20E940117F8CF9F01ED
:102F6000280F311D2115324018F080E0F0E0E0E03C
:102F70008E0F9F2F911D8C5F9C4F90930505809322
:102F80000405E7CF8093C5027093C7026093C60221
:102F90008091ED028430F9F48093E9008FEF9091F5
:102FA000E800815095FD06C095ED9A95F1F7000077
:102FB0008111F5CF8091E80085FF0DC050E040E021
:102FC00063E070E085EC92E00E9487108091E80059
:102FD0008E778093E8000895BC0184E00C94C217BA
:102FE000BC0183E00C94C2179C0184E08093E9004B
:102FF0009FEF8091E800915085FD06C085ED8A9590
:10300000F1F700009111F5CF8091E80085FF0CC029
:1030100050E040E066E070E0C9010E9487108091B6
:10302000E8008E778093E8000895CF93DF93EC015A
:10303000809116018823B1F18091C30287FF32C0CD
:1030400060E284E08093E9008FEF9091E800815086
:1030500095FD06C095ED9A95F1F700008111F5CF29
:103060008091E80085FF1BC08091160170E050E060
:1030700040E0811104C050E040E068E070E0CE0123
:103080000E9487108091E8008E778093E80080E2AC
:10309000FE01ABECB2E001900D928A95E1F7DF9171
:1030A000CF91089568E081E0CDCFCF93DF93CFED4E
:1030B000D1E060E0CE010E948A352196C11584E0FE
:1030C000D807B9F7DF91CF9108950F931F93CF934E
:1030D000DF938901843048F5653038F54B3028F5A9
:1030E00021153C4531F42091140130911501232B19
:1030F000E1F0C42FD0E0CC0FDD1F96E1699FC00D39
:10310000D11D11249EE6899FC00DD11D1124612F70
:10311000CE0187960E948A35602FCE018896DF9176
:10312000CF911F910F910C948A35DF91CF911F9110
:103130000F9108958F929F92AF92BF92CF92DF929C
:10314000EF92FF921F93CF93DF93809014019090A2
:10315000150181E090E090931501809314018EECAD
:10316000C82E87E1D82ED0E07601C0E014C0F5016A
:1031700025913491412F6C2F8D2F0E94651882E08C
:10318000A80EB11C1F5F1B3091F786E1E80EF11C01
:10319000CF5FC53019F0570110E0E9CFDF5F8EE651
:1031A000C80ED11CD43001F7909215018092140101
:1031B000DF91CF911F91FF90EF90DF90CF90BF9064
:1031C000AF909F908F900895CF93C82F6FEF81118C
:1031D00065E883E290E00E948A356FEFC11169E1F2
:1031E00084E290E00E948A356FEFC11161EB85E2C5
:1031F00090E0CF910C948A3580E00E94E41860E062
:1032000086E290E00E948A350E949A180E94551822
:1032100081E00C94E4180F931F93CF93DF938430D5
:1032200030F5653020F54B3010F5C42FD0E0CC0FD1
:10323000DD1F26E1629FC00DD11D11243EE6839F54
:10324000C00DD11D1124CE0187960E947C35082F18
:1032500010E0102F0027CE0188960E947C3598013F
:10326000282BC901DF91CF911F910F91089590E014
:1032700080E0F8CF462F2091B0023091B102232B8D
:1032800091F47E3F39F46E3F71F48091AE029091DB
:10329000AF020895843038F4753028F46B3018F498
:1032A000672F0C940B1990E080E00895CF92DF9285
:1032B000FF920F931F93CF93DF936C010091FA025B
:1032C00080911302082BC7E0D0E010E0FC2EC8016B
:1032D0000C2E02C0959587950A94E2F780FD0CC0EC
:1032E0002197A0F7F12C8F2DDF91CF911F910F9196
:1032F000FF90DF90CF900895B6018C2F0E943A196D
:103300000E94A313019761F3EECFCF93DF93EC01FB
:103310000E945619BE010E943A19DF91CF910C9478
:10332000A313FC01808191810E94851992959F7061
:10333000963091F058F4925F9F70923058F4803F2D
:1033400019F030F4883E30F481E008959A5FF4CFAC
:10335000843FD1F380E00895883EB0F3813FD1F7F8
:10336000F3CF83E290E00E947C35853889F484E2D3
:1033700090E00E947C35893159F485E290E00E940A
:103380007C3591E0813B09F090E0892F81700895B0
:1033900080E0FCCFCF9384E090E00E947C35C82F82
:1033A00082E290E00E947C35982F8C2FCF91089577
:1033B00069EE7EEF90E080E00E94A83560E082E058
:1033C00090E00E948A3560E083E090E00E948A35B8
:1033D0001092130260E084E090E00E948A3560E081
:1033E00082E290E00E948A3560E085E090E00E94F1
:1033F0008A3560E086E090E00E948A356FEF87E0D2
:1034000090E00E948A3540E050E0BA0188E090E008
:103410000E949C3560E08DE090E00E948A3540E09B
:1034200050E0BA0188E190E00E949C3560E087E1BD
:1034300090E00E948A3540E050E0BA018CE190E0D3
:103440000E949C3570E060E080E290E00E94A83528
:1034500040E050E0BA0188E190E00E949C3580E0B5
:103460000E94E4180E94FC1840E050E0BA018FE08E
:1034700090E00E949C3540E050E0BA0183E190E08A
:103480000C949C351F920F920FB60F9211242F931C
:103490003F934F935F936F937F938F939F93AF93DC
:1034A000BF93EF93FF938091E10082FF09C0809169
:1034B000E20082FF05C08091E1008B7F8093E100F4
:1034C0008091DA0080FF24C08091D80080FF20C066
:1034D0008091DA008E7F8093DA008091D90080FF9E
:1034E0009DC080E189BD82E189BD09B400FEFDCFA8
:1034F00081E08093ED028091C802811109C00E9491
:1035000037100E9402118091E20084608093E200F3
:103510008091E10080FF17C08091E20080FF13C01E
:103520008091E2008E7F8093E2008091E2008061D2
:103530008093E2008091D80080628093D80019BC0B
:1035400085E08093ED028091E10084FF2BC08091A3
:10355000E20084FF27C080E189BD82E189BD89B591
:10356000982F917080FFFBCF8091D8008F7D809342
:10357000D8008091E1008F7E8093E1008091E2008D
:103580008F7E8093E2008091E20081608093E20070
:103590008091EE02882309F447C084E08093ED0215
:1035A0008091ED028091E10083FF27C08091E200CD
:1035B00083FF23C08091E100877F8093E10082E058
:1035C0008093ED021092EE028091E1008E7F809355
:1035D000E1008091E2008E7F8093E2008091E20022
:1035E00080618093E20042E060E080E00E94D010C1
:1035F0008091F00088608093F000FF91EF91BF917F
:10360000AF919F918F917F916F915F914F913F917A
:103610002F910F900FBE0F901F90189519BC10920C
:10362000ED021092C80274CF8091E30087FD93E011
:103630009093ED02B5CF78941F921FB61F9211247C
:103640008F939F93AF93BF938091BF029091C002DD
:10365000A091C102B091C2020196A11DB11D80933B
:10366000BF029093C002A093C102B093C202BF9167
:10367000AF919F918F911F901FBE1F9018959C0135
:103680004FB7F8948091BF029091C002A091C102FF
:10369000B091C2024FBF821B930B08952FB7F894CD
:1036A0008091BF029091C002A091C102B091C2026C
:1036B0002FBF08950E944E1B9C019091AA028091F9
:1036C000AB02982B21F03093A7022093A602909191
:1036D000AC028091AD02982B21F03093A50220938B
:1036E000A402E091BA02F091BB02309749F082E067
:1036F0008093A8020480F581E02D88EA92E0099485
:1037000008954F925F926F927F928F929F92AF92A5
:10371000BF92CF92DF92EF92FF920F931F93CF93BE
:10372000DF93CDB7DEB72A970FB6F894DEBF0FBE92
:10373000CDBF8E010F5F1F4F8AE0F80111928A956D
:10374000E9F790E5E92E91E0F92E680125E5422E92
:1037500021E0522E66246394712C40E6842E41E0D1
:10376000942EF70181917F018F3F09F445C0F894B1
:10377000E82FE295EF70F0E021A18F70A30102C065
:10378000440F551F8A95E2F7CA01922F982B91A3F7
:1037900092A18095892382A3789400C0E5E5F1E0A9
:1037A00021E030E0B12CA12C41914F3F09F47EC0C3
:1037B000A42FA295AF70B0E090968C9190E04F70DE
:1037C00002C0959587954A95E2F780FD6FC0C901C3
:1037D000A82AB92A220F331F8E169F0629F7F70150
:1037E000319780818F3F11F00E94491350EA5A951A
:1037F000F1F7F601B182A082F2E0CF0ED11C4E1497
:103800005F0409F0AECF4AE050E0B80187E192E0F2
:103810000E946835FF24F394009709F4F12C892B5A
:1038200009F447C08AE0F801A7E1B2E001900D92E7
:103830008A95E1F781E0809316020E944E1B9093D7
:1038400015028093140280911402909115020E9437
:103850003F1B059790F18091170290911802909369
:103860009802809397028091190290911A02909386
:103870009A028093990280911B0290911C0290936E
:103880009C0280939B0280911D0290911E02909356
:103890009E0280939D0280911F029091200290933E
:1038A000A00280939F021092160207C090E080E071
:1038B0008FCF809116028111C6CF8F2D2A960FB619
:1038C000F894DEBF0FBECDBFDF91CF911F910F9156
:1038D000FF90EF90DF90CF90BF90AF909F908F9030
:1038E0007F906F905F904F90089580910F0290911C
:1038F0000E02892B80937A0180911202882329F18C
:103900000E944E1B2091100230911102821B930BDA
:103910008838934110F00E942B1580917A01909184
:103920001202892B80937A01809116018823D9F1A4
:103930008091C30287FF37C08EE1ECE7F1E090E0B1
:10394000815098F591110E942B1540E250E06EEEE7
:1039500071E08AE791E00E946835892B59F180E295
:10396000EAE7F1E0AEEEB1E001900D928A95E1F761
:10397000E091BA02F091BB023097E1F0809116011C
:10398000882359F08091C30287FF07C080917A0194
:1039900080937B0186E080937A010280F381E02DA1
:1039A0008AE791E0099486E0C8CF2191222341F271
:1039B0009F5FC6CF089590E080E00E94F81190E0EC
:1039C00080E00E94E21110920E020E94751C86E0B7
:1039D000E8EAF2E0DF011D928A95E9F71092A2026F
:1039E0001092A1021092A3020C945A1B8093FA0227
:1039F0000C94DB1C8091FA02982F9670963019F483
:103A000088600C94F61C877FFCCF21E030E001C079
:103A1000220F8A95EAF720958091FA0282230C946E
:103A2000F61C9091ED01809589238093ED01282F5C
:103A3000277091F4282F082E000C330B92171306D1
:103A400059F09091C40292FD07C0859585958595A2
:103A50000E94051D0C943D150895CF93C091C4029A
:103A6000C2FB992790F9981799F080FBC2F9C0938F
:103A7000C4026091C30284E090E00E948A356C2FFA
:103A800082E290E00E948A3582E0CF910C94111D71
:103A9000CF91089521E030E001C0220F8A95EAF726
:103AA0008091FA02822B0C94F61C809313020C94E2
:103AB000DB1C10920F0280911601ECE7F1E08823E5
:103AC00059F08091C30287FF07C08EE1DF011D928C
:103AD0008A95E9F70C94DB1C86E0F8CF1F93CF930F
:103AE000DF93CDB7DEB7AA970FB6F894DEBF0FBE4F
:103AF000CDBF8FEE92E02091F100DC012D93CD013E
:103B0000B2E0873F9B07B9F78091F002833009F458
:103B100072C0B8F4813009F449C0823009F4B3C0EE
:103B20008091E80083FF96C28091EF029091F002AD
:103B30009A3008F08FC2E92FF0E0E054FA4C0C9470
:103B400030358A3009F48EC08B3009F471C0893069
:103B500039F78091EF02813219F78091F302909149
:103B6000F402009711F00297D9F68091E800877F60
:103B70008093E8008091E80082FF38C09091F300C4
:103B80008091F200029731F48091F100813011F0C0
:103B9000863021F48091F1008093CA028091E80080
:103BA0008B778093E8000E94B110BACF8091EF022A
:103BB000813A09F0B5CF8091E800877F8093E800D3
:103BC0008091F3029091F402892B61F460E28BEC16
:103BD00092E070E00E9463118091E8008B778093FF
:103BE000E8009ECF60E090E080E0F3CF8091ED02AE
:103BF0008111C0CF95CF8091EF02813A09F090CF2B
:103C00008091F3029091F402892B09F089CF809181
:103C1000E800877F8093E8008091E80080FFFCCF78
:103C2000809116018093F1008091E8008E77B9CFE2
:103C30008091EF02813209F073CF8091F30290916D
:103C4000F402892B09F06CCF8091E800877F809384
:103C5000E8000E94B1108091F102809316010E9449
:103C6000591D5ECF8091EF02813209F059CF8091CA
:103C7000E800877F8093E8000E94B1108091F202F3
:103C80008093C9024DCF8091EF02813A09F048CF6D
:103C90008091E800877F8093E8008091E80080FFB2
:103CA000FCCF8091C902BECF803899F0823809F0EC
:103CB000D1C18091F3028F70873008F0CBC180931F
:103CC000E9008091EB0085FB882780F91092E900DC
:103CD00006C08091EB029091EC029111826090916C
:103CE000E800977F9093E8008093F1001092F10034
:103CF0008091E8008E77AAC1882309F498C18230A8
:103D000009F0A8C18091F10281119BC18091F30259
:103D10008F702FEF280F263008F09CC18093E900A8
:103D20002091EB0020FF8DC1933031F48091EB00A6
:103D300080628093EB0085C19091EB00906190933D
:103D4000EB0021E030E001C0220F8A95EAF72093D2
:103D5000EA001092EA008091EB008860EACF8111BE
:103D600079C11091F1021F778091E3008078812B57
:103D70008093E3008091E800877F8093E8000E94B1
:103D8000B1108091E80080FFFCCF8091E300806853
:103D90008093E30082E0111183E08093ED025AC129
:103DA0008058823008F056C12091F1023091F20221
:103DB0002C3DE3E03E07A1F583E08A838AE2898314
:103DC0004FB7F894DE01139620E03EE051E2E32F76
:103DD000F0E050935700E49120FF03C0E295EF70AC
:103DE0003F5FEF708E2F90E0EA30C0F0C7968D9362
:103DF0009D932F5F243159F74FBF8091E800877F53
:103E00008093E8006AE270E0CE0101960E9463119F
:103E10008091E8008B778093E8001CC1C096E7CFC3
:103E20008091F3029091F402432F552743305105BE
:103E300009F44AC078F54130510509F485C08BE595
:103E400090E0EAE8F9E14230510509F003C1209120
:103E5000E800277F2093E8002091F5023091F602D8
:103E60008217930708F49C0140E02115310509F001
:103E700070C041116EC08091E80082FDC9CF809171
:103E8000ED02882329F2853019F28091E80083FF42
:103E9000F2CFBECF4132510509F447C0423251053D
:103EA00009F0D8C08330910508F0D4C0FC01EE0FB2
:103EB000FF1FE559FE4F0190F081E02D88599E4F7C
:103EC000DC018C9190E01DC0332721303105E9F0F1
:103ED0002115310579F022303105F9F02330310513
:103EE00009F0B8C0E7EFF9E1E4918E2F90E0E7EF39
:103EF000F9E107C0E1E4FAE1E4918E2F90E0E1E41A
:103F0000FAE1009709F4A6C0A2CFE9E2FAE1E49150
:103F10008E2F90E0E9E2FAE1F4CFE5E1FAE1E491F5
:103F20008E2F90E0E5E1FAE1ECCF8330910508F0C7
:103F300091C0880F991FFC01EF58FE4F0190F0814E
:103F4000E02D89E090E083CF82E190E0E5EEF9E1B9
:103F50007ECF8091ED02882309F45ACF853009F491
:103F600057CF8091E80083FD53CF8091E80082FD18
:103F700082CF8091E80080FF78CF9091F30080910C
:103F8000F2002115310519F08830910550F041E01B
:103F9000089709F040E08091E8008E778093E80070
:103FA00064CF44914093F10031962150310901963C
:103FB000E8CF803809F04EC08091E800877F809379
:103FC000E8008091EE028093F10092CE811142C010
:103FD0001091F1021230F0F58091E800877F809314
:103FE000E8001093EE020E94B110112311F084E05A
:103FF00005C08091E30087FDFACF81E08093ED0258
:1040000042E061EC81E00E94D01042E261EC84E089
:104010000E94D01042E261EC82E00E94D01042E2A5
:1040200060EC83E00E94D0108091ED0213C080917B
:10403000F102813079F481E0933009F080E08093DF
:10404000EC021092E9008091E800877F8093E800FD
:104050000E94B1108091E80083FF0AC08091E800BF
:10406000877F8093E8008091EB0080628093EB0073
:10407000AA960FB6F894DEBF0FBECDBFDF91CF91E9
:104080001F9108951F920F920FB60F9211242F9334
:104090003F934F935F936F937F938F939F93AF93D0
:1040A000BF93CF93DF93EF93FF93D091E900DF703D
:1040B0008091EC00C82FC17080FDC0E81092E9002B
:1040C0008091F000877F8093F00078940E946E1DAD
:1040D0001092E9008091F00088608093F000CD2B71
:1040E000CF70C093E900FF91EF91DF91CF91BF9125
:1040F000AF919F918F917F916F915F914F913F9180
:104100002F910F900FBE0F901F901895882341F0AC
:10411000809590910E02892380930E020C94751C59
:104120000895882339F090910E02982B90930E02F7
:104130000C94751C0895882321F00E9436150C9468
:10414000751C0895882339F090910F02982B909355
:104150000F020C94751C0895882309F452C082380C
:1041600071F40E940E1281FF4CC089E30E94751504
:104170000E94751C89E30E944A150C94751C8338B3
:1041800059F40E940E1280FF3CC083E50E94751511
:104190000E94751C83E5EFCF843859F40E940E12FB
:1041A00082FF2FC087E40E9475150E94751C87E46A
:1041B000E2CF9CEF980F913AF0F290E2980F98308E
:1041C00050F4877091E001C0990F8A95EAF7892F22
:1041D0000E943615D2CF9BE5980F933020F490E0E3
:1041E00080E00C94F81198E5980F973120F490E056
:1041F00080E00C94E211803F20F00E941A120C948F
:104200005A1B0895CF93C82F882309F4AEC0823873
:10421000C1F40E940E1281FDA8C089E30E947515A9
:104220000E94751C2FEF81EE94E021508040904059
:10423000E1F700C0000089E30E944A15CF910C9479
:10424000751C8338A1F40E940E1280FD8EC083E598
:104250000E9475150E94751C2FEF81EE94E021508D
:1042600080409040E1F700C0000083E5E5CF84384E
:10427000A1F40E940E1282FD78C087E40E94751599
:104280000E94751C2FEF81EE94E0215080409040F9
:10429000E1F700C0000087E4CFCF8CEF8C0F813AAC
:1042A00088F580911601882301F18091C30287FF70
:1042B0001CC0EC2FE695E695E695F0E0E658FE4F3B
:1042C000828190E04C2F477021E030E002C0220F45
:1042D000331F4A95E2F782239323892B79F08C2FA1
:1042E0000E944A150E94751C09C0ECE7F1E081911B
:1042F000C817A9F321E0E238F207C9F78C2F0E9412
:1043000075159CCF80E28C0F883068F4C77021E06F
:1043100030E001C0220FCA95EAF780910F02822B8C
:1043200080930F028BCFEBE5EC0FE33040F4F0E02D
:10433000E15EFE4F808190E0CF910C94F811E8E5AA
:10434000EC0FE73150F4F0E0EE0FFF1FEE5DFE4F93
:1043500080819181CF910C94E211C03F30F08C2F7D
:104360000E94DF12CF910C945A1BCF9108951F9396
:10437000CF93DF93182FD0E0C0E0893311F4C0E56C
:10438000D0E0812F0E940221209731F4812FDF910C
:10439000CF911F910C94AC208FE99FE00197F1F72A
:1043A00000C000002197F0CF0F931F93CF93DF93AE
:1043B000C62FD42F022FFC0182818823A1F06093A5
:1043C000F9020E944E1B9093F8028093F702C77087
:1043D00081E001C0880FCA95EAF7DF91CF911F9164
:1043E0000F910C94A2208091F902681335C080913E
:1043F000F7029091F8020E943F1B883C910560F5FE
:1044000010E21D0FCD17B9F080E28C0F883040F418
:10441000C77081E001C0880FCA95EAF70E949B200F
:10442000183048F481E09D2F977001C0880F9A954D
:10443000EAF70E94A220802F0E94B721183098F43A
:10444000D77081E001C0880FDA95EAF7DF91CF914C
:104450001F910F910C949B20C77081E001C0880FC1
:10446000CA95EAF7F3CFDF91CF911F910F9108958D
:10447000AF92BF92CF92DF92EF92FF920F931F9372
:10448000CF93DF93EC018AE0A82E2881222309F440
:104490008CC02130C9F599818A81913021F422960E
:1044A0000E94B72105C0923029F422960E94022171
:1044B0002196EBCF933021F422960E94AC20F8CFC6
:1044C000943011F02196F4CF229630E020E0AE0136
:1044D0004F5F5F4F8053990B8A30910550F0215008
:1044E000310930F38FE99FE00197F1F700C0000038
:1044F000F6CFA29EB001A39E700D11249C01260F41
:10450000371F8981EA01E3CFE22FF0E0E652FA4E4D
:10451000B490822F86958695869590E0FC01E653AF
:10452000FA4EE4902770F12C022E02C0F594E79425
:104530000A94E2F731E0E322FF24FC01E654FA4E4C
:10454000C490D12C022E02C0D594C7940A94E2F7ED
:1045500031E0C322DD24FC01E655FA4E049110E05F
:1045600002C0159507952A95E2F701701127E1140D
:10457000F10419F081EE0E940221C114D10419F056
:1045800086EE0E9402218B2D0E94B721CD2819F0C2
:1045900086EE0E94AC20EF2819F081EE0E94AC203C
:1045A000012B09F485CF8CE27BCFDF91CF911F9156
:1045B0000F91FF90EF90DF90CF90BF90AF90089554
:1045C0009091C40292FD10C098E0899F900111243F
:1045D000622B6093ED010E944A1D0E944E1B909336
:1045E000EC018093EB0108950C944A1D1F93CF9327
:1045F000DF93CDB7DEB767970FB6F894DEBF0FBE77
:10460000CDBF4B8B5C8B6D8B7E8B8F8B6111109232
:104610000E021A8A198A85E0FE017396DE011D9644
:1046200001900D928A95E1F78091C40282FD1CC031
:104630000E944E1B2091EB013091EC01821B930BE9
:104640008838934120F08091ED0182FF7FC00E9465
:104650004E1B2091100230911102821B930B88385F
:10466000934110F00E942B1586E0FE013D96DE017D
:10467000179601900D928A95E1F7CE0107960E9458
:104680003E2A882389F016E08091E9019091B801D3
:10469000891349C067960FB6F894DEBF0FBECDBF31
:1046A000DF91CF911F91089586E0FE013796DE01DC
:1046B000119601900D928A95E1F78A859B85892B49
:1046C00011F38F81988589238F3FE9F22091B801FA
:1046D00030E0C9010196877099274091E901481798
:1046E000190671F40E94591D1092B8011092E90147
:1046F00086E0E2EBF1E0DF011D928A95E9F7C3CF96
:1047000096E0929FD001939FB00D1124A754BE4F05
:10471000FE01319601900D929A95E1F78093B801D0
:104720000E94A915B0CF819FC001112487549E4FCC
:104730000E943E2A882309F4ADCF8091E90190E0E0
:104740000196877099278093E9019ECF82E00E94AD
:10475000111D7DCF0F931F93CF93DF9300D000D017
:104760000F92CDB7DEB78C019093AF028093AE026B
:10477000011580E2180720F5802F0E94AC20C801A7
:104780000E9421169801205E31092830310510F071
:10479000012B59F40F900F900F900F900F90DF9115
:1047A000CF911F910F910C949B200F900F900F9021
:1047B0000F900F90DF91CF911F910F910C94862055
:1047C0008EEF89838A831B820E944E1B8160782F23
:1047D0009D838C8349815A816B818D810F900F90CD
:1047E0000F900F900F90DF91CF911F910F910C942C
:1047F000F6220F931F93CF93DF9300D000D00F9238
:10480000CDB7DEB78C019093AF028093AE02011555
:1048100080E21807E8F4C8010E9421169801205E82
:1048200031092830310518F00115110571F40E9485
:10483000A220802F0F900F900F900F900F90DF917C
:10484000CF911F910F910C9402210E949120F1CFE2
:104850008EEF89838A8381E08B830E944E1B816067
:10486000782F9D838C8349815A816B818D810F9034
:104870000F900F900F900F90DF91CF911F910F919C
:104880000C94F6228F929F92AF92BF92CF92DF92BA
:10489000EF92FF920F931F93CF93DF9300D000D03E
:1048A0000F92CDB7DEB76C01FC0183819481892B17
:1048B00031F08081918189238F3F09F003C50F90EA
:1048C0000F900F900F900F90DF91CF911F910F914C
:1048D000FF90EF90DF90CF90BF90AF909F908F9020
:1048E00008950E945619182F682F89819A810E9475
:1048F000E01569817A81812F0E943A198C01F601B5
:104900002281222309F4D4C490568115F0E29F0736
:1049100050F0905E811530E1930728F0915C81158D
:104920009F4108F03EC0C8019927AC01445051098D
:104930004432510518F08B970E9780F4E0913202C3
:10494000F0E0EE0FFF1FE95CFD4F808191818F3F0A
:104950005FE7950719F0019691838083C801825122
:104960009F45409708F07DC48FEF93E00E947C350F
:104970005EEEF52EF00E0FED11E0882339F18091F7
:10498000ED01877009F49BCFF6018281882309F439
:1049900096CF8091C40282FD92CF82E00E94111DC9
:1049A0008ECF90E080E00F3F110511F008F0BDCFF1
:1049B000C801BBCF011584E0180709F3C8010E94A4
:1049C0007C35811101C0FA940F5F1F4FF110F2CFB7
:1049D00019821A821B821C8299249A9478019FEF73
:1049E000E91AF90AC8010E947C3589831A82882352
:1049F00031F2813009F075C05801E2E0AE0EB11C11
:104A0000C7010E947C35E82E8A83882309F4B7CF3A
:104A1000C5010E947C35F82E8FEF8E0D833068F42F
:104A20005801F3E0AF0EB11CFB82FF2021F0CE0154
:104A300001960E9438228501D1CF8BEF8E0D8330F5
:104A400040F5C8010396FB825C01FF20A1F35801E9
:104A500024E0A20EB11C0E947C358C83882359F37C
:104A60000B811C8101303FEF130710F0102F00273E
:104A700046E0E41651F057E0E51619F0C8010E942F
:104A8000F923C8010E94AA23D6CFC8010E94F923A6
:104A9000D2CF84E0E812CFCF580194E0A90EB11C28
:104AA000C80103960E947C35FF2009F468CF882353
:104AB00009F465CF8150990B989E9001999E300D15
:104AC0001124EF2DE150FF0BCF01820F931F0197AF
:104AD00008F4B1CFEFE9FFE03197F1F700C0000033
:104AE000F6CFCE0101960E9438225701A4CF81E073
:104AF0000E944A1D0E94FA1C42CF81E00E94051DBF
:104B0000F9CF222309F4DCC382E0F2CF053FECE5C4
:104B10001E0709F460C008F45AC0063F3CE51307BD
:104B200009F45DC0222309F4DEC31092F9020330B8
:104B30004DE5140708F05AC00A3F5CE5150730F44C
:104B4000C80182509C45449708F05AC00E94CA1977
:104B50009093C4028093C3020131ECE51E0709F46F
:104B600022C108F09FC009302CE5120709F409C1E1
:104B700008F06EC005304CE5140709F4FAC008F0DF
:104B800054C003308CE5180709F4E9C008F0EDC003
:104B90008091C302816002301C4509F4E3C060913A
:104BA000C3021091C40284E090E00E948A35612F14
:104BB00082E290E00E948A350E94591DE0CE27E2F1
:104BC00045EE65EE71C326E241EE60EE6DC327E26D
:104BD00045EE64EE69C326E241EE62EE65C327E26C
:104BE00045EE66EE61C328E241E0EBCF01368DE58C
:104BF000180709F4ABCF053A9DE5190709F4A6CFCC
:104C00000631FCE51F0709F079C380910F028A7A0B
:104C100091E009F490E090939C018111EEC089E24B
:104C20000E9475150E94751CAACE8091C3028062F5
:104C30000730FCE51F0709F495C08091C30280612D
:104C400008301C4508F48EC08091C30280648AC07D
:104C50008091C3028B7F0D303CE5130709F482C0BD
:104C600070F48091C3028E7F0B305CE5150709F468
:104C700079C008F48CC08091C3028D7F73C080918D
:104C8000C3028F7E0F309CE5190709F46BC0809139
:104C9000C302877F00311C4508F464C08091C302C1
:104CA0008F7D60C00D3FFCE51F0709F478C050F50B
:104CB00005313CE5130709F480C098F48091C302E4
:104CC000837F03315CE5150709F44CC008F46FC01D
:104CD0000E94591D9091C302892F97FB87F9805834
:104CE00041C00B3F9CE5190709F447C008F053C0C9
:104CF0008091C40281600A3F1C4509F050CF809327
:104D0000C4024DCF01302DE5120709F462C0B8F49A
:104D10008091C4028C7F0F3F4CE5140781F3809192
:104D2000C402836001151D4550F38091C402982F81
:104D3000909591708E7F892B90FB81F9E0CF0136A1
:104D40008DE5180709F44BC0053A9DE5190709F4EC
:104D50004DC002301D4509F022CF60E03BC080917C
:104D6000C30282608093C3021ACF8091C302846021
:104D7000F9CF8091C3028860F5CF8091C402826030
:104D8000BECF0E94591D8091C3028068EBCF8091F5
:104D9000C3028C60E7CF8091C4028E7FB0CF809138
:104DA000C4028D7FACCF8091C3028F7BDBCF0E948A
:104DB000591D8091C3028F77D5CF8091C30282FBAA
:104DC000992790F921E0922790FB82F990FB83F9D3
:104DD000C9CF61E08EE090E00E948A35E0CE9091EC
:104DE000C302892F8F7E94FF8061BCCF9091C30254
:104DF000892F8E7F90FF8160B5CF85E311CF85E34A
:104E00007AC20E94591D2FEF34E34CE0215030400C
:104E10004040E1F700C000000E94C51181E08EC251
:104E200080E08CC2C8010E94B315F82E98C2212FD1
:104E30002F70F22E107F19F0F29490EFF922EE20ED
:104E4000B9F0FF2069F080E2800F883010F0811007
:104E500009C080910F02F82AF0920F020E94751C7F
:104E6000802F4AC080910E02F82AF0920E02F6CFEF
:104E7000802F0E94AC20FF2009F440C0005E083063
:104E800010F0811004C08F2D0E94361506C0F094DA
:104E900080910E02F822F0920E020E94751C2EC024
:104EA000312F3F70F32E107F103219F0F29480EF03
:104EB000F822882089F041E0841609F487C0EE20AA
:104EC00009F490C0BB2009F465C0F601858180FF1C
:104ED000C7CF8F7085835EC08091C40282FF35C0CA
:104EE000EE2069F1FF2039F080910F02F82AF0924C
:104EF0000F020E94751C80E00E940221292D28507B
:104F0000330B2430310510F40E940E12AA2009F44C
:104F1000D6CC8091ED0180FDD2CCF6011282859530
:104F2000859585950E944A1DC6010E944224809164
:104F3000ED018595859585950E94051DC0CC80E085
:104F40000E94AC20FF20D1F29ECFEE2039F1B110AB
:104F500004C0809112028F291EC051E0B51210C00A
:104F600082FDCCCF80911202F82AF81639F20E9405
:104F70004E1B9093110280931002F0921202BECF4A
:104F800085E0B812E6CF0E942B158091EA01F81255
:104F9000F092EA018F2D0E94A220B0CFB11006C07E
:104FA0000E942B158F2D0E949B20A8CF91E0B91253
:104FB00008C080910F028F2109F4A0CF0E944415F0
:104FC000EFCFE5E0BE1609F499CFEACFEE2029F045
:104FD000F5E0FB1508F492CFDDCF24E02B1508F4A3
:104FE0008DCFE0CFBB20F1F2F9E38F1209C02FEF94
:104FF00037EE43E0215030404040E1F700C0000070
:10500000802F0E94AC207ACF812F86958695837061
:1050100061F0813009F072CFC8019370E11002C0D5
:1050200090E080E00E94E21169CFC8019370E11026
:1050300002C090E080E00E94F81160CF802FEE2047
:1050400029F00E94DF120E945A1B58CF0E941A12A8
:10505000FACF812F837089F5E11050CF402F429510
:1050600046954770440F440F802F8F70042E01C067
:10507000880F0A94EAF7202F207104FF07C02FE061
:1050800030E001C0220F4A95EAF720951695169553
:105090001370123069F050F430911302113029F07E
:1050A000822B83230E94551D29CF832B822BFACF7D
:1050B000282B809113028227F5CF8695EE2011F0E0
:1050C000812F8170882309F419CF402F429546958E
:1050D0004770440F440F802F8F70042E01C0880F3B
:1050E0000A94EAF7202F207104FF07C02FE030E078
:1050F00001C0220F4A95EAF7209516951695137070
:10510000123069F050F43091FA02113029F0822BFC
:1051100083230E94F61CF2CE832B822BFACF282BFE
:105120008091FA028227F5CF1F70EE2029F0812F9F
:105130000E944A1D802F2FCF802F0E949B20812FFD
:105140000E94051DDBCE802F52EF8516A9F1581560
:1051500070F090EF8916D1F0E1EF8E1691F0EE200D
:1051600009F46FC0B1107CCE812F8F7129C0F3EF8D
:105170008F1649F124EF8212F2CF8091C40282FF90
:105180002DC0812F8F71EE20D9F21AC0EE2079F058
:1051900034E03B1508F4B2CE1F7181E090E001C00D
:1051A000880F1A95EAF79091FA028927B2CF45E065
:1051B0004B1508F4A3CEF0CF812F8F71E110C0CF33
:1051C0000E944A1D9BCE80E0EE2009F4A2CF1F7101
:1051D00081E001C0880F1A95EAF79BCF8091EA0120
:1051E000EE20D9F00E9436158091ED018770843051
:1051F00041F40E943D15812F8F710E94051DA12C45
:105200007DCE54E05B15D8F31F71812F0E944A1D9B
:1052100063E0812F0E94E022F2CF90910F02982B41
:1052200090930F0284E08B1540F40E943D150E947C
:10523000441564E0812F8F71EDCF81E00E94111D34
:10524000DECFBB2059F0893309F0DACE9FEFE7EECD
:10525000F3E09150E040F040E1F7D0CE812F8F7124
:105260006FCF0031FFE51F0709F441CC01313FE565
:10527000130709F446CC033F3CE5130709F4A3CC1C
:1052800008F044CC083D5CE5150709F498CC093DCD
:105290008CE5180709F4A7CC073D9CE5190709F030
:1052A00041CC26E241EE61EEC6010E94D42167CBDB
:1052B00080314FE5940709F420CC81319F45D9F620
:1052C00082E01CCC85E0DE01119601900D928A955A
:1052D000E1F7F601228189819A81211102CB0E9496
:1052E000B315182F06CB06311C4551F580919C0152
:1052F000811185CD89E20E944A1594CC0A352DE5AD
:10530000120709F48BCD58F401154CE5140709F484
:1053100078CD0E3D1C45A1F40E94D81930CB0B3539
:105320008DE5180709F47CCD0C351D4549F48091B5
:10533000C40282FB882780F991E089270E942D1DF5
:10534000F601828100811181882309F46BCDC801A7
:105350000E945619F82E682FC8010E94E015B80166
:105360008F2D0E943A190E94A3138C01882EF601FA
:10537000E280B580B2943FE0B3228091ED01877066
:10538000C1F0AE2CEE20B1F0812F807F803421F06F
:1053900080E2800F883068F08091C40282FD09C0ED
:1053A00082E00E94111D8091ED018770AA24A394D0
:1053B0008111A12C912E92942FE09222FBE0F915FD
:1053C00008F49CCDE92DF0E0E653FA4C0C9430350E
:1053D0001F93CF93DF938091B701807FA9F48091D1
:1053E000B401882389F08091E901D091B8016091DE
:1053F000B2017091B301A091B501B091B601C62F71
:10540000C72316E0D81304C0DF91CF911F910895F0
:1054100090E0109711F0CF3F19F401968770F2CF0A
:10542000189F9001199F300D1124F901E754FE4F88
:1054300041814713F2CF40814613EFCF42814111A2
:10544000ECCF438154814A1B5B0B483C510528F744
:105450008091B7018F7080618093B701F901E254A8
:10546000FE4F80818F708061808382EB91E00E948B
:105470004224DF91CF911F910C94A915AF92BF9256
:10548000CF92DF92EF92FF920F931F93CF93DF9310
:10549000CDB7DEB761970FB6F894DEBF0FBECDBFB4
:1054A0008C0185E0F801DE011D9601900D928A9530
:1054B000E1F7F801E28082EBA82E81E0B82E60913E
:1054C000B5017091B6016115710509F432C1909171
:1054D000B2014091B301892F84238F3F09F429C180
:1054E00020813181C380D480F090B401F601E61BA5
:1054F000F70BFF2009F4E8C08091B701582F507FC7
:10550000E83CF10508F0ABC0511177C0FE2C431305
:1055100021C092131FC0E1101DC08F708061809365
:10552000B701C5010E9442248091B701F80185832B
:105530008F2D61960FB6F894DEBF0FBECDBFDF9101
:10554000CF911F910F91FF90EF90DF90CF90BF9080
:10555000AF900895CD2829F0822F83238F3F09F043
:1055600003C180E0F82FF170DF2E80FF3CC08091F6
:10557000E9014091B80156E0841315C02D873E879C
:105580008D859E850E948519292F22952F702230A6
:10559000F0F0243018F59F70F1F0F8019581907FBC
:1055A000D1F4D12C1EC090E0589FF001599FF00D0E
:1055B0001124E754FE4F6181361306C06081261323
:1055C00003C06281E6120FC001968770D5CF9F702D
:1055D00011F0882331F3805E883018F3C8010E94EF
:1055E0004224FD2CA5CFEE2009F4A2CF8091B70173
:1055F00081608093B701F12C9BCF431306C09213B7
:1056000004C0F801EE2009F479C0C8010E94911984
:10561000882309F1EE20F9F08091B701803270F013
:105620002091B2013091B30138872F831986DB8630
:10563000CA868C87CE0107960E94422486E0F80134
:10564000A2EBB1E001900D928A95E1F70E94E82962
:10565000FF24F3946DCFC8010E944224F9CF511169
:105660000AC082EB91E00E94422486E0F50111928B
:105670008A95E9F7C0CF43130FC092130DC0E11014
:105680000BC0F8018583C8010E94422486E0F50121
:1056900011928A95E9F74CCFC8010E94911988238D
:1056A000D1F2EE20C1F28091B701803238F2209120
:1056B000B2013091B3013A8329831B82DD82CC820F
:1056C0008E83CE010196B8CFE83CF105F8F6FE2CAA
:1056D000EE2009F243131FC092131DC08091B70141
:1056E00080FD10C0982F907F69F0F8018583903F6E
:1056F00031F0982F907F905F8F70892B8583C80140
:105700000E94422486E0F801A2EBB1E001900D92E4
:105710008A95E1F70DCFC8010E94911981118ECFB2
:105720008091B70181608093B701C8010E94422433
:10573000FFCEEE2009F48FCFC8010E949119F82EF8
:10574000882309F488CF86E0F801A2EBB1E001904C
:105750000D928A95E1F78091B2019091B3010E9478
:1057600085190E94E829E4CE81E08E25FBCE1F92A8
:105770001FB61F9211248F939F93AF93BF93809175
:10578000BE02811113C08091BF029091C002A0910E
:10579000C102B091C2024196A11DB11D8093BF020A
:1057A0009093C002A093C102B093C202BF91AF9187
:1057B0009F918F911F901FBE1F901895CDB7DEB798
:1057C000E4970FB6F894DEBF0FBECDBF84B7877FD6
:1057D00084BF0FB6F894A89580916000886180938B
:1057E0006000109260000FBE80E890E00FB6F89461
:1057F00080936100909361000FBE85B7806885BF7C
:1058000085B7806885BF87E493E1909379018093A1
:1058100078010E9437100E9402118091E20084609A
:105820008093E20078948091ED028823A1F010919A
:10583000E9001F709091EC00892F817090FD80E845
:10584000182B1092E9008091E80083FD0E946E1DE4
:105850001F701093E90082E084BD93E095BD9AEF3C
:1058600097BD80936E000E94B119811102C00E9401
:10587000FC1800E511E065E5E62E61E0F62ED801A2
:105880008D918D018F3F11F00E944913E016F106B2
:10589000B1F705E511E050E6E52E51E0F52EF801EF
:1058A00081918F018F3F11F00E944913E016F1069C
:1058B000B1F78AE0E7E9F2E0DF01282F1D922A958F
:1058C000E9F7E7E1F2E0DF011D928A95E9F790E060
:1058D00080E00E948435893E9E4F21F40E94B119D8
:1058E000811102C00E94D81982E090E00E947C35AC
:1058F000809321020E94CA199093C4028093C3022C
:105900000E94811BEFE3FCE93197F1F700C0000032
:105910000E94811B8091970280FF08C06FEF7FEF8C
:1059200090E080E00E94A8350E94C51183E090E0DD
:105930000E947C350E94551D1092920280E880934F
:10594000FB020E94B4336DE070E08DE696E10E94A8
:105950008E16892BE9F58091920263E070E081FD5B
:10596000A7C18AE696E10E948E16892B89F56DE023
:1059700070E08AE596E10E948E16892B49F50E9417
:10598000D611605A75418F4F9F4F6093B20270934A
:10599000B3028093B4029093B502E4E0F3E080E0B8
:1059A00092E0DF019C011D9221503040E1F7F0931D
:1059B0000505E09304058FEF9FEF90930303809319
:1059C000020381E08093B7028093B60210929302A3
:1059D00080E091E09093BB028093BA028091ED0247
:1059E00000E112E1853009F4A2C10E94811BD82E8A
:1059F00081110E94D611A7E9B2E0E2E2F2E010E0E4
:105A000000E0702F8D919D912191319128173907D8
:105A100009F49DC12827392760E0EE24E394F12C96
:105A2000A70142235323452B09F48BC169A77AA709
:105A300097012823392391E0232B09F490E09BA7B9
:105A40000E944E1B8160782F9DA78CA749A55AA55F
:105A50006BA58DA50E94F622000F111FF801EE5DC7
:105A6000FD4F80819181E826F926F182E0828090C5
:105A7000370290903802092C000CAA08BB088091CC
:105A80000C0190E0E7E3F2E021E030E0329682178B
:105A900093070CF073C18091330290913402A0916E
:105AA0003502B09136026FB7F8944090BF02509023
:105AB000C0026090C1027090C2026FBF481A590ABA
:105AC0006A0A7B0A10910C0139EC431651046104F7
:105AD000710414F18091320290E0019669E170E066
