:100000000C9469050C9486050C9486050C94860561
:100010000C9486050C9486050C9486050C94860534
:100020000C9486050C9486050C94590F0C94591564
:100030000C94CE200C9486050C9486050C948605B1
:100040000C9486050C9486050C9486050C94860504
:100050000C9486050C9432100C9486050C9486053D
:100060000C9486050C9486050C9486050C948605E4
:100070000C9486050C9486050C9486050C948605D4
:100080000C9486050C9486050C9486050C948605C4
:100090000C9486050C9486050C9486050C948605B4
:1000A0000C9486050C9486050C94860505010902BE
:1000B000A10185020901A100050919012905150001
:1000C00025019505750181029501750381010501E1
:1000D000093009311581257F950275088106093897
:1000E0001581257F950175088106050C0A380215D2
:1000F00081257F950175088106C0C005010980A191
:1001000001850319012AB700150126B7009501756D
:10011000108100C0050C0901A101850419012AA064
:1001200002150126A002950175108100C005010984
:1001300006A1018506050719E029E71500250195A7
:1001400008750181020507190029EF1500250195A1
:10015000F0750181020508190129059505750191C0
:1001600002950175039101C00660FF0961A10109B3
:1001700062150026FF0095207508810209631500AD
:1001800026FF00952075089102C005010906A1010E
:10019000050719E029E71500250195087501810279
:1001A0009501750881010507190029FF150026FF33
:1001B0000095067508810005081901290595057542
:1001C000019102950175039101C00000000000003B
:1001D000000000000000000000000000000000001F
:1001E00000000000000000000000000000007E0F82
:1001F00000D4FFFFFFC700000078000000000000EF
:1002000000002A2B28000000000000000000000071
:10021000000000000029000000002C1E34202122D4
:1002200024342627252E362D3738271E1F2021223D
:10023000232425263333362E37381F0405060708B6
:10024000090A0B0C0D0E0F101112131415161718A6
:10025000191A1B1C1D2F3130232D350405060708E4
:10026000090A0B0C0D0E0F10111213141516171886
:10027000191A1B1C1D2F3130354C00DA0281FFD9B1
:10028000F1DB20A4A62EAF00A0C000A1C800AED50F
:1002900080A81FD300408D14200020202020005370
:1002A00043522000202020200043415020002020E5
:1002B0002020004E554D2000556E646566696E65C0
:1002C000640A00464E0A0A00426173650A0A004C3D
:1002D000617965723A2000FD377A585A000004E6C9
:1002E000D6B4460200210116000000742FE5A3E0F9
:1002F000023C00DD5D003D8889C65436C3174FE4DB
:10030000DE8DD9FB8DBAD56516EE66FC1EA6C52816
:10031000D15E7518C863454CA73EC357D23C8D8744
:10032000C7E241ACE4EE6EA24F016516209D694222
:1003300065B41D43B9187ED3E5274F0273C236C694
:100340000DDD5F1553008DBD858FDB926FF946D9AA
:10035000E142F29F44CD1DB524E87CA14AB75AFB87
:100360001327C897EDDACBBF4BF87CC87531CAA903
:1003700026779C6C41C77E455D981EA0D1A91D9132
:10038000253D6B0EE02A5AC04BA3C1EDDEAD6A24B9
:10039000DB911FAC752B6EF5B6A30A498AF00B1ED4
:1003A000BDEE7A565207E3369DD609A00F9BA6985C
:1003B0003D5D904F116FA2AFCBD515F38EDAA63904
:1003C0007C5A76E6828889AB51F14A6BDF51FCC1D9
:1003D0007EAEFD00000000FA08ED9FF34A9D8A0002
:1003E00001F901BD040000278BB924B1C467FB02E9
:1003F0000000000004595A2B0014000800150017D3
:10040000001C000C0013002F002A004A0039001ABB
:1004100000160009000A00180012000F0030003119
:10042000004D00E10004000700060005000B000E6F
:10043000003300340028005200E0001D001B0019AA
:100440000011000D00360037003800E500510001B2
:1004500051E2002C002C002C001000E6000153E4B7
:100460000050004F0029001E002000210022002320
:1004700000250027002D004C004E0035001F003BDA
:10048000003D003E002400260042002E0045004BA7
:100490000001003A003C00010001003F0041004320
:1004A00000440045000100010001000100010001BD
:1004B00000400001000100010001000100010001F5
:1004C00000005C005C01000100010001000100016E
:1004D00000000000AF00AE09025B00030100A0FABB
:1004E000090400000103010100092111010001229A
:1004F0004000070581030800010904010002030010
:1005000000000921110100012222000705820320B9
:100510000001070503032000010904020001030094
:10052000000009211101000122BC000705840320FD
:10053000000112010002000000086B666266010003
:10054000010203011C037600690061006C003A009F
:10055000660036003400630032006200330063003E
:10056000000012034600720075006900740062000A
:1005700061007200000016036600720075006900D9
:10058000740079006B0065006500620000000403E0
:10059000090407087F0807003E5B4F5B3E003E6B87
:1005A0004F6B3E001C3E7C3E1C00183C7E3C1800FD
:1005B0001C577D571C001C5E7F5E1C0000183C18F9
:1005C0000000FFE7C3E7FF00001824180000FFE762
:1005D000DBE7FF0030483A060E002629792926007D
:1005E000407F05050700407F05253F005A3CE73C5A
:1005F0005A007F3E1C1C0800081C1C3E7F00142271
:100600007F2214005F5F005F5F0006097F017F00AB
:10061000006689956A0060606060600094A2FFA235
:10062000940008047E04080010207E2010000808B2
:100630002A1C0800081C2A0808001E1010101000B0
:100640000C1E0C1E0C0030383E383000060E3E0EDC
:10065000060000000000000000005F00000000072E
:1006600000070000147F147F1400242A7F2A120040
:10067000231308646200364956205000000807031F
:100680000000001C224100000041221C00002A1C26
:100690007F1C2A0008083E08080000807030000017
:1006A0000808080808000000606000002010080426
:1006B00002003E5149453E0000427F400000724921
:1006C000494946002141494D33001814127F10005A
:1006D0002745454539003C4A494931004121110926
:1006E0000700364949493600464949291E0000009D
:1006F00014000000004034000000000814224100F3
:1007000014141414140000412214080002015909A1
:1007100006003E415D594E007C1211127C007F495B
:10072000494936003E41414122007F4141413E005E
:100730007F49494941007F09090901003E41415172
:1007400073007F0808087F0000417F4100002040BF
:10075000413F01007F08142241007F40404040009B
:100760007F021C027F007F0408107F003E41414150
:100770003E007F09090906003E4151215E007F09C4
:100780001929460026494949320003017F01030027
:100790003F4040403F001F2040201F003F40384066
:1007A0003F006314081463000304780403006159D4
:1007B000494D4300007F41414100020408102000E0
:1007C000004141417F0004020102040040404040DA
:1007D00040000003070800002054547840007F28A0
:1007E00044443800384444442800384444287F00B6
:1007F00038545454180000087E09020018A4A49C20
:1008000078007F080404780000447D400000204008
:10081000403D00007F102844000000417F40000060
:100820007C04780478007C0804047800384444444C
:100830003800FC182424180018242418FC007C0814
:100840000404080048545454240004043F44240081
:100850003C4040207C001C2040201C003C4030409C
:100860003C004428102844004C9090907C00446444
:10087000544C44000008364100000000770000009E
:100880000041360800000201020402003C26232633
:100890003C00000000000000404040F0F8F8FF3845
:1008A000FFF8F83FF8F8FF38FFF8F8F04040400054
:1008B000000000000080C0C0C0800000C0C08000F8
:1008C000000080C0C000C0C0000080C0C0000000A8
:1008D0000000C0C0C0C0C000C0C0000000000000D8
:1008E0000000000000000000000000000000000008
:1008F00000000000000000000000000000000000F8
:1009000000000000000000000000000000000000E7
:1009100000C0F0F8FC3E1E06010000007F4141418E
:100920007F007F4141417F000080C0E07E5B4F5BE4
:10093000FEC00000C000DCD7DEDEDED7DC00C00079
:1009400000000000000000000000000000000000A7
:100950000000000000000000494949FFFFFFFFE0E0
:10096000DFBFBF00BFBFDFE0FFFFFFFF4949490016
:10097000000000001F3F6060E0BF1F007F7F071E78
:10098000381E077F7F007F7F0E1F3B7160000000D5
:1009900000007F7F0C0C0C007E7E007F7E03030036
:1009A0007F7E03037E7E03037F7E000F3E703C0646
:1009B0003C703E0F00327B49493F7E007F7E03033F
:1009C000001E3F69696F2600000000000000000063
:1009D00000030F1F3F3C7870600000007F414141E1
:1009E0007F007F4141417F00307B7F783020203085
:1009F000787F3B0003000F7F0F0F0F7F0F00030076
:100A000000000000000000000000000000000000E6
:100A10000000000000000000010101070F0F7F0F20
:100A20007F0F0F7E0F0F7F0F7F0F0F070101010058
:100A300000000000000000000001010000000000B4
:100A400000000000000000000000000000000000A6
:100A50000000000000000000000000000000000096
:100A60000000000000000000000000000000000086
:100A70000000000000000000000000000000000076
:100A80000000000000000000000000000000000066
:100A90000000000000000000000000000000000056
:100AA0000000000000000000000000000000000046
:100AB0000000000000000000000000000000000036
:100AC0000000000000000000000000000000000026
:100AD000000011241FBECFEFDAE0DEBFCDBF11E072
:100AE000A0E0B1E0EEECF4E502C005900D92A8376D
:100AF000B107D9F724E0A8E7B1E001C01D92AC3FEF
:100B0000B207E1F70E94F5200C94412A0C940000F2
:100B1000E8EDF0E080818E7F80831092E2001092F9
:100B2000DA001092E100A0EEB0E08C9181608C932D
:100B300080818F77808319BCA7EDB0E08C918E7F88
:100B40008C9380818F7E80831092BE0208952091C5
:100B5000E4003091E50095E6A9012091EC00822F98
:100B6000817020FF06C08091E80080FF06C080E011
:100B700008952091E80022FD1AC08091E3028823A5
:100B800089F0853089F08091EB0085FD0FC02091C0
:100B9000E4003091E50042175307F9F29150E1F675
:100BA00084E0089582E0089583E0089581E0089547
:100BB000EF92FF920F931F93CF937C018B010E94C2
:100BC000A705C82F811117C08091E80085FD0BC0D3
:100BD0008091E8008E778093E8000E94A705882323
:100BE00099F3C82F08C0F70181917F018093F1002C
:100BF0000150110949F78C2FCF911F910F91FF9050
:100C0000EF9008958091E50287FF13C08091E8007E
:100C100082FF06C08091E8008B778093E80004C0D3
:100C20008091E3028111F2CF08958091E30288233D
:100C3000D9F38091E80080FFF8CF8091E8008E77AB
:100C4000ECCF982F9093E900242F762F50E089174E
:100C500031F07091EC002091ED005091F00021FDF9
:100C600007C09F5F973071F78093E90081E0089596
:100C70003091EB003E7F3093EB003091ED003D7FF3
:100C80003093ED003091EB0031603093EB007093C6
:100C9000EC002093ED005093F0002091EE0027FD32
:100CA000E0CF80E00895CF92DF92EF92FF920F9312
:100CB0001F93CF93DF93C8EDD0E088818F7E888328
:100CC000E7EDF0E080818160808384E082BF81E095
:100CD0008093BE0288818E7F888302EE10E0F80147
:100CE00010821092DA0081EEC82ED12CF60110820B
:100CF00088818F77888388818068888388818F7DC9
:100D0000888319BC1092E3021092E4021092E2026E
:100D10001092E10290EEE92EF12CF70180818B7F99
:100D2000808388818160888342E060E080E00E9467
:100D30002106F60180818E7F8083F80180818160A9
:100D40008083808188608083F70180818E7F8083AB
:100D5000888180618883DF91CF911F910F91FF90EF
:100D6000EF90DF90CF900895FC018091EB0290917D
:100D7000EC0286179707A0F06115710529F4909190
:100D8000E8009E779093E80090E06115710551F4BA
:100D9000911108C08091E80082FF34C080E008957E
:100DA000BC01F2CF8091E3028823C1F18530C1F10B
:100DB0008091E80083FD30C08091E80082FDEACF99
:100DC0008091E80080FFE1CF8091F3002091F20054
:100DD000382F6115710519F02830310558F091E070
:100DE0002830310509F090E02091E8002E7720931B
:100DF000E800CBCF81918093F100615071092F5FA2
:100E00003F4FE7CF8091E302882341F0853041F0E6
:100E10008091E80083FFBECF81E0089582E00895CD
:100E200083E0089508958091C002089587E797E7C9
:100E3000909301088093000888E19AE00FB6F89437
:100E4000A895809360000FBE90936000FFCF2FB7EE
:100E5000F8946091B5027091B6028091B7029091BA
:100E6000B8022FBF08952091B2023091B302281723
:100E7000390771F09093B3028093B202E091B0020F
:100E8000F091B102309721F00084F185E02D0994B2
:100E900008952091AE023091AF022817390771F002
:100EA0009093AF028093AE02E091B002F091B10254
:100EB000309721F00680F781E02D09940895E091A4
:100EC000B002F091B102309721F00190F081E02D55
:100ED000099480E008959091A002803F59F4809198
:100EE000A10287FF0DC01092A10291110BC01092B8
:100EF000980208C0813F81F48091A10218169CF3EA
:100F0000992381F08091A2029091A302892B09F08C
:100F100064C0109297020895823F49F497FFF0CF82
:100F20001092A0028091A1028111ECCFE0CF833F0B
:100F300019F41916ACF3E4CF2091A202893F29F4E9
:100F40001216F4F61092A202DBCF8A3F19F427FFA3
:100F5000D7CFF8CF2091A3028B3F29F427FFD0CF22
:100F60001092A302CDCF8C3F19F41216CCF3C8CF48
:100F7000843F31F480919F028E7F80939F02C0CF87
:100F8000853F21F480919F028D7FF7CF863F21F42A
:100F900080919F028B7FF1CF873F21F480919F0248
:100FA000877FEBCF883F21F480919F028F7EE5CF32
:100FB0008D3F31F4809199028E7F80939902A0CF6A
:100FC0008E3F21F4809199028D7FF7CF8F3F09F0FA
:100FD00097CF809199028B7FF0CF089580919902ED
:100FE00080FD16C081FD16C082FD16C0809197025B
:100FF0008823A1F0883280F428E0829FC001112468
:1010000068E270E00E945E29862F672B39F0089510
:1010100082E0089584E0089588E0089581E00895CD
:101020008091990280FD14C081FD14C082FD16C01C
:1010300080919802882381F08E3180F420E5829F90
:10104000C00111246EE170E00E945E29862F089590
:1010500084E1089588E2089588E0089580E5089580
:10106000803F31F40E94100881958093A102089579
:10107000813F19F40E941008F8CF823F31F40E949A
:10108000100881958093A0020895833F19F40E946F
:101090001008F8CF893F29F40E94EE078093A2023E
:1010A00008958A3F21F40E94EE078195F7CF8B3F88
:1010B00031F40E94EE0781958093A30208958C3F3E
:1010C00019F40E94EE07F8CF843F31F480919F021B
:1010D000816080939F020895853F21F480919F0253
:1010E0008260F7CF863F21F480919F028460F1CF28
:1010F000873F21F480919F028860EBCF883F21F4E5
:1011000080919F028061E5CF8D3F31F480919902FB
:1011100081608093990208958E3F21F48091990215
:101120008260F7CF8F3FB9F7809199028460F1CF49
:1011300080E00895F894E82FE295EF70F0E031A197
:10114000282F2F7081E090E001C0880F2A95EAF7E0
:10115000982F9095932391A392A1892B82A37894A1
:1011600008959091B90292FF06C0282F2871283067
:10117000F9F4877F846093FF06C0282F28712831F7
:10118000F1F4877E84612091BA0220FF06C0382FD7
:1011900038713830D9F4877F816021FF06C0282F4D
:1011A00028712831D1F4877E816194FD877E08956E
:1011B000282F24712430F9F68B7F8860DCCF282F0C
:1011C0002471243101F78B7E8861DDCF382F317196
:1011D000313019F78E7F8860E0CF282F21712131BF
:1011E00021F78E7E8861E1CFCF93DF93EC018238C7
:1011F0009105A9F1D8F58133910509F496C048F518
:101200008932910509F48AC08A9709F495C0C115FD
:1012100021E5D20708F0BCC0C11530E5D30708F0BE
:1012200014C1C83ED10508F09CC0C03ED10560F590
:10123000C83AD10508F087C0C53AD10508F0FDC00D
:10124000C130D10509F12097F9F0C430D105E0F49F
:1012500040C08533910509F45AC0C997C1F6809101
:10126000B902837089F0C0EED0E00EC0833E9105D4
:1012700099F170F4803E910501F1823E910539F6B5
:101280008091B90282FD21C0CE01DF91CF910895F6
:10129000863E910561F1873E910571F1843E91058D
:1012A00009F0B5CF8091BA0281FFEECF8091B902EB
:1012B000C7EED0E084FD0DC0E7CF8091B90280FD7C
:1012C00012C19091BA0290FFDFCFC3EED0E084FF4D
:1012D000DBCFD0E0C0E0D8CF8091B90282FD06C15B
:1012E0009091BA0290FDBFCF84FFCECFF2CF809114
:1012F000B90283FDDDCFC8CF8091B90283FDF9C06B
:101300009091BA0291FFF0CFC4EED0E0BDCF8091B2
:10131000B90285FFB9CFC9E2D0E0B6CF8091B9025A
:1013200085FFB2CFC5E3D0E0AFCF8091B90286FF91
:10133000ABCFCAE2D0E0A8CF8091B90286FFA4CF9C
:10134000C1E3D0E0A1CFCF3BD10518F6C85AD0E019
:10135000CC0FDD1FCE5DDE4F0990D881C02DD46447
:1013600093CFC11540E2D40758F4C11581E0D807E6
:1013700008F08ACFC03FD10508F4ABCFD06584CF49
:10138000C11590E4D90708F4A4CFDF70D06A7CCFF0
:10139000C11525E5D20700F5C11534E5D30708F0DE
:1013A0008AC0C11543E5D40708F071C0C11582E5B4
:1013B000D80708F467C0CE018370992721E030E098
:1013C00002C0220F331F8A95E2F7C695C69580E2C8
:1013D000C89FE001112452C0C11599E5D907A8F4AE
:1013E000C11528E5D20708F06BC0C11536E5D30753
:1013F00008F06FCF8C2F0E94B108C82FD0E0DC2FEF
:10140000CC27CC27DF71D0623FCFC1154AE5D40786
:1014100008F45BC0CE0190568115904208F059CF78
:101420008D2F8F710E94B10890E0982F8827882710
:101430009F719C012C2BE901E6CFC55AD0E0C15E1B
:10144000DE4FC881D0E0D0641FCFCE01E4E0969596
:101450008795EA95E1F783702C2F269526952370C2
:1014600040E2249F90011124382B8C2F8370C1E01F
:10147000D0E002C0CC0FDD1F8A95E2F7C22BD32B40
:10148000DC6802CFDC2FCC27C16FD06AFDCECE0145
:101490008370992721E030E002C0220F331F8A9524
:1014A000E2F7C695C69590E2C99FE0011124C22BD0
:1014B000D32BDA68E9CEDC2FCC27C46FD06AE4CE18
:1014C000DC2FCC27C06FD06ADFCE8C2F8F700E94AC
:1014D000B10834E0D695C7953A95E1F7CF709C2FC7
:1014E000EC01D069D1CEC9E3D0E0CECEC2EED0E0DF
:1014F000CBCEC6EED0E0C8CE80911002882331F06A
:101500001092100210920F0210920E020895809510
:1015100090910D02982390930D0208951092EB0183
:101520001092EA011092E90108958091E801811179
:101530001092E8010895909116019923D1F09091AD
:10154000B90297FF16C0E82FE695E695E695EE31CD
:10155000E0F4F0E0E658FE4F282F277081E090E09D
:1015600001C0880F2A95EAF78095928189238283AA
:101570000895ECE7F1E09191891303C0DF01119721
:101580001C9291E0E238F907B1F7089590911601A5
:101590009923C1F09091B90297FF14C0E82FE69506
:1015A000E695E695EE31F8F4F0E0E658FE4F8770E8
:1015B00021E030E001C0220F8A95EAF78281822B78
:1015C00082830895ACE7B1E0EFEF90E02D918217B0
:1015D00051F0EF3F19F4211101C0E92F9F5F9630C0
:1015E000A9F7EF3F09F408950E2E000CFF0BE65803
:1015F000FE4FE6CF8091E7019091B601981301C0AC
:1016000008958F5F8770FACF9E3F49F1E82F2BE056
:10161000929FE00D11249E2F9770E695E695E69532
:1016200083E0E89FF0011124E556FE4F50E040E0D2
:1016300080E0219130E0092E02C0369527950A946A
:10164000E2F721703327042E01C0220F0A94EAF733
:10165000822B4F5F5F4F4330510559F7089580E06B
:1016600008959E3F69F1E82F2BE0929FE00D112431
:101670008E2F877041E001C0440F8A95EAF7E69506
:10168000E695E69583E0E89FF0011124E556FE4FCC
:1016900030E020E070E05191DF011197CB01022E84
:1016A00002C0969587950A94E2F781708195852707
:1016B000842385278C932F5F3F4F2330310559F7C3
:1016C0000895982F92959F7011F0892F94E0282FFC
:1016D0002695269511F09E5F822F869509F09F5FD3
:1016E000892F08959C013A9521153F4150F5FC0141
:1016F000EE27F170BC0166277270AC01442754706C
:101700009C012227387094FF0EC080E1EF2B09F472
:1017100080E0672B09F08062452B09F08064232B61
:1017200089F08068089581E0EF2B09F480E0672B51
:1017300009F08260452B09F08460232B19F0886042
:10174000089580E00895CF93DF93682F81E06A3099
:1017500019F06D3029F480E0DF91CF910C94320CB8
:101760008091FA049091FB0426E0FC01A4EFB4E020
:1017700001900D922A95E1F7603E08F45AC026E0E8
:10178000FC0111922A95E9F7C091FA04D091FB046B
:1017900046E050E0BE0184EF94E00E94EB299E01F8
:1017A000245F3240892B41F1C90145E09695879528
:1017B0004A95E1F741E050E0BA0102C0660F771F99
:1017C0008A95E2F7CB016091F2027091F302862BC9
:1017D000972BB9016B5F7F4FE5E076956795EA95AA
:1017E000E1F702C0440F551F6A95E2F7842B952B51
:1017F0009093F3028093F2022A5F3F4F4091F102EF
:10180000642F70E0C9010E943E29481B463010F445
:10181000240F311D211572E0370710F030E020E071
:101820002C503D4F3093FB042093FA04DF91CF916D
:101830000895F6E06F9FB00111246E567A4F46E08E
:1018400050E00E94E229A0CFCF93DF93EC01FE018C
:101850008491811103C0DF91CF9108950E94A30B61
:101860002196F5CFCF93382FE091FA04F091FB0445
:10187000E45FF2402091F102622F70E0CF010E94FC
:101880003E29281B822F332361F066E00E945229F3
:10189000C82FC15010F4CF91089580E20E94A30B8D
:1018A000F8CF9F01280F311D2115324018F080E03C
:1018B000F0E0E0E08E0F9F2F911D8C509D4F909394
:1018C000FB048093FA04E7CFCF92DF92EF92FF926E
:1018D0000F931F93CF93DF936C017B0164E670E05D
:1018E00088E70E943D28EC0197FD12C010E000E05F
:1018F000F601E00FF11F849164E670E00E94B728C2
:10190000EC01892B29F40F5F1F4F0E151F0581F77E
:101910000E943A29CE01DF91CF911F910F91FF9044
:10192000EF90DF90CF9008958091AC029091AD023E
:10193000911103C091E089270895882369F062E03E
:1019400070E085ED94E00E94640C892B19F0809181
:10195000AC0208951092AC028091AC02EBCFCF9311
:10196000C091AC028091AD028823D1F00E9427077C
:10197000605A75418F4F9F4F6093A8027093A902E0
:101980008093AA029093AB02C11108C062E070E09C
:1019900083ED94E00E94640C892B29F0C091AC0285
:1019A0008C2FCF91089581E08093AC02F7CF809384
:1019B000BB027093BD026093BC028091E30284304D
:1019C000F9F48093E9008FEF9091E800815095FD44
:1019D00006C095ED9A95F1F700008111F5CF809141
:1019E000E80085FF0DC050E040E063E070E08BEB65
:1019F00092E00E94D8058091E8008E778093E800FD
:101A00000895BC0184E00C94D70CBC0183E00C94D5
:101A1000D70C9C0184E08093E9009FEF8091E8005F
:101A2000915085FD06C085ED8A95F1F70000911172
:101A3000F5CF8091E80085FF0CC050E040E066E003
:101A400070E0C9010E94D8058091E8008E778093EC
:101A5000E8000895CF93DF93EC018091160188236D
:101A6000B1F18091B90287FF32C060E284E08093D7
:101A7000E9008FEF9091E800815095FD06C095ED4B
:101A80009A95F1F700008111F5CF8091E80085FF6C
:101A90001BC08091160170E050E040E0811104C04D
:101AA00050E040E068E070E0CE010E94D8058091EF
:101AB000E8008E778093E80080E2FE01A1ECB2E0BE
:101AC00001900D928A95E1F7DF91CF91089568E03A
:101AD00081E0CDCFCF93DF93C3E0D1E060E0CE01D2
:101AE0000E940D2A2196C11584E0D807B9F7DF912D
:101AF000CF9108950F931F93CF93DF938901823085
:101B000048F5653038F54B3028F521153C4531F462
:101B10002091140130911501232BE1F0C42FD0E066
:101B2000CC0FDD1F96E1699FC00DD11D11249EE6EB
:101B3000899FC00DD11D1124612FCE0187960E946F
:101B40000D2A602FCE018896DF91CF911F910F91C2
:101B50000C940D2ADF91CF911F910F9108958F92D0
:101B60009F92AF92BF92DF92EF92FF920F931F93DB
:101B7000CF93DF93809014019090150181E090E065
:101B8000909315018093140187EFE82E83E0F82EDF
:101B9000D12C8701C0E013C0F501259134914D2F60
:101BA0006C2F8D2D0E947A0D82E0A80EB11CDF5F94
:101BB000DB3091F70A5E1F4FCF5FC53019F0580137
:101BC000D0E0EACF8EE6E80EF11C81E0D81619F0DD
:101BD000DD24D394DECF9092150180921401DF9121
:101BE000CF911F910F91FF90EF90DF90BF90AF903A
:101BF0009F908F900895CF93C82F6FEF81116AE760
:101C000083E290E00E940D2A6FEFC11167E884E241
:101C100090E00E940D2A6FEFC11167EA85E290E023
:101C2000CF910C940D2A80E00E94FB0D60E086E2CB
:101C300090E00E940D2A0E94AF0D0E946A0D81E083
:101C40000C94FB0D0F931F93CF93DF93823030F5ED
:101C5000653020F54B3010F5C42FD0E0CC0FDD1FE0
:101C600026E1629FC00DD11D11243EE6839FC00D69
:101C7000D11D1124CE0187960E94FF29082F10E064
:101C8000102F0027CE0188960E94FF299801282B4B
:101C9000C901DF91CF911F910F91089590E080E0ED
:101CA000F8CF462F2091A6023091A702232B91F462
:101CB0007E3F39F46E3F71F48091A4029091A502A9
:101CC0000895823038F4753028F46B3018F4672F9B
:101CD0000C94220E90E080E00895CF92DF92FF9264
:101CE0000F931F93CF93DF936C010091F0028091CB
:101CF0001102082BC7E0D0E010E0FC2EC8010C2E2A
:101D000002C0959587950A94E2F780FD0CC0219753
:101D1000A0F7F12C8F2DDF91CF911F910F91FF90A4
:101D2000DF90CF900895B6018C2F0E94510E0E9433
:101D3000F408019761F3EECFCF93DF93EC010E949B
:101D40006D0EBE010E94510EDF91CF910C94F408EC
:101D5000FC01808191810E949C0E92959F7096302B
:101D600091F058F4925F9F70923058F4803F19F0D0
:101D700030F4883E30F481E008959A5FF4CF843FD8
:101D8000D1F380E00895883EB0F3813FD1F7F3CFDF
:101D900083E290E00E94FF298A3789F484E290E090
:101DA0000E94FF29873859F485E290E00E94FF29BC
:101DB00091E0873A09F090E0892F8170089580E0E2
:101DC000FCCFCF9384E090E00E94FF29C82F82E2ED
:101DD00090E00E94FF29982F8C2FCF91089569EEF3
:101DE0007EEF90E080E00E942B2A60E082E090E0AD
:101DF0000E940D2A60E083E090E00E940D2A10927C
:101E0000110260E084E090E00E940D2A60E082E22E
:101E100090E00E940D2A60E085E090E00E940D2A8B
:101E200060E086E090E00E940D2A6FEF87E090E08E
:101E30000E940D2A40E050E0BA0188E090E00E9444
:101E40001F2A60E08DE090E00E940D2A40E050E003
:101E5000BA0188E190E00E941F2A60E087E190E0EB
:101E60000E940D2A40E050E0BA018CE190E00E940F
:101E70001F2A70E060E080E290E00E942B2A40E0A0
:101E800050E0BA0188E190E00E941F2A80E00E94A1
:101E9000FB0D0E94130E40E050E0BA018FE090E08D
:101EA0000E941F2A40E050E0BA0183E190E00C94C8
:101EB0001F2A1F920F920FB60F9211242F933F9358
:101EC0004F935F936F937F938F939F93AF93BF9342
:101ED000EF93FF938091E10082FF09C08091E200BF
:101EE00082FF05C08091E1008B7F8093E1008091AB
:101EF000DA0080FF24C08091D80080FF20C080914C
:101F0000DA008E7F8093DA008091D90080FF9DC037
:101F100080E189BD82E189BD09B400FEFDCF81E089
:101F20008093E3028091BE02811109C00E9488055E
:101F30000E9453068091E20084608093E2008091C9
:101F4000E10080FF17C08091E20080FF13C0809104
:101F5000E2008E7F8093E2008091E20080618093B6
:101F6000E2008091D80080628093D80019BC85E09F
:101F70008093E3028091E10084FF2BC08091E20016
:101F800084FF27C080E189BD82E189BD89B5982F92
:101F9000917080FFFBCF8091D8008F7D8093D80017
:101FA0008091E1008F7E8093E1008091E2008F7E3E
:101FB0008093E2008091E20081608093E200809152
:101FC000E402882309F447C084E08093E30280910F
:101FD000E3028091E10083FF27C08091E20083FF4C
:101FE00023C08091E100877F8093E10082E08093AD
:101FF000E3021092E4028091E1008E7F8093E10081
:102000008091E2008E7F8093E2008091E200806107
:102010008093E20042E060E080E00E94210680912F
:10202000F00088608093F000FF91EF91BF91AF9135
:102030009F918F917F916F915F914F913F912F91E0
:102040000F900FBE0F901F90189519BC1092E302CD
:102050001092BE0274CF8091E30087FD93E09093CD
:10206000E302B5CF78941F921FB61F9211248F936D
:102070009F93AF93BF938091B5029091B602A091C8
:10208000B702B091B8020196A11DB11D8093B502AF
:102090009093B602A093B702B093B802BF91AF91EC
:1020A0009F918F911F901FBE1F9018959C014FB755
:1020B000F8948091B5029091B602A091B702B091C8
:1020C000B8024FBF821B930B08952FB7F8948091ED
:1020D000B5029091B602A091B702B091B8022FBF9D
:1020E00008950E9465109C019091A0028091A10228
:1020F000982B21F030939D0220939C029091A20294
:102100008091A302982B21F030939B0220939A0296
:10211000E091B002F091B102309749F082E08093F3
:102120009E020480F581E02D8EE992E009940895E5
:102130004F925F926F927F928F929F92AF92BF92D7
:10214000CF92DF92EF92FF920F931F93CF93DF9383
:10215000CDB7DEB72A970FB6F894DEBF0FBECDBF5E
:102160008E010F5F1F4F8AE0F80111928A95E9F7FF
:1021700090E5E92E91E0F92E680125E5422E21E057
:10218000522E66246394712C40E6842E41E0942EF6
:10219000F70181917F018F3F09F445C0F894E82F42
:1021A000E295EF70F0E021A18F70A30102C0440F0F
:1021B000551F8A95E2F7CA01922F982B91A392A1FD
:1021C0008095892382A3789400C0E5E5F1E021E0C1
:1021D00030E0B12CA12C41914F3F09F47EC0A42FD7
:1021E000A295AF70B0E090968C9190E04F7002C0D5
:1021F000959587954A95E2F780FD6FC0C901A82A99
:10220000B92A220F331F8E169F0629F7F70131973F
:1022100080818F3F11F00E949A0850EA5A95F1F799
:10222000F601B182A082F2E0CF0ED11C4E145F0401
:1022300009F0AECF4AE050E0B80185E192E00E949B
:10224000EB29FF24F394009709F4F12C892B09F46E
:1022500047C08AE0F801A5E1B2E001900D928A95AD
:10226000E1F781E0809314020E94651090931302BD
:102270008093120280911202909113020E945610D4
:10228000059790F1809115029091160290938E021D
:1022900080938D0280911702909118029093900282
:1022A00080938F028091190290911A02909392026A
:1022B0008093910280911B0290911C029093940252
:1022C0008093930280911D0290911E02909396023A
:1022D000809395021092140207C090E080E08FCFA7
:1022E000809114028111C6CF8F2D2A960FB6F894D3
:1022F000DEBF0FBECDBFDF91CF911F910F91FF9039
:10230000EF90DF90CF90BF90AF909F908F907F9095
:102310006F905F904F90089580910D0290910C0204
:10232000892B80937A0180911002882329F10E94E1
:10233000651020910E0230910F02821B930B88389A
:10234000934110F00E947C0A80917A0190911002D2
:10235000892B80937A01809116018823D9F180918D
:10236000B90287FF37C08EE1ECE7F1E090E08150E1
:1023700098F591110E947C0A40E250E06CEE71E009
:102380008AE791E00E94EB29892B59F180E2EAE784
:10239000F1E0ACEEB1E001900D928A95E1F7E091A9
:1023A000B002F091B1023097E1F0809116018823DC
:1023B00059F08091B90287FF07C080917A0180931C
:1023C0007B0186E080937A010280F381E02D8AE729
:1023D00091E0099486E0C8CF2191222341F29F5FCA
:1023E000C6CF089590E080E00E94490790E080E029
:1023F0000E94330710920C020E948C1186E0EEE9D5
:10240000F2E0DF011D928A95E9F71092980210928E
:102410009702109299020C9471108093F0020C9420
:10242000F2118091F002982F9670963019F488601E
:102430000C940D12877FFCCF21E030E001C0220F09
:102440008A95EAF720958091F00282230C940D1270
:102450009091EB01809589238093EB01282F2770C1
:1024600091F4282F082E000C330B9217130659F005
:102470009091BA0292FD07C08595859585950E9439
:102480001C120C948E0A0895CF93C091BA02C2FB1D
:10249000992790F9981799F080FBC2F9C093BA0276
:1024A0006091B90284E090E00E940D2A6C2F82E2D4
:1024B00090E00E940D2A82E0CF910C942812CF91D7
:1024C000089521E030E001C0220F8A95EAF780915B
:1024D000F002822B0C940D12809311020C94F211D5
:1024E00010920D0280911601ECE7F1E0882359F07B
:1024F0008091B90287FF07C08EE1DF011D928A95A6
:10250000E9F70C94F21186E0F8CF1F93CF93DF9395
:10251000CDB7DEB7AA970FB6F894DEBF0FBECDBF1A
:1025200085EE92E02091F100DC012D93CD01B2E027
:102530008D3E9B07B9F78091E602833009F472C0A3
:10254000B8F4813009F449C0823009F4B3C08091F5
:10255000E80083FF96C28091E5029091E6029A30EE
:1025600008F08FC2E92FF0E0ED5BF54D0C94B32934
:102570008A3009F48EC08B3009F471C0893039F784
:102580008091E502813219F78091E9029091EA0287
:10259000009711F00297D9F68091E800877F809329
:1025A000E8008091E80082FF38C09091F3008091AC
:1025B000F200029731F48091F100813011F0863001
:1025C00021F48091F1008093C0028091E8008B7724
:1025D0008093E8000E940206BACF8091E502813A1A
:1025E00009F0B5CF8091E800877F8093E800809163
:1025F000E9029091EA02892B61F460E281EC92E0B9
:1026000070E00E94B4068091E8008B778093E80028
:102610009ECF60E090E080E0F3CF8091E3028111F3
:10262000C0CF95CF8091E502813A09F090CF80919B
:10263000E9029091EA02892B09F089CF8091E800A4
:10264000877F8093E8008091E80080FFFCCF809135
:1026500016018093F1008091E8008E77B9CF8091C8
:10266000E502813209F073CF8091E9029091EA028C
:10267000892B09F06CCF8091E800877F8093E80078
:102680000E9402068091E702809316010E94701258
:102690005ECF8091E502813209F059CF8091E80048
:1026A000877F8093E8000E9402068091E802809371
:1026B000BF024DCF8091E502813A09F048CF809169
:1026C000E800877F8093E8008091E80080FFFCCFDE
:1026D0008091BF02BECF803899F0823809F0D1C115
:1026E0008091E9028F70873008F0CBC18093E900B8
:1026F0008091EB0085FB882780F91092E90006C0E5
:102700008091E1029091E202911182609091E80043
:10271000977F9093E8008093F1001092F1008091F0
:10272000E8008E77AAC1882309F498C1823009F0A5
:10273000A8C18091E70281119BC18091E9028F704D
:102740002FEF280F263008F09CC18093E9002091DC
:10275000EB0020FF8DC1933031F48091EB0080625B
:102760008093EB0085C19091EB0090619093EB001A
:1027700021E030E001C0220F8A95EAF72093EA00B9
:102780001092EA008091EB008860EACF811179C154
:102790001091E7021F778091E3008078812B80936E
:1027A000E3008091E800877F8093E8000E940206A2
:1027B0008091E80080FFFCCF8091E30080688093E7
:1027C000E30082E0111183E08093E3025AC1805854
:1027D000823008F056C12091E7023091E8022C3D8A
:1027E000E3E03E07A1F583E08A838AE289834FB75D
:1027F000F894DE01139620E03EE051E2E32FF0E092
:1028000050935700E49120FF03C0E295EF703F5FC3
:10281000EF708E2F90E0EA30C0F0C7968D939D93B5
:102820002F5F243159F74FBF8091E800877F809355
:10283000E8006AE270E0CE0101960E94B406809141
:10284000E8008B778093E8001CC1C096E7CF8091A9
:10285000E9029091EA02432F55274330510509F4CC
:102860004AC078F54130510509F485C08BE590E008
:10287000E7EDF4E04230510509F003C12091E80092
:10288000277F2093E8002091EB023091EC02821721
:10289000930708F49C0140E02115310509F070C050
:1028A00041116EC08091E80082FDC9CF8091E302A2
:1028B000882329F2853019F28091E80083FFF2CF56
:1028C000BECF4132510509F447C04232510509F0EB
:1028D000D8C08330910508F0D4C0FC01EE0FFF1F73
:1028E000E559FE4F0190F081E02D88599E4FDC01A3
:1028F0008C9190E01DC0332721303105E9F021157E
:10290000310579F022303105F9F02330310509F035
:10291000B8C0E4E4F5E0E4918E2F90E0E4E4F5E063
:1029200007C0EEE8F5E0E4918E2F90E0EEE8F5E0E8
:10293000009709F4A6C0A2CFE6E7F5E0E4918E2F58
:1029400090E0E6E7F5E0F4CFE2E6F5E0E4918E2FE3
:1029500090E0E2E6F5E0ECCF8330910508F091C01D
:10296000880F991FFC01EF58FE4F0190F081E02D78
:1029700089E090E083CF82E190E0E2E3F5E07ECF72
:102980008091E302882309F45ACF853009F457CFA8
:102990008091E80083FD53CF8091E80082FD82CFD3
:1029A0008091E80080FF78CF9091F3008091F20051
:1029B0002115310519F08830910550F041E0089754
:1029C00009F040E08091E8008E778093E80064CFC2
:1029D00044914093F1003196215031090196E8CF9E
:1029E000803809F04EC08091E800877F8093E8002E
:1029F0008091E4028093F10092CE811142C0109147
:102A0000E7021230F0F58091E800877F8093E800BC
:102A10001093E4020E940206112311F084E005C025
:102A20008091E30087FDFACF81E08093E30242E0EA
:102A300061EC81E00E94210642E261EC84E00E94A8
:102A4000210642E261EC82E00E94210642E260EC53
:102A500083E00E9421068091E30213C08091E70287
:102A6000813079F481E0933009F080E08093E202D4
:102A70001092E9008091E800877F8093E8000E942F
:102A800002068091E80083FF0AC08091E800877FFA
:102A90008093E8008091EB0080628093EB00AA961F
:102AA0000FB6F894DEBF0FBECDBFDF91CF911F915F
:102AB00008951F920F920FB60F9211242F933F93F8
:102AC0004F935F936F937F938F939F93AF93BF9336
:102AD000CF93DF93EF93FF93D091E900DF70809164
:102AE000EC00C82FC17080FDC0E81092E900809111
:102AF000F000877F8093F00078940E9485121092F6
:102B0000E9008091F00088608093F000CD2BCF70B9
:102B1000C093E900FF91EF91DF91CF91BF91AF9109
:102B20009F918F917F916F915F914F913F912F91E5
:102B30000F900FBE0F901F901895882341F080953D
:102B400090910C02892380930C020C948C110895AF
:102B5000882339F090910C02982B90930C020C94DE
:102B60008C110895882321F00E94870A0C948C11FF
:102B70000895882339F090910D02982B90930D02BF
:102B80000C948C110895882309F452C0823871F492
:102B90000E945F0781FF4CC089E30E94C60A0E9421
:102BA0008C1189E30E949B0A0C948C11833859F490
:102BB0000E945F0780FF3CC083E50E94C60A0E9416
:102BC0008C1183E5EFCF843859F40E945F0782FFB0
:102BD0002FC087E40E94C60A0E948C1187E4E2CFCE
:102BE0009CEF980F913AF0F290E2980F983050F4E1
:102BF000877091E001C0990F8A95EAF7892F0E94AA
:102C0000870AD2CF9BE5980F933020F490E080E0C4
:102C10000C94490798E5980F973120F490E080E0F4
:102C20000C943307803F20F00E946B070C947110C6
:102C30000895CF93C82F882309F4AEC08238C1F419
:102C40000E945F0781FDA8C089E30E94C60A0E9416
:102C50008C112FEF81EE94E0215080409040E1F7FD
:102C600000C0000089E30E949B0ACF910C948C1154
:102C70008338A1F40E945F0780FD8EC083E50E9427
:102C8000C60A0E948C112FEF81EE94E02150804003
:102C90009040E1F700C0000083E5E5CF8438A1F45F
:102CA0000E945F0782FD78C087E40E94C60A0E94E6
:102CB0008C112FEF81EE94E0215080409040E1F79D
:102CC00000C0000087E4CFCF8CEF8C0F813A88F5ED
:102CD00080911601882301F18091B90287FF1CC001
:102CE000EC2FE695E695E695F0E0E658FE4F8281FA
:102CF00090E04C2F477021E030E002C0220F331FDC
:102D00004A95E2F782239323892B79F08C2F0E9436
:102D10009B0A0E948C1109C0ECE7F1E08191C81771
:102D2000A9F321E0E238F207C9F78C2F0E94C60A06
:102D30009CCF80E28C0F883068F4C77021E030E0CF
:102D400001C0220FCA95EAF780910D02822B809371
:102D50000D028BCFEBE5EC0FE33040F4F0E0E15EE9
:102D6000FE4F808190E0CF910C944907E8E5EC0F8D
:102D7000E73150F4F0E0EE0FFF1FEE5DFE4F808173
:102D80009181CF910C943307C03F30F08C2F0E947B
:102D90003008CF910C947110CF9108951F93CF9369
:102DA000DF93182FD0E0C0E0893311F4C0E5D0E004
:102DB000812F0E941916209731F4812FDF91CF9136
:102DC0001F910C94C3158FE99FE00197F1F700C0A4
:102DD00000002197F0CF0F931F93CF93DF93C62F5F
:102DE000D42F022FFC0182818823A1F06093EF028F
:102DF0000E9465109093EE028093ED02C77081E00F
:102E000001C0880FCA95EAF7DF91CF911F910F910A
:102E10000C94B9158091EF02681335C08091ED02D2
:102E20009091EE020E945610883C910560F510E2E8
:102E30001D0FCD17B9F080E28C0F883040F4C770B9
:102E400081E001C0880FCA95EAF70E94B2151830D8
:102E500048F481E09D2F977001C0880F9A95EAF79A
:102E60000E94B915802F0E94CE16183098F4D770A2
:102E700081E001C0880FDA95EAF7DF91CF911F91C9
:102E80000F910C94B215C77081E001C0880FCA95EC
:102E9000EAF7F3CFDF91CF911F910F910895AF9291
:102EA000BF92CF92DF92EF92FF920F931F93CF9337
:102EB000DF93EC018AE0A82E2881222309F48CC03C
:102EC0002130C9F599818A81913021F422960E949E
:102ED000CE1605C0923029F422960E94191621962A
:102EE000EBCF933021F422960E94C315F8CF943093
:102EF00011F02196F4CF229630E020E0AE014F5F32
:102F00005F4F8053990B8A30910550F02150310961
:102F100030F38FE99FE00197F1F700C00000F6CF92
:102F2000A29EB001A39E700D11249C01260F371F95
:102F30008981EA01E3CFE22FF0E0E650FE4FB49042
:102F4000822F86958695869590E0FC01E651FE4F8E
:102F5000E4902770F12C022E02C0F594E7940A94B5
:102F6000E2F731E0E322FF24FC01E652FE4FC49079
:102F7000D12C022E02C0D594C7940A94E2F731E016
:102F8000C322DD24FC01E653FE4F049110E002C091
:102F9000159507952A95E2F701701127E114F104C0
:102FA00019F081EE0E941916C114D10419F086EEB1
:102FB0000E9419168B2D0E94CE16CD2819F086EE90
:102FC0000E94C315EF2819F081EE0E94C315012B52
:102FD00009F485CF8CE27BCFDF91CF911F910F91C8
:102FE000FF90EF90DF90CF90BF90AF9008959091B9
:102FF000BA0292FD10C098E0899F90011124622BC3
:103000006093EB010E9461120E9465109093EA01A7
:103010008093E90108950C9461121F93CF93DF937D
:10302000CDB7DEB767970FB6F894DEBF0FBECDBF42
:103030004B8B5C8B6D8B7E8B8F8B611110920C0296
:103040001A8A198A85E0FE017396DE011D960190A9
:103050000D928A95E1F78091BA0282FD1CC00E9410
:1030600065102091E9013091EA01821B930B8838A9
:10307000934120F08091EB0182FF7FC00E94651098
:1030800020910E0230910F02821B930B88389341DE
:1030900010F00E947C0A86E0FE013D96DE01179644
:1030A00001900D928A95E1F7CE0107960E94551F77
:1030B000882389F016E08091E7019091B601891389
:1030C00049C067960FB6F894DEBF0FBECDBFDF9143
:1030D000CF911F91089586E0FE013796DE0111968B
:1030E00001900D928A95E1F78A859B85892B11F3D2
:1030F0008F81988589238F3FE9F22091B60130E0D6
:10310000C9010196877099274091E7014817190670
:1031100071F40E9470121092B6011092E70186E0DD
:10312000E0EBF1E0DF011D928A95E9F7C3CF96E06D
:10313000929FD001939FB00D1124A954BE4FFE0160
:10314000319601900D929A95E1F78093B6010E9415
:10315000FA0AB0CF819FC001112489549E4F0E946A
:10316000551F882309F4ADCF8091E70190E00196C7
:10317000877099278093E7019ECF82E00E942812F2
:103180007DCF0F931F93CF93DF9300D000D00F928A
:10319000CDB7DEB78C019093A5028093A4020115F0
:1031A00080E2180720F5802F0E94C315C8010E94F5
:1031B000720B9801205E31092830310510F0012B87
:1031C00059F40F900F900F900F900F90DF91CF91C7
:1031D0001F910F910C94B2150F900F900F900F90BC
:1031E0000F90DF91CF911F910F910C949D158EEF51
:1031F00089838A831B820E9465108160782F9D835A
:103200008C8349815A816B818D810F900F900F9033
:103210000F900F90DF91CF911F910F910C940D188B
:103220000F931F93CF93DF9300D000D00F92CDB7B1
:10323000DEB78C019093A5028093A402011580E271
:103240001807E8F4C8010E94720B9801205E31094A
:103250002830310518F00115110571F40E94B915D7
:10326000802F0F900F900F900F900F90DF91CF91C4
:103270001F910F910C9419160E94A815F1CF8EEF93
:1032800089838A8381E08B830E9465108160782F17
:103290009D838C8349815A816B818D810F900F9022
:1032A0000F900F900F90DF91CF911F910F910C9481
:1032B0000D188F929F92AF92BF92CF92DF92EF92B2
:1032C000FF920F931F93CF93DF9300D000D00F9204
:1032D000CDB7DEB76C01FC0183819481892B31F07D
:1032E0008081918189238F3F09F003C50F900F9052
:1032F0000F900F900F90DF91CF911F910F91FF9042
:10330000EF90DF90CF90BF90AF909F908F900895F7
:103310000E946D0E182F682F89819A810E94310BAF
:1033200069817A81812F0E94510E8C01F6012281E0
:10333000222309F4D4C490568115F0E29F0750F07F
:10334000905E811530E1930728F0915C81159F41D3
:1033500008F03EC0C8019927AC01445051094432DD
:10336000510518F08B970E9780F4E0913102F0E050
:10337000EE0FFF1FEA5CFD4F808191818F3F5FE779
:10338000950719F0019691838083C80182519F456A
:10339000409708F07DC48FEF93E00E94FF295EEE16
:1033A000F52EF00E03E011E0882339F18091EB0156
:1033B000877009F49BCFF6018281882309F496CFA8
:1033C0008091BA0282FD92CF82E00E9428128ECFB5
:1033D00090E080E00F3F110511F008F0BDCFC8016B
:1033E000BBCF011584E0180709F3C8010E94FF292B
:1033F000811101C0FA940F5F1F4FF110F2CF1982B3
:103400001A821B821C8299249A9478019FEFE91AF0
:10341000F90AC8010E94FF2989831A82882331F2A0
:10342000813009F075C05801E2E0AE0EB11CC70151
:103430000E94FF29E82E8A83882309F4B7CFC501AB
:103440000E94FF29F82E8FEF8E0D833068F458010B
:10345000F3E0AF0EB11CFB82FF2021F0CE010196FC
:103460000E944F178501D1CF8BEF8E0D833040F531
:10347000C8010396FB825C01FF20A1F3580124E000
:10348000A20EB11C0E94FF298C83882359F30B8163
:103490001C8101303FEF130710F0102F002746E08A
:1034A000E41651F057E0E51619F0C8010E94101912
:1034B000C8010E94C118D6CFC8010E941019D2CFEE
:1034C00084E0E812CFCF580194E0A90EB11CC801E6
:1034D00003960E94FF29FF2009F468CF882309F48E
:1034E00065CF8150990B989E9001999E300D1124C3
:1034F000EF2DE150FF0BCF01820F931F019708F4CE
:10350000B1CFEFE9FFE03197F1F700C00000F6CF4F
:10351000CE0101960E944F175701A4CF81E00E946F
:1035200061120E94111242CF81E00E941C12F9CF59
:10353000222309F4DCC382E0F2CF053FECE51E074D
:1035400009F460C008F45AC0063F3CE5130709F4CB
:103550005DC0222309F4DEC31092EF0203304DE573
:10356000140708F05AC00A3F5CE5150730F4C8019B
:1035700082509C45449708F05AC00E94E10E9093F7
:10358000BA028093B9020131ECE51E0709F422C1A9
:1035900008F09FC009302CE5120709F409C108F0B2
:1035A0006EC005304CE5140709F4FAC008F054C0A9
:1035B00003308CE5180709F4E9C008F0EDC08091EC
:1035C000B902816002301C4509F4E3C06091B90280
:1035D0001091BA0284E090E00E940D2A612F82E2ED
:1035E00090E00E940D2A0E947012E0CE27E245EE84
:1035F00065EE71C326E241EE60EE6DC327E245EE53
:1036000064EE69C326E241EE62EE65C327E245EE51
:1036100066EE61C328E241E0EBCF01368DE5180785
:1036200009F4ABCF053A9DE5190709F4A6CF063199
:10363000FCE51F0709F079C380910D028A7A91E0B9
:1036400009F490E090939A018111EEC089E20E9402
:10365000C60A0E948C11AACE8091B90280620730FE
:10366000FCE51F0709F495C08091B902806108301C
:103670001C4508F48EC08091B90280648AC0809194
:10368000B9028B7F0D303CE5130709F482C070F45A
:103690008091B9028E7F0B305CE5150709F479C083
:1036A00008F48CC08091B9028D7F73C08091B902FB
:1036B0008F7E0F309CE5190709F46BC08091B90229
:1036C000877F00311C4508F464C08091B9028F7D6A
:1036D00060C00D3FFCE51F0709F478C050F50531C7
:1036E0003CE5130709F480C098F48091B902837F08
:1036F00003315CE5150709F44CC008F46FC00E9463
:1037000070129091B902892F97FB87F9805841C0B8
:103710000B3F9CE5190709F447C008F053C080919E
:10372000BA0281600A3F1C4509F050CF8093BA026B
:103730004DCF01302DE5120709F462C0B8F4809135
:10374000BA028C7F0F3F4CE5140781F38091BA02D7
:10375000836001151D4550F38091BA02982F909512
:1037600091708E7F892B90FB81F9E0CF01368DE53A
:10377000180709F44BC0053A9DE5190709F44DC037
:1037800002301D4509F022CF60E03BC08091B902B4
:1037900082608093B9021ACF8091B9028460F9CF18
:1037A0008091B9028860F5CF8091BA028260BECF65
:1037B0000E9470128091B9028068EBCF8091B902AB
:1037C0008C60E7CF8091BA028E7FB0CF8091BA0231
:1037D0008D7FACCF8091B9028F7BDBCF0E947012BE
:1037E0008091B9028F77D5CF8091B90282FB99275A
:1037F00090F921E0922790FB82F990FB83F9C9CFE1
:1038000061E08EE090E00E940D2AE0CE9091B90236
:10381000892F8F7E94FF8061BCCF9091B902892F50
:103820008E7F90FF8160B5CF85E311CF85E37AC2AB
:103830000E9470122FEF34E34CE0215030404040A2
:10384000E1F700C000000E94160781E08EC280E010
:103850008CC2C8010E94040BF82E98C2212F2F7031
:10386000F22E107F19F0F29490EFF922EE20B9F0C9
:10387000FF2069F080E2800F883010F0811009C0CD
:1038800080910D02F82AF0920D020E948C11802F77
:103890004AC080910C02F82AF0920C02F6CF802FD9
:1038A0000E94C315FF2009F440C0005E083010F0EC
:1038B000811004C08F2D0E94870A06C0F094809169
:1038C0000C02F822F0920C020E948C112EC0312FB3
:1038D0003F70F32E107F103219F0F29480EFF8222F
:1038E000882089F041E0841609F487C0EE2009F4AD
:1038F00090C0BB2009F465C0F601858180FFC7CF69
:103900008F7085835EC08091BA0282FF35C0EE2041
:1039100069F1FF2039F080910D02F82AF0920D0232
:103920000E948C1180E00E941916292D2850330B1B
:103930002430310510F40E945F07AA2009F4D6CC88
:103940008091EB0180FDD2CCF601128285958595A0
:1039500085950E946112C6010E9459198091EB0160
:103960008595859585950E941C12C0CC80E00E94AB
:10397000C315FF20D1F29ECFEE2039F1B11004C063
:10398000809110028F291EC051E0B51210C082FD37
:10399000CCCF80911002F82AF81639F20E946510F7
:1039A00090930F0280930E02F0921002BECF85E03A
:1039B000B812E6CF0E947C0A8091E801F812F092DA
:1039C000E8018F2D0E94B915B0CFB11006C00E943A
:1039D0007C0A8F2D0E94B215A8CF91E0B91208C0C1
:1039E00080910D028F2109F4A0CF0E94950AEFCF9C
:1039F000E5E0BE1609F499CFEACFEE2029F0F5E014
:103A0000FB1508F492CFDDCF24E02B1508F48DCF01
:103A1000E0CFBB20F1F2F9E38F1209C02FEF37EEB0
:103A200043E0215030404040E1F700C00000802FCB
:103A30000E94C3157ACF812F86958695837061F099
:103A4000813009F072CFC8019370E11002C090E09C
:103A500080E00E94330769CFC8019370E11002C073
:103A600090E080E00E94490760CF802FEE2029F08F
:103A70000E9430080E94711058CF0E946B07FACF45
:103A8000812F837089F5E11050CF402F42954695E4
:103A90004770440F440F802F8F70042E01C0880F91
:103AA0000A94EAF7202F207104FF07C02FE030E0CE
:103AB00001C0220F4A95EAF72095169516951370C6
:103AC000123069F050F430911102113029F0822B3C
:103AD00083230E946C1229CF832B822BFACF282BB1
:103AE000809111028227F5CF8695EE2011F0812F6B
:103AF0008170882309F419CF402F4295469547706D
:103B0000440F440F802F8F70042E01C0880F0A9439
:103B1000EAF7202F207104FF07C02FE030E001C03A
:103B2000220F4A95EAF720951695169513701230D4
:103B300069F050F43091F002113029F0822B832388
:103B40000E940D12F2CE832B822BFACF282B80916C
:103B5000F0028227F5CF1F70EE2029F0812F0E94FE
:103B60006112802F2FCF802F0E94B215812F0E94CB
:103B70001C12DBCE802F52EF8516A9F1581570F07C
:103B800090EF8916D1F0E1EF8E1691F0EE2009F456
:103B90006FC0B1107CCE812F8F7129C0F3EF8F16CB
:103BA00049F124EF8212F2CF8091BA0282FF2DC038
:103BB000812F8F71EE20D9F21AC0EE2079F034E017
:103BC0003B1508F4B2CE1F7181E090E001C0880F70
:103BD0001A95EAF79091F0028927B2CF45E04B158C
:103BE00008F4A3CEF0CF812F8F71E110C0CF0E94D7
:103BF00061129BCE80E0EE2009F4A2CF1F7181E01C
:103C000001C0880F1A95EAF79BCF8091E801EE205A
:103C1000D9F00E94870A8091EB018770843041F4CB
:103C20000E948E0A812F8F710E941C12A12C7DCEC2
:103C300054E05B15D8F31F71812F0E94611263E07D
:103C4000812F0E94F717F2CF90910D02982B90933D
:103C50000D0284E08B1540F40E948E0A0E94950AA2
:103C600064E0812F8F71EDCF81E00E942812DECFBA
:103C7000BB2059F0893309F0DACE9FEFE7EEF3E08D
:103C80009150E040F040E1F7D0CE812F8F716FCF9F
:103C90000031FFE51F0709F441CC01313FE513076F
:103CA00009F446CC033F3CE5130709F4A3CC08F024
:103CB00044CC083D5CE5150709F498CC093D8CE53A
:103CC000180709F4A7CC073D9CE5190709F041CC7A
:103CD00026E241EE61EEC6010E94EB1667CB803111
:103CE0004FE5940709F420CC81319F45D9F682E055
:103CF0001CCC85E0DE01119601900D928A95E1F7CA
:103D0000F601228189819A81211102CB0E94040B44
:103D1000182F06CB06311C4551F580919A0181116F
:103D200085CD89E20E949B0A94CC0A352DE51207C5
:103D300009F48BCD58F401154CE5140709F478CD3E
:103D40000E3D1C45A1F40E94EF0E30CB0B358DE5E6
:103D5000180709F47CCD0C351D4549F48091BA0251
:103D600082FB882780F991E089270E944412F6019E
:103D7000828100811181882309F46BCDC8010E94E2
:103D80006D0EF82E682FC8010E94310BB8018F2DDF
:103D90000E94510E0E94F4088C01882EF601E280E8
:103DA000B580B2943FE0B3228091EB018770C1F0FF
:103DB000AE2CEE20B1F0812F807F803421F080E2A4
:103DC000800F883068F08091BA0282FD09C082E0DD
:103DD0000E9428128091EB018770AA24A39481117C
:103DE000A12C912E92942FE09222FBE0F91508F479
:103DF0009CCDE92DF0E0E35BF54D0C94B3291F93C6
:103E0000CF93DF938091B501807FA9F48091B201B7
:103E1000882389F08091E701D091B6016091B001CB
:103E20007091B101A091B301B091B401C62FC72325
:103E300016E0D81304C0DF91CF911F91089590E050
:103E4000109711F0CF3F19F401968770F2CF189FA9
:103E50009001199F300D1124F901E954FE4F418161
:103E60004713F2CF40814613EFCF42814111ECCF8F
:103E7000438154814A1B5B0B483C510528F78091D4
:103E8000B5018F7080618093B501F901E454FE4F54
:103E900080818F708061808380EB91E00E9459194E
:103EA000DF91CF911F910C94FA0AAF92BF92CF92FB
:103EB000DF92EF92FF920F931F93CF93DF93CDB7D3
:103EC000DEB761970FB6F894DEBF0FBECDBF8C0191
:103ED00085E0F801DE011D9601900D928A95E1F7CB
:103EE000F801E28080EBA82E81E0B82E6091B3014A
:103EF0007091B4016115710509F432C19091B0015E
:103F00004091B101892F84238F3F09F429C1208179
:103F10003181C380D480F090B201F601E61BF70B2B
:103F2000FF2009F4E8C08091B501582F507FE83C8C
:103F3000F10508F0ABC0511177C0FE2C431321C02E
:103F400092131FC0E1101DC08F7080618093B50176
:103F5000C5010E9459198091B501F80185838F2D03
:103F600061960FB6F894DEBF0FBECDBFDF91CF9143
:103F70001F910F91FF90EF90DF90CF90BF90AF9087
:103F80000895CD2829F0822F83238F3F09F003C1A4
:103F900080E0F82FF170DF2E80FF3CC08091E701B8
:103FA0004091B60156E0841315C02D873E878D855C
:103FB0009E850E949C0E292F22952F702230F0F0B2
:103FC000243018F59F70F1F0F8019581907FD1F4BD
:103FD000D12C1EC090E0589FF001599FF00D112484
:103FE000E954FE4F6181361306C06081261303C079
:103FF0006281E6120FC001968770D5CF9F7011F0D5
:10400000882331F3805E883018F3C8010E94591963
:10401000FD2CA5CFEE2009F4A2CF8091B5018160DF
:104020008093B501F12C9BCF431306C0921304C0BB
:10403000F801EE2009F479C0C8010E94A80E882377
:1040400009F1EE20F9F08091B501803270F02091F5
:10405000B0013091B10138872F831986DB86CA867B
:104060008C87CE0107960E94591986E0F801A0EBD3
:10407000B1E001900D928A95E1F70E94FF1EFF24A6
:10408000F3946DCFC8010E945919F9CF51110AC09C
:1040900080EB91E00E94591986E0F50111928A9512
:1040A000E9F7C0CF43130FC092130DC0E1100BC04E
:1040B000F8018583C8010E94591986E0F501119223
:1040C0008A95E9F74CCFC8010E94A80E8823D1F247
:1040D000EE20C1F28091B501803238F22091B0011A
:1040E0003091B1013A8329831B82DD82CC828E8399
:1040F000CE010196B8CFE83CF105F8F6FE2CEE2093
:1041000009F243131FC092131DC08091B50180FDB9
:1041100010C0982F907F69F0F8018583903F31F0AF
:10412000982F907F905F8F70892B8583C8010E94A4
:10413000591986E0F801A0EBB1E001900D928A9543
:10414000E1F70DCFC8010E94A80E81118ECF80919A
:10415000B50181608093B501C8010E945919FFCE55
:10416000EE2009F48FCFC8010E94A80EF82E8823F4
:1041700009F488CF86E0F801A0EBB1E001900D9240
:104180008A95E1F78091B0019091B1010E949C0E57
:104190000E94FF1EE4CE81E08E25FBCE1F921FB64B
:1041A0001F9211248F939F93AF93BF938091B4027A
:1041B000811113C08091B5029091B602A091B7020F
:1041C000B091B8024196A11DB11D8093B5029093A4
:1041D000B602A093B702B093B802BF91AF919F917E
:1041E0008F911F901FBE1F901895CDB7DEB7E49733
:1041F0000FB6F894DEBF0FBECDBF84B7877F84BFF4
:104200000FB6F894A8958091600088618093600053
:10421000109260000FBE80E890E00FB6F894809393
:104220006100909361000FBE85B7806885BF85B738
:10423000806885BF88E998E0909379018093780140
:104240000E9488050E9453068091E200846080935A
:10425000E20078948091E3028823A1F01091E900B4
:104260001F709091EC00892F817090FD80E8182BD1
:104270001092E9008091E80083FD0E9485121F7072
:104280001093E90082E084BD93E095BD9AEF97BD5D
:1042900080936E000E94C80E811102C00E94130E0E
:1042A00000E511E065E5E62E61E0F62ED8018D917E
:1042B0008D018F3F11F00E949A08E016F106B1F7C8
:1042C00005E511E050E6E52E51E0F52EF80181916B
:1042D0008F018F3F11F00E949A08E016F106B1F7A6
:1042E0008AE0EDE8F2E0DF01282F1D922A95E9F738
:1042F000E5E1F2E0DF011D928A95E9F790E080E0C8
:104300000E94072A893E9E4F21F40E94C80E811107
:1043100002C00E94EF0E82E090E00E94FF2980938D
:104320001F020E94E10E9093BA028093B9020E948C
:104330009810EFE3FCE93197F1F700C000000E940C
:10434000981080918D0280FF08C06FEF7FEF90E0A2
:1043500080E00E942B2A0E94160783E090E00E94D2
:10436000FF290E946C121092880280E88093F1026B
:104370000E9437286DE070E08DE892E00E94640CA6
:10438000892BE9F58091880263E070E081FD6EC1C0
:104390008AE892E00E94640C892B89F56DE070E058
:1043A0008AE792E00E94640C892B49F50E94270756
:1043B000605A75418F4F9F4F6093A8027093A90276
:1043C0008093AA029093AB02E4EFF2E080E092E0E7
:1043D000DF019C011D9221503040E1F7F093FB0476
:1043E000E093FA048FEF9FEF9093F3028093F20231
:1043F00081E08093AD028093AC021092890280E04C
:1044000091E09093B1028093B0028091E30200E1C9
:1044100012E1853009F469C10E949810D82E8111EB
:104420000E942707ADE8B2E0E0E2F2E010E000E031
:10443000702F8D919D91219131912817390709F4A1
:1044400064C12827392760E0EE24E394F12CA7010A
:1044500042235323452B09F452C169A77AA7970138
:104460002823392391E0232B09F490E09BA70E9495
:1044700065108160782F9DA78CA749A55AA56BA5CB
:104480008DA50E940D18000F111FF801E05EFD4F71
:1044900080819181E826F926F182E08280903602BF
:1044A00090903702092C000CAA08BB0880910C01DF
:1044B00090E0E6E3F2E021E030E0329682179307E5
:1044C0000CF03AC18091320290913302A0913402F3
:1044D000B09135026FB7F8944090B5025090B60293
:1044E0006090B7027090B8026FBF481A590A6A0A02
:1044F0007B0A10910C0139EC4316510461047104DC
:1045000014F18091310290E0019669E170E00E941F
:104510005E2980933102880F991FFC01EA5CFD4FF0
:1045200011821082812F183108F087E18F5F80930C
:104530000C010E942707609332027093330280932C
:1045400034029093350242E084169104A104B10430
:104550000CF4FFC0A0E6BAEEA50194010E94C029A8
:104560004B015C0188EC189F90011124032E000C74
:10457000440B550B240D351D461D571DA5E0B0E01D
:104580000E94C0299B01AC01C501B4010E9472299F
:1045900029013A0191EF49165104610471042CF08C
:1045A000A0EF4A2E512C612C712C80912D029091FC
:1045B0002E02A0912F02B09130022FB7F894809074
:1045C000B5029090B602A090B702B090B8022FBF8B
:1045D000881A990AAA0ABB0AA5E68A169104A104B8
:1045E000B10484F00E94270760932D0270932E027D
:1045F00080932F029093300280912C0280932B02A3
:1046000040922A0210912B02A0912A02A11BBB0BFF
:10461000A50194010E94CB2924E630E040E050E05F
:104620000E949429120F10932C028091AD028823CE
:1046300009F4DDC084EF92E09093FB048093FA04C8
:104640008FEC92E00E94240C8091F0020E94610B9A
:10465000882309F482C0813009F4DBC188EB92E041
:104660000E94240C81E00E94320C7BC087E892E01B
:1046700091CE8091E302843031F10E94940C10922B
:10468000B40288E190E0A0E40FB6F894A895809376
:1046900060000FBEA093600083B7817F846083BFFA
:1046A00083B7816083BF7894889583B78E7F83BFFB
:1046B0000FB6F894A895809160008861809360009F
:1046C000109260000FBE8091E202882371F00E9478
:1046D0009810EDE8F2E081919191892B09F09EC448
:1046E00027E932E02E173F07B1F78091E3028530CA
:1046F00009F4BFCF0E9470120E945F078DCE6F5FDA
:10470000EE0CFF1C6B3009F0A2CE0F5F1F4F05307F
:10471000110509F08DCE8FEF8EA78FA718AA0E94E2
:1047200065108160782F9AAB89AB4EA55FA568A90B
:104730008AA90E940D18B2CE40815181052E000C2D
:10474000660B770B840E951EA61EB71E2F5F3F4F7C
:10475000B4CE412C512C320128CF88EC92E00E943B
:10476000240C0E945F07182F8EEA92E010FF02C00F
:1047700083EB92E00E94240C84EA92E011FF02C0D5
:1047800089EA92E00E94240C8AE992E012FF02C0BA
:104790008FE992E00E94240C8091AD02882371F091
:1047A0002091F2023091F3022115310539F0809108
:1047B000890261E070E0882309F42FC18091AC0286
:1047C0008823A9F00E9427070091A8021091A9024E
:1047D0002091AA023091AB02601B710B820B930BEC
:1047E0006F3F7F4F8F4F9F4710F40E94940CD11062
:1047F0000E94AF0C86E0EEE9F2E08E010F5F1F4FE2
:10480000D80101900D928A95E1F7D090A002C09056
:10481000A102F090A202E090A3021092A0021092D6
:10482000A1021092A2021092A3028D2D8C2909F4EC
:1048300048C080919C0290919D020E9456109C015C
:1048400090919802992309F40DC425313105C8F1DE
:104850009F3F19F09F5F90939802DD2059F00E94CE
:1048600010089FEF1D140CF491E0899F802D1124F6
:104870008093A002CC2059F00E9410089FEF1C14D6
:104880000CF491E0899F802D11248093A102309136
:10489000A0023323B1F02091A102222391F045EB35
:1048A0003403C0011124992309F482C19093A0021A
:1048B00045EB240390011124332309F47DC1309387
:1048C000A1028F2D8E2909F448C080919A029091FF
:1048D0009B020E9456109C0190919702992309F423
:1048E000BCC321353105C8F19F3F19F09F5F9093FC
:1048F0009702FF2059F00E94EE079FEF1F140CF45F
:1049000091E0899F802D11248093A202EE2059F01E
:104910000E94EE079FEF1E140CF491E0899F802DFA
:1049200011248093A3023091A2023323B1F020918D
:10493000A302222391F045EB3403C00111249923F3
:1049400009F43EC19093A20245EB24039001112487
:10495000332309F439C13093A3028091A0029091CE
:10496000A102892B9091A202892B9091A302892BFD
:1049700011F00E94711086E0F801AEE9B2E00190FA
:104980000D928A95E1F70E945F0790918A02891340
:1049900080938A028091E302843009F036CD83E06F
:1049A0008093E9008091E80082FF2FCD8091E8009C
:1049B00090E085FF0AC00E94A70530E2C32ED12CEB
:1049C0007801882309F40EC191E08091E8008B778B
:1049D0008093E800992309F418CDE090A602F090A6
:1049E000A7028981E114F10409F40AC18E3F09F09C
:1049F0004AC18A81833020F08550833008F043C15A
:104A0000EA81EE3008F03FC1F0E0E75AF54D0C9432
:104A1000B32983EC92E0A3CE8F5F082F10E07B01D7
:104A2000082E02C0EE0CFF1C0A94E2F7A9014E21E9
:104A30005F21452B89F39091880290FD43C08295B8
:104A4000880F807680930F019801369527953695CB
:104A5000279520931201815E80931001109213011B
:104A600024E630E047E050E06DE071E088E70E9426
:104A7000E628892B09F0A2CEA801E5E0440F551FD6
:104A8000EA95E1F78091880280FD2AC04C505D4F85
:104A900004E610E020E230E060E488E70E940D299F
:104AA000892B09F08BCE0E94AF0CE094F09480919A
:104AB000F2029091F302E822F922F092F302E092DE
:104AC000F2027CCE880F880F880F80930F0110921E
:104AD0001201895F8093100183E080931301C0CF9E
:104AE000E8E6F2E080E2DF011D928A95E9F7E4E66C
:104AF000F1E0FCABEBAB00E611E068E6262E61E0EE
:104B0000362E77E0972E88248394ABA9BCA92D91EB
:104B1000BCABABABF80141908F01440E552E511C3C
:104B2000C2018C509D4F2C01E22FF0E0E859FD4F5F
:104B300030E020E0692C621AC82C022E01C0CC0C97
:104B40000A94EAF7520190E0D5018D915D018C2124
:104B5000662D691B6770762E062E000C770BB82F1A
:104B600001C0BB0F7A94EAF77B2E719561957109AC
:104B70006770772701C086956A95EAF7782A808161
:104B8000782A70829F5F9830F9F62F5F3F4F3196F9
:104B90002830310579F6EBA9FCA92E163F0609F05D
:104BA000B4CF04E610E020E230E048E652E074CFF3
:104BB00081E08093A0027CCE81E08093A10281CE2F
:104BC00081E08093A202C0CE81E08093A302C5CE93
:104BD0008091F100D7018D937D01B1E0CB1AD1080E
:104BE00009F4F2CE8091E80085FDF2CF8091E800D3
:104BF0008B778093E8000E94A705882399F3E4CE81
:104C00008D3009F4C5C0B8F4843009F4A8C048F464
:104C1000823049F108F094C0813009F18FEF898327
:104C200032C0863009F4B1C008F4A4C08C30B1F7AA
:104C300080E18A8328C0813109F406C140F48F30B5
:104C400009F4D4C008F4A8C00E946A0D1CC08331C6
:104C500009F424C108F4FAC08E3F01F7D1CE1A82BC
:104C600089E08B8310C08A81823009F4EDC18330E2
:104C700099F1813099F60E9427070E94B9296B8328
:104C80007C838D839E838091E302843009F0BDCBC9
:104C9000F090E900BF2DBF70FB2E9091EC00892FA2
:104CA000817090FD80E8F82A82E08093E90080918D
:104CB000E80080FF0CC050E040E060E270E0C80116
:104CC0000E94D8058091E8008E778093E8008F2DB0
:104CD0008F708093E90099CB809114019091150118
:104CE000892B89F280918D0290918E0298278927D5
:104CF00098279C838B8380918F02909190029827B4
:104D0000892798279E838D838091910290919202AA
:104D100098278927982798878F838091930290916D
:104D200094029827892798279A87898780919502E6
:104D3000909196029827892798279C878B87A3CFE5
:104D40008A81823009F06ACF6B817C818D819E815E
:104D50000E94B92986E290E00E940D2A94CF4C81EE
:104D60006B818A810E94220E9827892798279E832B
:104D70008D8389CF2D813E813227232732274C8195
:104D80006B818A810E947A0D7ECF0E94AF0D7BCF0E
:104D900082E08A838DEF65CFEC80F12CEDE1EE1699
:104DA000F10408F070CFCA80DB80DC24CD24DC2441
:104DB0005801E00EF11EC6018D5F9E4FAE14BF0478
:104DC00009F461CFFDEFCF16F2E0DF0660F40E9438
:104DD000FF29D50114968C93FFEFCF1ADF0A2FEF2E
:104DE000A21AB20AE8CFF5011482F6CF809114011D
:104DF00090911501892B09F446CFCC80D12C3DE14F
:104E0000C316D10408F03FCFEA80FB80FE24EF24D4
:104E1000FE245801CE0CDF1CC7018D5F9E4FCE14BF
:104E2000DF0409F430CF4DEFE41642E0F40628F435
:104E3000D50114966C910E940D2ABFEFAB1ABB0AE4
:104E4000EFEFEE1AFE0AE8CF82E0F3CEEC80F12C11
:104E5000FDE1EF16F10408F016CFCA80DB80DC24F8
:104E6000CD24DC245801E00EF11EC6018796EA1419
:104E7000FB0409F408CF2CEDC216D10460F40E94A3
:104E8000FF29D50114968C93FFEFCF1ADF0A2FEF7D
:104E9000A21AB20AEACFF5011482F6CFCC80D12C47
:104EA0003DE1C316D10408F0EECEEA80FB80FE247B
:104EB000EF24FE244CEDE416F10408F0E4CE8CED72
:104EC00090E08E199F098C159D0508F4DCCE5801E1
:104ED000CE0CDF1CC7018796EC14FD0409F4D3CE79
:104EE000ACEDEA16F10420F4F50164810E940D2A6C
:104EF000FFEFAF1ABF0A2FEFE21AF20AEBCF88E0FA
:104F0000E7E1F1E0DE01919601900D928A95E1F7DB
:104F100080E2D8011D928A95E9F785E0898388E0CF
:104F2000FE01B196DE01159601900D928A95E1F78A
:104F3000AACE80E2898381E08A831B821C82A3CE71
:104F40008C81682F70E0762F66278B81860F972FD4
:104F5000911D092E000CAA0BBB0B25E0880F991F91
:104F6000AA1FBB1F2A95D1F7AC01BD01405E5F4F60
:104F70006F4F7F4F481759076A077B0708F483CEA6
:104F80008032E1E09E07A105B10508F07CCE4132F8
:104F9000F1E05F076105710520F040E251E060E05B
:104FA00070E0481B590BBC0169527D4FC8010E943B
:104FB000E22969CE4EE150E06FEF70E0CE0103963A
:104FC0000E94F829809114018983EA825CCE81E0F5
:104FD00090E09093A7028093A60282E390E09093E2
:104FE0008C0280938B020E9465104DCE809114013B
:104FF0008983EA8280918B0234CE40E250E06FEFE9
:1050000070E0C8010E94F8293ECE8B8181113BCE11
:1050100080E2D8011D928A95E9F735CE09BD19BD08
:1050200009B400FEFDCF8091D8008F7D8093D80019
:105030008091E00082608093E0008091E00081FD3B
:10504000FCCF0E94701251CB86E290E00E94FF29B3
:105050001B821C821D828E8316CE2B30310508F0F8
:1050600045CC7BCC2B30310508F0F4CB2ACC109208
:10507000B9008CE08093B80008959F92AF92BF92E0
:10508000CF92DF92EF92FF920F931F93CF93DF9314
:10509000B82EEB010E9465106C01EE24E394F12C14
:1050A000C431D10560F025E0E22EF12CCF3FDC07C2
:1050B00031F0CE0164E170E00E943E297B0184EA78
:1050C000A82E94E8992E1092BC00A092BC000E94D9
:1050D00065108C018091BC0087FF0DC08091B900E4
:1050E000887F883039F18091B900887F803111F153
:1050F0000FEF1FEF09C00E946510801B910B8E15EA
:105100009F0540F30EEF1FEFCF3FDC07E1F2C60132
:105110000E9456108C179D07B0F2C801DF91CF9105
:105120001F910F91FF90EF90DF90CF90BF90AF90C5
:105130009F900895B092BB009092BC000E946510B1
:105140008C018091BC0087FF0AC08091B900887FE4
:10515000883111F0803461F610E000E0DECF0E946B
:105160006510801B910B8E159F0558F3CBCF0F93C5
:105170001F93CF93DF93EB018093BB0084E8809370
:10518000BC000E9465108C018091BC0087FF11C09B
:105190002091B900287F81E090E0283211F490E05E
:1051A00080E0919581959109DF91CF911F910F91A9
:1051B0000895CF3FDC0741F30E946510801B910BDF
:1051C0008C179D0708F38EEF9FEFEECFCF92DF9203
:1051D000EF92FF920F931F93CF93DF936B018A019E
:1051E0007901B9010E943D28E6010C0D1D1DC01773
:1051F000D10761F424E92093BC00DF91CF911F9186
:105200000F91FF90EF90DF90CF90089597FDF2CF30
:10521000B70189910E94B728EACFCF92DF92EF922F
:10522000FF920F931F93CF93DF93C62F6A017901EB
:10523000B8010E943D2897FD0CC0B8018C2F0E9438
:10524000B728E601EC0CFD1CCE15DF0511F097FF29
:105250000CC024E92093BC00DF91CF911F910F91E6
:10526000FF90EF90DF90CF900895B80189910E9450
:10527000B728EACF84E98093BC000895AA1BBB1B22
:1052800051E107C0AA1FBB1FA617B70710F0A61B46
:10529000B70B881F991F5A95A9F780959095BC0167
:1052A000CD010895991B79E004C0991F961708F065
:1052B000961B881F7A95C9F78095089597FB072E4E
:1052C00016F4009407D077FD09D00E943E2907FC10
:1052D00005D03EF4909581959F4F08957095619506
:1052E0007F4F0895A1E21A2EAA1BBB1BFD010DC022
:1052F000AA1FBB1FEE1FFF1FA217B307E407F50786
:1053000020F0A21BB30BE40BF50B661F771F881F61
:10531000991F1A9469F760957095809590959B01F7
:10532000AC01BD01CF010895052E97FB1EF400943A
:105330000E94AB2957FD07D00E94722907FC03D0B9
:105340004EF40C94AB2950954095309521953F4FE4
:105350004F4F5F4F089590958095709561957F4F61
:105360008F4F9F4F0895EE0FFF1F0590F491E02D92
:10537000099469279627692778278727782708952A
:105380000E94D329A59F900DB49F900DA49F800DDE
:10539000911D11240895B7FF0C94C0290E94C029C3
:1053A000821B930B0895A29FB001B39FC001A39FDE
:1053B000700D811D1124911DB29F700D811D11244E
:1053C000911D0895FB01DC0102C005900D92415032
:1053D0005040D8F70895FB01DC0104C08D91019085
:1053E000801921F441505040C8F7881B990B08954B
:1053F000DC0101C06D9341505040E0F70895F999E8
:10540000FECF92BD81BDF89A992780B50895A8E195
:10541000B0E042E050E00C94332A262FF999FECFF9
:1054200092BD81BDF89A019700B4021639F01FBAF7
:1054300020BD0FB6F894FA9AF99A0FBE0895039614
:10544000272F0E940E2A0E940D2A252F0E940E2A25
:10545000242F0C940E2A0196272F0E940E2A0C94BA
:105460000D2ADC01CB01FC01F999FECF06C0F2BD8B
:10547000E1BDF89A319600B40D9241505040B8F712
:105480000895F894FFCF6B139313411593134115AF
:10549000C613E7134115F014FD142E1C2E1C671CB7
:1054A000671C1B1D351D951C951C401DAB1DBA1D91
:1054B000BA1D7F279927A02743264326DA27E72707
:0E54C000F6274326FD274326432643260528CC
:1054CE0013072A0D090D050D010D1207010021000C
:1054DE007F2200030100016CBDEC24936BCA9E81F8
:1054EE008283E200E900EA00B500B600B700CD0005
:1054FE008301CC008A01920194012102230224022D
:10550E002502260227022A02B300B4006F007000A3
:10551E00F4F5F6F7319392946697C63435363233F6
:10552E0000081018181008004022BC8A016801AC4F
:08553E0000E90402052205004A
:00000001FF
