:100000000C94120E0C942F0E0C942F0E0C942F0E99
:100010000C942F0E0C942F0E0C942F0E0C942F0E6C
:100020000C942F0E0C942F0E0C9495180C94951E76
:100030000C940A2A0C942F0E0C942F0E0C942F0E55
:100040000C942F0E0C942F0E0C942F0E0C942F0E3C
:100050000C942F0E0C946E190C942F0E0C942F0EE2
:100060000C942F0E0C942F0E0C942F0E0C942F0E1C
:100070000C942F0E0C942F0E0C942F0E0C942F0E0C
:100080000C942F0E0C942F0E0C942F0E0C942F0EFC
:100090000C942F0E0C942F0E0C942F0E0C942F0EEC
:1000A0000C942F0E0C942F0E0C942F0E05010902A8
:1000B000A10185020901A100050919012905150001
:1000C00025019505750181029501750381010501E1
:1000D000093009311581257F950275088106093897
:1000E0001581257F950175088106050C0A380215D2
:1000F00081257F950175088106C0C005010980A191
:1001000001850319012AB700150126B7009501756D
:10011000108100C0050C0901A101850419012AA064
:1001200002150126A002950175108100C005010984
:1001300006A1018506050719E029E71500250195A7
:1001400008750181020507190029EF1500250195A1
:10015000F0750181020508190129059505750191C0
:1001600002950175039101C00660FF0961A10109B3
:1001700062150026FF0095207508810209631500AD
:1001800026FF00952075089102C005010906A1010E
:10019000050719E029E71500250195087501810279
:1001A0009501750881010507190029FF150026FF33
:1001B0000095067508810005081901290595057542
:1001C000019102950175039101C00000000000003B
:1001D000000000000000000000000000000000001F
:1001E000000000000000000000000000000000000F
:1001F00000000000000000000000000000000000FF
:10020000000000000000000000000000808080402E
:1002100040202010080402040810102020404080D4
:10022000800000000000000000000000000000004E
:1002300000000000000000000000000000000000BE
:1002400000000000000000000000000000000000AE
:10025000000000000000000000000000000000009E
:10026000000000000000000000000000000000008E
:10027000000000000000000000000000003FC1017D
:100280000102020404040402020101010000000052
:1002900000008000004080804000003030000000FE
:1002A00000010264180412C2CA2488F08080404011
:1002B00040402020202010101010080808080404D6
:1002C000040402020202010101010000000000001A
:1002D000000000000000000000000000000000001E
:1002E000000000000000000000000000000000000E
:1002F000000000000000000000000000E0180601FF
:1003000000000000000000000000008083834040E7
:100310004040202121201010101008080808040473
:1003200004040202020201010101000000000000B9
:1003300000000000000000000000000000000000BD
:1003400000000000000000000000000000000000AD
:10035000000000000000000000000000000000009D
:10036000000000000000000000008080808040400D
:1003700040402020202010101010080F080804040E
:10038000040402040810102020404041422498C078
:1003900088888C9C1C1E0E060000000000000000D7
:1003A000000000000000000000000000000000004D
:1003B000000000000000000000000000000000003D
:1003C000000000000000000000000000000000002D
:1003D000000000000000000000000000000000001D
:1003E000000000000000000000000000000000000D
:1003F00000000000000000000000000000000000FD
:1004000000000000000000000000000000000000EC
:1004100000000000000000000000000000000000DC
:1004200000000000000000000000000000000000CC
:1004300000000000000000000000000000000000BC
:1004400000000000000000000000000000000000AC
:10045000000000000000000000000000000000009C
:10046000000000000000000000000000000000008C
:10047000000000000000000000000000000000007C
:10048000000000000000000080808040402020101C
:100490000804020408101020204040808000000062
:1004A000000000000000000000000000000000004C
:1004B000000000000000000000000000000000003C
:1004C000000000000000000000000000000000002C
:1004D000000000000000000000000000000000001C
:1004E000000000000000000000000000000000000C
:1004F0000000000000000000003FC10101020204F2
:100500008444444282010101000000000000800098
:1005100000408080400000303000000000010204F4
:100520000408081020408080808040404040202007
:100530002020101010100808080804040404020207
:1005400002020101010100000000000000000000A3
:10055000000000000000000000000000000000009B
:10056000000000000000000000000000000000008B
:100570000000000000000000E018060100000C036D
:10058000000218190005FE8083834040404020216E
:10059000212010101010080808080404040404089E
:1005A000304080800000018698600000000000005C
:1005B000000000000000000000000000000000003B
:1005C000000000000000000000000000000000002B
:1005D000000000000000000000000000000000001B
:1005E00000000000000080808080404040402020CB
:1005F000202010101010080F080804040404020240
:1006000002020101010100000000000000000000E2
:10061000000000000000000000060F0F0703036148
:10062000F0F8FC600101013C78F8F0700000000077
:1006300000000000000000000000000000000000BA
:1006400000000000000000000000000000000000AA
:10065000000000000000000000000000000000009A
:10066000000000000000000000000000000000008A
:10067000000000000000000000000000000000007A
:10068000000000000000000000000000000000006A
:10069000000000000000000000000000000000005A
:1006A000000000000000000000000000000000004A
:1006B000000000000000000000000000000000003A
:1006C000000000000000000000000000000000002A
:1006D000000000000000000000000000000000001A
:1006E000000000000000000000000000000000000A
:1006F00000000000000000000000000000000000FA
:100700000080804040402020202020180402010268
:1007100004081020204040808000000000000000FD
:1007200000000000000000000000000000000000C9
:1007300000000000000000000000000000000000B9
:1007400000000000000000000000000000000000A9
:100750000000000000000000000000000000000099
:100760000000000000000000000000000000000089
:1007700000000000003FC101010202040404040261
:1007800002010000000000000000800000408080A6
:10079000400000303000000000010204040808108E
:1007A0002040808080804040404020202020101049
:1007B00010100808080804040404020202020101DF
:1007C0000101000000000000000000000000000027
:1007D0000000000000000000000000000000000019
:1007E0000000000000000000000000000000000009
:1007F00000000000E01806010000000000000000FA
:1008000000000080838340404040202121201010C0
:10081000101008080808040404040408304080800C
:100820000000018698600000000000000000000049
:1008300000000000000000000000000000000000B8
:1008400000000000000000000000000000000000A8
:100850000000000000000000000000000000000098
:1008600000008080808040404040202020201010E8
:100870001010080F080804040404020408101020D3
:100880002040404142241800000000000000000009
:100890000000000000000000000000000000000058
:1008A0000101010000000000000000000000000045
:1008B0000000000000000000000000000000000038
:1008C0000000000000000000000000000000000028
:1008D0000000000000000000000000000000000018
:1008E0000000000000000000000000000000000008
:1008F00000000000000000000000000000000000F8
:1009000000000000000000000000000000000000E7
:1009100000000000000000000000000000000000D7
:1009200000000000000000000000000000000000C7
:1009300000000000000000000000000000000000B7
:1009400000000000000000000000000000000000A7
:100950000000000000000000000000000000000097
:100960000000000000000000000000000000000087
:100970000000000000000000000000000000000077
:10098000808040404020100804020102040810202A
:100990004080800000000000000000000000000017
:1009A0000000000000000000000000000000000047
:1009B0000000000000000000000000000000000037
:1009C0000000000000000000000000000000000027
:1009D0000000000000000000000000000000000017
:1009E0000000000000000000000000000000000007
:1009F000003FC101010202040404040202010101DA
:100A00000000000000000000008000008000006086
:100A100060000001020404080810102020408080BB
:100A200080804040404020202020101010100808F6
:100A3000080804040404020202020101010100008A
:100A400000000000000000000000000000000000A6
:100A50000000000000000000000000000000000096
:100A60000000000000000000000000000000000086
:100A7000C0300C03000000000000000000000080F7
:100A80008686404040402122222011111010080883
:100A90000808040404040408304080800000018633
:100AA000986000000000000000000000000000004E
:100AB0000000000000000000000000000000000036
:100AC0000000000000000000000000000000000026
:100AD0000000000000000000000000000000808016
:100AE0008080404040402020202010101010080F2F
:100AF00008080404040402040810102020404041A7
:100B00004224180000000000000000000000000067
:100B100000000000000000000000000001010100D2
:100B200000000000000000000000000000000000C5
:100B300000000000000000000000000000000000B5
:100B400000000000000000000000000000000000A5
:100B50000000000000000000000000000000000095
:100B60000000000000000000000000000000000085
:100B70000000000000000000000000000000000075
:100B80000000000000000000000000000000000065
:100B90000000000000000000000000000000000055
:100BA0000000000000000000000000000000000045
:100BB0000000000000000000000000000000000035
:100BC0000000000000000000000000000000000025
:100BD0000000000000000000000000000000000015
:100BE0000000000000000000000000000000000005
:100BF00000000000000000000000000080808080F5
:100C000040402010080402040810204080800000AA
:100C100000000000000000000000000000000000D4
:100C200000000000000000000000000000000000C4
:100C300000000000000000000000000000000000B4
:100C400000000000000000000000000000000000A4
:100C50000000000000000000000000000000000094
:100C6000000000000000000000000000007E820282
:100C7000020404080808080404020101000000003E
:100C800000000000008000008000006060000101A2
:100C9000020404080810102020408080808040401A
:100CA00040402020202010101010080808080404DC
:100CB0000404020202020101010100000000000020
:100CC0000000000000000000000000000000000024
:100CD0000000000000000000000000000000000014
:100CE000000000000000000000000000C0300C0305
:100CF00000000000000000000000008086864040E8
:100D00004040212222201111101008080808040474
:100D100004040408304080800000018698600000D0
:100D200000000000000000000000000000000000C3
:100D300000000000000000000000000000000000B3
:100D400000000000000000000000000000000000A3
:100D50000000000000000000000080808080404013
:100D600040402020202010101010080F0808040414
:100D700004040204081010202040404142241800BE
:100D80000000000000000000000000000000000063
:100D90000000000000000000010101000000000050
:100DA0000000000000000000000000000000000043
:100DB0000000000000000000000000000000000033
:100DC0000000000000000000000000000000000023
:100DD0000000000000000000000000000000000013
:100DE0000000000000000000000000000000000003
:100DF00000000000000000000000000000000000F3
:100E000000000000000000000000000000000000E2
:100E100000000000000000000000000000000000D2
:100E200000000000000000000000000000000000C2
:100E300000000000000000000000000000000000B2
:100E400000000000000000000000000000000000A2
:100E50000000000000000000000000000000000092
:100E60000000000000000000000000000000000082
:100E700000000000000000008080808040402010C2
:100E800008040204081020408080000000000000D8
:100E90000000000000000000000000000000000052
:100EA0000000000000000000000000000000000042
:100EB0000000000000000000000000000000000032
:100EC0000000000000000000000000000000000022
:100ED0000000000000000000000000000000000012
:100EE00000000000000000001C34C40404040808D2
:100EF000080808040402010100000000000080004E
:100F000000408080400000303000010102020404F3
:100F1000040808102040808080804040404020200D
:100F2000202010101010080808080404040402020D
:100F300002020101010100000000000000000000A9
:100F400000000000000000000000000000000000A1
:100F50000000000000000000000000000000000091
:100F60000000000000000000E01806010000000082
:100F700000000000000000808383404040402021AA
:100F800021201010101008080808040404040408A4
:100F90003040808000000186986000000000000062
:100FA0000000000000000000000000000000000041
:100FB0000000000000000000000000000000000031
:100FC0000000000000000000000000000000000021
:100FD00000000000000080808080404040402020D1
:100FE000202010101010080F080804040404020444
:100FF000081010202040404142241800000000004A
:1010000000000000000000000000000000000000E0
:1010100000000000010101000000000000000000CD
:1010200000000000000000000000000000000000C0
:1010300000000000000000000000000000000000B0
:1010400000000000000000000000000000000000A0
:101050000000000000000000000000000000000090
:101060000000000000000000000000000000000080
:101070000000000000000000000000000000000070
:101080000000000000000000000000000000000060
:101090000000000000000000000000000000000050
:1010A0000000000000000000000000000000000040
:1010B0000000000000000000000000000000000030
:1010C0000000000000000000000000000000000020
:1010D0000000000000000000000000000000000010
:1010E0000000000000000000000000000000000000
:1010F000008080404040202020202018040201026F
:101100000408102020404080800000000000000003
:1011100000000000000000000000000000000000CF
:1011200000000000000000000000000000000000BF
:1011300000000000000000000000000000000000AF
:10114000000000000000000000000000000000009F
:10115000000000000000000000000000000000008F
:10116000000000060D31C101010102020204040267
:1011700002010000000000000000800000408080AC
:101180004000003030000000000102040408081094
:10119000204080808080404040402020202010104F
:1011A00010100808080804040404020202020101E5
:1011B000010100000000000000000000000000002D
:1011C000000000000000000000000000000000001F
:1011D000000000000000000000000000000000000F
:1011E00000000000E0180601000000000000000000
:1011F00000000080838340404040202121201010C7
:101200001010080808080404040404083040808012
:10121000000001869860000000000000000000004F
:1012200000000000000000000000000000000000BE
:1012300000000000000000000000000000000000AE
:10124000000000000000000000000000000000009E
:1012500000008080808040404040202020201010EE
:101260001010080F080804040404020408101020D9
:10127000204040414224180000000000000000000F
:10128000000000000000000000000000000000005E
:10129000010101000000000000000000000000004B
:1012A000000000000000000000000000000000003E
:1012B000000000000000000000000000000000002E
:1012C000000000000000000000000000000000001E
:1012D000000000000000000000000000000000000E
:1012E00000000000000000000000000000000000FE
:1012F00000000000000000000000000000000000EE
:1013000000000000000000000000000000000000DD
:1013100000000000000000000000000000000000CD
:1013200000000000000000000000000000000000BD
:1013300000000000000000000000000000000000AD
:10134000000000000000000000000000000000009D
:1013500000007E0F00D4FFFFFFC7000000780000F0
:101360000000000000002A2B280000000000000000
:1013700000000000000000000029000000002C1EFA
:101380003420212224342627252E362D3738271EB7
:101390001F202122232425263333362E37381F04DD
:1013A00005060708090A0B0C0D0E0F101112131475
:1013B00015161718191A1B1C1D2F3130232D350433
:1013C00005060708090A0B0C0D0E0F101112131455
:1013D00015161718191A1B1C1D2F3130354C00DA41
:1013E0000281FFD9F1DB20A4A62EAF00A0C000A18E
:1013F000C800AED580A81FD300408D142000202047
:1014000020005343522000202020004E554D002044
:1014100020200043415000556E646566696E656426
:1014200000464E004241534500FD377A585A0000AD
:1014300004E6D6B4460200210116000000742FE530
:10144000A3E0023C00DD5D003D8889C65436C31729
:101450004FE4DE8DD9FB8DBAD56516EE66FC1EA66F
:10146000C528D15E7518C863454CA73EC357D23C0A
:101470008D87C7E241ACE4EE6EA24F016516209D58
:10148000694265B41D43B9187ED3E5274F0273C284
:1014900036C60DDD5F1553008DBD858FDB926FF96C
:1014A00046D9E142F29F44CD1DB524E87CA14AB75C
:1014B0005AFB1327C897EDDACBBF4BF87CC87531C0
:1014C000CAA926779C6C41C77E455D981EA0D1A90C
:1014D0001D91253D6B0EE02A5AC04BA3C1EDDEAD38
:1014E0006A24DB911FAC752B6EF5B6A30A498AF00E
:1014F0000B1EBDEE7A565207E3369DD609A00F9B10
:10150000A6983D5D904F116FA2AFCBD515F38EDA43
:10151000A6397C5A76E6828889AB51F14A6BDF5155
:10152000FCC17EAEFD00000000FA08ED9FF34A9D6D
:101530008A0001F901BD040000278BB924B1C467FA
:10154000FB020000000004595A2B0014000800158B
:101550000017001C000C0013002F002A004A00395D
:10156000001A00160009000A00180012000F0030CF
:101570000031004D00E10004000700060005000BEB
:10158000000E003300340028005200E0001D001B54
:1015900000190011000D00360037003800E5005139
:1015A000000151E2002C002C002C001000E600018C
:1015B00053E40050004F0029001E002000210022AB
:1015C000002300250027002D004C004E0035001F91
:1015D000003B003D003E002400260042002E004556
:1015E000004B0001003A003C00010001003F0041B7
:1015F000004300440045000100010001000100011A
:101600000001004000010001000100010001000193
:10161000000100005C005C0100010001000100010C
:10162000000100000000AF00AE09025B00030100F2
:10163000A0FA0904000001030101000921110100C1
:10164000012240000705810308000109040100028E
:101650000300000009211101000122220007058278
:101660000320000107050303200001090402000113
:101670000300000009211101000122BC00070584BC
:101680000320000112010002000000086B66626680
:101690000100010203011C037600690061006C0077
:1016A0003A00660036003400630032006200330006
:1016B00063000000120346007200750069007400A8
:1016C000620061007200000016036600720075007F
:1016D0006900740079006B0065006500620000001D
:1016E0000403090407087F0807003E5B4F5B3E00C8
:1016F0003E6B4F6B3E001C3E7C3E1C00183C7E3C0B
:1017000018001C577D571C001C5E7F5E1C000018D3
:101710003C180000FFE7C3E7FF0000182418000092
:10172000FFE7DBE7FF0030483A060E00262979295B
:101730002600407F05050700407F05253F005A3CF5
:10174000E73C5A007F3E1C1C0800081C1C3E7F0022
:1017500014227F2214005F5F005F5F0006097F0193
:101760007F00006689956A0060606060600094A2F6
:10177000FFA2940008047E04080010207E201000C0
:1017800008082A1C0800081C2A0808001E1010104F
:1017900010000C1E0C1E0C0030383E383000060EB7
:1017A0003E0E060000000000000000005F00000088
:1017B000000700070000147F147F1400242A7F2AEA
:1017C00012002313086462003649562050000008B6
:1017D00007030000001C224100000041221C000001
:1017E0002A1C7F1C2A0008083E0808000080703070
:1017F00000000808080808000000606000002010D1
:10180000080402003E5149453E0000427F4000006E
:101810007249494946002141494D33001814127F4D
:1018200010002745454539003C4A494931004121CE
:1018300011090700364949493600464949291E0021
:1018400000001400000000403400000000081422D2
:101850004100141414141400004122140800020161
:10186000590906003E415D594E007C1211127C0060
:101870007F49494936003E41414122007F41414173
:101880003E007F49494941007F09090901003E4165
:10189000415173007F0808087F0000417F4100002C
:1018A0002040413F01007F08142241007F4040401A
:1018B00040007F021C027F007F0408107F003E4131
:1018C00041413E007F09090906003E4151215E0069
:1018D0007F091929460026494949320003017F0141
:1018E00003003F4040403F001F2040201F003F407A
:1018F00038403F00631408146300030478040300B5
:101900006159494D4300007F4141410002040810E4
:101910002000004141417F000402010204004040D8
:101920004040400000030708000020545478400065
:101930007F2844443800384444442800384444282C
:101940007F0038545454180000087E09020018A47F
:10195000A49C78007F080404780000447D400000C7
:101960002040403D00007F102844000000417F409F
:1019700000007C04780478007C0804047800384473
:1019800044443800FC182424180018242418FC00AF
:101990007C080404080048545454240004043F44C0
:1019A00024003C4040207C001C2040201C003C4087
:1019B00030403C004428102844004C9090907C001B
:1019C0004464544C44000008364100000000770095
:1019D00000000041360800000201020402003C261B
:1019E00023263C00000000000000404040F0F8F8D2
:1019F000FF38FFF8F83FF8F8FF38FFF8F8F04040FC
:101A00004000000000000080C0C0C0800000C0C0D6
:101A10008000000080C0C000C0C0000080C0C000C6
:101A200000000000C0C0C0C0C000C0C00000000076
:101A300000000000000000000000000000000000A6
:101A40000000000000000000000000000000000096
:101A50000000000000000000000000000000000086
:101A6000000000C0F0F8FC3E1E06010000007F41AF
:101A700041417F007F4141417F000080C0E07E5BAB
:101A80004F5BFEC00000C000DCD7DEDEDED7DC002E
:101A9000C000000000000000000000000000000086
:101AA00000000000000000000000494949FFFFFF5E
:101AB000FFE0DFBFBF00BFBFDFE0FFFFFFFF49491F
:101AC0004900000000001F3F6060E0BF1F007F7FF3
:101AD000071E381E077F7F007F7F0E1F3B7160004F
:101AE000000000007F7F0C0C0C007E7E007F7E03D8
:101AF00003007F7E03037E7E03037F7E000F3E7024
:101B00003C063C703E0F00327B49493F7E007F7EA1
:101B10000303001E3F69696F2600000000000000FB
:101B2000000000030F1F3F3C7870600000007F4101
:101B300041417F007F4141417F00307B7F783020F1
:101B40002030787F3B0003000F7F0F0F0F7F0F00C7
:101B50000300000000000000000000000000000082
:101B600000000000000000000000010101070F0F4D
:101B70007F0F7F0F0F7E0F0F7F0F7F0F0F0701016A
:101B80000100000000000000000000010100000052
:101B90000000000000000000000000000000000045
:101BA0000000000000000000000000000000000035
:101BB0000000000000000000000000000000000025
:101BC0000000000000000000000000000000000015
:101BD0000000000000000000000000000000000005
:101BE00000000000000000000000000000000000F5
:101BF00000000000000000000000000000000000E5
:101C000000000000000000000000000000000000D4
:101C100000000000000000000000000000000000C4
:101C20000000000011241FBECFEFDAE0DEBFCDBF01
:101C300011E0A0E0B1E0E0E5F8E602C005900D9209
:101C4000A837B107D9F725E0A8E7B1E001C01D9298
:101C5000A630B207E1F70E94312A0C9402340C94AA
:101C60000000CF93DF934091040550910505445047
:101C700053409A0124583D4F21303240C0F020E0BB
:101C800032E0241B350B6091020370910303FC01C9
:101C9000CA01240F351FC1E0D0E08217930750F02E
:101CA0007093030360930203DF91CF9108952CE7B3
:101CB00032E0E9CF4491DC01AC5FBC4F5C91451749
:101CC00081F04C93AC01A5E056954795AA95E1F7B4
:101CD000DE0102C0AA0FBB1F4A95E2F7AD016A2BD5
:101CE000752B01963196D9CF9091FB02899FC00147
:101CF0001124811522E0920714F090E080E08C5FBF
:101D00009C4F90930505809304050895E8EDF0E05D
:101D100080818E7F80831092E2001092DA00109210
:101D2000E100A0EEB0E08C9181608C9380818F7790
:101D3000808319BCA7EDB0E08C918E7F8C9380815D
:101D40008F7E80831092C80208952091E400309124
:101D5000E50095E6A9012091EC00822F817020FF1B
:101D600006C08091E80080FF06C080E008952091C1
:101D7000E80022FD1AC08091ED02882389F08530A9
:101D800089F08091EB0085FD0FC02091E400309137
:101D9000E50042175307F9F29150E1F684E0089507
:101DA00082E0089583E0089581E00895EF92FF9224
:101DB0000F931F93CF937C018B010E94A50EC82F18
:101DC000811117C08091E80085FD0BC08091E8006B
:101DD0008E778093E8000E94A50E882399F3C82F80
:101DE00008C0F70181917F018093F1000150110932
:101DF00049F78C2FCF911F910F91FF90EF9008958D
:101E00008091EF0287FF13C08091E80082FF06C037
:101E10008091E8008B778093E80004C08091ED0208
:101E20008111F2CF08958091ED028823D9F380913A
:101E3000E80080FFF8CF8091E8008E77ECCF982FF4
:101E40009093E900242F762F50E0891731F070919C
:101E5000EC002091ED005091F00021FD07C09F5F44
:101E6000973071F78093E90081E008953091EB009D
:101E70003E7F3093EB003091ED003D7F3093ED00DD
:101E80003091EB0031603093EB007093EC002093C5
:101E9000ED005093F0002091EE0027FDE0CF80E0B0
:101EA0000895CF92DF92EF92FF920F931F93CF93FB
:101EB000DF93C8EDD0E088818F7E8883E7EDF0E086
:101EC00080818160808384E082BF81E08093C8024A
:101ED00088818E7F888302EE10E0F80110821092D4
:101EE000DA0081EEC82ED12CF601108288818F771E
:101EF000888388818068888388818F7D888319BCE6
:101F00001092ED021092EE021092EC021092EB028F
:101F100090EEE92EF12CF70180818B7F8083888100
:101F20008160888342E060E080E00E941F0FF6013C
:101F300080818E7F8083F8018081816080838081B1
:101F400088608083F70180818E7F808388818061B3
:101F50008883DF91CF911F910F91FF90EF90DF90D9
:101F6000CF900895FC018091F5029091F6028617BA
:101F70009707A0F06115710529F49091E8009E770C
:101F80009093E80090E06115710551F4911108C03B
:101F90008091E80082FF34C080E00895BC01F2CF58
:101FA0008091ED028823C1F18530C1F18091E80074
:101FB00083FD30C08091E80082FDEACF8091E80087
:101FC00080FFE1CF8091F3002091F200382F61155E
:101FD000710519F02830310558F091E028303105AD
:101FE00009F090E02091E8002E772093E800CBCF15
:101FF00081918093F100615071092F5F3F4FE7CFCE
:102000008091ED02882341F0853041F08091E80015
:1020100083FFBECF81E0089582E0089583E00895B4
:1020200008958091CA02089587E797E79093010881
:102030008093000888E19AE00FB6F894A895809301
:1020400060000FBE90936000FFCF2FB7F8946091AF
:10205000BF027091C0028091C1029091C2022FBF55
:1020600008952091BC023091BD022817390771F004
:102070009093BD028093BC02E091BA02F091BB0242
:10208000309721F00084F185E02D09940895209186
:10209000B8023091B9022817390771F09093B9024C
:1020A0008093B802E091BA02F091BB02309721F020
:1020B0000680F781E02D09940895E091BA02F0912D
:1020C000BB02309721F00190F081E02D099480E06F
:1020D00008959091AA02803F59F48091AB0287FF46
:1020E0000DC01092AB0291110BC01092A20208C059
:1020F000813F81F48091AB0218169CF3992381F003
:102100008091AC029091AD02892B09F064C01092CD
:10211000A1020895823F49F497FFF0CF1092AA02DE
:102120008091AB028111ECCFE0CF833F19F41916F7
:10213000ACF3E4CF2091AC02893F29F41216F4F6F7
:102140001092AC02DBCF8A3F19F427FFD7CFF8CF2C
:102150002091AD028B3F29F427FFD0CF1092AD0222
:10216000CDCF8C3F19F41216CCF3C8CF843F31F495
:102170008091A9028E7F8093A902C0CF853F21F470
:102180008091A9028D7FF7CF863F21F48091A9022B
:102190008B7FF1CF873F21F48091A902877FEBCF1E
:1021A000883F21F48091A9028F7EE5CF8D3F31F4E5
:1021B0008091A3028E7F8093A302A0CF8E3F21F453
:1021C0008091A3028D7FF7CF8F3F09F097CF809149
:1021D000A3028B7FF0CF08958091A30280FD16C0EB
:1021E00081FD16C082FD16C08091A1028823A1F056
:1021F000883280F428E0829FC001112468E270E0F8
:102200000E941F33862F672B39F0089582E00895CE
:1022100084E0089588E0089581E008958091A30204
:1022200080FD14C081FD14C082FD16C08091A20201
:10223000882381F08E3180F420E5829FC001112433
:102240006EE170E00E941F33862F089584E10895A7
:1022500088E2089588E0089580E50895803F31F48C
:102260000E940E1181958093AB020895813F19F46D
:102270000E940E11F8CF823F31F40E940E11819519
:102280008093AA020895833F19F40E940E11F8CF9B
:10229000893F29F40E94EC108093AC0208958A3F94
:1022A00021F40E94EC108195F7CF8B3F31F40E940E
:1022B000EC1081958093AD0208958C3F19F40E9433
:1022C000EC10F8CF843F31F48091A90281608093B3
:1022D000A9020895853F21F48091A9028260F7CF79
:1022E000863F21F48091A9028460F1CF873F21F4D9
:1022F0008091A9028860EBCF883F21F48091A902E8
:102300008061E5CF8D3F31F48091A302816080939D
:10231000A30208958E3F21F48091A3028260F7CF3B
:102320008F3FB9F78091A3028460F1CF80E00895D8
:10233000F894E82FE295EF70F0E031A1282F2F708C
:1023400081E090E001C0880F2A95EAF7982F9095D8
:10235000932391A392A1892B82A3789408959091BD
:10236000C30292FF06C0282F28712830F9F4877F16
:10237000846093FF06C0282F28712831F1F4877EEE
:1023800084612091C40220FF06C0382F3871383094
:10239000D9F4877F816021FF06C0282F287128315A
:1023A000D1F4877E816194FD877E0895282F247162
:1023B0002430F9F68B7F8860DCCF282F24712431FC
:1023C00001F78B7E8861DDCF382F3171313019F7FD
:1023D0008E7F8860E0CF282F2171213121F78E7EFA
:1023E0008861E1CFCF93DF93EC0182389105A9F1A9
:1023F000D8F58133910509F496C048F589329105E5
:1024000009F48AC08A9709F495C0C11521E5D2075D
:1024100008F0BCC0C11530E5D30708F014C1C83EB0
:10242000D10508F09CC0C03ED10560F5C83AD10581
:1024300008F087C0C53AD10508F0FDC0C130D1050C
:1024400009F12097F9F0C430D105E0F440C085339C
:10245000910509F45AC0C997C1F68091C3028370EF
:1024600089F0C0EED0E00EC0833E910599F170F482
:10247000803E910501F1823E910539F68091C302BB
:1024800082FD21C0CE01DF91CF910895863E910556
:1024900061F1873E910571F1843E910509F0B5CF58
:1024A0008091C40281FFEECF8091C302C7EED0E0DD
:1024B00084FD0DC0E7CF8091C30280FD12C19091D1
:1024C000C40290FFDFCFC3EED0E084FFDBCFD0E0CB
:1024D000C0E0D8CF8091C30282FD06C19091C402B2
:1024E00090FDBFCF84FFCECFF2CF8091C30283FD9A
:1024F000DDCFC8CF8091C30283FDF9C09091C402A3
:1025000091FFF0CFC4EED0E0BDCF8091C30285FF34
:10251000B9CFC9E2D0E0B6CF8091C30285FFB2CF78
:10252000C5E3D0E0AFCF8091C30286FFABCFCAE254
:10253000D0E0A8CF8091C30286FFA4CFC1E3D0E052
:10254000A1CFCF3BD10518F6C85AD0E0CC0FDD1F84
:10255000CE5DDE4F0990D881C02DD46493CFC115D4
:1025600040E2D40758F4C11581E0D80708F08ACFBB
:10257000C03FD10508F4ABCFD06584CFC11590E43E
:10258000D90708F4A4CFDF70D06A7CCFC11525E548
:10259000D20700F5C11534E5D30708F08AC0C1158C
:1025A00043E5D40708F071C0C11582E5D80708F4E7
:1025B00067C0CE018370992721E030E002C0220F6E
:1025C000331F8A95E2F7C695C69580E2C89FE00161
:1025D000112452C0C11599E5D907A8F4C11528E501
:1025E000D20708F06BC0C11536E5D30708F06FCFEE
:1025F0008C2F0E94AF11C82FD0E0DC2FCC27CC2726
:10260000DF71D0623FCFC1154AE5D40708F45BC043
:10261000CE0190568115904208F059CF8D2F8F71C1
:102620000E94AF1190E0982F882788279F719C0106
:102630002C2BE901E6CFC55AD0E0C15EDE4FC88140
:10264000D0E0D0641FCFCE01E4E096958795EA955F
:10265000E1F783702C2F26952695237040E2249F66
:1026600090011124382B8C2F8370C1E0D0E002C080
:10267000CC0FDD1F8A95E2F7C22BD32BDC6802CF8B
:10268000DC2FCC27C16FD06AFDCECE018370992795
:1026900021E030E002C0220F331F8A95E2F7C69591
:1026A000C69590E2C99FE0011124C22BD32BDA68B2
:1026B000E9CEDC2FCC27C46FD06AE4CEDC2FCC2748
:1026C000C06FD06ADFCE8C2F8F700E94AF1134E0C4
:1026D000D695C7953A95E1F7CF709C2FEC01D0695C
:1026E000D1CEC9E3D0E0CECEC2EED0E0CBCEC6EEA6
:1026F000D0E0C8CE80911202882331F010921202ED
:1027000010921102109210020895809590910F027C
:10271000982390930F0208951092ED011092EC010E
:102720001092EB0108958091EA0181111092EA0163
:102730000895909116019923D1F09091C30297FFCB
:1027400016C0E82FE695E695E695EE31E0F4F0E068
:10275000E658FE4F282F277081E090E001C0880FD7
:102760002A95EAF780959281892382830895ECE780
:10277000F1E09191891303C0DF0111971C9291E060
:10278000E238F907B1F70895909116019923C1F045
:102790009091C30297FF14C0E82FE695E695E69561
:1027A000EE31F8F4F0E0E658FE4F877021E030E0BB
:1027B00001C0220F8A95EAF78281822B82830895D5
:1027C000ACE7B1E0EFEF90E02D91821751F0EF3FD1
:1027D00019F4211101C0E92F9F5F9630A9F7EF3F4F
:1027E00009F408950E2E000CFF0BE658FE4FE6CFBD
:1027F0008091E9019091B801981301C008958F5F0D
:102800008770FACF9E3F49F1E82F2BE0929FE00DB1
:1028100011249E2F9770E695E695E69583E0E89F54
:10282000F0011124E356FE4F50E040E080E021919A
:1028300030E0092E02C0369527950A94E2F7217000
:102840003327042E01C0220F0A94EAF7822B4F5F30
:102850005F4F4330510559F7089580E008959E3F3A
:1028600069F1E82F2BE0929FE00D11248E2F8770E5
:1028700041E001C0440F8A95EAF7E695E695E695B2
:1028800083E0E89FF0011124E356FE4F30E020E0A2
:1028900070E05191DF011197CB01022E02C0969595
:1028A00087950A94E2F7817081958527842385278F
:1028B0008C932F5F3F4F2330310559F70895982FA0
:1028C00092959F7011F0892F94E0282F26952695D8
:1028D00011F09E5F822F869509F09F5F892F0895E2
:1028E0009C013A9521153F4150F5FC01EE27F1700E
:1028F000BC0166277270AC01442754709C012227EA
:10290000387094FF0EC080E1EF2B09F480E0672B54
:1029100009F08062452B09F08064232B89F08068E0
:10292000089581E0EF2B09F480E0672B09F08260C5
:10293000452B09F08460232B19F08860089580E00E
:102940000895CF93C0916902C531D0F080919A016A
:1029500090E001968170992780939A0121E030E000
:10296000281B390B4CE752E0249FC001259F900D96
:10297000349F900D112486539E4FCF910C94310EAD
:1029800080919B0190E0019665E070E00E941F330A
:1029900080939B0124E030E0281B390B4CE752E088
:1029A000249FC001259F900D349F900D11248E53BC
:1029B000994F0E94310ECA3048F6CF910895CF92B8
:1029C000DF92EF92FF920F931F93CF93DF936C01EF
:1029D0007B0164E670E088E70E94FE31EC0197FD20
:1029E00012C010E000E0F601E00FF11F849164E6F0
:1029F00070E00E947832EC01892B29F40F5F1F4FA1
:102A00000E151F0581F70E94FB32CE01DF91CF9199
:102A10001F910F91FF90EF90DF90CF9008958091DC
:102A2000B6029091B702911103C091E089270895F1
:102A3000882369F062E070E087E296E10E94DF148B
:102A4000892B19F08091B60208951092B6028091F8
:102A5000B602EBCFCF93C091B6028091B702882324
:102A6000D1F00E942510605A75418F4F9F4F60939F
:102A7000B2027093B3028093B4029093B502C11175
:102A800008C062E070E085E296E10E94DF14892BC5
:102A900029F0C091B6028C2FCF91089581E08093E8
:102AA000B602F7CFCF93DF93682F81E06A3019F039
:102AB0006D3029F480E0DF91CF910C94E115809185
:102AC00004059091050526E0FC01ACEFB2E0019011
:102AD0000D922A95E1F7603E08F45AC026E0FC0109
:102AE00011922A95E9F7C0910405D091050546E0B9
:102AF00050E0BE018CEF92E00E94AC339E01245066
:102B00003340892B41F1C90145E0969587954A9557
:102B1000E1F741E050E0BA0102C0660F771F8A95E5
:102B2000E2F7CB016091020370910303862B972B90
:102B3000B9016B5F7F4FE5E076956795EA95E1F720
:102B400002C0440F551F6A95E2F7842B952B909392
:102B50000303809302032A5F3F4F4091FB02642FDF
:102B600070E0C9010E94FF32481B463010F4240F68
:102B7000311D211572E0370710F030E020E02C5FA6
:102B80003C4F3093050520930405DF91CF910895C4
:102B9000F6E06F9FB00111246C51794E46E050E091
:102BA0000E94A333A0CFCF93DF93EC01FE01849169
:102BB000811103C0DF91CF9108950E945215219693
:102BC000F5CFCF93382FE0910405F0910505E4503F
:102BD000F3402091FB02622F70E0CF010E94FF3290
:102BE000281B822F332361F066E00E941333C82F25
:102BF000C15010F4CF91089580E20E945215F8CF91
:102C00009F01280F311D2115324018F080E0F0E0BF
:102C1000E0E08E0F9F2F911D8C5F9C4F90930505D8
:102C200080930405E7CF8093C5027093C702609339
:102C3000C6028091ED028430F9F48093E9008FEFB1
:102C40009091E800815095FD06C095ED9A95F1F7B9
:102C500000008111F5CF8091E80085FF0DC050E0A4
:102C600040E063E070E085EC92E00E94D60E809137
:102C7000E8008E778093E8000895BC0184E00C940E
:102C80001316BC0183E00C9413169C0184E080931E
:102C9000E9009FEF8091E800915085FD06C085ED29
:102CA0008A95F1F700009111F5CF8091E80085FF3A
:102CB0000CC050E040E066E070E0C9010E94D60E12
:102CC0008091E8008E778093E8000895CF93DF939A
:102CD000EC01809116018823B1F18091C30287FF36
:102CE00032C060E284E08093E9008FEF9091E800C9
:102CF000815095FD06C095ED9A95F1F70000811180
:102D0000F5CF8091E80085FF1BC08091160170E02F
:102D100050E040E0811104C050E040E068E070E025
:102D2000CE010E94D60E8091E8008E778093E80055
:102D300080E2FE01ABECB2E001900D928A95E1F7E2
:102D4000DF91CF91089568E081E0CDCFCF93DF93FD
:102D5000C3E0D1E060E0CE010E94CE332196C115E0
:102D600084E0D807B9F7DF91CF9108950F931F93AF
:102D7000CF93DF938901823048F5653038F54B30C9
:102D800028F521153C4531F42091140130911501AD
:102D9000232BE1F0C42FD0E0CC0FDD1F96E1699F1B
:102DA000C00DD11D11249EE6899FC00DD11D112497
:102DB000612FCE0187960E94CE33602FCE01889678
:102DC000DF91CF911F910F910C94CE33DF91CF9172
:102DD0001F910F9108958F929F92AF92BF92DF92B1
:102DE000EF92FF920F931F93CF93DF938090140184
:102DF0009090150181E090E090931501809314016B
:102E000089E4E82E85E1F82ED12C8701C0E013C0BB
:102E1000F501259134914D2F6C2F8D2D0E94B61602
:102E200082E0A80EB11CDF5FDB3091F70A5E1F4F16
:102E3000CF5FC53019F05801D0E0EACF8EE6E80E3A
:102E4000F11C81E0D81619F0DD24D394DECF9092E6
:102E5000150180921401DF91CF911F910F91FF9086
:102E6000EF90DF90BF90AF909F908F900895CF9399
:102E7000C82F6FEF811163E883E290E00E94CE33A8
:102E80006FEFC1116AEA84E290E00E94CE336FEFE7
:102E9000C11166E285E290E0CF910C94CE3380E0E0
:102EA0000E94371760E086E290E00E94CE330E94D5
:102EB000EB160E94A61681E00C9437170F931F9310
:102EC000CF93DF93823030F5653020F54B3010F52D
:102ED000C42FD0E0CC0FDD1F26E1629FC00DD11DB5
:102EE00011243EE6839FC00DD11D1124CE0187968B
:102EF0000E94C033082F10E0102F0027CE018896C3
:102F00000E94C0339801282BC901DF91CF911F91F6
:102F10000F91089590E080E0F8CF462F2091B00205
:102F20003091B102232B91F47E3F39F46E3F71F45E
:102F30008091AE029091AF020895823038F47530DE
:102F400028F46B3018F4672F0C945E1790E080E043
:102F50000895CF92DF92FF920F931F93CF93DF9349
:102F60006C010091FA0280911302082BC7E0D0E0B7
:102F700010E0FC2EC8010C2E02C0959587950A948E
:102F8000E2F780FD0CC02197A0F7F12C8F2DDF9187
:102F9000CF911F910F91FF90DF90CF900895B601D0
:102FA0008C2F0E948D170E94F211019761F3EECFD2
:102FB000CF93DF93EC010E94A917BE010E948D17E9
:102FC000DF91CF910C94F211FC01808191810E94DC
:102FD000D81792959F70963091F058F4925F9F7039
:102FE000923058F4803F19F030F4883E30F481E09C
:102FF00008959A5FF4CF843FD1F380E00895883E2E
:10300000B0F3813FD1F7F3CF83E290E00E94C03369
:10301000833889F484E290E00E94C0338A3A59F4FC
:1030200085E290E00E94C03391E0863209F090E0A2
:10303000892F8170089580E0FCCFCF9384E090E0E9
:103040000E94C033C82F82E290E00E94C033982FC4
:103050008C2FCF91089569EE7EEF90E080E00E9482
:10306000EC3360E082E090E00E94CE3360E083E0E9
:1030700090E00E94CE331092130260E084E090E072
:103080000E94CE3360E082E290E00E94CE3360E0A6
:1030900085E090E00E94CE3360E086E090E00E9400
:1030A000CE336FEF87E090E00E94CE3340E050E0F7
:1030B000BA0188E090E00E94E03360E08DE090E0AB
:1030C0000E94CE3340E050E0BA0188E190E00E94D7
:1030D000E03360E087E190E00E94CE3340E050E0D2
:1030E000BA018CE190E00E94E03370E060E080E2A1
:1030F00090E00E94EC3340E050E0BA0188E190E0BB
:103100000E94E03380E00E9437170E944F1740E092
:1031100050E0BA018FE090E00E94E03340E050E0E0
:10312000BA0183E190E00C94E0331F920F920FB646
:103130000F9211242F933F934F935F936F937F933D
:103140008F939F93AF93BF93EF93FF938091E10091
:1031500082FF09C08091E20082FF05C08091E100FA
:103160008B7F8093E1008091DA0080FF24C0809102
:10317000D80080FF20C08091DA008E7F8093DA0033
:103180008091D90080FF9DC080E189BD82E189BD29
:1031900009B400FEFDCF81E08093ED028091C8026A
:1031A000811109C00E94860E0E94510F8091E20099
:1031B00084608093E2008091E10080FF17C08091DD
:1031C000E20080FF13C08091E2008E7F8093E200D6
:1031D0008091E20080618093E2008091D80080625B
:1031E0008093D80019BC85E08093ED028091E100C6
:1031F00084FF2BC08091E20084FF27C080E189BD5D
:1032000082E189BD89B5982F917080FFFBCF8091B5
:10321000D8008F7D8093D8008091E1008F7E8093CD
:10322000E1008091E2008F7E8093E2008091E200D5
:1032300081608093E2008091EE02882309F447C008
:1032400084E08093ED028091ED028091E10083FFA4
:1032500027C08091E20083FF23C08091E100877F37
:103260008093E10082E08093ED021092EE02809163
:10327000E1008E7F8093E1008091E2008E7F809359
:10328000E2008091E20080618093E20042E060E031
:1032900080E00E941F0F8091F00088608093F00012
:1032A000FF91EF91BF91AF919F918F917F916F911E
:1032B0005F914F913F912F910F900FBE0F901F90F4
:1032C000189519BC1092ED021092C80274CF80912B
:1032D000E30087FD93E09093ED02B5CF78941F92C1
:1032E0001FB61F9211248F939F93AF93BF9380912A
:1032F000BF029091C002A091C102B091C20201969A
:10330000A11DB11D8093BF029093C002A093C10282
:10331000B093C202BF91AF919F918F911F901FBE3A
:103320001F9018959C014FB7F8948091BF0290911F
:10333000C002A091C102B091C2024FBF821B930B89
:1033400008952FB7F8948091BF029091C002A09188
:10335000C102B091C2022FBF08950E94A1199C0121
:103360009091AA028091AB02982B21F03093A70292
:103370002093A6029091AC028091AD02982B21F08F
:103380003093A5022093A402E091BA02F091BB020F
:10339000309749F082E08093A8020480F581E02D07
:1033A00088EA92E0099408954F925F926F927F921B
:1033B0008F929F92AF92BF92CF92DF92EF92FF9245
:1033C0000F931F93CF93DF93CDB7DEB72A970FB636
:1033D000F894DEBF0FBECDBF8E010F5F1F4F8AE096
:1033E000F80111928A95E9F790E5E92E91E0F92E1E
:1033F000680125E5422E21E0522E66246394712C4B
:1034000040E6842E41E0942EF70181917F018F3FA9
:1034100009F445C0F894E82FE295EF70F0E021A19F
:103420008F70A30102C0440F551F8A95E2F7CA01AD
:10343000922F982B91A392A18095892382A37894AF
:1034400000C0E5E5F1E021E030E0B12CA12C419194
:103450004F3F09F47EC0A42FA295AF70B0E09096C4
:103460008C9190E04F7002C0959587954A95E2F750
:1034700080FD6FC0C901A82AB92A220F331F8E16FA
:103480009F0629F7F701319780818F3F11F00E9445
:10349000981150EA5A95F1F7F601B182A082F2E054
:1034A000CF0ED11C4E145F0409F0AECF4AE050E0BD
:1034B000B80187E192E00E94AC33FF24F3940097B7
:1034C00009F4F12C892B09F447C08AE0F801A7E13F
:1034D000B2E001900D928A95E1F781E080931602A7
:1034E0000E94A119909315028093140280911402F6
:1034F000909115020E949219059790F18091170200
:1035000090911802909398028093970280911902EB
:1035100090911A0290939A028093990280911B02D3
:1035200090911C0290939C0280939B0280911D02BB
:1035300090911E0290939E0280939D0280911F02A3
:10354000909120029093A00280939F021092160205
:1035500007C090E080E08FCF809116028111C6CF26
:103560008F2D2A960FB6F894DEBF0FBECDBFDF9128
:10357000CF911F910F91FF90EF90DF90CF90BF9070
:10358000AF909F908F907F906F905F904F90089535
:1035900080910F0290910E02892B80937A01809185
:1035A0001202882329F10E94A11920911002309162
:1035B0001102821B930B8838934110F00E947A13FA
:1035C00080917A0190911202892B80937A018091E7
:1035D00016018823D9F18091C30287FF37C08EE19D
:1035E000ECE7F1E090E0815098F591110E947A1398
:1035F00040E250E06EEE71E08AE791E00E94AC3369
:10360000892B59F180E2EAE7F1E0AEEEB1E00190FA
:103610000D928A95E1F7E091BA02F091BB023097E2
:10362000E1F080911601882359F08091C30287FF51
:1036300007C080917A0180937B0186E080937A01B4
:103640000280F381E02D8AE791E0099486E0C8CFFB
:103650002191222341F29F5FC6CF089590E080E040
:103660000E94471090E080E00E94311010920E02FC
:103670000E94C81A86E0E8EAF2E0DF011D928A950E
:10368000E9F71092A2021092A1021092A3020C94E8
:10369000AD198093FA020C942E1B8091FA02982F98
:1036A0009670963019F488600C94491B877FFCCF84
:1036B00021E030E001C0220F8A95EAF72095809141
:1036C000FA0282230C94491B9091ED018095892385
:1036D0008093ED01282F277091F4282F082E000CDD
:1036E000330B9217130659F09091C40292FD07C054
:1036F0008595859585950E94581B0C948C1308958B
:10370000CF93C091C402C2FB992790F9981799F002
:1037100080FBC2F9C093C4026091C30284E090E0D0
:103720000E94CE336C2F82E290E00E94CE3382E082
:10373000CF910C94641BCF91089521E030E001C03B
:10374000220F8A95EAF78091FA02822B0C94491B8A
:10375000809313020C942E1B10920F02809116017D
:10376000ECE7F1E0882359F08091C30287FF07C09E
:103770008EE1DF011D928A95E9F70C942E1B86E0FD
:10378000F8CF1F93CF93DF93CDB7DEB7AA970FB6CD
:10379000F894DEBF0FBECDBF8FEE92E02091F10016
:1037A000DC012D93CD01B2E0873F9B07B9F78091F3
:1037B000F002833009F472C0B8F4813009F449C0D2
:1037C000823009F4B3C08091E80083FF96C28091F3
:1037D000EF029091F0029A3008F08FC2E92FF0E0EA
:1037E000EC5FFB4C0C9474338A3009F48EC08B3040
:1037F00009F471C0893039F78091EF02813219F7ED
:103800008091F3029091F402009711F00297D9F69B
:103810008091E800877F8093E8008091E80082FF34
:1038200038C09091F3008091F200029731F48091BA
:10383000F100813011F0863021F48091F100809305
:10384000CA028091E8008B778093E8000E94000F05
:10385000BACF8091EF02813A09F0B5CF8091E800AC
:10386000877F8093E8008091F3029091F402892B86
:1038700061F460E28BEC92E070E00E94B20F809104
:10388000E8008B778093E8009ECF60E090E080E0D6
:10389000F3CF8091ED028111C0CF95CF8091EF02DF
:1038A000813A09F090CF8091F3029091F402892B34
:1038B00009F089CF8091E800877F8093E8008091AC
:1038C000E80080FFFCCF809116018093F100809189
:1038D000E8008E77B9CF8091EF02813209F073CF83
:1038E0008091F3029091F402892B09F06CCF8091C2
:1038F000E800877F8093E8000E94000F8091F1022A
:10390000809316010E94AC1B5ECF8091EF02813242
:1039100009F059CF8091E800877F8093E8000E94EA
:10392000000F8091F2028093C9024DCF8091EF0287
:10393000813A09F048CF8091E800877F8093E800C2
:103940008091E80080FFFCCF8091C902BECF803813
:1039500099F0823809F0D1C18091F3028F708730DD
:1039600008F0CBC18093E9008091EB0085FB8827AC
:1039700080F91092E90006C08091EB029091EC0270
:10398000911182609091E800977F9093E800809376
:10399000F1001092F1008091E8008E77AAC188238F
:1039A00009F498C1823009F0A8C18091F102811117
:1039B0009BC18091F3028F702FEF280F263008F003
:1039C0009CC18093E9002091EB0020FF8DC19330D2
:1039D00031F48091EB0080628093EB0085C190917F
:1039E000EB0090619093EB0021E030E001C0220FEA
:1039F0008A95EAF72093EA001092EA008091EB00A2
:103A00008860EACF811179C11091F1021F7780910E
:103A1000E3008078812B8093E3008091E800877F2A
:103A20008093E8000E94000F8091E80080FFFCCFA7
:103A30008091E30080688093E30082E0111183E0CD
:103A40008093ED025AC18058823008F056C120910F
:103A5000F1023091F2022C3DE3E03E07A1F583E054
:103A60008A838AE289834FB7F894DE01139620E0B7
:103A70003EE051E2E32FF0E050935700E49120FF45
:103A800003C0E295EF703F5FEF708E2F90E0EA3059
:103A9000C0F0C7968D939D932F5F243159F74FBF88
:103AA0008091E800877F8093E8006AE270E0CE01B1
:103AB00001960E94B20F8091E8008B778093E80016
:103AC0001CC1C096E7CF8091F3029091F402432F7E
:103AD00055274330510509F44AC078F54130510566
:103AE00009F485C08BE590E0E9E2F6E1423051054A
:103AF00009F003C12091E800277F2093E80020917E
:103B0000F5023091F6028217930708F49C0140E019
:103B10002115310509F070C041116EC08091E80097
:103B200082FDC9CF8091ED02882329F2853019F2F8
:103B30008091E80083FFF2CFBECF4132510509F4F6
:103B400047C04232510509F0D8C08330910508F0D2
:103B5000D4C0FC01EE0FFF1FE559FE4F0190F0812C
:103B6000E02D88599E4FDC018C9190E01DC03327D9
:103B700021303105E9F02115310579F02230310588
:103B8000F9F02330310509F0B8C0E6E9F6E1E49137
:103B90008E2F90E0E6E9F6E107C0E0EEF6E1E49171
:103BA0008E2F90E0E0EEF6E1009709F4A6C0A2CFD8
:103BB000E8ECF6E1E4918E2F90E0E8ECF6E1F4CF4A
:103BC000E4EBF6E1E4918E2F90E0E4EBF6E1ECCF4C
:103BD0008330910508F091C0880F991FFC01EF58C0
:103BE000FE4F0190F081E02D89E090E083CF82E1EB
:103BF00090E0E4E8F6E17ECF8091ED02882309F4BD
:103C00005ACF853009F457CF8091E80083FD53CF18
:103C10008091E80082FD82CF8091E80080FF78CF1C
:103C20009091F3008091F2002115310519F0883050
:103C3000910550F041E0089709F040E08091E800DC
:103C40008E778093E80064CF44914093F1003196E1
:103C5000215031090196E8CF803809F04EC080919B
:103C6000E800877F8093E8008091EE028093F10066
:103C700092CE811142C01091F1021230F0F5809184
:103C8000E800877F8093E8001093EE020E94000F07
:103C9000112311F084E005C08091E30087FDFACF85
:103CA00081E08093ED0242E061EC81E00E941F0F11
:103CB00042E261EC84E00E941F0F42E261EC82E08C
:103CC0000E941F0F42E260EC83E00E941F0F809170
:103CD000ED0213C08091F102813079F481E09330DC
:103CE00009F080E08093EC021092E9008091E800F6
:103CF000877F8093E8000E94000F8091E80083FF97
:103D00000AC08091E800877F8093E8008091EB00F3
:103D100080628093EB00AA960FB6F894DEBF0FBEC8
:103D2000CDBFDF91CF911F9108951F920F920FB6D3
:103D30000F9211242F933F934F935F936F937F9331
:103D40008F939F93AF93BF93CF93DF93EF93FF93A3
:103D5000D091E900DF708091EC00C82FC17080FD28
:103D6000C0E81092E9008091F000877F8093F00016
:103D700078940E94C11B1092E9008091F000886045
:103D80008093F000CD2BCF70C093E900FF91EF91AD
:103D9000DF91CF91BF91AF919F918F917F916F9163
:103DA0005F914F913F912F910F900FBE0F901F90F9
:103DB0001895882341F0809590910E028923809375
:103DC0000E020C94C81A0895882339F090910E02BF
:103DD000982B90930E020C94C81A0895882321F012
:103DE0000E9485130C94C81A0895882339F0909185
:103DF0000F02982B90930F020C94C81A08958823F1
:103E000009F452C0823871F40E945D1081FF4CC0E9
:103E100089E30E94C4130E94C81A89E30E9499137F
:103E20000C94C81A833859F40E945D1080FF3CC07E
:103E300083E50E94C4130E94C81A83E5EFCF84383B
:103E400059F40E945D1082FF2FC087E40E94C413C2
:103E50000E94C81A87E4E2CF9CEF980F913AF0F2E3
:103E600090E2980F983050F4877091E001C0990F5C
:103E70008A95EAF7892F0E948513D2CF9BE5980F88
:103E8000933020F490E080E00C94471098E5980F70
:103E9000973120F490E080E00C943110803F20F0C6
:103EA0000E9469100C94AD190895CF93C82F8823F0
:103EB00009F4AEC08238C1F40E945D1081FDA8C033
:103EC00089E30E94C4130E94C81A2FEF81EE94E088
:103ED000215080409040E1F700C0000089E30E943B
:103EE0009913CF910C94C81A8338A1F40E945D10E5
:103EF00080FD8EC083E50E94C4130E94C81A2FEF74
:103F000081EE94E0215080409040E1F700C0000035
:103F100083E5E5CF8438A1F40E945D1082FD78C06E
:103F200087E40E94C4130E94C81A2FEF81EE94E028
:103F3000215080409040E1F700C0000087E4CFCFDF
:103F40008CEF8C0F813A88F580911601882301F15E
:103F50008091C30287FF1CC0EC2FE695E695E6959D
:103F6000F0E0E658FE4F828190E04C2F477021E050
:103F700030E002C0220F331F4A95E2F782239323D9
:103F8000892B79F08C2F0E9499130E94C81A09C0BE
:103F9000ECE7F1E08191C817A9F321E0E238F207DC
:103FA000C9F78C2F0E94C4139CCF80E28C0F8830FD
:103FB00068F4C77021E030E001C0220FCA95EAF72B
:103FC00080910F02822B80930F028BCFEBE5EC0FD9
:103FD000E33040F4F0E0E15EFE4F808190E0CF916D
:103FE0000C944710E8E5EC0FE73150F4F0E0EE0FE9
:103FF000FF1FEE5DFE4F80819181CF910C943110B7
:10400000C03F30F08C2F0E942E11CF910C94AD192F
:10401000CF9108951F93CF93DF93182FD0E0C0E086
:10402000893311F4C0E5D0E0812F0E94551F2097FD
:1040300031F4812FDF91CF911F910C94FF1E8FE9F6
:104040009FE00197F1F700C000002197F0CF0F9398
:104050001F93CF93DF93C62FD42F022FFC018281B1
:104060008823A1F06093F9020E94A1199093F802AD
:104070008093F702C77081E001C0880FCA95EAF704
:10408000DF91CF911F910F910C94F51E8091F90251
:10409000681335C08091F7029091F8020E9492193E
:1040A000883C910560F510E21D0FCD17B9F080E254
:1040B0008C0F883040F4C77081E001C0880FCA952A
:1040C000EAF70E94EE1E183048F481E09D2F9770A9
:1040D00001C0880F9A95EAF70E94F51E802F0E9472
:1040E0000A20183098F4D77081E001C0880FDA9563
:1040F000EAF7DF91CF911F910F910C94EE1EC770DC
:1041000081E001C0880FCA95EAF7F3CFDF91CF9124
:104110001F910F910895AF92BF92CF92DF92EF92CD
:10412000FF920F931F93CF93DF93EC018AE0A82EA9
:104130002881222309F48CC02130C9F599818A8114
:10414000913021F422960E940A2005C0923029F471
:1041500022960E94551F2196EBCF933021F4229690
:104160000E94FF1EF8CF943011F02196F4CF2296D2
:1041700030E020E0AE014F5F5F4F8053990B8A30F3
:10418000910550F02150310930F38FE99FE00197FC
:10419000F1F700C00000F6CFA29EB001A39E700D03
:1041A00011249C01260F371F8981EA01E3CFE22FFA
:1041B000F0E0E25AFC4EB490822F86958695869563
:1041C00090E0FC01E25BFC4EE4902770F12C022EA3
:1041D00002C0F594E7940A94E2F731E0E322FF2469
:1041E000FC01E25CFC4EC490D12C022E02C0D5949E
:1041F000C7940A94E2F731E0C322DD24FC01E25DBA
:10420000FC4E049110E002C0159507952A95E2F73F
:1042100001701127E114F10419F081EE0E94551F7D
:10422000C114D10419F086EE0E94551F8B2D0E94F7
:104230000A20CD2819F086EE0E94FF1EEF2819F003
:1042400081EE0E94FF1E012B09F485CF8CE27BCF0B
:10425000DF91CF911F910F91FF90EF90DF90CF9062
:10426000BF90AF9008959091C40292FD10C098E065
:10427000899F90011124622B6093ED010E949D1B88
:104280000E94A1199093EC018093EB0108950C9486
:104290009D1B1F93CF93DF93CDB7DEB767970FB604
:1042A000F894DEBF0FBECDBF4B8B5C8B6D8B7E8BCE
:1042B0008F8B611110920E021A8A198A85E0FE0115
:1042C0007396DE011D9601900D928A95E1F780911B
:1042D000C40282FD1CC00E94A1192091EB01309103
:1042E000EC01821B930B8838934120F08091ED0103
:1042F00082FF7FC00E94A11920911002309111020B
:10430000821B930B8838934110F00E947A1386E049
:10431000FE013D96DE01179601900D928A95E1F718
:10432000CE0107960E949128882389F016E080919B
:10433000E9019091B801891349C067960FB6F894C6
:10434000DEBF0FBECDBFDF91CF911F91089586E0F4
:10435000FE013796DE01119601900D928A95E1F7E4
:104360008A859B85892B11F38F81988589238F3FBF
:10437000E9F22091B80130E0C901019687709927D0
:104380004091E9014817190671F40E94AC1B109284
:10439000B8011092E90186E0E2EBF1E0DF011D9245
:1043A0008A95E9F7C3CF96E0929FD001939FB00D15
:1043B0001124A754BE4FFE01319601900D929A959B
:1043C000E1F78093B8010E94F813B0CF819FC0013C
:1043D000112487549E4F0E949128882309F4ADCF61
:1043E0008091E90190E00196877099278093E90117
:1043F0009ECF82E00E94641B7DCF0F931F93CF93CB
:10440000DF9300D000D00F92CDB7DEB78C01909330
:10441000AF028093AE02011580E2180720F5802FCD
:104420000E94FF1EC8010E9470149801205E31098D
:104430002830310510F0012B59F40F900F900F9098
:104440000F900F90DF91CF911F910F910C94EE1E62
:104450000F900F900F900F900F90DF91CF911F91C1
:104460000F910C94D91E8EEF89838A831B820E9440
:10447000A1198160782F9D838C8349815A816B813A
:104480008D810F900F900F900F900F90DF91CF9133
:104490001F910F910C9449210F931F93CF93DF939A
:1044A00000D000D00F92CDB7DEB78C019093AF0251
:1044B0008093AE02011580E21807E8F4C8010E945B
:1044C00070149801205E31092830310518F001156B
:1044D000110571F40E94F51E802F0F900F900F9020
:1044E0000F900F90DF91CF911F910F910C94551F5A
:1044F0000E94E41EF1CF8EEF89838A8381E08B8353
:104500000E94A1198160782F9D838C8349815A81F3
:104510006B818D810F900F900F900F900F90DF9116
:10452000CF911F910F910C9449218F929F92AF923E
:10453000BF92CF92DF92EF92FF920F931F93CF9390
:10454000DF9300D000D00F92CDB7DEB76C01FC0135
:1045500083819481892B31F08081918189238F3FE0
:1045600009F003C50F900F900F900F900F90DF91FF
:10457000CF911F910F91FF90EF90DF90CF90BF9060
:10458000AF909F908F9008950E94A917182F682FC1
:1045900089819A810E942F1469817A81812F0E94DA
:1045A0008D178C01F6012281222309F4D4C4905680
:1045B0008115F0E29F0750F0905E811530E193077E
:1045C00028F0915C81159F4108F03EC0C8019927F1
:1045D000AC01445051094432510518F08B970E97A5
:1045E00080F4E0913202F0E0EE0FFF1FE95CFD4F36
:1045F000808191818F3F5FE7950719F00196918344
:104600008083C80182519F45409708F07DC48FEF99
:1046100093E00E94C0335EEEF52EF00E03E011E051
:10462000882339F18091ED01877009F49BCFF60161
:104630008281882309F496CF8091C40282FD92CFB3
:1046400082E00E94641B8ECF90E080E00F3F110556
:1046500011F008F0BDCFC801BBCF011584E01807E9
:1046600009F3C8010E94C033811101C0FA940F5FA1
:104670001F4FF110F2CF19821A821B821C829924DB
:104680009A9478019FEFE91AF90AC8010E94C03391
:1046900089831A82882331F2813009F075C058016C
:1046A000E2E0AE0EB11CC7010E94C033E82E8A833F
:1046B000882309F4B7CFC5010E94C033F82E8FEFCD
:1046C0008E0D833068F45801F3E0AF0EB11CFB820D
:1046D000FF2021F0CE0101960E948B208501D1CFD1
:1046E0008BEF8E0D833040F5C8010396FB825C0191
:1046F000FF20A1F3580124E0A20EB11C0E94C03398
:104700008C83882359F30B811C8101303FEF130701
:1047100010F0102F002746E0E41651F057E0E516A0
:1047200019F0C8010E944C22C8010E94FD21D6CF79
:10473000C8010E944C22D2CF84E0E812CFCF5801AA
:1047400094E0A90EB11CC80103960E94C033FF205B
:1047500009F468CF882309F465CF8150990B989E9E
:104760009001999E300D1124EF2DE150FF0BCF01E8
:10477000820F931F019708F4B1CFEFE9FFE0319763
:10478000F1F700C00000F6CFCE0101960E948B2009
:104790005701A4CF81E00E949D1B0E944D1B42CF78
:1047A00081E00E94581BF9CF222309F4DCC382E088
:1047B000F2CF053FECE51E0709F460C008F45AC0CB
:1047C000063F3CE5130709F45DC0222309F4DEC36C
:1047D0001092F90203304DE5140708F05AC00A3F61
:1047E0005CE5150730F4C80182509C45449708F0F9
:1047F0005AC00E941D189093C4028093C3020131D5
:10480000ECE51E0709F422C108F09FC009302CE531
:10481000120709F409C108F06EC005304CE5140711
:1048200009F4FAC008F054C003308CE5180709F405
:10483000E9C008F0EDC08091C302816002301C45E0
:1048400009F4E3C06091C3021091C40284E090E0D7
:104850000E94CE33612F82E290E00E94CE330E940C
:10486000AC1BE0CE27E245EE65EE71C326E241EED9
:1048700060EE6DC327E245EE64EE69C326E241EEC9
:1048800062EE65C327E245EE66EE61C328E241E0D1
:10489000EBCF01368DE5180709F4ABCF053A9DE55E
:1048A000190709F4A6CF0631FCE51F0709F079C303
:1048B00080910F028A7A91E009F490E090939C0134
:1048C0008111EEC089E20E94C4130E94C81AAACEC8
:1048D0008091C30280620730FCE51F0709F495C090
:1048E0008091C302806108301C4508F48EC080911D
:1048F000C30280648AC08091C3028B7F0D303CE587
:10490000130709F482C070F48091C3028E7F0B30CC
:104910005CE5150709F479C008F48CC08091C302E6
:104920008D7F73C08091C3028F7E0F309CE5190785
:1049300009F46BC08091C302877F00311C4508F4E5
:1049400064C08091C3028F7D60C00D3FFCE51F07EE
:1049500009F478C050F505313CE5130709F480C02F
:1049600098F48091C302837F03315CE5150709F455
:104970004CC008F46FC00E94AC1B9091C302892FF9
:1049800097FB87F9805841C00B3F9CE5190709F454
:1049900047C008F053C08091C40281600A3F1C45A3
:1049A00009F050CF8093C4024DCF01302DE512079E
:1049B00009F462C0B8F48091C4028C7F0F3F4CE5CB
:1049C000140781F38091C402836001151D4550F3E3
:1049D0008091C402982F909591708E7F892B90FBC7
:1049E00081F9E0CF01368DE5180709F44BC0053A8F
:1049F0009DE5190709F44DC002301D4509F022CF8D
:104A000060E03BC08091C30282608093C3021ACFF2
:104A10008091C3028460F9CF8091C3028860F5CF92
:104A20008091C4028260BECF0E94AC1B8091C30201
:104A30008068EBCF8091C3028C60E7CF8091C40285
:104A40008E7FB0CF8091C4028D7FACCF8091C302A6
:104A50008F7BDBCF0E94AC1B8091C3028F77D5CFB9
:104A60008091C30282FB992790F921E0922790FB65
:104A700082F990FB83F9C9CF61E08EE090E00E945B
:104A8000CE33E0CE9091C302892F8F7E94FF806158
:104A9000BCCF9091C302892F8E7F90FF8160B5CFEC
:104AA00085E311CF85E37AC20E94AC1B2FEF34E37C
:104AB0004CE0215030404040E1F700C000000E942F
:104AC000141081E08EC280E08CC2C8010E940214E2
:104AD000F82E98C2212F2F70F22E107F19F0F29429
:104AE00090EFF922EE20B9F0FF2069F080E2800F0C
:104AF000883010F0811009C080910F02F82AF092DE
:104B00000F020E94C81A802F4AC080910E02F82A14
:104B1000F0920E02F6CF802F0E94FF1EFF2009F4B4
:104B200040C0005E083010F0811004C08F2D0E943C
:104B3000851306C0F09480910E02F822F0920E02C6
:104B40000E94C81A2EC0312F3F70F32E107F1032F2
:104B500019F0F29480EFF822882089F041E0841661
:104B600009F487C0EE2009F490C0BB2009F465C0A9
:104B7000F601858180FFC7CF8F7085835EC08091ED
:104B8000C40282FF35C0EE2069F1FF2039F0809128
:104B90000F02F82AF0920F020E94C81A80E00E94C9
:104BA000551F292D2850330B2430310510F40E9455
:104BB0005D10AA2009F4D6CC8091ED0180FDD2CC05
:104BC000F60112828595859585950E949D1BC601EB
:104BD0000E9495228091ED018595859585950E948D
:104BE000581BC0CC80E00E94FF1EFF20D1F29ECF58
:104BF000EE2039F1B11004C0809112028F291EC03D
:104C000051E0B51210C082FDCCCF80911202F82A7B
:104C1000F81639F20E94A1199093110280931002A4
:104C2000F0921202BECF85E0B812E6CF0E947A134E
:104C30008091EA01F812F092EA018F2D0E94F51E90
:104C4000B0CFB11006C00E947A138F2D0E94EE1EC5
:104C5000A8CF91E0B91208C080910F028F2109F40A
:104C6000A0CF0E949313EFCFE5E0BE1609F499CFD1
:104C7000EACFEE2029F0F5E0FB1508F492CFDDCF66
:104C800024E02B1508F48DCFE0CFBB20F1F2F9E33F
:104C90008F1209C02FEF37EE43E0215030404040E3
:104CA000E1F700C00000802F0E94FF1E7ACF812F05
:104CB00086958695837061F0813009F072CFC801C6
:104CC0009370E11002C090E080E00E94311069CF43
:104CD000C8019370E11002C090E080E00E9447108C
:104CE00060CF802FEE2029F00E942E110E94AD1976
:104CF00058CF0E946910FACF812F837089F5E11097
:104D000050CF402F429546954770440F440F802F57
:104D10008F70042E01C0880F0A94EAF7202F2071AB
:104D200004FF07C02FE030E001C0220F4A95EAF7E8
:104D30002095169516951370123069F050F4309145
:104D40001302113029F0822B83230E94A81B29CF44
:104D5000832B822BFACF282B809113028227F5CF49
:104D60008695EE2011F0812F8170882309F419CFE8
:104D7000402F429546954770440F440F802F8F7007
:104D8000042E01C0880F0A94EAF7202F207104FF37
:104D900007C02FE030E001C0220F4A95EAF72095C6
:104DA000169516951370123069F050F43091FA028E
:104DB000113029F0822B83230E94491BF2CE832BD2
:104DC000822BFACF282B8091FA028227F5CF1F7011
:104DD000EE2029F0812F0E949D1B802F2FCF802F46
:104DE0000E94EE1E812F0E94581BDBCE802F52EFB7
:104DF0008516A9F1581570F090EF8916D1F0E1EF02
:104E00008E1691F0EE2009F46FC0B1107CCE812F88
:104E10008F7129C0F3EF8F1649F124EF8212F2CF80
:104E20008091C40282FF2DC0812F8F71EE20D9F2B4
:104E30001AC0EE2079F034E03B1508F4B2CE1F71B1
:104E400081E090E001C0880F1A95EAF79091FA028C
:104E50008927B2CF45E04B1508F4A3CEF0CF812FC0
:104E60008F71E110C0CF0E949D1B9BCE80E0EE2091
:104E700009F4A2CF1F7181E001C0880F1A95EAF7EB
:104E80009BCF8091EA01EE20D9F00E94851380919A
:104E9000ED018770843041F40E948C13812F8F7153
:104EA0000E94581BA12C7DCE54E05B15D8F31F71D6
:104EB000812F0E949D1B63E0812F0E943321F2CF3E
:104EC00090910F02982B90930F0284E08B1540F481
:104ED0000E948C130E94931364E0812F8F71EDCF99
:104EE00081E00E94641BDECFBB2059F0893309F0BA
:104EF000DACE9FEFE7EEF3E09150E040F040E1F7CB
:104F0000D0CE812F8F716FCF0031FFE51F0709F4DD
:104F100041CC01313FE5130709F446CC033F3CE5A2
:104F2000130709F4A3CC08F044CC083D5CE5150751
:104F300009F498CC093D8CE5180709F4A7CC073D86
:104F40009CE5190709F041CC26E241EE61EEC6016D
:104F50000E94272067CB80314FE5940709F420CCCD
:104F600081319F45D9F682E01CCC85E0DE011196A7
:104F700001900D928A95E1F7F601228189819A814B
:104F8000211102CB0E940214182F06CB06311C45BA
:104F900051F580919C01811185CD89E20E94991380
:104FA00094CC0A352DE5120709F48BCD58F4011580
:104FB0004CE5140709F478CD0E3D1C45A1F40E9480
:104FC0002B1830CB0B358DE5180709F47CCD0C354B
:104FD0001D4549F48091C40282FB882780F991E045
:104FE00089270E94801BF60182810081118188231C
:104FF00009F46BCDC8010E94A917F82E682FC801CB
:105000000E942F14B8018F2D0E948D170E94F2115B
:105010008C01882EF601E280B580B2943FE0B32285
:105020008091ED018770C1F0AE2CEE20B1F0812FA0
:10503000807F803421F080E2800F883068F080919A
:10504000C40282FD09C082E00E94641B8091ED01D0
:105050008770AA24A3948111A12C912E92942FE001
:105060009222FBE0F91508F49CCDE92DF0E0E25F17
:10507000FB4C0C9474331F93CF93DF938091B70153
:10508000807FA9F48091B401882389F08091E9019F
:10509000D091B8016091B2017091B301A091B501B6
:1050A000B091B601C62FC72316E0D81304C0DF9114
:1050B000CF911F91089590E0109711F0CF3F19F410
:1050C00001968770F2CF189F9001199F300D11241F
:1050D000F901E754FE4F41814713F2CF4081461357
:1050E000EFCF42814111ECCF438154814A1B5B0BCE
:1050F000483C510528F78091B7018F7080618093FB
:10510000B701F901E254FE4F80818F708061808386
:1051100082EB91E00E949522DF91CF911F910C9438
:10512000F813AF92BF92CF92DF92EF92FF920F935C
:105130001F93CF93DF93CDB7DEB761970FB6F89487
:10514000DEBF0FBECDBF8C0185E0F801DE011D96EC
:1051500001900D928A95E1F7F801E28082EBA82E8A
:1051600081E0B82E6091B5017091B60161157105AD
:1051700009F432C19091B2014091B301892F842387
:105180008F3F09F429C120813181C380D480F09000
:10519000B401F601E61BF70BFF2009F4E8C080918B
:1051A000B701582F507FE83CF10508F0ABC0511112
:1051B00077C0FE2C431321C092131FC0E1101DC005
:1051C0008F7080618093B701C5010E949522809104
:1051D000B701F80185838F2D61960FB6F894DEBF75
:1051E0000FBECDBFDF91CF911F910F91FF90EF9038
:1051F000DF90CF90BF90AF900895CD2829F0822FF7
:1052000083238F3F09F003C180E0F82FF170DF2E78
:1052100080FF3CC08091E9014091B80156E08413C1
:1052200015C02D873E878D859E850E94D817292F12
:1052300022952F702230F0F0243018F59F70F1F095
:10524000F8019581907FD1F4D12C1EC090E0589F39
:10525000F001599FF00D1124E754FE4F6181361380
:1052600006C06081261303C06281E6120FC001965A
:105270008770D5CF9F7011F0882331F3805E88301E
:1052800018F3C8010E949522FD2CA5CFEE2009F449
:10529000A2CF8091B70181608093B701F12C9BCFA1
:1052A000431306C0921304C0F801EE2009F479C03C
:1052B000C8010E94E417882309F1EE20F9F08091DB
:1052C000B701803270F02091B2013091B30138877C
:1052D0002F831986DB86CA868C87CE0107960E94AB
:1052E000952286E0F801A2EBB1E001900D928A953B
:1052F000E1F70E943B28FF24F3946DCFC8010E9480
:105300009522F9CF51110AC082EB91E00E949522BB
:1053100086E0F50111928A95E9F7C0CF43130FC0DB
:1053200092130DC0E1100BC0F8018583C8010E94E3
:10533000952286E0F50111928A95E9F74CCFC801D4
:105340000E94E4178823D1F2EE20C1F28091B701C8
:10535000803238F22091B2013091B3013A8329832F
:105360001B82DD82CC828E83CE010196B8CFE83CD1
:10537000F105F8F6FE2CEE2009F243131FC092133C
:105380001DC08091B70180FD10C0982F907F69F0FB
:10539000F8018583903F31F0982F907F905F8F7058
:1053A000892B8583C8010E94952286E0F801A2EB33
:1053B000B1E001900D928A95E1F70DCFC8010E94EE
:1053C000E41781118ECF8091B70181608093B7017E
:1053D000C8010E949522FFCEEE2009F48FCFC801AC
:1053E0000E94E417F82E882309F488CF86E0F8019C
:1053F000A2EBB1E001900D928A95E1F78091B201A4
:105400009091B3010E94D8170E943B28E4CE81E01E
:105410008E25FBCE1F921FB61F9211248F939F9350
:10542000AF93BF938091BE02811113C08091BF02E0
:105430009091C002A091C102B091C2024196A11DFB
:10544000B11D8093BF029093C002A093C102B0939C
:10545000C202BF91AF919F918F911F901FBE1F906D
:105460001895CDB7DEB7E4970FB6F894DEBF0FBE40
:10547000CDBF84B7877F84BF0FB6F894A89580917D
:105480006000886180936000109260000FBE80E829
:1054900090E00FB6F89480936100909361000FBE86
:1054A00085B7806885BF85B7806885BF86E991E14B
:1054B00090937901809378010E94860E0E94510F8B
:1054C0008091E20084608093E20078948091ED0204
:1054D0008823A1F01091E9001F709091EC00892FB2
:1054E000817090FD80E8182B1092E9008091E8000F
:1054F00083FD0E94C11B1F701093E90082E084BDF0
:1055000093E095BD9AEF97BD80936E000E940418BA
:10551000811102C00E944F1700E511E065E5E62EFB
:1055200061E0F62ED8018D918D018F3F11F00E9420
:105530009811E016F106B1F705E511E050E6E52E09
:1055400051E0F52EF80181918F018F3F11F00E94FB
:105550009811E016F106B1F78AE0E7E9F2E0DF0121
:10556000282F1D922A95E9F7E7E1F2E0DF011D926D
:105570008A95E9F790E080E00E94C833893E9E4F0B
:1055800021F40E940418811102C00E942B1882E0AD
:1055900090E00E94C033809321020E941D189093D6
:1055A000C4028093C3020E94D419EFE3FCE931974F
:1055B000F1F700C000000E94D4198091970280FF8B
:1055C00008C06FEF7FEF90E080E00E94EC330E9414
:1055D000141083E090E00E94C0330E94A81B109238
:1055E000920280E88093FB020E94F8316DE070E047
:1055F00081EF93E10E94DF14892BE9F580919202FB
:1056000063E070E081FDA1C18EEE93E10E94DF14A2
:10561000892B89F56DE070E08EED93E10E94DF1437
:10562000892B49F50E942510605A75418F4F9F4F75
:105630006093B2027093B3028093B4029093B50268
:10564000E4E0F3E080E092E0DF019C011D92215054
:105650003040E1F7F0930505E09304058FEF9FEFED
:10566000909303038093020381E08093B7028093B9
:10567000B6021092930280E091E09093BB02809377
:10568000BA028091ED0200E112E1853009F49CC17B
:105690000E94D419D82E81110E942510A7E9B2E0EA
:1056A000E2E2F2E010E000E0702F8D919D912191F7
:1056B00031912817390709F497C12827392760E065
:1056C000EE24E394F12CA70142235323452B09F444
:1056D00085C169A77AA797012823392391E0232B55
:1056E00009F490E09BA70E94A1198160782F9DA7E3
:1056F0008CA749A55AA56BA58DA50E944921000F2D
:10570000111FF801EE5DFD4F80819181E826F92699
:10571000F182E0828090370290903802092C000CD0
:10572000AA08BB0880910C0190E0E7E3F2E021E0D9
:1057300030E03296821793070CF06DC180913302EE
:1057400090913402A0913502B09136026FB7F8946F
:105750004090BF025090C0026090C1027090C2029F
:105760006FBF481A590A6A0A7B0A10910C0139EC7A
:10577000431651046104710414F18091320290E0E7
:10578000019669E170E00E941F3380933202880F16
:10579000991FFC01E95CFD4F11821082812F1831A5
:1057A00008F087E18F5F80930C010E9425106093C1
:1057B000330270933402809335029093360242E0B4
:1057C00084169104A104B1040CF432C1A0E6BAEE2F
:1057D000A50194010E9481334B015C0188EC189F64
:1057E00090011124032E000C440B550B240D351D84
:1057F000461D571DA5E0B0E00E9481339B01AC011E
:10580000C501B4010E94333329013A0191EF4916D1
:105810005104610471042CF0A0EF4A2E512C612C2C
:10582000712C80912E0290912F02A0913002B091A4
:1058300031022FB7F8948090BF029090C002A090E0
:10584000C102B090C2022FBF881A990AAA0ABB0AE5
:10585000A5E68A169104A104B10484F00E942510E3
:1058600060932E0270932F02809330029093310246
:105870008091690280932D0240922C0210912D029A
:10588000A0912C02A11BBB0BA50194010E948C339B
:1058900024E630E040E050E00E945533120F1093B0
:1058A00069028091B702882309F462C180E00E94F6
:1058B000740E112309F4C0C00E942A1540916E0293
:1058C00050916F0260917002709171022FB7F8943D
:1058D0008091BF029091C002A091C102B091C2021A
:1058E0002FBF841B950BA60BB70B893C9105A10517
:1058F000B10560F00E94251060936E0270936F02F4
:1059000080937002909371020E94A1140E9425104E
:1059100060936A0270936B0280936C0290936D02A5
:1059200080E00E94740E8091FA020E945F14882326
:1059300009F4CBC0813009F42DC287E194E10E94C3
:10594000D31581E00E94E115C4C08BEE93E15ECED9
:105950008091ED02843031F10E940F151092BE0249
:1059600088E190E0A0E40FB6F894A89580936000D9
:105970000FBEA093600083B7817F846083BF83B72D
:10598000816083BF7894889583B78E7F83BF0FB67D
:10599000F894A895809160008861809360001092CF
:1059A00060000FBE8091EC02882371F00E94D41930
:1059B000E7E9F2E081919191892B09F0F0C421EAA5
:1059C00032E02E173F07B1F78091ED02853009F4E0
:1059D000BFCF0E94AC1B0E945D105ACE6F5FEE0CD1
:1059E000FF1C6B3009F06FCE0F5F1F4F05301105A4
:1059F00009F05ACE8FEF8EA78FA718AA0E94A1197F
:105A00008160782F9AAB89AB4EA55FA568A98AA95A
:105A10000E9449217FCE40815181052E000C660BEA
:105A2000770B840E951EA61EB71E2F5F3F4F81CEAB
:105A3000412C512C3201F5CE40916A0250916B02FB
:105A400060916C0270916D022FB7F8948091BF0243
:105A50009091C002A091C102B091C2022FBF841BDD
:105A6000950BA60BB70B81369A4EA105B10518F020
:105A70000E940F1555CF40916E0250916F026091B8
:105A80007002709171022FB7F8948091BF029091CB
:105A9000C002A091C102B091C2022FBF841B950B1E
:105AA000A60BB70B893C9105A105B10508F438CFC9
:105AB0000E94251060936E0270936F0280937002B3
:105AC000909371020E94A1142BCF84E294E10E9472
:105AD000D3150E945D10182F81E00E94740E8FE094
