:100000000C9447060C9464060C9464060C946406E5
:100010000C9464060C9464060C9464060C946406B8
:100020000C9464060C9464060C9473130C942F13B4
:100030000C949C1D0C9464060C9464060C94640649
:100040000C9464060C9464060C9464060C94640688
:100050000C9464060C944C140C9464060C94640682
:100060000C9464060C9464060C9464060C94640668
:100070000C9464060C9464060C9464060C94640658
:100080000C9464060C9464060C9464060C94640648
:100090000C9464060C9464060C9464060C94640638
:1000A0000C9464060C9464060C94640605010980A3
:1000B000A101850319012AB700150126B700950192
:1000C00075108100C0050C0901A101850419012AE0
:1000D000A002150126A002950175108100C00660DE
:1000E000FF0961A1010962150026FF00952075082E
:1000F00081020963150026FF00952075089102C052
:1001000005010906A101050719E029E715002501E8
:10011000950875018102950175088101050719008F
:1001200029FF150026FF00950675088100050819AE
:10013000012905950575019102950175039101C08D
:1001400000000000000000000000000000000000AF
:10015000000000000000000000000000000000009F
:10016000000000007E0F00D4FFFFFFC700000078F2
:1001700000000000000000002A2B28000000000002
:100180000000000000000000000000290000000046
:100190002C1E3420212224342627252E362D3738B4
:1001A000271E1F202122232425263333362E3738BD
:1001B0001F0405060708090A0B0C0D0E0F1011127B
:1001C000131415161718191A1B1C1D2F3130232D47
:1001D000350405060708090A0B0C0D0E0F10111245
:1001E000131415161718191A1B1C1D2F3130354CF6
:1001F00000DA0281FFD9F1DB20A4A62EAF00A0C057
:1002000000A1C800AED580A81FD300408D142000E7
:100210002020464E2020002042415345000A008005
:1002200081828384A0A1A2A3A4C0C1C2C3C40000D0
:1002300000000000000000000000000000E01C02C0
:10024000050224040402A91EE000000000000000D2
:100250000000000000E0100868100804030000001F
:10026000000000000206827C030000000000000085
:1002700000000000000102040C1010202020283E85
:100280001C20203E0F111F00000000000000000095
:1002900000000000000000000000000000E01C0260
:1002A000050224040402A91EE00000000000000072
:1002B00000000000E090081860100804030000002F
:1002C00000000000020E827C03000000000000001D
:1002D00000000000000102040C1010202020283E25
:1002E0001C20203E0F111F00000000000000000035
:1002F0000000000080402010909090A0C08080807E
:100300007008140890101008A47880000000000005
:10031000000000000708FC01000000008000000150
:100320000000000000000818EA100F0000000000A4
:10033000000000000000031C20203C0F111F0306DA
:100340001820203C0C121E010000000000000000DC
:1003500000000000008040202020408000000000BD
:10036000E01028102020201048F0000000000000BD
:10037000000000001F20F80201010101010101033A
:100380000000000001001030D5201F000000000018
:100390000000000000003F20300C020509121E0280
:1003A0001C140810202C3201000000000000000086
:1003B000000000E0100808C8B08080808080808045
:1003C00040403C14040890180408B040800000002D
:1003D0000000000102C4A4FC000000008000000036
:1003E00000000000000080C858282A100F000000FC
:1003F000000000000E0904040404020302010102CB
:1004000002040810262B320405060000000000003C
:100410000000E01010F000000000000000008080EC
:10042000807828081020300810204080000000004C
:1004300000000304081011F901010101010100008D
:100440000000000000000110B05055201F00000007
:10045000000000000000000001020C1020283702FC
:100460001E2020180C141E010000000000000000D7
:10047000000000000080404040408000000000007C
:1004800000C040408000804080000000000000006C
:100490000000001E21F00402020202030202040412
:1004A000040301000009018080AB04F80000000093
:1004B0000000000000031C20203C0F111F02061842
:1004C0002020380810180404020201000000000077
:1004D000000000000080404040800000000000005C
:1004E00000E0A0204080C02040800000000000000C
:1004F0000000003E41F00402020203020202040472
:1005000002010000000400404055827C0000000011
:1005100000000000003F20300C020509121E0418E4
:10052000100810202834060201010000000000001D
:10053000C02010D030000000000000008080403C4F
:1005400014040890180408B0408000000000000067
:100550000304081011F9010101010101000000006C
:1005600000000080C848282A100F0000000000008A
:1005700000000000000001020C10202837020204D5
:100580000810262B320405060000000000000000C1
:10059000E01010F0000000000000000080804040EB
:1005A0002C14040890180408B040800000000000DB
:1005B0000304081011F9010101010101000000000C
:1005C0000000000080C048282A100F204A091000AF
:1005D00000000000000001020C1020283702020475
:1005E0000810262B32040506000000000000000061
:1005F000AF00AE00002400250026002A00000021E4
:100600000022002300290000001E001F0020002BF4
:1006100000A800C152270037222800000001000175
:10062000000100007C0000010001000100570000F3
:10063000000100010001005600597C010001000189
:10064000002E000000010001000100010000000177
:100650000001000100010000000100010001000193
:100660000001000100010001000100000001000183
:100670000001000100000001000100010001000074
:100680000001000100010001000100010001000162
:10069000000100AA00A9004B004E00AA00A9004BCF
:1006A000004E00AA00A9004B004E00AA00A9004B72
:1006B000004E0009025B00030100A0FA09040000DB
:1006C0000103010100092111010001224000070579
:1006D0008103080001090401000203000000092150
:1006E00011010001222200070582032000010705F5
:1006F0000303200001090402000103000000092196
:1007000011010001223200070584032000011201BB
:10071000000200000008AFDE130901000102000121
:100720001003640075006D006200700061006400D9
:100730000000160369006D00630068006900700026
:1007400077006F006F0064000000040309040708CD
:100750007F0807003E5B4F5B3E003E6B4F6B3E00E9
:100760001C3E7C3E1C00183C7E3C18001C577D57EC
:100770001C001C5E7F5E1C0000183C180000FFE798
:10078000C3E7FF00001824180000FFE7DBE7FF00C5
:1007900030483A060E00262979292600407F0505B3
:1007A0000700407F05253F005A3CE73C5A007F3E4A
:1007B0001C1C0800081C1C3E7F0014227F22140011
:1007C0005F5F005F5F0006097F017F00006689951B
:1007D0006A0060606060600094A2FFA29400080458
:1007E0007E04080010207E20100008082A1C080043
:1007F000081C2A0808001E10101010000C1E0C1EE9
:100800000C0030383E383000060E3E0E0600000068
:100810000000000000005F0000000007000700006B
:10082000147F147F1400242A7F2A120023130864E3
:100830006200364956205000000807030000001CE3
:10084000224100000041221C00002A1C7F1C2A00BB
:1008500008083E08080000807030000008080808FA
:1008600008000000606000002010080402003E51F3
:1008700049453E0000427F40000072494949460018
:100880002141494D33001814127F1000274545457A
:1008900039003C4A494931004121110907003649D4
:1008A00049493600464949291E000000140000004D
:1008B00000403400000000081422410014141414F5
:1008C00014000041221408000201590906003E41AB
:1008D0005D594E007C1211127C007F494949360057
:1008E0003E41414122007F4141413E007F4949490B
:1008F00041007F09090901003E41415173007F0811
:1009000008087F0000417F4100002040413F010076
:100910007F08142241007F40404040007F021C02BB
:100920007F007F0408107F003E4141413E007F0967
:10093000090906003E4151215E007F091929460040
:1009400026494949320003017F0103003F404040EE
:100950003F001F2040201F003F4038403F006314ED
:10096000081463000304780403006159494D4300EF
:10097000007F414141000204081020000041414134
:100980007F00040201020400404040404000000398
:10099000070800002054547840007F284444380061
:1009A000384444442800384444287F003854545480
:1009B000180000087E09020018A4A49C78007F0893
:1009C0000404780000447D4000002040403D0000C9
:1009D0007F102844000000417F4000007C04780420
:1009E00078007C0804047800384444443800FC183B
:1009F0002424180018242418FC007C08040408008F
:100A000048545454240004043F4424003C404020F3
:100A10007C001C2040201C003C4030403C0044280E
:100A2000102844004C9090907C004464544C440046
:100A30000008364100000000770000000041360841
:100A400000000201020402003C2623263C000000B4
:100A500000000000404040F0F8F8FF38FFF8F83F91
:100A6000F8F8FF38FFF8F8F04040400000000000C0
:100A70000080C0C0C0800000C0C08000000080C0F6
:100A8000C000C0C0000080C0C00000000000C0C0A6
:100A9000C0C0C000C0C00000000000000000000096
:100AA0000000000000000000000000000000000046
:100AB0000000000000000000000000000000000036
:100AC00000000000000000000000000000C0F0F87E
:100AD000FC3E1E06010000007F4141417F007F4136
:100AE00041417F000080C0E07E5B4F5BFEC00000A4
:100AF000C000DCD7DEDEDED7DC00C0000000000076
:100B000000000000000000000000000000000000E5
:100B100000000000494949FFFFFFFFE0DFBFBF00C1
:100B2000BFBFDFE0FFFFFFFF4949490000000000B1
:100B30001F3F6060E0BF1F007F7F071E381E077FDA
:100B40007F007F7F0E1F3B716000000000007F7FF1
:100B50000C0C0C007E7E007F7E0303007F7E03036F
:100B60007E7E03037F7E000F3E703C063C703E0F8E
:100B700000327B49493F7E007F7E0303001E3F69B0
:100B8000696F2600000000000000000000030F1F36
:100B90003F3C7870600000007F4141417F007F4111
:100BA00041417F00307B7F7830202030787F3B00D0
:100BB00003000F7F0F0F0F7F0F00030000000000E6
:100BC0000000000000000000000000000000000025
:100BD00000000000010101070F0F7F0F7F0F0F7E44
:100BE0000F0F7F0F7F0F0F070101010000000000B2
:100BF00000000000000101000000000000000000F3
:100C000000000000000000000000000000000000E4
:100C100000000000000000000000000000000000D4
:100C200000000000000000000000000000000000C4
:100C300000000000000000000000000000000000B4
:100C400000000000000000000000000000000000A4
:100C50000000000000000000000000000000000094
:100C60000000000000000000000000000000000084
:100C70000000000000000000000000000000000074
:100C8000000000000000000000000000000011242F
:100C90001FBECFEFDAE0DEBFCDBF11E0A0E0B1E0D4
:100CA000EAEEFEE402C005900D92AE37B107D9F727
:100CB00024E0AEE7B1E001C01D92A439B207E1F72C
:100CC0000E94C31D0C941F270C940000E8EDF0E077
:100CD00080818E7F80831092E2001092DA00109261
:100CE000E100A0EEB0E08C9181608C9380818F77E1
:100CF000808319BCA7EDB0E08C918E7F8C938081AE
:100D00008F7E808310926F0208952091E4003091CD
:100D1000E50095E6A9012091EC00822F817020FF6B
:100D200006C08091E80080FF06C080E00895209111
:100D3000E80022FD1AC080917C02882389F085306A
:100D400089F08091EB0085FD0FC02091E400309187
:100D5000E50042175307F9F29150E1F684E0089557
:100D600082E0089583E0089581E0089580917E02F5
:100D700087FF13C08091E80082FF06C08091E800E1
:100D80008B778093E80004C080917C028111F2CFC0
:100D9000089580917C028823D9F38091E80080FF38
:100DA000F8CF8091E8008E77ECCF982F9093E900F0
:100DB000242F762F50E0891731F07091EC002091AC
:100DC000ED005091F00021FD07C09F5F973071F753
:100DD0008093E90081E008953091EB003E7F3093ED
:100DE000EB003091ED003D7F3093ED003091EB0052
:100DF00031603093EB007093EC002093ED00509342
:100E0000F0002091EE0027FDE0CF80E00895B0E0F3
:100E1000A0E0EDE0F7E00C940A26C8EDD0E0888170
:100E20008F7E8883E7EDF0E080818160808384E0BD
:100E300082BF81E080936F0288818E7F888302EE7B
:100E400010E0F80110821092DA0081EEC82ED12C49
:100E5000F601108288818F778883888180688883F3
:100E600088818F7D888319BC10927C0210927D024C
:100E700010927B0210927A0290EEE92EF12CF7018B
:100E800080818B7F808388818160888342E060E0FD
:100E900080E00E94D506F60180818E7F8083F80174
:100EA000808181608083808188608083F701808178
:100EB0008E7F8083888180618883CDB7DEB7E8E04C
:100EC0000C942626FC01809184029091850286175D
:100ED0009707A0F06115710529F49091E8009E77BD
:100EE0009093E80090E06115710551F4911108C0EC
:100EF0008091E80082FF34C080E00895BC01F2CF09
:100F000080917C028823C1F18530C1F18091E80095
:100F100083FD30C08091E80082FDEACF8091E80037
:100F200080FFE1CF8091F3002091F200382F61150E
:100F3000710519F02830310558F091E0283031055D
:100F400009F090E02091E8002E772093E800CBCFC5
:100F500081918093F100615071092F5F3F4FE7CF7E
:100F600080917C02882341F0853041F08091E80037
:100F700083FFBECF81E0089582E0089583E0089565
:100F8000089580917102089587E797E7909301088B
:100F90008093000888E19AE00FB6F894A8958093B2
:100FA00060000FBE90936000FFCF2FB7F894609160
:100FB0006B0270916C0280916D0290916E022FBF56
:100FC00008959C01FC0132969FEF80E04191461705
:100FD00051F09F3F19F4411101C0982F8F5F863067
:100FE000A9F79F3F09F40895290F311D97FD3A9500
:100FF000F90162830895A3E0B0E0E1E0F8E00C9429
:101000001026209168023091690228173907A1F053
:101010009093690280936802E0916602F091670202
:10102000309751F024E029839B838A830680F781DF
:10103000E02DCE01019609952396E2E00C942C2632
:10104000A3E0B0E0E6E2F8E00C9410262091640200
:101050003091650228173907A1F0909365028093BB
:101060006402E0916602F0916702309751F023E04C
:1010700029839B838A830680F781E02DCE01019628
:1010800009952396E2E00C942C26E0916602F091FB
:101090006702309729F00190F081E02D09950895BD
:1010A00080E0089580E00895F894E82FE295EF70CD
:1010B000F0E031A1282F2F7081E090E001C0880F6F
:1010C0002A95EAF7982F9095932391A392A1892BC3
:1010D00082A3789408959091E20192FF06C0282F90
:1010E00028712830F9F4877F846093FF06C0282F89
:1010F00028712831F1F4877E84612091E30120FF7B
:1011000006C0382F38713830D9F4877F816021FFCD
:1011100006C0282F28712831D1F4877E816194FD83
:10112000877E0895282F24712430F9F68B7F8860FC
:10113000DCCF282F2471243101F78B7E8861DDCF2D
:10114000382F3171313019F78E7F8860E0CF282F2A
:101150002171213121F78E7E8861E1CF823891059E
:10116000B9F1B0F48133910509F47DC048F48932B6
:10117000910509F46DC08A32910509F47BC0089588
:101180008533910509F45FC08933910509F108950C
:10119000833E9105D9F138F4803E910529F1823ED4
:1011A000910579F10895863E9105D9F1873E910523
:1011B00009F43EC0843E910541F52091E30121FFF1
:1011C00024C08091E20184FD19C087EE90E008956B
:1011D0002091E201237009F05AC02091E30123FF1E
:1011E00014C089E290E008952091E20120FD38C00A
:1011F0003091E30130FF09C024FF43C090E080E05C
:1012000008952091E20122FDF7CF08952091E20197
:1012100022FD3AC03091E30130FD39C024FFF5CF03
:10122000EDCF2091E20123FFF0CF24FDE7CFCDCF1A
:101230002091E20123FD2EC03091E30131FFEECF7A
:1012400084EE90E008952091E20125FFDECFC9CF22
:101250002091E20125FD21C02091E30123FFD5CF9C
:1012600089E390E0D2CF2091E20126FFCECF8AE23F
:1012700090E008952091E20126FFC7CF81E390E03E
:10128000089583EE90E0089582EE90E0089580EE58
:1012900090E0089586EE90E0089585E390E008954B
:1012A0001F93CF93DF930E94AE08EC01C11580E538
:1012B000D807F0F5C11580E4D80708F09CC0C03EFF
:1012C000D10520F5CD3CD10508F082C0C83AD10542
:1012D00078F4C53AD10508F073C0C130D10519F1D1
:1012E000209709F1C430D105F0F4D0E0C0E01BC074
:1012F000C33CD105D0F7C85AD0E0CC0FDD1FCC5E7F
:10130000DE4F0990D881C02DD4640DC0C11580E294
:10131000D80708F0D1C0C11581E0D80708F05AC03D
:10132000C83ED10510F7CE01DF91CF911F910895EE
:10133000C03682E5D80718F5C03482E5D80708F032
:101340006BC0C03282E5D80708F05FC0C11582E5E6
:10135000D80708F497C02C2F2695269580E2289F61
:10136000900111248C2F8370C1E0D0E002C0CC0F1B
:10137000DD1F8A95E2F7C22BD32BDD68D4CFC03AAC
:1013800082E5D80760F4C03882E5D80708F459C070
:10139000CF71D0E0DC2FCC27C46FD06AC4CFC03C63
:1013A00082E5D80708F462C0C03E82E5D80708F09D
:1013B0009CCFDC2FCC27CC27DF71C06FD06AB3CF96
:1013C000C55AD0E0CF5EDE4FC881D0E0D064ABCF4D
:1013D000D065A9CF8D2F0E946B08182FCE019927B9
:1013E0000E94AE08C12FD0E0DC2FCC27CC27DF71C4
:1013F000C82BD92B98CFCE0199270E94AE08CC27B5
:10140000DF70C82BD92BD06A8ECFCF71D0E0DC2F04
:10141000CC27C16FD06A87CF2C2F269526952770B1
:1014200080E2289F900111248C2F8370C1E0D0E0CE
:1014300002C0CC0FDD1F8A95E2F7C22BD32BDC68EC
:1014400072CF2C2F26952695277080E2289F900139
:1014500011248C2F8370C1E0D0E002C0CC0FDD1FBF
:101460008A95E2F7C22BD32BDA685DCF8C2F8F7170
:101470000E946B08C82FD0E0DC2FCC27CC27DF716F
:10148000D06251CF8C2F8F710E946B0855E0D6959A
:10149000C7955A95E1F7CF70D0E0DC2FCC27282FE5
:1014A00030E084FF05C044E0220F331F4A95E1F786
:1014B000C22BD32BD06937CF8D2F8F710E946B0831
:1014C000182FCE0199270E94AE08C12FD0E0DC2F43
:1014D000CC27CC27DF71C82BD92BD2CF80913302F8
:1014E00081111092330208958095909132029823D1
:1014F0009093320208952091CD0190919C0156E085
:10150000291302C080E0089530E0529FF001539FFC
:10151000F00D1124E356FE4F7181761306C07081E1
:10152000781303C07281741304C02F5F3F4F27707C
:10153000E7CF81E008958091CD0190919C019813AF
:1015400001C008958F5F8770FACFA82FA77023E09E
:10155000969587952A95E1F7FC01EE0FFF1FE80F9E
:10156000F91FE60FF71F50E040E080E0219130E0E6
:101570000A2E02C0369527950A94E2F72170332788
:10158000042E01C0220F0A94EAF7822B4F5F5F4FAF
:101590004330510559F70895292F943068F4853068
:1015A00090F490E06DE871E035E0239F800D911D8F
:1015B00011240E94A50A08952C5F223020F46AE8C5
:1015C00071E090E0F6CF80E00895262F277091E03B
:1015D00001C0990F2A95EAF723E0769567952A9539
:1015E000E1F7FB01EE0FFF1FE60FF71FE40FF51FFA
:1015F00050E040E0682F70E08191DF0111979B017E
:10160000042E02C0369527950A94E2F721702195A1
:101610002827292328272C934F5F5F4F43305105FC
:1016200059F70895282F862F943070F4253058F4F8
:10163000622F70E025E0929F600D711D11244DE82E
:1016400051E00E94E50A08959C5F9230E0F7622F16
:1016500070E04AE851E0F5CF80933402089590910C
:10166000340221E030E0F90101C0EE0F8A95EAF77B
:10167000D90102C0AA0FBB1F6A95E2F7EA2B01C08D
:10168000220F4A95EAF7892F8E23E81305C0292BEC
:10169000822F0E942C0B089520952923F9CF21E059
:1016A00030E001C0220F8A95EAF72095809134023C
:1016B00082230E942C0B08959091CE01809589235E
:1016C0008093CE01282F277091F4282F082E000C2C
:1016D000330B9217130659F09091E30192FF07C064
:1016E0008595859585950E944F0B1092CE010895A2
:1016F00021E030E001C0220F8A95EAF780913402A0
:10170000822B0E942C0B08958093E1010895CF93C2
:10171000DF93209188012F5F21702093880130E6AC
:10172000239F800D911D11242091920430919304E8
:101730002C583240A901405A5F4F41305240B8F016
:1017400040E052E0421B530B60918A0270918B0281
:10175000FC01420F531FC1E0D0E02417350750F0C1
:1017600070938B0260938A02DF91CF91089540E6D7
:1017700050E0EACF8491D901A457BD4F9C918917BD
:1017800081F08C93C901A5E096958795AA95E1F71C
:10179000DE0102C0AA0FBB1F8A95E2F7CD016A2BBA
:1017A000792B2F5F3F4F3196D8CFCF93DF93C091E6
:1017B0009204D09193048A30C1F420918902CE0121
:1017C0008C589240622F70E00E94EC25281B822FDB
:1017D00066E00E943726C82FC15018F4DF91CF91E0
:1017E000089580E20E94D50BF7CF8D30E9F4CC58F4
:1017F000D24020918902622F70E0CE010E94EC2538
:10180000281B822F9E01280F311D2115324018F010
:1018100080E0D0E0C0E0C80FD11DC457DD4FD093A9
:101820009304C0939204DACF96E0FE01ACE8B4E0F2
:1018300001900D929A95E1F7803E08F458C086E039
:10184000FE0111928A95E9F7C0919204D091930418
:1018500046E050E0BE018CE894E00E94D0269E0154
:101860002C583240892B41F1C90145E09695879566
:101870004A95E1F741E050E0BA0102C0660F771FD8
:101880008A95E2F7CB0160918A0270918B02862BD8
:10189000972BB9016B5F7F4FE5E076956795EA95E9
:1018A000E1F702C0440F551F6A95E2F7842B952B90
:1018B00090938B0280938A022A5F3F4F4091890266
:1018C000642F70E0C9010E94EC25481B463010F4DB
:1018D000240F311D211572E0370710F030E020E0B1
:1018E00024573D4F309393042093920477CFF6E032
:1018F0008F9FB0011124625B784F46E050E0CE012B
:101900000E94C726A1CFCF93DF93EC01FE01849103
:10191000811103C0DF91CF9108950E94D50B2196CC
:10192000F5CF809132029091D701892B809380016D
:1019300090913302992391F0892B8093800120E0CC
:1019400082E891E0FC013191CF0131112F5FF1E08C
:1019500088389F07B9F721110E946E0A48E050E0CD
:101960006FEC71E080E891E00E94D026892BA9F00D
:1019700088E0E0E8F1E0AFECB1E001900D928A95EB
:10198000E1F7E0916602F0916702309731F0028052
:10199000F381E02D80E891E00995089510923202DC
:1019A000E2E8F1E086E0DF011D928A95E9F790E038
:1019B00080E00E94200890E080E00E94FB071092E7
:1019C000D7010E94910C0895AAE2B0E0EAEEFCE093
:1019D0000C940F268EE792E02091F100DC012D930C
:1019E000CD01B2E086389B07B9F780917F02833042
:1019F00009F472C0B8F4813009F449C0823009F4A6
:101A0000B3C08091E80083FF8BC280917E029091E9
:101A10007F029A3008F084C2E92FF0E0EF5DF84DC4
:101A20000C9498268A3009F48EC08B3009F471C06A
:101A3000893039F780917E02813219F780918202D4
:101A400090918302009711F00297D9F68091E800F7
:101A5000877F8093E8008091E80082FF38C09091F2
:101A6000F3008091F200029731F48091F10081300F
:101A700011F0863021F48091F10080937102809101
:101A8000E8008B778093E8000E94B606BACF809179
:101A90007E02813A09F0B5CF8091E800877F80937C
:101AA000E8008091820290918302892B61F468E0C2
:101AB00082E792E070E00E9462078091E8008B77F5
:101AC0008093E8009ECF60E090E080E0F3CF8091CB
:101AD0007C028111C0CF95CF80917E02813A09F0BE
:101AE00090CF8091820290918302892B09F089CF57
:101AF0008091E800877F8093E8008091E80080FF74
:101B0000FCCF809110018093F1008091E8008E77E6
:101B1000B9CF80917E02813209F073CF8091820229
:101B200090918302892B09F06CCF8091E800877F28
:101B30008093E8000E94B606809180028093100195
:101B40000E94CE0C5ECF80917E02813209F059CF87
:101B50008091E800877F8093E8000E94B60680911C
:101B60008102809370024DCF80917E02813A09F00C
:101B700048CF8091E800877F8093E8008091E8005B
:101B800080FFFCCF80917002BECF803899F0823800
:101B900009F0C6C1809182028F70873008F0C0C101
:101BA0008093E9008091EB0085FB882780F91092F3
:101BB000E90006C080917A0290917B0291118260C7
:101BC0009091E800977F9093E8008093F100109245
:101BD000F1008091E8008E779FC1882309F48DC1C0
:101BE000823009F09DC180918002811190C1809165
:101BF00082028F702FEF280F263008F091C180935A
:101C0000E9002091EB0020FF82C1933031F48091F4
:101C1000EB0080628093EB007AC19091EB009061C1
:101C20009093EB0021E030E001C0220F8A95EAF7A3
:101C30002093EA001092EA008091EB008860EACFDE
:101C400081116EC1109180021F778091E30080782E
:101C5000812B8093E3008091E800877F8093E800E8
:101C60000E94B6068091E80080FFFCCF8091E300DF
:101C700080688093E30082E0111183E080937C020E
:101C80004FC18058823008F04BC1209180023091C2
:101C900081022C3DE3E03E07A1F583E08A838AE2DE
:101CA00089834FB7F894DE01139620E03EE051E2BD
:101CB000E32FF0E050935700E49120FF03C0E2953A
:101CC000EF703F5FEF708E2F90E0EA30C0F0C79664
:101CD0008D939D932F5F243159F74FBF8091E8007A
:101CE000877F8093E8006AE270E0CE0101960E944F
:101CF00062078091E8008B778093E80011C1C0965D
:101D0000E7CF8091820290918302432F5527433081
:101D1000510509F44AC078F54130510509F47AC0FB
:101D20008BE590E0E3EBF6E04230510509F0F8C0B6
:101D30002091E800277F2093E800209184023091D1
:101D400085028217930708F49C0140E021153105B4
:101D500009F065C0411163C08091E80082FDC9CFE0
:101D600080917C02882329F2853019F28091E80065
:101D700083FFF2CFBECF4132510509F43CC042325D
:101D8000510509F0CDC08330910508F0C9C0FC01B0
:101D9000EE0FFF1FEE58FE4F0190F081E02D8159AC
:101DA0009E4FDC018C9190E01AC033272130310521
:101DB000D1F02115310561F02230310509F0B0C0B4
:101DC000E0E2F7E0E4918E2F90E0E0E2F7E007C078
:101DD000EAE4F7E0E4918E2F90E0EAE4F7E0009780
:101DE00009F49EC0A5CFE2E3F7E0E4918E2F90E0E6
:101DF000E2E3F7E0F4CF8330910508F091C0880F5B
:101E0000991FFC01E858FE4F0190F081E02D89E018
:101E100090E08ECF82E190E0EEE0F7E089CF809114
:101E20007C02882309F465CF853009F462CF809164
:101E3000E80083FD5ECF8091E80082FD8DCF809128
:101E4000E80080FF83CF9091F3008091F20021158C
:101E5000310519F08830910550F041E0089709F0FC
:101E600040E08091E8008E778093E8006FCF449146
:101E70004093F1003196215031090196E8CF803826
:101E800009F04EC08091E800877F8093E800809140
:101E90007D028093F1009DCE811142C0109180029D
:101EA0001230F0F58091E800877F8093E80010936E
:101EB0007D020E94B606112311F084E005C08091D6
:101EC000E30087FDFACF81E080937C0242E061EC81
:101ED00081E00E94D50642E261EC84E00E94D506D2
:101EE00042E261EC82E00E94D50642E260EC83E0CF
:101EF0000E94D50680917C0213C0809180028130BF
:101F000079F481E0933009F080E080937B021092B5
:101F1000E9008091E800877F8093E8000E94B60680
:101F20008091E80083FF0AC08091E800877F80935A
:101F3000E8008091EB0080628093EB00AA96E3E0DA
:101F40000C942B26882321F00E94740A0E94910C85
:101F50000895882339F090913202982B90933202A1
:101F60000E94910C0895882391F19CEF980F913A6B
:101F700080F4E2E8F1E028E831E09191891303C0B0
:101F8000DF0111971C922E173F07B9F70E94910CA1
:101F9000089590E2980F983050F4877091E001C056
:101FA000990F8A95EAF7892F0E94740AEFCF9BE573
:101FB000980F933028F490E080E00E942008089564
:101FC000885A8B3120F490E080E00E94FB0708954E
:101FD000CF93C82F8823B1F08CEF8C0F813A00F596
:101FE000E2E8F1E088E891E0DF012D91C21761F0AD
:101FF0008A179B07D1F76C2F80E891E00E94E107D8
:102000000E94910CCF9108952191C21303C0DF016A
:1020100011971C928E179F07B9F70E94910CEBCF76
:1020200080E28C0F883068F4C77021E030E001C096
:10203000220FCA95EAF780913202822B80933202F6
:10204000DFCFEBE5EC0FE33040F4F0E0EF5EFE4F66
:10205000808190E00E942008D5CFC85ACB3190F6FD
:10206000EC2FF0E0EE0FFF1FEC5EFE4F80819181C0
:102070000E94FB07C7CFB0E0A0E0E1E4F0E10C94E0
:102080000A266C017B0164E670E088E70E94062561
:10209000EC0197FD12C010E000E0F601E00FF11F27
:1020A000849164E670E00E947225EC01892B29F48A
:1020B0000F5F1F4F0E151F0581F70E94E825CE0107
:1020C000CDB7DEB7E8E00C942626809162029091AD
:1020D0006302911103C091E089270895882369F074
:1020E00062E070E081EF95E00E943B10892B19F0CF
:1020F0008091620208951092620280916202EBCF99
:10210000CF93C0916202809163028823D1F00E9434
:10211000D507605A75418F4F9F4F60935E02709351
:102120005F028093600290936102C11108C062E077
:1021300070E08FEE95E00E943B10892B29F0C09152
:1021400062028C2FCF91089581E080936202F7CFD5
:102150000F931F93CF93DF938B01EA0190917C0241
:10216000943061F58093E9008FEF9091E800815001
:1021700095FD06C095ED9A95F1F700008111F5CF18
:102180008091E80085FF1AC00E948506811111C068
:102190008091E80085FD06C08091E8008E778093ED
:1021A000E800F2CFF80181918F018093F10021972F
:1021B00079F78091E8008E778093E800DF91CF91E6
:1021C0001F910F91089543E050E0BC0184E00E940C
:1021D000A8100895CF93DF93EC0148E050E0BC01D4
:1021E00081E00E94A81088E0FE01A2E7B2E0019021
:1021F0000D928A95E1F7DF91CF9108951F93CF93C8
:10220000DF93182FD0E0C0E0893311F4C0E5D0E0AF
:10221000812F0E94E80F209739F4812F0E94B30F7D
:10222000DF91CF911F9108958FE99FE00197F1F71A
:1022300000C000002197EFCF0E94CE0C2FEF84E367
:102240009CE0215080409040E1F700C0000088E110
:102250009AE00FB6F894A895809360000FBE909313
:102260006000FFCFCF93DF93C6EED0E060E0CE01F9
:102270000E94EB262196C11584E0D807B9F7DF91BB
:10228000CF9108950F931F93CF93DF93142F022FB5
:10229000843020F5623010F598E0899FE001112428
:1022A00084E0689FB0011124C60FD71FCA53DF4FC7
:1022B00082E090E0442311F090E080E0632F8C0FE7
:1022C0009D1F0E94EB2683E090E0112311F081E036
:1022D00090E0602F8C0F9D1F0E94EB26DF91CF9125
:1022E0001F910F9108951F93CF93DF93122F843086
:1022F000E0F46430D0F44530C0F4C42FD0E0CC0F0B
:10230000DD1F9AE0699FC00DD11D112498E2899FBD
:10231000C00DD11D1124632FCE0186960E94EB269D
:10232000612FCE0187960E94EB26DF91CF911F91FE
:102330000895B0E0A0E0EFE9F1E10C94062683E90E
:10234000E82E86E0F82E03EF15E0C0E05801D0E05B
:1023500015C0F401259134914D2D6D2F8C2F0E94C5
:10236000731182E0880E911CD39485E0D812F1CFCE
:102370008AE0A80EB11CDF5FD43019F04501D12CE2
:10238000E8CF6701D0E0F6012591349141E06D2F4F
:102390008C2F0E944211F60132962591349140E033
:1023A0006D2F8C2F0E94421184E0C80ED11CD130B9
:1023B00071F488E0E80EF11CCF5F085D1F4FC43058
:1023C00009F0C4CFCDB7DEB7ECE00C942226D1E003
:1023D000DACFCF93C82F6FEF811163E282E290E0F2
:1023E0000E94EB266FEFC11164E083E290E00E944F
:1023F000EB266FEFC11166E284E290E00E94EB26CB
:10240000CF91089580E00E94E91160E085E290E0BC
:102410000E94EB260E9499110E94321181E00E94D5
:10242000E9110895FF920F931F93CF93DF93F42E3A
:10243000843070F5623060F528E0829F80011124BD
:1024400034E0639FB0011124060F171F0A531F4F7A
:1024500082E090E0442311F090E080E0800F911F33
:102460000E94DD26C82FD0E0DC2FCC2783E090E04F
:10247000FF2011F081E090E0800F911F0E94DD2687
:102480009E01282BC901CDB7DEB7E5E00C942926C3
:1024900090E080E0F8CF0F931F93CF93DF938430C9
:1024A00030F5643020F5453010F5C42FD0E0CC0F66
:1024B000DD1F2AE0629FC00DD11D112438E2839FE9
:1024C000C00DD11D1124CE0186960E94DD26082F55
:1024D00010E0102F0027CE0187960E94DD2698017C
:1024E000282BC901DF91CF911F910F91089590E0A2
:1024F00080E0F8CF743048F4653070F4843060F4D4
:10250000462F672F0E944B1208957D3F41F46230A1
:1025100018F441E0843050F090E080E008957C3F72
:10252000D9F76230C8F78430B8F740E00E94121241
:102530000895CF92DF92FF920F931F93CF93DF9373
:102540006C01009134028091E101082BC3E0D0E0DE
:1025500010E0FC2EC8010C2E02C0959587950A94B8
:10256000E2F780FD0CC02197A0F7F12C8F2DDF91B1
:10257000CF911F910F91FF90DF90CF900895B601FA
:102580008C2F0E947A120E945009019761F3EECFBE
:10259000CF93DF93EC010E949912BE010E947A1240
:1025A0000E945009DF91CF910895FC0183819481AD
:1025B000892B29F08081918189238F3F51F480E01C
:1025C0000895843FE1F717C0883EA8F0813FB9F72E
:1025D00012C0808191810E94C81292959F7096309E
:1025E00099F358F4925F9F70923048F7803F19F04A
:1025F00040F7883E20F781E008959A5FF4CF82E2A9
:1026000090E00E94DD26833289F483E290E00E940C
:10261000DD26843059F484E290E00E94DD2691E0CA
:10262000863209F090E0892F8170089580E0FCCF18
:102630009091E30192FB222720F9281779F080FB83
:1026400092F99093E3016091E2017091E30184E0DB
:1026500090E00E94092782E00E945C0B08951F927F
:102660000F920FB60F9211242F933F934F935F93C6
:102670006F937F938F939F93AF93BF93CF93DF938A
:10268000EF93FF93D091E900DF708091EC00C82FA9
:10269000C17080FDC0E81092E9008091F000877F52
:1026A0008093F00078940E94E40C1092E9008091ED
:1026B000F00088608093F000CD2BCF70C093E900CC
:1026C000FF91EF91DF91CF91BF91AF919F918F914A
:1026D0007F916F915F914F913F912F910F900FBE1E
:1026E0000F901F9018951F920F920FB60F92112402
:1026F0002F933F934F935F936F937F938F939F930A
:10270000AF93BF93EF93FF938091E10082FF09C0E5
:102710008091E20082FF05C08091E1008B7F809371
:10272000E1008091DA0080FF24C08091D80080FF12
:1027300020C08091DA008E7F8093DA008091D900EA
:1027400080FF9DC080E189BD82E189BD09B400FEA2
:10275000FDCF81E080937C0280916F02811109C0DE
:102760000E9466060E9407078091E20084608093C1
:10277000E2008091E10080FF17C08091E20080FFBD
:1027800013C08091E2008E7F8093E2008091E2008E
:1027900080618093E2008091D80080628093D800AD
:1027A00019BC85E080937C028091E10084FF2BC0FE
:1027B0008091E20084FF27C080E189BD82E189BD6C
:1027C00089B5982F917080FFFBCF8091D8008F7DC5
:1027D0008093D8008091E1008F7E8093E10080910A
:1027E000E2008F7E8093E2008091E200816080931E
:1027F000E20080917D02882309F447C084E0809341
:102800007C0280917C028091E10083FF27C080914F
:10281000E20083FF23C08091E100877F8093E10085
:1028200082E080937C0210927D028091E1008E7F95
:102830008093E1008091E2008E7F8093E20080919E
:10284000E20080618093E20042E060E080E00E946C
:10285000D5068091F00088608093F000FF91EF91A1
:10286000BF91AF919F918F917F916F915F914F91A8
:102870003F912F910F900FBE0F901F90189519BC8C
:1028800010927C0210926F0274CF8091E30087FD5A
:1028900093E090937C02B5CF78941F921FB61F925D
:1028A00011248F939F93AF93BF9380916B0290916C
:1028B0006C02A0916D02B0916E020196A11DB11D36
:1028C00080936B0290936C02A0936D02B0936E02A2
:1028D000BF91AF919F918F911F901FBE1F90189530
:1028E0009C014FB7F89480916B0290916C02A0917B
:1028F0006D02B0916E024FBF821B930B08952FB7EC
:10290000F89480916B0290916C02A0916D02B0914D
:102910006E022FBF08950F931F93CF93DF93C62F9F
:10292000D42F022FFC0182818823A9F060938802B2
:102930000E947F149093870280938602C77081E083
:1029400001C0880FCA95EAF70E94A90FDF91CF91C5
:102950001F910F91089580918802681332C0809171
:102960008602909187020E947014883C910548F578
:1029700010E21D0FCD17B9F080E28C0F883040F4C3
:10298000C77081E001C0880FCA95EAF70E94A20FC4
:10299000183048F481E09D2F977001C0880F9A95F8
:1029A000EAF70E94A90F802F0E94FE10183070F6DF
:1029B000D77081E001C0880FDA95EAF70E94A20F74
:1029C000C5CFC77081E001C0880FCA95EAF7F6CF7E
:1029D000A8E0B0E0EEEEF4E10C9402268C01DC01FC
:1029E00013968D919C911497892B39F08C911196A7
:1029F0009C9189238F3F09F00BC52896E0E10C9448
:102A00001E260E949912F82E682F89819A810E94B1
:102A1000120B69817A818F2D0E947A127C01F80154
:102A20002281222309F464C19A9581159F4408F0FC
:102A300077C0C7019927AC01445051094432510570
:102A400018F08B970E9780F4E091F001F0E0EE0F14
:102A5000FF1FEB50FE4F808191818F3FAFE79A07B8
:102A600019F0019691838083C701975780389105AB
:102A700008F010C5BFE0BE1508F492C08FEF93E0D8
:102A80000E94DD2681118CC066EEA62EB12CE110CD
:102A900051C0FE01339686E0DF011D928A95E9F769
:102AA0005AE0452E7501BFEFEB1AFB0AC5010E94E3
:102AB000DD2689831A82882309F472C0813009F0E7
:102AC00082C06501E2E0CE0ED11CC7010E94DD2666
:102AD0008A83882309F464C09FEF980F9330C0F570
:102AE000F3E0AF0EB11CC6010E94DD268B83882364
:102AF00009F456C01C82DE0111967D01F701208188
:102B0000222381F2213009F09EC09181828191308F
:102B100009F05BC0F2E0EF0EF11C0E94FE105CC0F9
:102B200090E080E03FEFE316F10411F008F083CF6E
:102B3000C70181CFA114E4E0BE0691F1C5010E9456
:102B4000DD26811101C0EA94FFEFAF1ABF0A9FCFC3
:102B50005601843081F642E0E42EF12C56012FEF2D
:102B6000A21AB20AC6010E94DD26E1E0F0E0EC0FF5
:102B7000FD1FEE0DFF1D8083882391F08C3741F4FB
:102B8000E2E0F0E0EC0FFD1FEE0DFF1D1082B3CF71
:102B90003FEFE31AF30A650187E0E816F104F1F666
:102BA0008091CE01877009F428CFD80112968C91BC
:102BB000882309F422CF8091E30182FF1ECF82E0B7
:102BC0000E945C0B1ACF570196CF923049F422E055
:102BD000E20EF11C0E94E80FEFEFEE1AFE0A8ECF14
:102BE000933031F432E0E30EF11C0E94B30FF4CFC6
:102BF000943021F08FEFE81AF80AEECF92E0E90E58
:102C0000F11C30E020E0B7016F5F7F4FD7011196D4
:102C10004C918053990B8A30910550F02150310925
:102C2000D8F2EFE9FFE03197F1F700C00000F6CFEE
:102C3000429EF001439EF00D11249C012E0F3F1F78
:102C4000842F7B01E0CFE22FF0E0E059FE4F54905B
:102C5000822F86958695869590E0FC01E05AFE4F7E
:102C600064902770712C022E02C0759467940A94A8
:102C7000E2F731E063227724FC01E05BFE4F8490B1
:102C8000912C022E02C0959487940A94E2F7A1E059
:102C90008A229924FC01E05CFE4FC490D12C02C032
:102CA000D594C7942A95E2F7B1E0CB22DD246114D4
:102CB000710419F081EE0E94E80F8114910419F05B
:102CC00086EE0E94E80F852D0E94FE10811491046B
:102CD00019F086EE0E94B30F6114710419F081EEB1
:102CE0000E94B30FC114D10409F476CF8CE215CF42
:102CF000FC01E851FC47E730F10508F0B4C3E55D9D
:102D0000F84D0C94982626E241EE61EEC8010E942F
:102D10008B1446CF27E245EE65EEF8CF26E241EE72
:102D200060EEF4CF27E245EE64EEF0CF26E241EE0E
:102D300062EEECCF27E245EE66EEE8CF28E241E016
:102D4000EBCF8091E20181608093E20195C0809198
:102D5000E30188608093E3018FC08091E20182608B
:102D6000F3CF8091E2018460EFCF8091E20188602F
:102D7000EBCF8091E3018160EDCF8091E301826030
:102D8000E9CF8091E2018061DFCF8091E201806232
:102D9000DBCF8091E2018064D7CF0E94CE0C80917E
:102DA000E2018068D1CF8091E2018C60CDCF80912B
:102DB000E3018360CFCF8091E2018E7FC5CF809108
:102DC000E301877FC7CF8091E2018D7FBDCF8091E6
:102DD000E2018B7FB9CF8091E201877FB5CF8091EF
:102DE000E3018E7FB7CF8091E3018D7FB3CF8091D8
:102DF000E2018F7EA9CF8091E2018F7DA5CF8091E6
:102E0000E2018F7BA1CF0E94CE0C8091E2018F77EF
:102E10009BCF8091E201837F97CF8091E3018C7FEC
:102E200099CF8091E20182FB992790F921E09227C6
:102E300090FB82F990FB83F987CF8091E301982F73
:102E4000909591708E7F892B90FB81F983CF909123
:102E5000E201892F8F7B96FF806476CF0E94CE0C93
:102E60009091E201892F97FB87F980586DCF61E03F
:102E70008EE090E00E94EB266091E2017091E30108
:102E800084E090E00E9409270E94CE0C89CE60E089
:102E9000EFCF9091E201892F8F7E94FF806154CF14
:102EA0009091E201892F8E7F90FF81604DCF9091AC
:102EB000E301892F877F93FF88604CCF85E3DCC2D5
:102EC000F7E7EF16FCE7FF0609F46CC038E7E316F6
:102ED0003CE7F30609F46DC0222399F083E0E8167D
:102EE0008CE7F80609F490C008F06FC0E114ACE775
:102EF000FA0609F47CC0B1E0EB16BCE7FB0609F466
:102F000089C0F8018281E080F180882309F490C0B3
:102F1000C7010E949912D82E682FC7010E94120B78
:102F2000B7018D2D0E947A120E9450097C01882ED3
:102F3000D8011296DC9012971596BC90B2943FE09F
:102F4000B3228091CE018770F1F0AD2CDD20E1F04D
:102F50008F2D807F803451F080E28E0D883098F084
:102F6000B11004C08F2D807E803269F08091E30122
:102F700082FF09C082E00E945C0B8091CE018770C5
:102F8000AA24A3948111A12C9F2C92942FE0922229
:102F9000BBE0B91508F4BBC0E92DF0E0EE5CF84DDC
:102FA0000C94982681E0211108C081E00E944F0B0B
:102FB00006C0222309F497C282E00E94780B43E006
:102FC00062E081E00E942F0BEBCDEBE5EE16ECE723
:102FD000FE0661F1FCE5EF16FCE7FF06E9F02AE5E5
:102FE000E2162CE7F20609F08CCF81E01CC00E94AB
:102FF000CE0C3FEF84E39CE0315080409040E1F7FD
:1030000000C000000E94C4076FEF7FEF90E080E0F7
:103010000E9409270E941C118091E30182FB8827EE
:1030200080F991E089270E9418136BCF80E0FBCFD5
:10303000C7010E94CC0AD82E73CFEF2DEF70CE2E91
:103040008F2D807F19F0C29490EFC922DD20B9F056
:10305000CC2069F080E28E0D883010F0811009C01C
:1030600080913202C82AC09232020E94910C8E2DA9
:103070004CC08091D701C82AC092D701F6CF8E2DBF
:103080000E94B30FCC2009F442C080E28E0D88303C
:1030900010F0811004C08C2D0E94740A06C0C094E8
:1030A0008091D701C822C092D7010E94910C2FC0F5
:1030B000FF2DFF70CF2E8F2D807F803219F0C294AC
:1030C00080EFC822882089F021E0821609F46CC0C4
:1030D000DD2009F476C0BB2009F46CC0F8018581BD
:1030E00080FFC5CF8F70858365C02091E30122FDED
:1030F00034C0DD2061F1CC2039F080913202C82A41
:10310000C09232020E94910C80E00E94E80FA92D2B
:10311000A850BB0B149710F40E944508AA2009F48C
:103120006CCC8091CE0180FD68CCF801128285952F
:10313000859585950E94780BC8010E94E8148091BE
:10314000CE018595859585950E944F0B56CC80E0E4
:103150000E94B30FCC20D9F29ECFDD2099F0909140
:103160003302892F8C29B11003C00E94A90FCFCF41
:1031700031E0B312FACF22FFCACF981741F2809301
:103180003302C5CFB11006C00E946E0A8C2D0E947A
:10319000A20FBDCF81E0B81609F4B9CF8C2D0E94E3
:1031A000A20F0E946E0AB3CFDD2031F092E09B1592
:1031B00008F4ADCF8C2DD9CFA1E0AB1508F4A7CF83
:1031C000E5CFBB2019F3F9E38F1209C02FEF37EEDB
:1031D00083E0215030408040E1F700C000008E2D98
:1031E0000E94B30F94CF8F2D86958695837061F0E2
:1031F000813009F08CCFC7019370D11002C080E0FC
:1032000090E00E94FB0783CFC7019370D11002C0EA
:1032100080E090E00E9420087ACF8F2D837091F596
:10322000D11075CF4E2D429546954770440F440FEF
:103230008E2D8F70042E01C0880F0A94EAF72E2D70
:103240002071E4FE07C02FE030E001C0220F4A9554
:10325000EAF720953F2D369536953370323069F078
:1032600050F44091E101313029F0822B84230E94F7
:10327000840B4DCF842B822BFACF282B8091E10138
:103280008227F5CF8695DD2011F08F2D8170882360
:1032900009F43DCF4E2D429546954770440F440F9B
:1032A0008E2D8F70042E01C0880F0A94EAF72E2D00
:1032B0002071E4FE07C02FE030E001C0220F4A95E4
:1032C000EAF720953F2D369536953370323069F008
:1032D00050F440913402313029F0822B84230E9433
:1032E0002C0B15CF842B822BFACF282B8091340204
:1032F0008227F5CF9F2D9F70F92EDD2029F0892F91
:103300000E94780B8E2D31CF8E2D0E94A20F8F2D13
:103310000E944F0BFCCE8E2DA2EF8A16B1F1A8159C
:1033200070F0B0EF8B16D1F0E1EF8E1691F0DD204A
:1033300009F45EC0B1109BCE8F2D8F712AC0F3EFC0
:103340008F1651F124EF8212F2CF8091E30182FDBA
:103350002FC08F2D8F71DD20D9F21BC0DD2081F0B1
:1033600031E03B1508F4D3CE2F2D2F7181E090E092
:1033700001C0880F2A95EAF7909134028927AFCFD0
:1033800082E08B1508F4C3CEEFCF8F2D8F71D11053
:10339000BFCF0E94780BBBCE80E0DD2009F49FCF29
:1033A0009F2D9F7181E001C0880F9A95EAF797CF12
:1033B000DD2099F09F2D9F71F92E892F0E94780BA7
:1033C0008091E30182FF07C0A8E0FA9EC0011124AA
:1033D00083608093CE018F2DDCCF81E00E945C0B57
:1033E000B1E0BB1508F093CE82E00E945C0B8FCE5B
:1033F000BB2059F0893309F0F2CEEFEFF7EE23E06E
:10340000E150F0402040E1F7E8CE8F2D8F7180CF62
:1034100085E0F801DE01119601900D928A95E1F7A1
:10342000D80112962C9189819A812111EACA0E94B1
:10343000CC0AF82EEECAB6E1EB16BCE7FB0609F0A3
:103440003FCD809132028A7A91E009F490E0909326
:10345000890169E2811165E380E891E00E94E1075A
:103460000E94910C9DCB8631ECE79E0799F58091E7
:103470008901811123CD89E2E2E8F1E028E831E019
:103480009191891303C0DF0111971C922E173F07FA
:10349000B9F7E6CFF701E851FC47E730F10508F44A
:1034A0002ECC10928802C7019057839720F684E0B3
:1034B00090E00E94E5269093E3018093E201F701FA
:1034C000E150F047E232F10508F03BCCE25CF84D08
:1034D0000C9498268737FCE79F0709F466CD883758
:1034E0009C4709F00ECD82E061CD1F93CF93DF930F
:1034F00080919B01807F09F04BC0809198018823C7
:1035000009F446C08091CD01C0919C014091960183
:10351000509197016091990170919A01D42FD52310
:1035200016E0C817A9F190E061157105A9F1DF3F18
:1035300099F1189FF001199FF00D1124DF01A35696
:10354000BE4F11962C911197251326C02C91241350
:1035500023C012962C91129721111EC013962D9103
:103560003C91261B370B283C3105B0F480919B0120
:103570008F70806180939B01EE55FE4F80818F702C
:103580008061808386E991E00E94E8140E949B0A92
:10359000DF91CF911F91089501968770C2CFA1E16D
:1035A000B0E0E5EDFAE10C9406268C0185E0F80127
:1035B000DE011D9601900D928A95E1F7F801E280F7
:1035C00086E9882E81E0982E4091990150919A01C8
:1035D0004115510509F430C1909196012091970150
:1035E000892F82238F3F09F427C1D080C180A38017
:1035F000B480F0909801B501641B750BFF2009F4AD
:10360000E7C080919B01382F307F683C710508F03E
:10361000ABC0311178C0FE2C2C1114C09D1112C00A
:10362000E11010C08F70806180939B01C4010E94E3
:10363000E81480919B01F80185838F2D6196ECE061
:103640000C942226A114B104C9F18D2D8C218F3F39
:10365000A9F181E08E2580FF05C04E2D6C2D8D2DAA
:103660000E947B0AA114B10459F18D2D8C218F3F4A
:1036700039F181E08E25F82FF170BF2E80FF39C01F
:103680004E2D6C2D8D2D0E947B0AA82E811131C0EC
:10369000DD86CE868D859E850E94C812292F2295B3
:1036A0002F70243078F49F702230A8F09923B9F05D
:1036B000F8019581907F99F4FA2CBFCF80E0CBCFB1
:1036C00080E0D9CF2A5F2F70223068F0C8010E94B5
:1036D000E814AB2CF1CF992311F0882369F3805EB5
:1036E000883050F3F3CF803F38F3815F833070F739
:1036F000E3CFEE2009F4A1CF80919B0181608093FC
:103700009B01F12C9ACF2C1105C09D1103C0EE2016
:1037100009F477C0C8010E94D512882309F1EE2070
:10372000F9F080919B01803270F0209196013091E8
:10373000970138872F831986BB86AA868C87CE018E
:1037400007960E94E81486E0F801A6E9B1E001902E
:103750000D928A95E1F70E94751AFF24F3946DCFBC
:10376000C8010E94E814F9CF31110AC086E991E03E
:103770000E94E81486E0F40111928A95E9F7C1CF1E
:103780002C110EC09D110CC0E1100AC08583C80128
:103790000E94E81486E0F40111928A95E9F74DCF72
:1037A000C8010E94D5128823D9F2EE20C9F2809177
:1037B0009B01803240F220919601309197013A832B
:1037C00029831B82BD82AC828E83CE010196B9CF44
:1037D000683C7105F8F6FE2CEE2011F22C111EC08B
:1037E0009D111CC080919B0180FD0FC0982F907F80
:1037F00061F08583903F31F0982F907F905F8F70BC
:10380000892B8583C8010E94E81486E0F801A6E9A7
:10381000B1E001900D928A95E1F70FCFC8010E94A7
:10382000D512811190CF80919B01816080939B0183
:10383000C8010E94E81401CFEE2009F491CFC8011D
:103840000E94D512F82E882309F48ACF86E0F80169
:10385000A6E9B1E001900D928A95E1F78091960179
:10386000909197010E94C8120E94751AE6CEA7E1B6
:10387000B0E0EDE3FCE10C940F264B8B5C8B6D8B81
:103880007E8B8F8B61111092D7011A8A198A85E07D
:10389000FE017396DE011D9601900D928A95E1F767
:1038A00086E0FE013D96DE01179601900D928A9505
:1038B000E1F7CE0107960E94CF1A882359F016E04F
:1038C0008091CD0190919C01891343C06796E3E0FC
:1038D0000C942B2686E0FE013796DE0111960190AE
:1038E0000D928A95E1F78A859B85892B41F38F811B
:1038F000988589238F3F19F320919C0130E0C901FD
:103900000196877099274091CD014817190671F4E7
:103910000E94CE0C10929C011092CD0186E0E6E947
:10392000F1E0DF011D928A95E9F7C9CF96E0929FF9
:10393000D001939FB00D1124A356BE4FFE013196C6
:1039400001900D929A95E1F780939C010E949B0A49
:10395000B6CF819FC001112483569E4F0E94CF1A7B
:10396000882309F4B3CF8091CD0190E00196877050
:1039700099278093CD01A4CFA4E0B0E0E2ECFCE174
:103980000C94092619821A821B821C828AE4C82E92
:1039900081E0D82E10E000E0EE24E394F12CF60153
:1039A00081916F018F3F09F446C0F894E82FE295AA
:1039B000EF70F0E021A18F70A70102C0440F551FE6
:1039C0008A95E2F7CA01922F982B91A392A1809534
:1039D000892382A3789400C0EEE4F1E0B12C31E0B9
:1039E00021912F3F09F473C0A22FA295AF70B0E0D0
:1039F00090968C9190E02F7002C0959587952A95AE
:103A0000E2F780FD64C0832FB82A330F51E0E3351D
:103A1000F50731F7F601319780818F3F11F00E9451
:103A2000540880EA8A95F1F7E1E0F0E0EC0FFD1F21
:103A3000E00FF11FB0820F5F1F4F0430110509F036
:103A4000AECF44E050E0BE016F5F7F4F8DED91E05F
:103A50000E94D026892BE9F189819A81AB81BC81B2
:103A60008093DD019093DE01A093DF01B093E0012C
:103A700081E08093DC010E947F149093DB018093AE
:103A8000DA018091DA019091DB010E9470140597B0
:103A900020F144E050E06DED71E08AE592E00E9493
:103AA000D026892BF9F08091DD019091DE01A09163
:103AB000DF01B091E00180935A0290935B02A093E2
:103AC0005C02B0935D0281E01092DC0107C080E0EF
:103AD0009BCF8091DC018111D4CF80E02496E9E076
:103AE0000C94252680E0F0CFA5E0B0E0EAE7FDE108
:103AF0000C940E260E947F148C018091D801909125
:103B0000D90180179107A1F08FEF89838A831B82E7
:103B10000E947F148160782F9D838C8349815A8114
:103B20006B818D810E94371C1093D9010093D801BD
:103B30002596E4E00C942A261F921FB61F921124AA
:103B40008F939F93AF93BF9380916A02811113C0AB
:103B500080916B0290916C02A0916D02B0916E0207
:103B60004196A11DB11D80936B0290936C02A093AE
:103B70006D02B0936E02BF91AF919F918F911F9094
:103B80001FBE1F901895CDB7DEB7EC970FB6F8940F
:103B9000DEBF0FBECDBF85B7806885BF85B78068A3
:103BA00085BF84B7877F84BF0FB6F894A8958091AE
:103BB0006000886180936000109260000FBE80E812
:103BC00090E00FB6F89480936100909361000FBE6F
:103BD00082E598E090937F0180937E010E946606C3
:103BE0000E9407078091E20084608093E20078944D
:103BF00080917C028823A1F01091E9001F709091C0
:103C0000EC00892F817090FD80E8182B1092E9005C
:103C10008091E80083FD0E94E40C1F701093E9007E
:103C200082E084BD93E095BD9AEF97BD80936E00CE
:103C30000E94FF12811102C00E94021282E0809352
:103C40002B0245E651E093E6892E91E0992E27E676
:103C5000E22E21E0F22E84019A0161E070E0D901A8
:103C60008D919D01E82FE295EF70F0E0B1A08F708B
:103C70006B0101C0CC0C8A95EAF79C2D90959B2195
:103C800091A382A18C2982A3F80181918F01E82F51
:103C9000E295EF70F0E0B1A08F706B0101C0CC0C29
:103CA0008A95EAF79C2D90959B2191A382A18C295E
:103CB00082A3EA16FB0699F68FE891E00197F1F7E7
:103CC00000C0000010912B026CE272E0FB018E2F0D
:103CD000861B811708F4BDC084EF0E94540885EF4D
:103CE0000E94540886EF0E94540887EF0E945408EF
:103CF0000EE411E083E5E82E81E0F82EF8018191D1
:103D00008F018F3F11F00E945408E016F106B1F7C1
:103D100084E0EAE5F2E0DF01282F1D922A95E9F719
:103D2000EDEDF1E0DF011D928A95E9F790E080E08A
:103D30000E94E526873E9E4F21F40E94FF128111CA
:103D400061C067EE7EEF90E080E00E94092760E0AE
:103D500082E090E00E94EB2660E083E090E00E9429
:103D6000EB261092E10160E074E184E090E00E94B3
:103D7000092760E086E090E00E94EB266FEF87E085
:103D800090E00E94EB2640E050E0BA0188E090E02D
:103D90000E94FD2660E08DE090E00E94EB2640E06E
:103DA00050E0BA0188E190E00E94FD2660E087E1E2
:103DB00090E00E94EB2640E050E0BA018CE190E0F8
:103DC0000E94FD2670E060E080E290E00E940927FA
:103DD00040E050E0BA0188E190E00E94FD2680E0DA
:103DE0000E94E9110E94021240E050E0BA018FE007
:103DF00090E00E94FD2640E050E0BA0183E190E0AF
:103E00000E94FD2682E090E00E94DD268093E4017E
:103E100084E090E00E94E5269093E3018093E20124
:103E20000E94BC1CEFEFF6E721E0E150F04020409B
:103E3000E1F700C000000E94BC1C80915A0280FF84
:103E400031C06FEF7FEF90E080E00E9409270E9471
:103E5000C407DA012D91AD01822F82958F7090E019
:103E6000DC0190968C9190E02F7002C0959587951B
:103E70002A95E2F78170D4019D914D01292F229559
:103E80002F7030E0D90190962C9130E09F7002C0E5
:103E9000359527959A95E2F790E020FD92E0892BE1
:103EA000819315CF83E090E00E94DD260E94840B71
:103EB00083E08093570280E2809389020E9400256C
:103EC0006DE070E083E092E00E943B10892BE9F501
:103ED0008091570263E070E081FD9EC080E092E037
:103EE0000E943B10892B89F56DE070E080EF91E036
:103EF0000E943B10892B49F50E94D507605A7541F5
:103F00008F4F9F4F60935E0270935F0280936002B9
:103F100090936102ECE8F2E080E092E0DF019C0126
:103F20001D9221503040E1F7F0939304E093920406
:103F30008FEF9FEF90938B0280938A0281E08093B2
:103F40006302809362021092580280E091E09093A5
:103F50006702809366028AE592E034E0380F3AAF58
:103F600080917C0210E4F12E00E112E1853009F429
:103F70008DC00E94BC1CA5EEAA2EA1E0BA2EBAE507
:103F8000CB2EB2E0DB2E29EE31E0D601F501919186
:103F90008D912E173F0709F483C09817C1F310E0E5
:103FA000D6010D916D01F50181915F01801721F11D
:103FB000782E7026F12CEE24E394872D8E21A1F02B
:103FC000FDAA1EAB91E0802F8E2109F490E09FABFB
:103FD0000E947F148160782F99AF88AF4DA95EA9A8
:103FE0006FA989AD0E94371CF394EE0CF5E0FF1227
:103FF000E4CFF501319700831F5F143089F60E94EA
:10400000D50760932E0270932F0280933002909315
:1040100031023324339449C08DEF91E061CF809118
:104020007C02843029F10E94651010926A0288E1B6
:1040300090E00FB6F894A895809360000FBEF092C0
:10404000600083B7817F846083BF83B7816083BF53
:104050007894889583B78E7F83BF0FB6F894A89520
:1040600080916000886180936000109260000FBEB4
:1040700080917B02882351F00E94BC1CEAE5F2E0AB
:10408000819181119EC49AAD9E13FACF80917C02DA
:10409000853009F4C4CF0E94CE0C0E94450869CF38
:1040A00098137DCF0E94741D312C4090F5015090E3
:1040B000F601052C000C660877088091080190E055
:1040C000E5EFF1E021E030E03296821793070CF043
:1040D00048C18091F1019091F201A091F301B0915A
:1040E000F4016FB7F894C0906B02D0906C02E0902E
:1040F0006D02F0906E026FBFC81AD90AEA0AFB0A75
:104100001091080129ECC216D104E104F10414F164
:104110008091F00190E0019669E170E00E944326F1
:104120008093F001880F991FFC01EB50FE4F118224
:104130001082812F183108F087E18F5F809308018A
:104140000E94D5076093F1017093F2018093F3010F
:104150009093F40132E043165104610471040CF4AD
:104160000DC1A0E6BAEEA30192010E94A5262B0183
:104170003C0168EC169F90011124032E000C440BA7
:10418000550B2C0D3D1D4E1D5F1DA5E0B0E00E949E
:10419000A5269B01AC01C301B2010E94572629014B
:1041A0003A0181EF48165104610471042CF0E0EFEC
:1041B0004E2E512C612C712C8091EC019091ED01CF
:1041C000A091EE01B091EF012FB7F894C0906B026F
:1041D000D0906C02E0906D02F0906E022FBFC81A72
:1041E000D90AEA0AFB0A95E6C916D104E104F104EA
:1041F00084F00E94D5076093EC017093ED018093E9
:10420000EE019093EF018091EB018093EA014092DF
:10421000E9011091EA01A091E901A11BBB0BA701E3
:1042200096010E94B02624E630E040E050E00E9473
:104230007926120F1093EB01C12CD12C54E0A52E3E
:10424000B12C6DEF762E662463947CEF572E80910F
:104250002B02C81608F496C0D1100E94D507809191
:104260006302882309F445C08CE892E0909393049C
:104270008093920480902E0290902F02A0903002A2
:10428000B09031022FB7F89480916B0290916C023C
:10429000A0916D02B0916E022FBF88199909AA09E9
:1042A000BB0981369A4EA105B10508F40CC10E94E4
:1042B000651080918A0290918B02892B09F074C15C
:1042C000809162028823A9F00E94D50700915E02C6
:1042D00010915F022091600230916102601B710BAE
:1042E000820B930B6F3F7F4F8F4F9F4710F40E94BD
:1042F0006510311001C0D1100E9480100E94450845
:1043000090915902891721F0809359020E94D50794
:1043100080917C02843009F023CE83E08093E90011
:104320008091E80082FF1CCE8091E80090E085FF3C
:1043300006C00E948506882309F411C291E080918D
:10434000E8008B778093E800992309F409CEE9818E
:10435000E150E53108F02AC2F0E0E05AF84D0C9443
:10436000982640815181052E000C660B770B440E78
:10437000551E661E771E2F5F3F4FA6CE412C512C37
:1043800032011ACF0C2D10E0F801EB59FE4F80815D
:10439000E82FE295EF70F0E0E0A1F0E08F7002C04E
:1043A000F595E7958A95E2F7E170D801AD59BE4FD2
:1043B0002C91A22FA295AF70B0E090968C9190E0D6
:1043C0002F7002C0959587952A95E2F780FD79C0F8
:1043D00080E08E2BD801A45DBD4FEC919E2F937091
:1043E000891709F46CC0EE0FEE0FE82BEC93EF7019
:1043F000F0E0ED5AFE4FD801A75DBD4F7D018081F1
:104400009C91890F8C9320E084302CF1F801E95DB8
:10441000FD4F80818F5F80830E947F14CBA65CA6B6
:104420006DA68160782F9FA78EA74C2D5CEF61E071
:104430008FA50E94371C0E947F14C8AA59AA1AAAE5
:104440008160782F9CAB8BAB4C2D5CEF60E08CA92E
:104450000E94371C21E0F70180818D3F2CF5F80187
:10446000E95DFD4F8081815080830E947F14C9A245
:104470007AA26BA28160782F9DA38CA34C2D5DEF57
:1044800061E08DA10E94371C0E947F14CEA27FA202
:1044900018A68160782F9AA789A74C2D5DEF60E060
:1044A0008AA50E94371C21E0D7018C91082E000CB0
:1044B000990BB5010E944326F7018083D22AC39449
:1044C000C6CE82E086CF80913502909136020E945E
:1044D0007014893C910508F4ECCE0E947F149093EF
:1044E0003602809335028FB7F89440906B0250905B
:1044F0006C0260906D0270906E028FBF109133025B
:1045000080913202182B8FE192E00E94830C8DE1A2
:1045100092E00E94830C80913402882301F180FD97
:104520001EC080E192E00E94830C8091890228E005
:10453000829FC0011124811532E0930714F090E0AE
:1045400080E084579D4F9093930480939204812F31
:10455000827241F08FE295E00E94870BAACE87E13C
:1045600092E0E1CF0E94450881FDF4CF1D7D8FE6EA
:1045700094E091F7481859086A087B088FEA93E09D
:1045800060E9461661E056066104710428F380E490
:10459000481686E058066104710418F48FEE92E024
:1045A000DBCF8FE292E0D8CF80916302882309F4B9
:1045B00087CE80915802811183CE0E948010209175
:1045C0008A0230918B022115310509F479CE80E001
:1045D00041E050E0082F10E07A01082E02C0EE0CF6
:1045E000FF1C0A94E2F7B9016E217F21672B11F4B9
:1045F0008F5FF0CF9091570290FF98C0880F880F7F
:10460000880F80930B0110920E01895F80930C013B
:1046100083E080930F0124E630E047E050E069E05A
:1046200071E088E70E94A025892B09F049CEA801F6
:1046300095E0440F551F9A95E1F78091570280FF4E
:1046400087C0E7E3F2E080E2DF011D928A95E9F797
:10465000EBE6F1E0FCAFEBAF07E611E087E0282ED8
:1046600099249394ABADBCAD8D91BCAFABAFF801C9
:1046700021918F01240F352F311D24573D4FE82FF5
:10468000F0E0E95CFD4F90E080E0522C581A692C74
:10469000082E01C0660C0A94EAF75901712CD50165
:1046A000CD905D01C620652D67196770462E062ED8
:1046B000000C770BBC2D01C0BB0F4A94EAF7719533
:1046C000619571096770772701C0C6946A95EAF70A
:1046D000CB2A6081462E4C284082739468E0761283
:1046E000DECF019631968830910579F68BAD9CAD81
:1046F0008F56914009F0B6CF04E610E020E230E09A
:1047000047E352E060E488E70E94C125892B09F065
:10471000D7CDE094F09480918A0290918B02E822A8
:10472000F922F0928B02E0928A02CACD8295880F1C
:10473000807680930B0198013695279536952795BD
:1047400020930E01815E80930C0110920F0163CFC4
:1047500044575D4F04E610E020E230E0D3CF00E2A2
:1047600010E0FE0131967F018091E80085FD0AC0CE
:104770008091E8008B778093E8000E94850688236B
:1047800099F3DCCD8091F100D7018D937D0101502B
:10479000110951F7D3CD1A828CE08B831BC08A811B
:1047A000823009F424C128F4813061F08FEF8983CD
:1047B00011C08330C1F08430C9F71B821C821D8276
:1047C0001E8208C00E94D5070E949E266B837C83B0
:1047D0008D839E8340E250E0BE016F5F7F4F82E099
:1047E0000E94A810BDCB2B81822F90E0FE01349651
:1047F000245E8430910570F7DC01A65ABD4F3C91D0
:10480000319301962813F5CFE5CF8A81823019F0D4
:10481000853001F3CBCF6B817C818D819E810E949D
:104820009E2685E290E00E94EB26D4CF4C816B81DE
:104830008A810E944B129827892798279E838D830F
:10484000C9CF2D813E813227232732274C816B81AE
:104850008A810E947311BECF0E949911BBCF80E163
:104860008A83B8CF83E08A838AE197CFEA80FB808E
:10487000FE24EF24FE248E010F5F1F4FCC80C00E5C
:10488000D12ED11CC7018A519F4F0C151D0509F46B
:10489000A1CFBAE1EB16B3E0FB0650F40E94DD268F
:1048A000F8018483BFEFEB1AFB0A0F5F1F4FEACFBB
:1048B000D80114961C92F6CF0A811B81102701277C
:1048C0001027FE0131966F01EC80E00EF12EF11CF5
:1048D000C8018A519F4FE016F10609F47BCF0A31D7
:1048E000F3E01F0728F4D60114966C910E94EB2682
:1048F000BFEFCB1ADB0A0F5F1F4FEACF0E943211C6
:1049000069CF84E0ADCFEA80FB80FE24EF24FE2453
:104910008E010F5F1F4FCC80C00ED12ED11CC7015E
:1049200086960C151D0509F455CFE0EAEE16F10444
:1049300058F40E94DD26D80114968C93FFEFEF1AED
:10494000FF0A0F5F1F4FEBCFF8011482F7CF0A81E8
:104950001B811027012710279E012F5F3F4F690100
:10496000EC80E00EF12EF11CC80186960E151F0595
:1049700009F430CF003A110528F4D60114966C9151
:104980000E94EB26BFEFCB1ADB0A0F5F1F4FECCF65
:1049900041E08C81811101C040E06B818A810E94DD
:1049A000121249CF2D813E8132272327322741E041
:1049B0008C81811101C040E06B818A810E9442118B
:1049C00009CF09BD19BD09B400FEFDCF8091D80003
:1049D0008F7D8093D8008091E00082608093E0001A
:1049E0008091E00081FDFCCF0E94CE0C4FCB85E290
:1049F00090E00E94DD261B821C821D828E83EACEFF
:104A00001092B9008CE08093B8000895B0E0A0E067
:104A1000ECE0F5E20C940726B82EEB010E947F141F
:104A20006C01EE24E394F12CC431D10560F025E053
:104A3000E22EF12CCF3FDC0731F0CE0164E170E0D3
:104A40000E94EC257B0184EAA82E94E8992E10920E
:104A5000BC00A092BC000E947F148C018091BC001D
:104A600087FF0DC08091B900887F8830F9F0809170
:104A7000B900887F8031D1F00FEF1FEF08C0C80167
:104A80000E947014E816F90648F70EEF1FEFCF3FAB
:104A9000DC07E9F2C6010E947014C817D907B8F6FE
:104AA000C801CDB7DEB7EBE00C942326B092BB0073
:104AB0009092BC000E947F148C018091BC0087FF03
:104AC0000AC08091B900887F883111F08034A1F646
:104AD00010E000E0E5CFC8010E947014E816F90666
:104AE00060F7D3CF0F931F93CF93DF93EB018093A6
:104AF000BB0084E88093BC000E947F148C018091ED
:104B0000BC0087FF11C02091B900287F81E090E0B0
:104B1000283211F490E080E0919581959109DF9120
:104B2000CF911F910F910895CF3FDC0741F3C8014A
:104B30000E947014C817D90710F78EEF9FEFEFCFC0
:104B4000B0E0A0E0E6EAF5E20C940A266B018A01E7
:104B50007901B9010E940625E6010C0D1D1DC01743
:104B6000D10711F097FF08C024E92093BC00CDB70E
:104B7000DEB7E8E00C942626B70189910E947225E1
:104B8000EECFB0E0A0E0E7ECF5E20C940A26C62FE9
:104B90006A017901B8010E94062597FD0CC0B80191
:104BA0008C2F0E947225E601EC0CFD1CCE15DF0552
:104BB00011F097FF08C024E92093BC00CDB7DEB701
:104BC000E8E00C942626B80189910E947225EECF68
:104BD00084E98093BC000895AA1BBB1B51E107C068
:104BE000AA1FBB1FA617B70710F0A61BB70B881F7D
:104BF000991F5A95A9F780959095BC01CD0108950C
:104C00002F923F924F925F926F927F928F929F92DC
:104C1000AF92BF92CF92DF92EF92FF920F931F93CA
:104C2000CF93DF93CDB7DEB7CA1BDB0B0FB6F8947B
:104C3000DEBF0FBECDBF09942A88398848885F84BB
:104C40006E847D848C849B84AA84B984C884DF802C
:104C5000EE80FD800C811B81AA81B981CE0FD11D10
:104C60000FB6F894DEBF0FBECDBFED010895991BBE
:104C700079E004C0991F961708F0961B881F7A9553
:104C8000C9F78095089597FB072E16F4009407D076
:104C900077FD09D00E94EC2507FC05D03EF49095E5
:104CA00081959F4F0895709561957F4F0895A1E27A
:104CB0001A2EAA1BBB1BFD010DC0AA1FBB1FEE1F96
:104CC000FF1FA217B307E407F50720F0A21BB30BE1
:104CD000E40BF50B661F771F881F991F1A9469F75D
:104CE00060957095809590959B01AC01BD01CF01B9
:104CF0000895052E97FB1EF400940E94902657FD00
:104D000007D00E94572607FC03D04EF40C9490263F
:104D100050954095309521953F4F4F4F5F4F0895E7
:104D200090958095709561957F4F8F4F9F4F089517
:104D3000EE0FFF1F0590F491E02D09946927962747
:104D4000692778278727782708950E94B826A59F86
:104D5000900DB49F900DA49F800D911D1124089576
:104D6000B7FF0C94A5260E94A526821B930B0895DD
:104D7000A29FB001B39FC001A39F700D811D11249C
:104D8000911DB29F700D811D1124911D0895FB018D
:104D9000DC0102C005900D9241505040D8F70895B3
:104DA000FB01DC0104C08D910190801921F4415078
:104DB0005040C8F7881B990B0895F999FECF92BD12
:104DC00081BDF89A992780B50895A8E1B0E042E046
:104DD00050E00C941127262FF999FECF92BD81BD8A
:104DE000F89A019700B4021639F01FBA20BD0FB629
:104DF000F894FA9AF99A0FBE08950396272F0E9405
:104E0000EC260E94EB26252F0E94EC26242F0C94E2
:104E1000EC260196272F0E94EC260C94EB26DC0151
:104E2000CB01FC01F999FECF06C0F2BDE1BDF89AB5
:104E3000319600B40D9241505040B8F70895F8945F
:104E4000FFCFC50DED0D900FED0D900F200E410E13
:104E5000900F3F0F4C0F8E16921683168A169616D9
:104E60009A169E161D181D1858185818F3188718EA
:104E7000871887180D197A198B198B19DB1650179B
:104E8000E316AD16B116E716B516EB16F716C116F2
:104E90004917C516FB16C916FF162717CD16031797
:104EA0002E17D31609171117B916EF16BD16F316DC
:104EB000D7160D171D1737174717A716DF165717E1
:104EC000CB23CF230524162421242C24D623D62318
:104ED000D623D623D6232F24322436245C247E24C2
:0A4EE00081248324A724C824D224CF
:104EEA00C107EA10C007E310010021007F22000376
:104EFA0001818283E200E900EA00B500B600B7004A
:104F0A00CD008301CC008A0192019401210223027F
:104F1A0024022502260227022A02B300B4006F00E7
:104F2A0070009F01CB019F02A002F4F5F6F76631EB
:104F3A0033323600FF0100010000FFFF00000100CC
:104F4A0001FF00359734C6000810181810080040F1
:0E4F5A0022320001DE00AC00C506DE06FE06B7
:00000001FF
