:100000000C94C7030C94E4030C94E4030C94E403F1
:100010000C94E4030C94E4030C94E4030C94E403C4
:100020000C94E4030C94E4030C9453100C940F1000
:100030000C947C1A0C94E4030C94E4030C94E403F5
:100040000C94E4030C94E4030C94E4030C94E40394
:100050000C94E4030C942C110C94E4030C94E4032E
:100060000C94E4030C94E4030C94E4030C94E40374
:100070000C94E4030C94E4030C94E4030C94E40364
:100080000C94E4030C94E4030C94E4030C94E40354
:100090000C94E4030C94E4030C94E4030C94E40344
:1000A0000C94E4030C94E4030C94E4038A03802F7F
:1000B00000848060180402028304081004200440B5
:1000C00002803E0004010402050405080410042017
:1000D000044004800400868040201008840282824C
:1000E0008100026010008201020204020202018209
:1000F000C23C56000201820F1105100209020504DC
:1001000008010B031288142422A04000031B0318CB
:10011000070084061970806D0001070508020402BB
:1001200002060102028203020504050805100520EB
:100130000540058011009803802E00858040300C1A
:100140000202018302040804100420024001800519
:1001500000028036000401040205040508041004AE
:100160002004400480030087804020100804C2025D
:10017000C182C000023082008009000280040001B8
:100180000102020201020082E11E56000201820FFA
:100190001105100208020404080109031188122243
:1001A00021A04000010D030C070084030C70806D3A
:1001B000000107050802040202060102028203028E
:1001C0000504050805100520054005801100910370
:1001D000802E0084804038040302010402080410C9
:1001E0000420024001803D000401040205040508CA
:1001F000041004200440048003008780402010087D
:1002000004C202C182C00002308200800900028064
:10021000040001010402020182E21C560002018274
:100220000F110510020802040408010903118812C5
:100230002221A04000010D030C070084030C7080F4
:100240006D00010705080204020206010202820392
:100250000205040508051005200540058011008EE3
:1002600003802E0084804030080304020805100437
:1002700020024001803D0004010402050405080439
:1002800010042004400480030087804020100804EC
:10029000C202C182C00002308200800900028004D4
:1002A00000010105028382641856000201820F11C9
:1002B0000510020802040408010903118812222112
:1002C000A04000010D030C070084030438C06D003A
:1002D0000107050802040202060102028203020568
:1002E00004050805100520054005801100970380CE
:1002F0002E00858040300C020201830204080410A5
:10030000042002400180050002803600040104023E
:1003100005040508041004200440048002008A7CBF
:100320008A01353109061AE101020002308200809B
:10033000090002800400010102020201020082E1C0
:100340001E56000401030206040408010903118675
:10035000122221A0400002010A0084030C70806C6C
:100360000082808702880308020402028231390475
:1003700079027A820302050405080510052005406C
:1003800005801100B203801C000280050004F807FC
:1003900000858040300C020201830204080410042E
:1003A000200240018005000280360004010402059D
:1003B00004050804100420824C4F025F8E9FBEBCCF
:1003C000B80001078743201008040202010200025E
:1003D0003082008009000280020002800181020256
:1003E0000201020082E11E4E00820C3C05FC857C6D
:1003F0003D010F1105100208020404080109031150
:10040000841222212002400241887C43849998056D
:100410000618020084030C708050000203010124BE
:1004200000060102028203020504050805100520EA
:1004300005400580110005010980A101850319010E
:100440002AB700150126B700950175108100C00577
:100450000C0901A101850419012AA002150126A099
:1004600002950175108100C00660FF0961A10109B4
:1004700062150026FF0095207508810209631500AA
:1004800026FF00952075089102C005010906A1010B
:10049000050719E029E71500250195087501810276
:1004A0009501750881010507190029FF150026FF30
:1004B000009506750881000508190129059505753F
:1004C000019102950175039101C000000000000038
:1004D000000000000000000000000000000000001C
:1004E00000000000000000000000000000007E0F7F
:1004F00000D4FFFFFFC700000078000000000000EC
:1005000000002A2B2800000000000000000000006E
:10051000000000000029000000002C1E34202122D1
:1005200024342627252E362D3738271E1F2021223A
:10053000232425263333362E37381F0405060708B3
:10054000090A0B0C0D0E0F101112131415161718A3
:10055000191A1B1C1D2F3130232D350405060708E1
:10056000090A0B0C0D0E0F10111213141516171883
:10057000191A1B1C1D2F3130354C00DA0281FFD9AE
:10058000F1DB20A4A62EAF00A0C000A1C800AED50C
:1005900080A81FD300408D1420009403802E008576
:1005A0008040300C0202018302040804100420027F
:1005B00040018005000280360004010402050405A4
:1005C00008041004200440048002008A7C8A01355B
:1005D0003109061AE101020002308200800900029E
:1005E0008002000280018102020201020082E11EFB
:1005F00056000401030206040408010903118412D1
:1006000022212002400241887CC384999805061863
:10061000020084030C70807700060102028203024C
:10062000050405080510052005400580110000AFF0
:1006300000AE00002400250026002A000000210052
:1006400022002300290000001E001F0020002B00B4
:10065000A800C15227003722280000000100010035
:100660000100007C000001000100010057000000B3
:100670000100010001005600597C01000100010049
:100680002E00000001000100010001000000010037
:100690000100010001000000010001000100010053
:1006A0000100010001000100010000000100010043
:1006B0000100010000000100010001000100000034
:1006C0000100010001000100010001000100010022
:1006D0000100AA00A9004B004E00AA00A9004B008F
:1006E0004E00AA00A9004B004E00AA00A9004B0032
:1006F0004E0009025B00030100A0FA09040000019A
:1007000003010100092111010001224000070581B8
:10071000030800010904010002030000000921117F
:1007200001000122220007058203200001070503C2
:100730000320000109040200010300000009211147
:10074000010001223200070584032000011201008C
:100750000200000008AFDE130901000102000110D1
:1007600003640075006D00620070006100640000A9
:1007700000160369006D006300680069007000776F
:10078000006F006F006400000004030904001124DE
:100790001FBECFEFDAE0DEBFCDBF11E0A0E0B1E0D9
:1007A000E8E1F8E402C005900D92AC38B107D9F742
:1007B00024E0ACE8B1E001C01D92AB39B207E1F72B
:1007C0000E94A31A0C94B6230C940000E8EDF0E00C
:1007D00080818E7F80831092E2001092DA00109266
:1007E000E100A0EEB0E08C9181608C9380818F77E6
:1007F000808319BCA7EDB0E08C918E7F8C938081B3
:100800008F7E80831092810408952091E4003091BE
:10081000E50095E6A9012091EC00822F817020FF70
:1008200006C08091E80080FF06C080E00895209116
:10083000E80022FD1AC080918E04882389F085305B
:1008400089F08091EB0085FD0FC02091E40030918C
:10085000E50042175307F9F29150E1F684E008955C
:1008600082E0089583E0089581E0089580919004E6
:1008700087FF13C08091E80082FF06C08091E800E6
:100880008B778093E80004C080918E048111F2CFB1
:10089000089580918E048823D9F38091E80080FF29
:1008A000F8CF8091E8008E77ECCF982F9093E900F5
:1008B000242F762F50E0891731F07091EC002091B1
:1008C000ED005091F00021FD07C09F5F973071F758
:1008D0008093E90081E008953091EB003E7F3093F2
:1008E000EB003091ED003D7F3093ED003091EB0057
:1008F00031603093EB007093EC002093ED00509347
:10090000F0002091EE0027FDE0CF80E00895B0E0F8
:10091000A0E0EDE8F4E00C94B622C8EDD0E08881C8
:100920008F7E8883E7EDF0E080818160808384E0C2
:1009300082BF81E08093810488818E7F888302EE6C
:1009400010E0F80110821092DA0081EEC82ED12C4E
:10095000F601108288818F778883888180688883F8
:1009600088818F7D888319BC10928E0410928F0429
:1009700010928D0410928C0490EEE92EF12CF70168
:1009800080818B7F808388818160888342E060E002
:1009900080E00E945504F60180818E7F8083F801FB
:1009A000808181608083808188608083F70180817D
:1009B0008E7F8083888180618883CDB7DEB7E8E051
:1009C0000C94D222FC018091960490919704861792
:1009D0009707A0F06115710529F49091E8009E77C2
:1009E0009093E80090E06115710551F4911108C0F1
:1009F0008091E80082FF34C080E00895BC01F2CF0E
:100A000080918E048823C1F18530C1F18091E80086
:100A100083FD30C08091E80082FDEACF8091E8003C
:100A200080FFE1CF8091F3002091F200382F611513
:100A3000710519F02830310558F091E02830310562
:100A400009F090E02091E8002E772093E800CBCFCA
:100A500081918093F100615071092F5F3F4FE7CF83
:100A600080918E04882341F0853041F08091E80028
:100A700083FFBECF81E0089582E0089583E008956A
:100A8000089580918304089587E797E7909301087C
:100A90008093000888E19AE00FB6F894A8958093B7
:100AA00060000FBE90936000FFCF2FB7F894609165
:100AB0007D0470917E0480917F04909180042FBF0B
:100AC00008959C01FC0132969FEF80E0419146170A
:100AD00051F09F3F19F4411101C0982F8F5F86306C
:100AE000A9F79F3F09F40895290F311D97FD3A9505
:100AF000F90162830895A3E0B0E0E1E8F5E00C9429
:100B0000BC2220917A0430917B0428173907A1F088
:100B100090937B0480937A04E0917804F0917904B7
:100B2000309751F024E029839B838A830680F781E4
:100B3000E02DCE01019609952396E2E00C94D8228F
:100B4000A3E0B0E0E6EAF5E00C94BC222091760444
:100B50003091770428173907A1F090937704809398
:100B60007604E0917804F0917904309751F023E015
:100B700029839B838A830680F781E02DCE0101962D
:100B800009952396E2E00C94D822E0917804F09144
:100B90007904309729F00190F081E02D09950895AE
:100BA00080E00895613092E0790710F060E072E033
:100BB000FB01E059FD4F90819817B9F0808385E0E3
:100BC000769567958A95E1F721E030E002C0220F23
:100BD000331F6A95E2F780916E0290916F02822B2B
:100BE000932B90936F0280936E02089580E0089596
:100BF000F894E82FE295EF70F0E031A1282F2F70E4
:100C000081E090E001C0880F2A95EAF7982F90952F
:100C1000932391A392A1892B82A378940895909114
:100C2000F20192FF06C0282F28712830F9F4877F3F
:100C3000846093FF06C0282F28712831F1F4877E45
:100C400084612091F30120FF06C0382F38713830BD
:100C5000D9F4877F816021FF06C0282F28712831B1
:100C6000D1F4877E816194FD877E0895282F2471B9
:100C70002430F9F68B7F8860DCCF282F2471243153
:100C800001F78B7E8861DDCF382F3171313019F754
:100C90008E7F8860E0CF282F2171213121F78E7E51
:100CA0008861E1CF82389105B9F1B0F481339105C3
:100CB00009F47DC048F48932910509F46DC08A3287
:100CC000910509F47BC008958533910509F45FC04F
:100CD0008933910509F10895833E9105D9F138F4DE
:100CE000803E910529F1823E910579F10895863E75
:100CF0009105D9F1873E910509F43EC0843E9105E6
:100D000041F52091F30121FF24C08091F20184FD7F
:100D100019C087EE90E008952091F201237009F048
:100D20005AC02091F30123FF14C089E290E0089596
:100D30002091F20120FD38C03091F30130FF09C04D
:100D400024FF43C090E080E008952091F20122FD4D
:100D5000F7CF08952091F20122FD3AC03091F301BE
:100D600030FD39C024FFF5CFEDCF2091F20123FFF4
:100D7000F0CF24FDE7CFCDCF2091F20123FD2EC08F
:100D80003091F30131FFEECF84EE90E00895209191
:100D9000F20125FFDECFC9CF2091F20125FD21C050
:100DA0002091F30123FFD5CF89E390E0D2CF2091AA
:100DB000F20126FFCECF8AE290E008952091F20161
:100DC00026FFC7CF81E390E0089583EE90E0089579
:100DD00082EE90E0089580EE90E0089586EE90E037
:100DE000089585E390E008951F93CF93DF930E94C9
:100DF0005206EC01C11580E5D807F0F5C11580E475
:100E0000D80708F09CC0C03ED10520F5CD3CD105E7
:100E100008F082C0C83AD10578F4C53AD10508F087
:100E200073C0C130D10519F1209709F1C430D10543
:100E3000F0F4D0E0C0E01BC0C33CD105D0F7C85AE5
:100E4000D0E0CC0FDD1FCC5EDE4F0990D881C02DE5
:100E5000D4640DC0C11580E2D80708F0D1C0C11517
:100E600081E0D80708F05AC0C83ED10510F7CE017E
:100E7000DF91CF911F910895C03682E5D80718F50C
:100E8000C03482E5D80708F06BC0C03282E5D807CD
:100E900008F05FC0C11582E5D80708F497C02C2F71
:100EA0002695269580E2289F900111248C2F83702F
:100EB000C1E0D0E002C0CC0FDD1F8A95E2F7C22B63
:100EC000D32BDD68D4CFC03A82E5D80760F4C038B0
:100ED00082E5D80708F459C0CF71D0E0DC2FCC27C9
:100EE000C46FD06AC4CFC03C82E5D80708F462C0A2
:100EF000C03E82E5D80708F09CCFDC2FCC27CC275A
:100F0000DF71C06FD06AB3CFC55AD0E0CF5EDE4F7D
:100F1000C881D0E0D064ABCFD065A9CF8D2F0E941F
:100F20000F06182FCE0199270E945206C12FD0E03C
:100F3000DC2FCC27CC27DF71C82BD92B98CFCE0143
:100F400099270E945206CC27DF70C82BD92BD06A74
:100F50008ECFCF71D0E0DC2FCC27C16FD06A87CF86
:100F60002C2F26952695277080E2289F900111242A
:100F70008C2F8370C1E0D0E002C0CC0FDD1F8A95BA
:100F8000E2F7C22BD32BDC6872CF2C2F2695269547
:100F9000277080E2289F900111248C2F8370C1E07C
:100FA000D0E002C0CC0FDD1F8A95E2F7C22BD32B15
:100FB000DA685DCF8C2F8F710E940F06C82FD0E0AA
:100FC000DC2FCC27CC27DF71D06251CF8C2F8F71D3
:100FD0000E940F0655E0D695C7955A95E1F7CF7058
:100FE000D0E0DC2FCC27282F30E084FF05C044E080
:100FF000220F331F4A95E1F7C22BD32BD06937CF8D
:101000008D2F8F710E940F06182FCE0199270E94F5
:101010005206C12FD0E0DC2FCC27CC27DF71C82BA4
:10102000D92BD2CF8091E60181111092E60108956B
:1010300080959091E50198239093E5010895209182
:10104000DA019091A90156E0291302C080E00895C9
:1010500030E0529FF001539FF00D1124E655FE4FF2
:101060007181761306C07081781303C07281741386
:1010700004C02F5F3F4F2770E7CF81E00895809134
:10108000DA019091A901981301C008958F5F8770CC
:10109000FACFA82FA77023E0969587952A95E1F7B8
:1010A000FC01EE0FFF1FE80FF91FE60FF71F50E0DE
:1010B00040E080E0219130E00A2E02C0369527956D
:1010C0000A94E2F721703327042E01C0220F0A94FC
:1010D000EAF7822B4F5F5F4F4330510559F7089570
:1010E000292F943068F4853090F490E06AE971E03B
:1010F00035E0239F800D911D11240E944908089519
:101100002C5F223020F467E971E090E0F6CF80E0B8
:101110000895262F277091E001C0990F2A95EAF7CC
:1011200023E0769567952A95E1F7FB01EE0FFF1F07
:10113000E60FF71FE40FF51F50E040E0682F70E066
:101140008191DF0111979B01042E02C036952795EE
:101150000A94E2F7217021952827292328272C9328
:101160004F5F5F4F4330510559F70895282F862F61
:10117000943070F4253058F4622F70E025E0929F8F
:10118000600D711D11244AE951E00E9489080895FB
:101190009C5F9230E0F7622F70E047E951E0F5CFB5
:1011A0008093F10108959091F10121E030E0F9017F
:1011B00001C0EE0F8A95EAF7D90102C0AA0FBB1F42
:1011C0006A95E2F7EA2B01C0220F4A95EAF7892FC8
:1011D0008E23E81305C0292B822F0E94D008089582
:1011E00020952923F9CF21E030E001C0220F8A9514
:1011F000EAF720958091F10182230E94D00808959A
:101200009091DB01809589238093DB01282F277043
:1012100091F4282F082E000C330B9217130659F067
:101220009091F30192FF07C08595859585950E9461
:10123000F3081092DB01089521E030E001C0220F95
:101240008A95EAF78091F101822B0E94D0080895D7
:101250008093F0010895B0E0A0E0E1E3F9E00C94A0
:10126000B4227C01FC01A49091E010E000E09A150A
:1012700028F0CDB7DEB7EAE00C94D022F701E90FF1
:10128000F11DC491D1E0D90FC7FF17C0CF77BD2E94
:10129000BC0EB801DB1104C00C0F111D9D2FE7CF50
:1012A000F701ED0FF11D8491DF5F6B01FFEFCF1AA6
:1012B000DF0A0E94D205B601EDCFF701ED0FF11D57
:1012C000B490D2E0D90FB801862F801B8C1720F77D
:1012D0006B018FEFC81AD80A8B2D0E94D205B60178
:1012E000F3CFB0E0A0E0E7E7F9E00C94B6226C01A0
:1012F0007B0164E670E088E70E94B221EC0197FD73
:1013000012C010E000E0F601E00FF11F849164E6E6
:1013100070E00E941E22EC01892B29F40F5F1F4F01
:101320000E151F0581F70E949422CE01CDB7DEB7BE
:10133000E8E00C94D222809174049091750491118C
:1013400003C091E089270895882369F062E070E086
:1013500080E396E00E947109892B19F08091740452
:1013600008951092740480917404EBCFCF93C091D0
:101370007404809175048823D1F00E945505605A49
:1013800075418F4F9F4F60937004709371048093E9
:10139000720490937304C11108C062E070E08EE2A1
:1013A00096E00E947109892B29F0C09174048C2F5A
:1013B000CF91089581E080937404F7CF0F931F932A
:1013C000CF93DF938B01EA0190918E04943061F505
:1013D0008093E9008FEF9091E800815095FD06C061
:1013E00095ED9A95F1F700008111F5CF8091E80015
:1013F00085FF1AC00E940504811111C08091E80088
:1014000085FD06C08091E8008E778093E800F2CFDA
:10141000F80181918F018093F100219779F78091F4
:10142000E8008E778093E800DF91CF911F910F91B4
:10143000089543E050E0BC0184E00E94DE09089575
:10144000CF93DF93EC0148E050E0BC0181E00E94C3
:10145000DE0988E0FE01A4E8B4E001900D928A95CF
:10146000E1F7DF91CF910895CF93DF93C6EED0E0FF
:1014700060E0CE010E9482232196C11584E0D80746
:10148000B9F7DF91CF9108950F931F93CF93DF9317
:10149000142F022F843020F5623010F598E0899FD8
:1014A000E001112484E0689FB0011124C60FD71F0A
:1014B000CA53DF4F82E090E0442311F090E080E0D7
:1014C000632F8C0F9D1F0E94822383E090E01123E5
:1014D00011F081E090E0602F8C0F9D1F0E9482230D
:1014E000DF91CF911F910F9108951F93CF93DF93B9
:1014F000122F8430E0F46430D0F44530C0F4C42FAF
:10150000D0E0CC0FDD1F9AE0699FC00DD11D1124E2
:1015100098E2899FC00DD11D1124632FCE018696BC
:101520000E948223612FCE0187960E948223DF9141
:10153000CF911F910895B0E0A0E0E1EAFAE00C94A9
:10154000B22282EDE82E86E0F82E02E316E0C0E03B
:101550005801D0E015C0F401259134914D2D6D2F27
:101560008C2F0E94750A82E0880E911CD39485E02E
:10157000D812F1CF8AE0A80EB11CDF5FD43019F089
:101580004501D12CE8CF6701D0E0F60125913491D7
:1015900041E06D2F8C2F0E94440AF601329625916E
:1015A000349140E06D2F8C2F0E94440A84E0C80ED5
:1015B000D11CD13071F488E0E80EF11CCF5F085DDA
:1015C0001F4FC43009F0C4CFCDB7DEB7ECE00C94A8
:1015D000CE22D1E0DACFCF93C82F6FEF811163E233
:1015E00082E290E00E9482236FEFC11164E083E207
:1015F00090E00E9482236FEFC11166E284E290E0E6
:101600000E948223CF91089580E00E94EB0A60E05F
:1016100085E290E00E9482230E949B0A0E94340A85
:1016200081E00E94EB0A0895FF920F931F93CF93DE
:10163000DF93F42E843070F5623060F528E0829FED
:101640008001112434E0639FB0011124060F171F9D
:101650000A531F4F82E090E0442311F090E080E0B5
:10166000800F911F0E947423C82FD0E0DC2FCC275D
:1016700083E090E0FF2011F081E090E0800F911F67
:101680000E9474239E01282BC901CDB7DEB7E5E087
:101690000C94D52290E080E0F8CF0F931F93CF9366
:1016A000DF93843030F5643020F5453010F5C42FD9
:1016B000D0E0CC0FDD1F2AE0629FC00DD11D1124A8
:1016C00038E2839FC00DD11D1124CE0186960E9461
:1016D0007423082F10E0102F0027CE0187960E9458
:1016E00074239801282BC901DF91CF911F910F918D
:1016F000089590E080E0F8CF743048F4653070F4DD
:10170000843060F4462F672F0E944D0B08957D3F73
:1017100041F4623018F441E0843050F090E080E011
:1017200008957C3FD9F76230C8F78430B8F740E0BD
:101730000E94140B0895CF92DF92FF920F931F9394
:10174000CF93DF936C010091F1018091F001082BA0
:10175000C3E0D0E010E0FC2EC8010C2E02C095952D
:1017600087950A94E2F780FD0CC02197A0F7F12C31
:101770008F2DDF91CF911F910F91FF90DF90CF9030
:101780000895B6018C2F0E947C0B0E94F4060197ED
:1017900061F3EECFCF93DF93EC010E949B0BBE0170
:1017A0000E947C0B0E94F406DF91CF910895FC010A
:1017B00083819481892B29F08081918189238F3FB6
:1017C00051F480E00895843FE1F717C0883EA8F007
:1017D000813FB9F712C0808191810E94CA0B929516
:1017E0009F70963099F358F4925F9F70923048F74B
:1017F000803F19F040F7883E20F781E008959A5F16
:10180000F4CF82E290E00E947423833289F483E271
:1018100090E00E947423843059F484E290E00E94A6
:10182000742391E0863209F090E0892F8170089549
:1018300080E0FCCF9091F30192FB222720F928173A
:1018400079F080FB92F99093F3016091F20170912D
:10185000F30184E090E00E94A02382E00E9400094E
:1018600008958091E5019091E401892B80938E0188
:101870009091E601992391F0892B80938E0120E0CD
:1018800080E991E0FC013191CF0131112F5FF1E04E
:1018900086399F07B9F721110E94120848E050E0ED
:1018A0006CED71E08EE891E00E946723892BA9F02E
:1018B00088E0EEE8F1E0ACEDB1E001900D928A95A0
:1018C000E1F7E0917804F0917904309731F00280EB
:1018D000F381E02D8EE891E0099508951092E501DD
:1018E000E0E9F1E086E0DF011D928A95E9F790E0FA
:1018F00080E00E94A00590E080E00E947B051092AD
:10190000E4010E94310C0895AAE2B0E0EAE8FCE0AC
:101910000C94BB2280E994E02091F100DC012D932E
:10192000CD01B4E088399B07B9F7809191048330E9
:1019300009F472C0B8F4813009F449C0823009F466
:10194000B3C08091E80083FF8BC280919004909196
:1019500091049A3008F084C2E92FF0E0E854FC4D7D
:101960000C9438238A3009F48EC08B3009F471C08E
:10197000893039F780919004813219F7809194046D
:1019800090919504009711F00297D9F68091E800A4
:10199000877F8093E8008091E80082FF38C09091B3
:1019A000F3008091F200029731F48091F1008130D0
:1019B00011F0863021F48091F100809383048091AE
:1019C000E8008B778093E8000E943604BACF8091BC
:1019D0009004813A09F0B5CF8091E800877F809329
:1019E000E8008091940490919504892B61F468E05B
:1019F00084E894E070E00E94E2048091E8008B7734
:101A00008093E8009ECF60E090E080E0F3CF80918B
:101A10008E048111C0CF95CF80919004813A09F056
:101A200090CF8091940490919504892B09F089CFEF
:101A30008091E800877F8093E8008091E80080FF34
:101A4000FCCF809110018093F1008091E8008E77A7
:101A5000B9CF80919004813209F073CF80919404C2
:101A600090919504892B09F06CCF8091E800877FD5
:101A70008093E8000E9436048091920480931001C4
:101A80000E946E0C5ECF80919004813209F059CF94
:101A90008091E800877F8093E8000E94360480915F
:101AA0009304809382044DCF80919004813A09F091
:101AB00048CF8091E800877F8093E8008091E8001C
:101AC00080FFFCCF80918204BECF803899F08238AD
:101AD00009F0C6C1809194048F70873008F0C0C1AE
:101AE0008093E9008091EB0085FB882780F91092B4
:101AF000E90006C080918C0490918D049111826060
:101B00009091E800977F9093E8008093F100109205
:101B1000F1008091E8008E779FC1882309F48DC180
:101B2000823009F09DC180919204811190C1809111
:101B300094048F702FEF280F263008F091C1809306
:101B4000E9002091EB0020FF82C1933031F48091B5
:101B5000EB0080628093EB007AC19091EB00906182
:101B60009093EB0021E030E001C0220F8A95EAF764
:101B70002093EA001092EA008091EB008860EACF9F
:101B800081116EC1109192041F778091E3008078DB
:101B9000812B8093E3008091E800877F8093E800A9
:101BA0000E9436048091E80080FFFCCF8091E30022
:101BB00080688093E30082E0111183E080938E04BB
:101BC0004FC18058823008F04BC12091920430916F
:101BD00093042C3DE3E03E07A1F583E08A838AE28B
:101BE00089834FB7F894DE01139620E03EE051E27E
:101BF000E32FF0E050935700E49120FF03C0E295FB
:101C0000EF703F5FEF708E2F90E0EA30C0F0C79624
:101C10008D939D932F5F243159F74FBF8091E8003A
:101C2000877F8093E8006AE270E0CE0101960E940F
:101C3000E2048091E8008B778093E80011C1C096A0
:101C4000E7CF8091940490919504432F552743301A
:101C5000510509F44AC078F54130510509F47AC0BC
:101C60008BE590E0E2EFF6E04230510509F0F8C074
:101C70002091E800277F2093E8002091960430917E
:101C800097048217930708F49C0140E02115310561
:101C900009F065C0411163C08091E80082FDC9CFA1
:101CA00080918E04882329F2853019F28091E80012
:101CB00083FFF2CFBECF4132510509F43CC042321E
:101CC000510509F0CDC08330910508F0C9C0FC0171
:101CD000EE0FFF1FE058FE4F0190F081E02D83587A
:101CE0009E4FDC018C9190E01AC0332721303105E2
:101CF000D1F02115310561F02230310509F0B0C075
:101D0000EFE5F7E0E4918E2F90E0EFE5F7E007C014
:101D1000E9E8F7E0E4918E2F90E0E9E8F7E000973A
:101D200009F49EC0A5CFE1E7F7E0E4918E2F90E0A3
:101D3000E1E7F7E0F4CF8330910508F091C0880F18
:101D4000991FFC01EA57FE4F0190F081E02D89E0D8
:101D500090E08ECF82E190E0EDE4F7E089CF8091D2
:101D60008E04882309F465CF853009F462CF809111
:101D7000E80083FD5ECF8091E80082FD8DCF8091E9
:101D8000E80080FF83CF9091F3008091F20021154D
:101D9000310519F08830910550F041E0089709F0BD
:101DA00040E08091E8008E778093E8006FCF449107
:101DB0004093F1003196215031090196E8CF8038E7
:101DC00009F04EC08091E800877F8093E800809101
:101DD0008F048093F1009DCE811142C01091920436
:101DE0001230F0F58091E800877F8093E80010932F
:101DF0008F040E943604112311F084E005C0809105
:101E0000E30087FDFACF81E080938E0442E061EC2D
:101E100081E00E94550442E261EC84E00E94550496
:101E200042E261EC82E00E94550442E260EC83E011
:101E30000E94550480918E0413C0809192048130D9
:101E400079F481E0933009F080E080938D04109262
:101E5000E9008091E800877F8093E8000E943604C3
:101E60008091E80083FF0AC08091E800877F80931B
:101E7000E8008091EB0080628093EB00AA96E3E09B
:101E80000C94D7220E946E0C2FEF84E39CE021502B
:101E900080409040E1F700C0000088E19AE00FB672
:101EA000F894A895809360000FBE90936000FFCFD8
:101EB000882321F00E9418080E94310C089588237D
:101EC00039F09091E501982B9093E5010E94310C37
:101ED0000895882391F19CEF980F913A80F4E0E9FE
:101EE000F1E026E931E09191891303C0DF011197F8
:101EF0001C922E173F07B9F70E94310C089590E20B
:101F0000980F983050F4877091E001C0990F8A952E
:101F1000EAF7892F0E941808EFCF9BE5980F9330BE
:101F200028F490E080E00E94A0050895885A8B3143
:101F300020F490E080E00E947B050895CF93C82FA5
:101F40008823B1F08CEF8C0F813A00F5E0E9F1E0E5
:101F500086E991E0DF012D91C21761F08A179B0796
:101F6000D1F76C2F8EE891E00E9461050E94310C40
:101F7000CF9108952191C21303C0DF0111971C92E4
:101F80008E179F07B9F70E94310CEBCF80E28C0FC0
:101F9000883068F4C77021E030E001C0220FCA9594
:101FA000EAF78091E501822B8093E501DFCFEBE535
:101FB000EC0FE33040F4F0E0EF5EFE4F808190E004
:101FC0000E94A005D5CFC85ACB3190F6EC2FF0E097
:101FD000EE0FFF1FEC5EFE4F808191810E947B051A
:101FE000C7CF1F93CF93DF93182FD0E0C0E0893382
:101FF00011F4C0E5D0E0812F0E949E0F209739F4A4
:10200000812F0E94690FDF91CF911F9108958FE971
:102010009FE00197F1F700C000002197EFCF1F92DA
:102020000F920FB60F9211242F933F934F935F930C
:102030006F937F938F939F93AF93BF93CF93DF93D0
:10204000EF93FF93D091E900DF708091EC00C82FEF
:10205000C17080FDC0E81092E9008091F000877F98
:102060008093F00078940E94840C1092E900809193
:10207000F00088608093F000CD2BCF70C093E90012
:10208000FF91EF91DF91CF91BF91AF919F918F9190
:102090007F916F915F914F913F912F910F900FBE64
:1020A0000F901F9018951F920F920FB60F92112448
:1020B0002F933F934F935F936F937F938F939F9350
:1020C000AF93BF93EF93FF938091E10082FF09C02C
:1020D0008091E20082FF05C08091E1008B7F8093B8
:1020E000E1008091DA0080FF24C08091D80080FF59
:1020F00020C08091DA008E7F8093DA008091D90031
:1021000080FF9DC080E189BD82E189BD09B400FEE8
:10211000FDCF81E080938E0480918104811109C0FC
:102120000E94E6030E9487048091E200846080930D
:10213000E2008091E10080FF17C08091E20080FF03
:1021400013C08091E2008E7F8093E2008091E200D4
:1021500080618093E2008091D80080628093D800F3
:1021600019BC85E080938E048091E10084FF2BC030
:102170008091E20084FF27C080E189BD82E189BDB2
:1021800089B5982F917080FFFBCF8091D8008F7D0B
:102190008093D8008091E1008F7E8093E100809150
:1021A000E2008F7E8093E2008091E2008160809364
:1021B000E20080918F04882309F447C084E0809373
:1021C0008E0480918E048091E10083FF27C080916E
:1021D000E20083FF23C08091E100877F8093E100CC
:1021E00082E080938E0410928F048091E1008E7FB4
:1021F0008093E1008091E2008E7F8093E2008091E5
:10220000E20080618093E20042E060E080E00E94B2
:1022100055048091F00088608093F000FF91EF9169
:10222000BF91AF919F918F917F916F915F914F91EE
:102230003F912F910F900FBE0F901F90189519BCD2
:1022400010928E041092810474CF8091E30087FD78
:1022500093E090938E04B5CF78941F921FB61F928F
:1022600011248F939F93AF93BF9380917D0490919E
:102270007E04A0917F04B09180040196A11DB11D40
:1022800080937D0490937E04A0937F04B093800498
:10229000BF91AF919F918F911F901FBE1F90189576
:1022A0009C014FB7F89480917D0490917E04A09199
:1022B0007F04B09180044FBF821B930B08952FB70A
:1022C000F89480917D0490917E04A0917F04B09158
:1022D00080042FBF08950F931F93CF93DF93C62FD2
:1022E000D42F022FFC0182818823A9F060939A04E5
:1022F0000E945F119093990480939804C77081E0C5
:1023000001C0880FCA95EAF70E945F0FDF91CF9155
:102310001F910F91089580919A04681332C08091A3
:102320009804909199040E945011883C910548F5B9
:1023300010E21D0FCD17B9F080E28C0F883040F409
:10234000C77081E001C0880FCA95EAF70E94580F54
:10235000183048F481E09D2F977001C0880F9A953E
:10236000EAF70E945F0F802F0E94F10F183070F67D
:10237000D77081E001C0880FDA95EAF70E94580F04
:10238000C5CFC77081E001C0880FCA95EAF7F6CFC4
:10239000A8E0B0E0EEECF1E10C94AE228C01DC019F
:1023A00013968D919C911497892B39F08C911196ED
:1023B0009C9189238F3F09F00BC52896E0E10C948E
:1023C000CA220E949B0BF82E682F89819A810E9455
:1023D000B60869817A818F2D0E947C0B7C01F801FF
:1023E0002281222309F464C19A9581159F4408F043
:1023F00077C0C7019927AC014450510944325105B7
:1024000018F08B970E9780F4E0910002F0E0EE0F49
:10241000FF1FEB5FFD4F808191818F3FAFE79A07F0
:1024200019F0019691838083C701975780389105F1
:1024300008F010C5BFE0BE1508F492C08FEF93E01E
:102440000E94742381118CC066EEA62EB12CE1107F
:1024500051C0FE01339686E0DF011D928A95E9F7AF
:102460005AE0452E7501BFEFEB1AFB0AC5010E9429
:10247000742389831A82882309F472C0813009F099
:1024800082C06501E2E0CE0ED11CC7010E94742318
:102490008A83882309F464C09FEF980F9330C0F5B6
:1024A000F3E0AF0EB11CC6010E9474238B83882316
:1024B00009F456C01C82DE0111967D01F7012081CE
:1024C000222381F2213009F09EC0918182819130D6
:1024D00009F05BC0F2E0EF0EF11C0E94F10F5CC04E
:1024E00090E080E03FEFE316F10411F008F083CFB5
:1024F000C70181CFA114E4E0BE0691F1C5010E949D
:102500007423811101C0EA94FFEFAF1ABF0A9FCF75
:102510005601843081F642E0E42EF12C56012FEF73
:10252000A21AB20AC6010E947423E1E0F0E0EC0FA7
:10253000FD1FEE0DFF1D8083882391F08C3741F441
:10254000E2E0F0E0EC0FFD1FEE0DFF1D1082B3CFB7
:102550003FEFE31AF30A650187E0E816F104F1F6AC
:102560008091DB01877009F428CFD80112968C91F5
:10257000882309F422CF8091F30182FF1ECF82E0ED
:102580000E9400091ACF570196CF923049F422E0F9
:10259000E20EF11C0E949E0FEFEFEE1AFE0A8ECFA4
:1025A000933031F432E0E30EF11C0E94690FF4CF56
:1025B000943021F08FEFE81AF80AEECF92E0E90E9E
:1025C000F11C30E020E0B7016F5F7F4FD70111961B
:1025D0004C918053990B8A30910550F0215031096C
:1025E000D8F2EFE9FFE03197F1F700C00000F6CF35
:1025F000429EF001439EF00D11249C012E0F3F1FBF
:10260000842F7B01E0CFE22FF0E0E650FB4F5490A7
:10261000822F86958695869590E0FC01E651FB4FCA
:1026200064902770712C022E02C0759467940A94EE
:10263000E2F731E063227724FC01E652FB4F8490FD
:10264000912C022E02C0959487940A94E2F7A1E09F
:102650008A229924FC01E653FB4FC490D12C02C07E
:10266000D594C7942A95E2F7B1E0CB22DD2461141A
:10267000710419F081EE0E949E0F8114910419F0EB
:1026800086EE0E949E0F852D0E94F10F8114910409
:1026900019F086EE0E94690F6114710419F081EE41
:1026A0000E94690FC114D10409F476CF8CE215CFD2
:1026B000FC01E851FC47E730F10508F0B4C3EE53E4
:1026C000FC4D0C94382326E241EE61EEC8010E94D5
:1026D0006B1146CF27E245EE65EEF8CF26E241EEDC
:1026E00060EEF4CF27E245EE64EEF0CF26E241EE55
:1026F00062EEECCF27E245EE66EEE8CF28E241E05D
:10270000EBCF8091F20181608093F20195C08091BE
:10271000F30188608093F3018FC08091F2018260A1
:10272000F3CF8091F2018460EFCF8091F201886055
:10273000EBCF8091F3018160EDCF8091F301826056
:10274000E9CF8091F2018061DFCF8091F201806258
:10275000DBCF8091F2018064D7CF0E946E0C809114
:10276000F2018068D1CF8091F2018C60CDCF809151
:10277000F3018360CFCF8091F2018E7FC5CF80912E
:10278000F301877FC7CF8091F2018D7FBDCF80910C
:10279000F2018B7FB9CF8091F201877FB5CF809115
:1027A000F3018E7FB7CF8091F3018D7FB3CF8091FE
:1027B000F2018F7EA9CF8091F2018F7DA5CF80910C
:1027C000F2018F7BA1CF0E946E0C8091F2018F7776
:1027D0009BCF8091F201837F97CF8091F3018C7F13
:1027E00099CF8091F20182FB992790F921E09227FD
:1027F00090FB82F990FB83F987CF8091F301982FAA
:10280000909591708E7F892B90FB81F983CF909169
:10281000F201892F8F7B96FF806476CF0E946E0C29
:102820009091F201892F97FB87F980586DCF61E075
:102830008EE090E00E9482236091F2017091F3019A
:1028400084E090E00E94A0230E946E0C89CE60E09C
:10285000EFCF9091F201892F8F7E94FF806154CF4A
:102860009091F201892F8E7F90FF81604DCF9091E2
:10287000F301892F877F93FF88604CCF85E3DCC20B
:10288000F7E7EF16FCE7FF0609F46CC038E7E3163C
:102890003CE7F30609F46DC0222399F083E0E816C3
:1028A0008CE7F80609F490C008F06FC0E114ACE7BB
:1028B000FA0609F47CC0B1E0EB16BCE7FB0609F4AC
:1028C00089C0F8018281E080F180882309F490C0FA
:1028D000C7010E949B0BD82E682FC7010E94B60823
:1028E000B7018D2D0E947C0B0E94F4067C01882E7E
:1028F000D8011296DC9012971596BC90B2943FE0E6
:10290000B3228091DB018770F1F0AD2CDD20E1F086
:102910008F2D807F803451F080E28E0D883098F0CA
:10292000B11004C08F2D807E803269F08091F30158
:1029300082FF09C082E00E9400098091DB0187705C
:10294000AA24A3948111A12C9F2C92942FE092226F
:10295000BBE0B91508F4BBC0E92DF0E0E753FC4D2E
:102960000C94382381E0211108C081E00E94F30813
:1029700006C0222309F497C282E00E941C0943E0AA
:1029800062E081E00E94D308EBCDEBE5EE16ECE7C8
:10299000FE0661F1FCE5EF16FCE7FF06E9F02AE52B
:1029A000E2162CE7F20609F08CCF81E01CC00E94F1
:1029B0006E0C3FEF84E39CE0315080409040E1F7A3
:1029C00000C000000E9444056FEF7FEF90E080E0C0
:1029D0000E94A0230E94420F8091F30182FB88276E
:1029E00080F991E089270E941A0C6BCF80E0FBCF21
:1029F000C7010E947008D82E73CFEF2DEF70CE2E36
:102A00008F2D807F19F0C29490EFC922DD20B9F09C
:102A1000CC2069F080E28E0D883010F0811009C062
:102A20008091E501C82AC092E5010E94310C8E2DEB
:102A30004CC08091E401C82AC092E401F6CF8E2DEB
:102A40000E94690FCC2009F442C080E28E0D8830CC
:102A500010F0811004C08C2D0E94180806C0C0948C
:102A60008091E401C822C092E4010E94310C2FC081
:102A7000FF2DFF70CF2E8F2D807F803219F0C294F2
:102A800080EFC822882089F021E0821609F46CC00A
:102A9000DD2009F476C0BB2009F46CC0F801858103
:102AA00080FFC5CF8F70858365C02091F30122FD23
:102AB00034C0DD2061F1CC2039F08091E501C82AD5
:102AC000C092E5010E94310C80E00E949E0FA92D6A
:102AD000A850BB0B149710F40E94C505AA2009F456
:102AE0006CCC8091DB0180FD68CCF8011282859569
:102AF000859585950E941C09C8010E94C811809186
:102B0000DB018595859585950E94F30856CC80E07C
:102B10000E94690FCC20D9F29ECFDD2099F09091D0
:102B2000E601892F8C29B11003C00E945F0FCFCF1F
:102B300031E0B312FACF22FFCACF981741F2809347
:102B4000E601C5CFB11006C00E9412088C2D0E946C
:102B5000580FBDCF81E0B81609F4B9CF8C2D0E9473
:102B6000580F0E941208B3CFDD2031F092E09B1580
:102B700008F4ADCF8C2DD9CFA1E0AB1508F4A7CFC9
:102B8000E5CFBB2019F3F9E38F1209C02FEF37EE21
:102B900083E0215030408040E1F700C000008E2DDE
:102BA0000E94690F94CF8F2D86958695837061F072
:102BB000813009F08CCFC7019370D11002C080E042
:102BC00090E00E947B0583CFC7019370D11002C0B3
:102BD00080E090E00E94A0057ACF8F2D837091F560
:102BE000D11075CF4E2D429546954770440F440F36
:102BF0008E2D8F70042E01C0880F0A94EAF72E2DB7
:102C00002071E4FE07C02FE030E001C0220F4A959A
:102C1000EAF720953F2D369536953370323069F0BE
:102C200050F44091F001313029F0822B84230E942E
:102C300028094DCF842B822BFACF282B8091F001CD
:102C40008227F5CF8695DD2011F08F2D81708823A6
:102C500009F43DCF4E2D429546954770440F440FE1
:102C60008E2D8F70042E01C0880F0A94EAF72E2D46
:102C70002071E4FE07C02FE030E001C0220F4A952A
:102C8000EAF720953F2D369536953370323069F04E
:102C900050F44091F101313029F0822B84230E94BD
:102CA000D00815CF842B822BFACF282B8091F101ED
:102CB0008227F5CF9F2D9F70F92EDD2029F0892FD7
:102CC0000E941C098E2D31CF8E2D0E94580F8F2D02
:102CD0000E94F308FCCE8E2DA2EF8A16B1F1A81542
:102CE00070F0B0EF8B16D1F0E1EF8E1691F0DD2091
:102CF00009F45EC0B1109BCE8F2D8F712AC0F3EF07
:102D00008F1651F124EF8212F2CF8091F30182FDF0
:102D10002FC08F2D8F71DD20D9F21BC0DD2081F0F7
:102D200031E03B1508F4D3CE2F2D2F7181E090E0D8
:102D300001C0880F2A95EAF79091F1018927AFCF5A
:102D400082E08B1508F4C3CEEFCF8F2D8F71D11099
:102D5000BFCF0E941C09BBCE80E0DD2009F49FCFCD
:102D60009F2D9F7181E001C0880F9A95EAF797CF58
:102D7000DD2099F09F2D9F71F92E892F0E941C094B
:102D80008091F30182FF07C0A8E0FA9EC0011124E0
:102D900083608093DB018F2DDCCF81E00E940009EE
:102DA000B1E0BB1508F093CE82E00E9400098FCEFF
:102DB000BB2059F0893309F0F2CEEFEFF7EE23E0B4
:102DC000E150F0402040E1F7E8CE8F2D8F7180CFA9
:102DD00085E0F801DE01119601900D928A95E1F7E8
:102DE000D80112962C9189819A812111EACA0E94F8
:102DF0007008F82EEECAB6E1EB16BCE7FB0609F048
:102E00003FCD8091E5018A7A91E009F490E09093BA
:102E1000960169E2811165E38EE891E00E94610507
:102E20000E94310C9DCB8631ECE79E0799F580918D
:102E30009601811123CD89E2E0E9F1E026E931E054
:102E40009191891303C0DF0111971C922E173F0740
:102E5000B9F7E6CFF701E851FC47E730F10508F490
:102E60002ECC10929A04C7019057839720F684E0E5
:102E700090E00E947C239093F3018093F201F7018C
:102E8000E150F047E232F10508F03BCCEB52FC4D4B
:102E90000C9438238737FCE79F0709F466CD883701
:102EA0009C4709F00ECD82E061CD1F93CF93DF9355
:102EB0008091A801807F09F04BC08091A5018823F3
:102EC00009F446C08091DA01C091A9014091A301A3
:102ED0005091A4016091A6017091A701D42FD52330
:102EE00016E0C817A9F190E061157105A9F1DF3F5F
:102EF00099F1189FF001199FF00D1124DF01A655DB
:102F0000BE4F11962C911197251326C02C91241396
:102F100023C012962C91129721111EC013962D9149
:102F20003C91261B370B283C3105B0F48091A80159
:102F30008F7080618093A801E155FE4F80818F7072
:102F40008061808383EA91E00E94C8110E943F085B
:102F5000DF91CF911F91089501968770C2CFA1E1B3
:102F6000B0E0E5EBF7E10C94B2228C0185E0F801CA
:102F7000DE011D9601900D928A95E1F7F801E2803D
:102F800083EA882E81E0982E4091A6015091A701F6
:102F90004115510509F430C19091A3012091A4017C
:102FA000892F82238F3F09F427C1D080C180A3805D
:102FB000B480F090A501B501641B750BFF2009F4E6
:102FC000E7C08091A801382F307F683C710508F078
:102FD000ABC0311178C0FE2C2C1114C09D1112C051
:102FE000E11010C08F7080618093A801C4010E941D
:102FF000C8118091A801F80185838F2D6196ECE0BE
:103000000C94CE22A114B104C9F18D2D8C218F3FD7
:10301000A9F181E08E2580FF05C04E2D6C2D8D2DF0
:103020000E941F08A114B10459F18D2D8C218F3FEE
:1030300039F181E08E25F82FF170BF2E80FF39C065
:103040004E2D6C2D8D2D0E941F08A82E811131C090
:10305000DD86CE868D859E850E94CA0B292F2295FE
:103060002F70243078F49F702230A8F09923B9F0A3
:10307000F8019581907F99F4FA2CBFCF80E0CBCFF7
:1030800080E0D9CF2A5F2F70223068F0C8010E94FB
:10309000C811AB2CF1CF992311F0882369F3805E1E
:1030A000883050F3F3CF803F38F3815F833070F77F
:1030B000E3CFEE2009F4A1CF8091A8018160809335
:1030C000A801F12C9ACF2C1105C09D1103C0EE2050
:1030D00009F477C0C8010E94D70B882309F1EE20BC
:1030E000F9F08091A801803270F02091A301309115
:1030F000A40138872F831986BB86AA868C87CE01C8
:1031000007960E94C81186E0F801A3EAB1E0019099
:103110000D928A95E1F70E945517FF24F3946DCF25
:10312000C8010E94C811F9CF31110AC083EA91E0A9
:103130000E94C81186E0F40111928A95E9F7C1CF87
:103140002C110EC09D110CC0E1100AC08583C8016E
:103150000E94C81186E0F40111928A95E9F74DCFDB
:10316000C8010E94D70B8823D9F2EE20C9F28091C2
:10317000A801803240F22091A3013091A4013A834A
:1031800029831B82BD82AC828E83CE010196B9CF8A
:10319000683C7105F8F6FE2CEE2011F22C111EC0D1
:1031A0009D111CC08091A80180FD0FC0982F907FB9
:1031B00061F08583903F31F0982F907F905F8F7002
:1031C000892B8583C8010E94C81186E0F801A3EA13
:1031D000B1E001900D928A95E1F70FCFC8010E94EE
:1031E000D70B811190CF8091A80181608093A801B5
:1031F000C8010E94C81101CFEE2009F491CFC80187
:103200000E94D70BF82E882309F48ACF86E0F801B4
:10321000A3EAB1E001900D928A95E1F78091A301B4
:103220009091A4010E94CA0B0E945517E6CEA7E117
:10323000B0E0EDE1F9E10C94BB224B8B5C8B6D8B24
:103240007E8B8F8B61111092E4011A8A198A85E0B6
:10325000FE017396DE011D9601900D928A95E1F7AD
:1032600086E0FE013D96DE01179601900D928A954B
:10327000E1F7CE0107960E94AF17882359F016E0B8
:103280008091DA019091A901891343C06796E3E028
:103290000C94D72286E0FE013796DE01119601904C
:1032A0000D928A95E1F78A859B85892B41F38F8161
:1032B000988589238F3F19F32091A90130E0C90136
:1032C0000196877099274091DA014817190671F421
:1032D0000E946E0C1092A9011092DA0186E0E3EAD6
:1032E000F1E0DF011D928A95E9F7C9CF96E0929F40
:1032F000D001939FB00D1124A655BE4FFE0131960B
:1033000001900D929A95E1F78093A9010E943F08E0
:10331000B6CF819FC001112486559E4F0E94AF17E2
:10332000882309F4B3CF8091DA0190E00196877089
:1033300099278093DA01A4CFA4E0B0E0E2EAF9E1B2
:103340000C94B52219821A821B821C828AE4C82E30
:1033500081E0D82E10E000E0EE24E394F12CF60199
:1033600081916F018F3F09F446C0F894E82FE295F0
:10337000EF70F0E021A18F70A70102C0440F551F2C
:103380008A95E2F7CA01922F982B91A392A180957A
:10339000892382A3789400C0EEE4F1E0B12C31E0FF
:1033A00021912F3F09F473C0A22FA295AF70B0E016
:1033B00090968C9190E02F7002C0959587952A95F4
:1033C000E2F780FD64C0832FB82A330F51E0E33564
:1033D000F50731F7F601319780818F3F11F00E9498
:1033E000F80580EA8A95F1F7E1E0F0E0EC0FFD1FC7
:1033F000E00FF11FB0820F5F1F4F0430110509F07D
:10340000AECF44E050E0BE016F5F7F4F8CEE91E0A5
:103410000E946723892BE9F189819A81AB81BC8164
:103420008093EC019093ED01A093EE01B093EF0136
:1034300081E08093EB010E945F119093EA018093F9
:10344000E9018091E9019091EA010E9450110597EC
:1034500020F144E050E06CEE71E08AE692E00E94D8
:103460006723892BF9F08091EC019091ED01A091F7
:10347000EE01B091EF0180936A0290936B02A093EA
:103480006C02B0936D0281E01092EB0107C080E006
:103490009BCF8091EB018111D4CF80E02496E9E0AD
:1034A0000C94D12280E0F0CFA5E0B0E0EAE5FAE1AB
:1034B0000C94BA220E945F118C018091E7019091D7
:1034C000E80180179107A1F08FEF89838A831B821F
:1034D0000E945F118160782F9D838C8349815A817E
:1034E0006B818D810E9417191093E8010093E70109
:1034F0002596E4E00C94D6221F921FB61F92112449
:103500008F939F93AF93BF9380917C04811113C0DD
:1035100080917D0490917E04A0917F04B0918004FD
:103520004196A11DB11D80937D0490937E04A093CC
:103530007F04B0938004BF91AF919F918F911F90B2
:103540001FBE1F901895CDB7DEB7EC970FB6F89455
:10355000DEBF0FBECDBF85B7806885BF85B78068E9
:1035600085BF84B7877F84BF0FB6F894A8958091F4
:103570006000886180936000109260000FBE80E858
:1035800090E00FB6F89480936100909361000FBEB5
:1035900086EF95E090938D0180938C010E94E60365
:1035A0000E9487048091E20084608093E200789416
:1035B00080918E048823A1F01091E9001F709091F2
:1035C000EC00892F817090FD80E8182B1092E900A3
:1035D0008091E80083FD0E94840C1F701093E90025
:1035E00082E084BD93E095BD9AEF97BD80936E0015
:1035F0000E94010C811102C00E94040B82E08093A2
:103600003B0245E651E033E6A32E31E0B32E8501BF
:103610009A0161E070E0D9018D919D01E82FE2955A
:10362000EF70F0E0D1A08F707B0101C0EE0C8A95A5
:10363000EAF79E2D90959D2191A382A18E2982A3C8
:10364000F80181918F01E82FE295EF70F0E0D1A0B1
:103650008F707B0101C0EE0C8A95EAF79E2D909544
:103660009D2191A382A18E2982A3A756B14099F6EC
:103670008FE891E00197F1F700C0000010913B0244
:103680006CE372E0FB018E2F861B811708F4BDC02E
:1036900084EF0E94F80585EF0E94F80586EF0E94EE
:1036A000F80587EF0E94F8050EE411E023E5E22E0D
:1036B00021E0F22EF80181918F018F3F11F00E94DD
:1036C000F805E016F106B1F784E0EAE6F2E0DF0182
:1036D000282F1D922A95E9F7ECEEF1E0DF011D920B
:1036E0008A95E9F790E080E00E947C23873E9E4F18
:1036F00021F40E94010C811161C067EE7EEF90E021
:1037000080E00E94A02360E082E090E00E9482239B
:1037100060E083E090E00E9482231092F00160E07C
:1037200074E184E090E00E94A02360E086E090E0F5
:103730000E9482236FEF87E090E00E94822340E0A6
:1037400050E0BA0188E090E00E94942360E08DE0B0
:1037500090E00E94822340E050E0BA0188E190E0CE
:103760000E94942360E087E190E00E94822340E081
:1037700050E0BA018CE190E00E94942370E060E098
:1037800080E290E00E94A02340E050E0BA0188E18E
:1037900090E00E94942380E00E94EB0A0E94040BB8
:1037A00040E050E0BA018FE090E00E94942340E0B6
:1037B00050E0BA0183E190E00E94942382E090E01F
:1037C0000E9474238093F40184E090E00E947C23A3
:1037D0009093F3018093F2010E949C19EFEFF6E7BA
:1037E00021E0E150F0402040E1F700C000000E94DD
:1037F0009C1980916A0280FF31C06FEF7FEF90E0EB
:1038000080E00E94A0230E944405DA012D91AD01C1
:10381000822F82958F7090E0DC0190968C9190E0E1
:103820002F7002C0959587952A95E2F78170D50192
:103830009D915D01292F22952F7030E0D90190963E
:103840002C9130E09F7002C0359527959A95E2F74C
:1038500090E020FD92E0892B819315CF83E090E0EA
:103860000E9474230E9428091092670280E88093C6
:103870003E020E94AC216DE070E08DE895E00E9470
:103880007109892BC9F58091670263E070E081FDC1
:10389000A5C08AE895E00E947109892B69F56DE061
:1038A00070E08AE795E00E947109892B29F50E9452
:1038B0005505605A75418F4F9F4F60937004709308
:1038C00071048093720490937304E0E7F2E080E067
:1038D00092E0DF019C011D9221503040E1F78FEF13
:1038E0009FEF90936F0280936E0281E08093750446
:1038F000809374041092680280E091E090937904C0
:103900008093780498E1892E912C8AE692E034E045
:10391000380F3AAF80918E04853069F480E4F82E38
:1039200000E112E180918E04853009F45AC00E94B2
:103930006E0C0E94C5050E949C1915EFA12E11E086
:10394000B12E0AE6C02E02E0D02E29EF31E0D601DA
:10395000F50191918D912E173F0709F479C09817C1
:10396000C1F310E0D6010D916D01F50181915F0168
:10397000801721F1782E7026F12CEE24E3948E2D01
:103980008721A1F0FDAA1EAB91E08E2D802309F4C2
:1039900090E09FAB0E945F118160782F99AF88AF54
:1039A0004DA95EA96FA989AD0E941719F394EE0C79
:1039B000F5E0FF12E4CFF501319700831F5F14306B
:1039C00089F60E94550560933F02709340028093F0
:1039D000410290934202332433943FC087E895E03C
:1039E0005ACF80918E04843019F10E949B09109265
:1039F0007C040FB6F894A895809260000FBEF092F8
:103A0000600083B7817F846083BF83B7816083BF99
:103A10007894889583B78E7F83BF0FB6F894A89566
:103A200080916000886180936000109260000FBEFA
:103A300080918D04882309F475CF0E949C19EAE6D1
:103A4000F2E08191811169C46AAD6E13FACF6ACF39
:103A5000981387CF0E94541A312C40900502509041
:103A60000602052C000C660877088091080190E09A
:103A7000E5E0F2E021E030E03296821793070CF0A7
:103A800042C18091010290910202A0910302B09183
:103A900004026FB7F894C0907D04D0907E04E0904B
:103AA0007F04F09080046FBFC81AD90AEA0AFB0AA3
:103AB0001091080129ECC216D104E104F10414F1BB
:103AC0008091000290E0019669E170E00E94E3229B
:103AD00080930002880F991FFC01EB5FFD4F11825C
:103AE0001082812F183108F087E18F5F80930801E1
:103AF0000E945505609301027093020280930302B5
:103B00009093040232E043165104610471040CF4F2
:103B100007C1A0E6BAEEA30192010E9445232B0142
:103B20003C0168EC169F90011124032E000C440BFD
:103B3000550B2C0D3D1D4E1D5F1DA5E0B0E00E94F4
:103B400045239B01AC01C301B2010E94F722290168
:103B50003A0181EF48165104610471042CF0A0EF82
:103B60004A2E512C612C712C8091FC019091FD0109
:103B7000A091FE01B091FF012FB7F894C0907D0491
:103B8000D0907E04E0907F04F09080042FBFC81A8C
:103B9000D90AEA0AFB0A95E6C916D104E104F10440
:103BA00084F00E9455056093FC017093FD018093A1
:103BB000FE019093FF018091FB018093FA014092F6
:103BC000F9011091FA01A091F901A11BBB0BA7010A
:103BD00096010E94502324E630E040E050E00E942D
:103BE0001923120F1093FB01C12CD12C74E0A72EC6
:103BF000B12CEDEF7E2E66246394FCEF5F2E809156
:103C00003B02C81608F490C0D1100E94550580915F
:103C10007504882309F43FC040903F025090400251
:103C200060904102709042022FB7F89480917D0419
:103C300090917E04A0917F04B09180042FBF8419DD
:103C40009509A609B70981369A4EA105B10508F470
:103C50000CC10E949B0980916E0290916F02892B8A
:103C600009F04FC1809174048823A9F00E94550582
:103C700000917004109171042091720430917304CA
:103C8000601B710B820B930B6F3F7F4F8F4F9F47D2
:103C900010F40E949B09311001C0D1100E94B60996
:103CA0000E94C50590916902891721F080936902ED
:103CB0000E94550580918E04843009F02BCE83E05C
:103CC0008093E9008091E80082FF24CE8091E80093
:103CD00090E085FF06C00E940504882309F4EBC12B
:103CE00091E08091E8008B778093E800992309F4B4
:103CF00011CEE981E150E53108F004C2F0E0E9506D
:103D0000FC4D0C94382340815181052E000C660B2C
:103D1000770B440E551E661E771E2F5F3F4FACCEAD
:103D2000412C512C320120CF0C2D10E0F801EB5921
:103D3000FE4F8081E82FE295EF70F0E0E0A1F0E027
:103D40008F7002C0F595E7958A95E2F7E170D8018A
:103D5000AD59BE4F2C91A22FA295AF70B0E09096B6
:103D60008C9190E02F7002C0959587952A95E2F787
:103D700080FD79C080E08E2BD801A45CBD4FEC9112
:103D80009E2F9370891709F46CC0EE0FEE0FE82B8D
:103D9000EC93EF70F0E0ED5AFE4FD801A75CBD4FF9
:103DA0007D0180819C91890F8C9320E084302CF1DF
:103DB000F801E95CFD4F80818F5F80830E945F1175
:103DC000CBA65CA66DA68160782F9FA78EA74C2DF1
:103DD0005CEF61E08FA50E9417190E945F11C8AACD
:103DE00059AA1AAA8160782F9CAB8BAB4C2D5CEF43
:103DF00060E08CA90E94171921E0F70180818D3FB6
:103E00002CF5F801E95CFD4F8081815080830E9490
:103E10005F11C9A27AA26BA28160782F9DA38CA3A7
:103E20004C2D5DEF61E08DA10E9417190E945F117A
:103E3000CEA27FA218A68160782F9AA789A74C2DC1
:103E40005DEF60E08AA50E94171921E0D7018C91EF
:103E5000082E000C990BB5010E94E322F701808324
:103E6000D22AC394CCCE82E086CF80914502909135
:103E700046020E945011893C910508F4ECCE0E9444
:103E80005F1190934602809345022FB7F89480917A
:103E90007D0490917E04A0917F04B09180042FBF97
:103EA00084199509A609B709803921E09207A1056F
:103EB000B10570F4E0914402EF5FE170E0934402D9
:103EC000F0E0EE0FFF1FEF58FE4F8081918107C099
:103ED00080349640A105B10528F48AE995E00E9456
:103EE0002B09B9CEE0914302E43048F4EF5FE09350
:103EF0004302F0E0EE0FFF1FE959FE4FE6CFE0E08E
:103F0000F6CF80917504882309F4ACCE80916802C5
:103F10008111A8CE0E94B60920916E0230916F02E5
:103F20002115310509F49ECE80E041E050E0082FD4
:103F300010E07A01082E02C0EE0CFF1C0A94E2F792
:103F4000B9016E217F21672B11F48F5FF0CF909123
:103F5000670290FF97C0880F880F880F80930B012E
:103F600010920E01895F80930C0183E080930F0112
:103F700024E630E047E050E069E071E088E70E9425
:103F80004C22892B09F06ECEA80195E0440F551FF5
:103F90009A95E1F78091670280FF86C0E7E4F2E03E
:103FA00080E2DF011D928A95E9F7E9E7F1E0FCAFD5
:103FB000EBAF05E711E087E0282EABADBCAD8D91EE
:103FC000BCAFABAFF80121918F01240F352F311D0C
:103FD00020593D4FE82FF0E0E95BFD4F90E080E095
:103FE000522C581A66246394082E01C0660C0A9459
:103FF000EAF75901712CD501CD905D01C620652DE0
:1040000067196770462E062E000C770BBC2D01C079
:10401000BB0F4A94EAF7719561957109677077272C
:1040200001C0C6946A95EAF7CB2A6081462E4C28D7
:104030004082739468E07612DECF01963196883024
:10404000910571F68BAD9CAD8D57914009F0B5CFC0
:1040500004E610E020E230E047E452E060E488E764
:104060000E946D22892B09F0FDCDE094F09480919F
:104070006E0290916F02E822F922F0926F02E092B4
:104080006E02F0CD8295880F807680930B019801A7
:10409000369527953695279520930E01815E80935E
:1040A0000C0110920F0164CF40595D4F04E610E0FF
:1040B00020E230E0D3CF00E210E0FE0131967F0134
:1040C0008091E80085FD0AC08091E8008B7780939D
:1040D000E8000E940504882399F302CE8091F10044
:1040E000D7018D937D010150110951F7F9CD1A8245
:1040F0008CE08B831BC08A81823009F424C128F4B0
:10410000813061F08FEF898311C08330C1F084303A
:10411000C9F71B821C821D821E8208C00E945505A1
:104120000E943E236B837C838D839E8340E250E01C
:10413000BE016F5F7F4F82E00E94DE09EBCB2B81D7
:10414000822F90E0FE013496245E8430910570F752
:10415000DC01A659BD4F3C91319301962813F5CF50
:10416000E5CF8A81823019F0853001F3CBCF6B81A6
:104170007C818D819E810E943E2385E290E00E9499
:104180008223D4CF4C816B818A810E944D0B98276A
:10419000892798279E838D83C9CF2D813E81322721
:1041A000232732274C816B818A810E94750ABECFFA
:1041B0000E949B0ABBCF80E18A83B8CF83E08A83C9
:1041C0008AE197CFEA80FB80FE24EF24FE248E0153
:1041D0000F5F1F4FCC80C00ED12ED11CC7018A515A
:1041E0009F4F0C151D0509F4A1CFBAE1EB16B3E002
:1041F000FB0650F40E947423F8018483BFEFEB1A8E
:10420000FB0A0F5F1F4FEACFD80114961C92F6CF1E
:104210000A811B81102701271027FE0131966F01AB
:10422000EC80E00EF12EF11CC8018A519F4FE01680
:10423000F10609F47BCF0A31F3E01F0728F4D60119
:1042400014966C910E948223BFEFCB1ADB0A0F5F9A
:104250001F4FEACF0E94340A69CF84E0ADCFEA80D5
:10426000FB80FE24EF24FE248E010F5F1F4FCC80C5
:10427000C00ED12ED11CC70186960C151D0509F460
:1042800055CFE0EAEE16F10458F40E947423D801E9
:1042900014968C93FFEFEF1AFF0A0F5F1F4FEBCFBF
:1042A000F8011482F7CF0A811B81102701271027FC
:1042B0009E012F5F3F4F6901EC80E00EF12EF11C53
:1042C000C80186960E151F0509F430CF003A110576
:1042D00028F4D60114966C910E948223BFEFCB1A6A
:1042E000DB0A0F5F1F4FECCF41E08C81811101C0D1
:1042F00040E06B818A810E94140B49CF2D813E8161
:1043000032272327322741E08C81811101C040E010
:104310006B818A810E94440A09CF09BD19BD09B485
:1043200000FEFDCF8091D8008F7D8093D8008091D2
:10433000E00082608093E0008091E00081FDFCCF8E
:104340000E946E0CEFCA85E290E00E9474231B82EB
:104350001C821D828E83EACE1092B9008CE080937D
:10436000B8000895B0E0A0E0E8EBF1E20C94B322CD
:10437000B82EEB010E945F116C01EE24E394F12C46
:10438000C431D10560F025E0E22EF12CCF3FDC07EF
:1043900031F0CE0164E170E00E9498227B0184EA52
:1043A000A82E94E8992E1092BC00A092BC000E9406
:1043B0005F118C018091BC0087FF0DC08091B90016
:1043C000887F8830F9F08091B900887F8031D1F002
:1043D0000FEF1FEF08C0C8010E945011E816F90640
:1043E00048F70EEF1FEFCF3FDC07E9F2C6010E944E
:1043F0005011C817D907B8F6C801CDB7DEB7EBE042
:104400000C94CF22B092BB009092BC000E945F112E
:104410008C018091BC0087FF0AC08091B900887F21
:10442000883111F08034A1F610E000E0E5CFC8013A
:104430000E945011E816F90660F7D3CF0F931F932F
:10444000CF93DF93EB018093BB0084E88093BC00A3
:104450000E945F118C018091BC0087FF11C02091E8
:10446000B900287F81E090E0283211F490E080E0EC
:10447000919581959109DF91CF911F910F910895A9
:10448000CF3FDC0741F3C8010E945011C817D9077C
:1044900010F78EEF9FEFEFCFB0E0A0E0E2E5F2E2A1
:1044A0000C94B6226B018A017901B9010E94B221F4
:1044B000E6010C0D1D1DC017D10711F097FF08C0B4
:1044C00024E92093BC00CDB7DEB7E8E00C94D222FB
:1044D000B70189910E941E22EECFB0E0A0E0E3E791
:1044E000F2E20C94B622C62F6A017901B8010E944B
:1044F000B22197FD0CC0B8018C2F0E941E22E6014C
:10450000EC0CFD1CCE15DF0511F097FF08C024E967
:104510002093BC00CDB7DEB7E8E00C94D222B801FE
:1045200089910E941E22EECF84E98093BC000895F9
:10453000AA1BBB1B51E107C0AA1FBB1FA617B707C9
:1045400010F0A61BB70B881F991F5A95A9F78095E5
:104550009095BC01CD0108952F923F924F925F92AA
:104560006F927F928F929F92AF92BF92CF92DF9283
:10457000EF92FF920F931F93CF93DF93CDB7DEB7E8
:10458000CA1BDB0B0FB6F894DEBF0FBECDBF09947C
:104590002A88398848885F846E847D848C849B84D3
:1045A000AA84B984C884DF80EE80FD800C811B81E1
:1045B000AA81B981CE0FD11D0FB6F894DEBF0FBE10
:1045C000CDBFED01089597FB072E16F4009407D098
:1045D00077FD09D00E94982207FC05D03EF4909503
:1045E00081959F4F0895709561957F4F0895A1E241
:1045F0001A2EAA1BBB1BFD010DC0AA1FBB1FEE1F5D
:10460000FF1FA217B307E407F50720F0A21BB30BA7
:10461000E40BF50B661F771F881F991F1A9469F723
:1046200060957095809590959B01AC01BD01CF017F
:104630000895052E97FB1EF400940E94302357FD29
:1046400007D00E94F72207FC03D04EF40C943023CD
:1046500050954095309521953F4F4F4F5F4F0895AE
:1046600090958095709561957F4F8F4F9F4F0895DE
:10467000EE0FFF1F0590F491E02D0994692796270E
:10468000692778278727782708950E945823A59FB0
:10469000900DB49F900DA49F800D911D112408953D
:1046A000B7FF0C9445230E944523821B930B08956A
:1046B000A29FB001B39FC001A39F700D811D112463
:1046C000911DB29F700D811D1124911D0895FB0154
:1046D000DC0104C08D910190801921F441505040BB
:1046E000C8F7881B990B0895F999FECF92BD81BD3B
:1046F000F89A992780B50895A8E1B0E042E050E02B
:104700000C94A823262FF999FECF92BD81BDF89A6B
:10471000019700B4021639F01FBA20BD0FB6F89405
:10472000FA9AF99A0FBE08950396272F0E948323C1
:104730000E948223252F0E948323242F0C948323FD
:104740000196272F0E9483230C948223DC01CB0146
:10475000FC01F999FECF06C0F2BDE1BDF89A319691
:1047600000B40D9241505040B8F70895F894FFCF2F
:10477000650D8D0D300F8D0D300FC00DE10D300F1B
:10478000DF0EEC0E6E13721363136A1376137A1333
:104790007E13FD14FD1438153815D31567156715EC
:1047A0006715ED155A166B166B16BB133014C31331
:1047B0008D139113C7139513CB13D713A11329147A
:1047C000A513DB13A913DF130714AD13E3130E14A2
:1047D000B313E913F1139913CF139D13D313B71325
:1047E000ED13FD13171427148713BF133714772005
:1047F0007B20B120C220CD20D820822082208220A0
:1048000082208220DB20DE20E22008212A212D21A7
:084810002F21532174217E21A8
:104818004105200A4005190A010021007F220003F2
:1048280001818283E200E900EA00B500B600B70022
:10483800CD008301CC008A01920194012102230258
:1048480024022502260227022A02B300B4006F00C0
:1048580070009F01CB019F02A002F4F5F6F76631C4
:1048680033323600FF0100010000FFFF00000100A5
:1048780001FF00359734C65F025F02CE013601ACF6
:10488800008403ED020008101818100800402232B6
:0C4898008A046804360404071D073D076D
:00000001FF
